{
  "_format": "hh-sol-artifact-1",
  "contractName": "AnyNFT",
  "sourceName": "contracts/mocks/AnyNFT.sol",
  "abi": [
    {
      "inputs": [],
      "stateMutability": "nonpayable",
      "type": "constructor"
    },
    {
      "anonymous": false,
      "inputs": [
        {
          "indexed": true,
          "internalType": "address",
          "name": "owner",
          "type": "address"
        },
        {
          "indexed": true,
          "internalType": "address",
          "name": "approved",
          "type": "address"
        },
        {
          "indexed": true,
          "internalType": "uint256",
          "name": "tokenId",
          "type": "uint256"
        }
      ],
      "name": "Approval",
      "type": "event"
    },
    {
      "anonymous": false,
      "inputs": [
        {
          "indexed": true,
          "internalType": "address",
          "name": "owner",
          "type": "address"
        },
        {
          "indexed": true,
          "internalType": "address",
          "name": "operator",
          "type": "address"
        },
        {
          "indexed": false,
          "internalType": "bool",
          "name": "approved",
          "type": "bool"
        }
      ],
      "name": "ApprovalForAll",
      "type": "event"
    },
    {
      "anonymous": false,
      "inputs": [
        {
          "indexed": true,
          "internalType": "address",
          "name": "previousOwner",
          "type": "address"
        },
        {
          "indexed": true,
          "internalType": "address",
          "name": "newOwner",
          "type": "address"
        }
      ],
      "name": "OwnershipTransferred",
      "type": "event"
    },
    {
      "anonymous": false,
      "inputs": [
        {
          "indexed": true,
          "internalType": "address",
          "name": "from",
          "type": "address"
        },
        {
          "indexed": true,
          "internalType": "address",
          "name": "to",
          "type": "address"
        },
        {
          "indexed": true,
          "internalType": "uint256",
          "name": "tokenId",
          "type": "uint256"
        }
      ],
      "name": "Transfer",
      "type": "event"
    },
    {
      "inputs": [
        {
          "internalType": "address",
          "name": "to",
          "type": "address"
        },
        {
          "internalType": "uint256",
          "name": "tokenId",
          "type": "uint256"
        }
      ],
      "name": "approve",
      "outputs": [],
      "stateMutability": "nonpayable",
      "type": "function"
    },
    {
      "inputs": [
        {
          "internalType": "address",
          "name": "owner",
          "type": "address"
        }
      ],
      "name": "balanceOf",
      "outputs": [
        {
          "internalType": "uint256",
          "name": "",
          "type": "uint256"
        }
      ],
      "stateMutability": "view",
      "type": "function"
    },
    {
      "inputs": [
        {
          "internalType": "uint256",
          "name": "tokenId",
          "type": "uint256"
        }
      ],
      "name": "getApproved",
      "outputs": [
        {
          "internalType": "address",
          "name": "",
          "type": "address"
        }
      ],
      "stateMutability": "view",
      "type": "function"
    },
    {
      "inputs": [
        {
          "internalType": "address",
          "name": "owner",
          "type": "address"
        },
        {
          "internalType": "address",
          "name": "operator",
          "type": "address"
        }
      ],
      "name": "isApprovedForAll",
      "outputs": [
        {
          "internalType": "bool",
          "name": "",
          "type": "bool"
        }
      ],
      "stateMutability": "view",
      "type": "function"
    },
    {
      "inputs": [],
      "name": "name",
      "outputs": [
        {
          "internalType": "string",
          "name": "",
          "type": "string"
        }
      ],
      "stateMutability": "view",
      "type": "function"
    },
    {
      "inputs": [],
      "name": "owner",
      "outputs": [
        {
          "internalType": "address",
          "name": "",
          "type": "address"
        }
      ],
      "stateMutability": "view",
      "type": "function"
    },
    {
      "inputs": [
        {
          "internalType": "uint256",
          "name": "tokenId",
          "type": "uint256"
        }
      ],
      "name": "ownerOf",
      "outputs": [
        {
          "internalType": "address",
          "name": "",
          "type": "address"
        }
      ],
      "stateMutability": "view",
      "type": "function"
    },
    {
      "inputs": [],
      "name": "renounceOwnership",
      "outputs": [],
      "stateMutability": "nonpayable",
      "type": "function"
    },
    {
      "inputs": [
        {
          "internalType": "address",
          "name": "to",
          "type": "address"
        },
        {
          "internalType": "uint256",
          "name": "tokenId",
          "type": "uint256"
        }
      ],
      "name": "safeMint",
      "outputs": [],
      "stateMutability": "nonpayable",
      "type": "function"
    },
    {
      "inputs": [
        {
          "internalType": "address",
          "name": "from",
          "type": "address"
        },
        {
          "internalType": "address",
          "name": "to",
          "type": "address"
        },
        {
          "internalType": "uint256",
          "name": "tokenId",
          "type": "uint256"
        }
      ],
      "name": "safeTransferFrom",
      "outputs": [],
      "stateMutability": "nonpayable",
      "type": "function"
    },
    {
      "inputs": [
        {
          "internalType": "address",
          "name": "from",
          "type": "address"
        },
        {
          "internalType": "address",
          "name": "to",
          "type": "address"
        },
        {
          "internalType": "uint256",
          "name": "tokenId",
          "type": "uint256"
        },
        {
          "internalType": "bytes",
          "name": "_data",
          "type": "bytes"
        }
      ],
      "name": "safeTransferFrom",
      "outputs": [],
      "stateMutability": "nonpayable",
      "type": "function"
    },
    {
      "inputs": [
        {
          "internalType": "address",
          "name": "operator",
          "type": "address"
        },
        {
          "internalType": "bool",
          "name": "approved",
          "type": "bool"
        }
      ],
      "name": "setApprovalForAll",
      "outputs": [],
      "stateMutability": "nonpayable",
      "type": "function"
    },
    {
      "inputs": [
        {
          "internalType": "bytes4",
          "name": "interfaceId",
          "type": "bytes4"
        }
      ],
      "name": "supportsInterface",
      "outputs": [
        {
          "internalType": "bool",
          "name": "",
          "type": "bool"
        }
      ],
      "stateMutability": "view",
      "type": "function"
    },
    {
      "inputs": [],
      "name": "symbol",
      "outputs": [
        {
          "internalType": "string",
          "name": "",
          "type": "string"
        }
      ],
      "stateMutability": "view",
      "type": "function"
    },
    {
      "inputs": [
        {
          "internalType": "uint256",
          "name": "index",
          "type": "uint256"
        }
      ],
      "name": "tokenByIndex",
      "outputs": [
        {
          "internalType": "uint256",
          "name": "",
          "type": "uint256"
        }
      ],
      "stateMutability": "view",
      "type": "function"
    },
    {
      "inputs": [
        {
          "internalType": "address",
          "name": "owner",
          "type": "address"
        },
        {
          "internalType": "uint256",
          "name": "index",
          "type": "uint256"
        }
      ],
      "name": "tokenOfOwnerByIndex",
      "outputs": [
        {
          "internalType": "uint256",
          "name": "",
          "type": "uint256"
        }
      ],
      "stateMutability": "view",
      "type": "function"
    },
    {
      "inputs": [
        {
          "internalType": "uint256",
          "name": "tokenId",
          "type": "uint256"
        }
      ],
      "name": "tokenURI",
      "outputs": [
        {
          "internalType": "string",
          "name": "",
          "type": "string"
        }
      ],
      "stateMutability": "view",
      "type": "function"
    },
    {
      "inputs": [],
      "name": "totalSupply",
      "outputs": [
        {
          "internalType": "uint256",
          "name": "",
          "type": "uint256"
        }
      ],
      "stateMutability": "view",
      "type": "function"
    },
    {
      "inputs": [
        {
          "internalType": "address",
          "name": "from",
          "type": "address"
        },
        {
          "internalType": "address",
          "name": "to",
          "type": "address"
        },
        {
          "internalType": "uint256",
          "name": "tokenId",
          "type": "uint256"
        }
      ],
      "name": "transferFrom",
      "outputs": [],
      "stateMutability": "nonpayable",
      "type": "function"
    },
    {
      "inputs": [
        {
          "internalType": "address",
          "name": "newOwner",
          "type": "address"
        }
      ],
      "name": "transferOwnership",
      "outputs": [],
      "stateMutability": "nonpayable",
      "type": "function"
    }
  ],
  "bytecode": "0x60806040523480156200001157600080fd5b506040805180820182526006815265105b9e53919560d21b6020808301918252835180850190945260048452631853919560e21b9084015281519192916200005c91600091620000eb565b50805162000072906001906020840190620000eb565b5050506200008f620000896200009560201b60201c565b62000099565b620001ce565b3390565b600a80546001600160a01b038381166001600160a01b0319831681179093556040519116919082907f8be0079c531659141344cd1fd0a4f28419497f9722a3daafe3b4186f6b6457e090600090a35050565b828054620000f99062000191565b90600052602060002090601f0160209004810192826200011d576000855562000168565b82601f106200013857805160ff191683800117855562000168565b8280016001018555821562000168579182015b82811115620001685782518255916020019190600101906200014b565b50620001769291506200017a565b5090565b5b808211156200017657600081556001016200017b565b600281046001821680620001a657607f821691505b60208210811415620001c857634e487b7160e01b600052602260045260246000fd5b50919050565b611b4680620001de6000396000f3fe608060405234801561001057600080fd5b506004361061012c5760003560e01c806370a08231116100ad578063a22cb46511610071578063a22cb46514610256578063b88d4fde14610269578063c87b56dd1461027c578063e985e9c51461028f578063f2fde38b146102a25761012c565b806370a0823114610218578063715018a61461022b5780638da5cb5b1461023357806395d89b411461023b578063a1448194146102435761012c565b806323b872dd116100f457806323b872dd146101b95780632f745c59146101cc57806342842e0e146101df5780634f6ccce7146101f25780636352211e146102055761012c565b806301ffc9a71461013157806306fdde031461015a578063081812fc1461016f578063095ea7b31461018f57806318160ddd146101a4575b600080fd5b61014461013f3660046113bf565b6102b5565b60405161015191906114bb565b60405180910390f35b6101626102c8565b60405161015191906114c6565b61018261017d3660046113f7565b61035a565b604051610151919061146a565b6101a261019d366004611396565b6103a6565b005b6101ac61043e565b60405161015191906119d6565b6101a26101c7366004611255565b610444565b6101ac6101da366004611396565b61047c565b6101a26101ed366004611255565b6104ce565b6101ac6102003660046113f7565b6104e9565b6101826102133660046113f7565b610544565b6101ac610226366004611209565b610579565b6101a26105bd565b610182610608565b610162610617565b6101a2610251366004611396565b610626565b6101a261026436600461135c565b610673565b6101a2610277366004611290565b610741565b61016261028a3660046113f7565b610780565b61014461029d366004611223565b610803565b6101a26102b0366004611209565b610831565b60006102c0826108a2565b90505b919050565b6060600080546102d790611a4e565b80601f016020809104026020016040519081016040528092919081815260200182805461030390611a4e565b80156103505780601f1061032557610100808354040283529160200191610350565b820191906000526020600020905b81548152906001019060200180831161033357829003601f168201915b5050505050905090565b6000610365826108c7565b61038a5760405162461bcd60e51b8152600401610381906117df565b60405180910390fd5b506000908152600460205260409020546001600160a01b031690565b60006103b182610544565b9050806001600160a01b0316836001600160a01b031614156103e55760405162461bcd60e51b8152600401610381906118f8565b806001600160a01b03166103f76108e4565b6001600160a01b0316148061041357506104138161029d6108e4565b61042f5760405162461bcd60e51b8152600401610381906116ba565b61043983836108e8565b505050565b60085490565b61045561044f6108e4565b82610956565b6104715760405162461bcd60e51b815260040161038190611939565b6104398383836109db565b600061048783610579565b82106104a55760405162461bcd60e51b8152600401610381906114d9565b506001600160a01b03919091166000908152600660209081526040808320938352929052205490565b61043983838360405180602001604052806000815250610741565b60006104f361043e565b82106105115760405162461bcd60e51b81526004016103819061198a565b6008828154811061053257634e487b7160e01b600052603260045260246000fd5b90600052602060002001549050919050565b6000818152600260205260408120546001600160a01b0316806102c05760405162461bcd60e51b815260040161038190611761565b60006001600160a01b0382166105a15760405162461bcd60e51b815260040161038190611717565b506001600160a01b031660009081526003602052604090205490565b6105c56108e4565b6001600160a01b03166105d6610608565b6001600160a01b0316146105fc5760405162461bcd60e51b81526004016103819061182b565b6106066000610b08565b565b600a546001600160a01b031690565b6060600180546102d790611a4e565b61062e6108e4565b6001600160a01b031661063f610608565b6001600160a01b0316146106655760405162461bcd60e51b81526004016103819061182b565b61066f8282610b5a565b5050565b61067b6108e4565b6001600160a01b0316826001600160a01b031614156106ac5760405162461bcd60e51b815260040161038190611637565b80600560006106b96108e4565b6001600160a01b03908116825260208083019390935260409182016000908120918716808252919093529120805460ff1916921515929092179091556106fd6108e4565b6001600160a01b03167f17307eab39ab6107e8899845ad3d59bd9653f200f220920489ca2b5937696c318360405161073591906114bb565b60405180910390a35050565b61075261074c6108e4565b83610956565b61076e5760405162461bcd60e51b815260040161038190611939565b61077a84848484610b74565b50505050565b606061078b826108c7565b6107a75760405162461bcd60e51b8152600401610381906118a9565b60006107b1610ba7565b905060008151116107d157604051806020016040528060008152506107fc565b806107db84610bb9565b6040516020016107ec92919061143b565b6040516020818303038152906040525b9392505050565b6001600160a01b03918216600090815260056020908152604080832093909416825291909152205460ff1690565b6108396108e4565b6001600160a01b031661084a610608565b6001600160a01b0316146108705760405162461bcd60e51b81526004016103819061182b565b6001600160a01b0381166108965760405162461bcd60e51b815260040161038190611576565b61089f81610b08565b50565b60006001600160e01b0319821663780e9d6360e01b14806102c057506102c082610cd4565b6000908152600260205260409020546001600160a01b0316151590565b3390565b600081815260046020526040902080546001600160a01b0319166001600160a01b038416908117909155819061091d82610544565b6001600160a01b03167f8c5be1e5ebec7d5bd14f71427d1e84f3dd0314c0f7b2291e5b200ac8c7c3b92560405160405180910390a45050565b6000610961826108c7565b61097d5760405162461bcd60e51b81526004016103819061166e565b600061098883610544565b9050806001600160a01b0316846001600160a01b031614806109c35750836001600160a01b03166109b88461035a565b6001600160a01b0316145b806109d357506109d38185610803565b949350505050565b826001600160a01b03166109ee82610544565b6001600160a01b031614610a145760405162461bcd60e51b815260040161038190611860565b6001600160a01b038216610a3a5760405162461bcd60e51b8152600401610381906115f3565b610a45838383610d14565b610a506000826108e8565b6001600160a01b0383166000908152600360205260408120805460019290610a79908490611a0b565b90915550506001600160a01b0382166000908152600360205260408120805460019290610aa79084906119df565b909155505060008181526002602052604080822080546001600160a01b0319166001600160a01b0386811691821790925591518493918716917fddf252ad1be2c89b69c2b068fc378daa952ba7f163c4a11628f55a4df523b3ef91a4505050565b600a80546001600160a01b038381166001600160a01b0319831681179093556040519116919082907f8be0079c531659141344cd1fd0a4f28419497f9722a3daafe3b4186f6b6457e090600090a35050565b61066f828260405180602001604052806000815250610d1f565b610b7f8484846109db565b610b8b84848484610d52565b61077a5760405162461bcd60e51b815260040161038190611524565b60408051602081019091526000815290565b606081610bde57506040805180820190915260018152600360fc1b60208201526102c3565b8160005b8115610c085780610bf281611a89565b9150610c019050600a836119f7565b9150610be2565b60008167ffffffffffffffff811115610c3157634e487b7160e01b600052604160045260246000fd5b6040519080825280601f01601f191660200182016040528015610c5b576020820181803683370190505b5090505b84156109d357610c70600183611a0b565b9150610c7d600a86611aa4565b610c889060306119df565b60f81b818381518110610cab57634e487b7160e01b600052603260045260246000fd5b60200101906001600160f81b031916908160001a905350610ccd600a866119f7565b9450610c5f565b60006001600160e01b031982166380ac58cd60e01b1480610d0557506001600160e01b03198216635b5e139f60e01b145b806102c057506102c082610e6d565b610439838383610e86565b610d298383610f0f565b610d366000848484610d52565b6104395760405162461bcd60e51b815260040161038190611524565b6000610d66846001600160a01b0316610fee565b15610e6257836001600160a01b031663150b7a02610d826108e4565b8786866040518563ffffffff1660e01b8152600401610da4949392919061147e565b602060405180830381600087803b158015610dbe57600080fd5b505af1925050508015610dee575060408051601f3d908101601f19168201909252610deb918101906113db565b60015b610e48573d808015610e1c576040519150601f19603f3d011682016040523d82523d6000602084013e610e21565b606091505b508051610e405760405162461bcd60e51b815260040161038190611524565b805181602001fd5b6001600160e01b031916630a85bd0160e11b1490506109d3565b506001949350505050565b6001600160e01b031981166301ffc9a760e01b14919050565b610e91838383610439565b6001600160a01b038316610ead57610ea881610ff4565b610ed0565b816001600160a01b0316836001600160a01b031614610ed057610ed08382611038565b6001600160a01b038216610eec57610ee7816110d5565b610439565b826001600160a01b0316826001600160a01b0316146104395761043982826111ae565b6001600160a01b038216610f355760405162461bcd60e51b8152600401610381906117aa565b610f3e816108c7565b15610f5b5760405162461bcd60e51b8152600401610381906115bc565b610f6760008383610d14565b6001600160a01b0382166000908152600360205260408120805460019290610f909084906119df565b909155505060008181526002602052604080822080546001600160a01b0319166001600160a01b03861690811790915590518392907fddf252ad1be2c89b69c2b068fc378daa952ba7f163c4a11628f55a4df523b3ef908290a45050565b3b151590565b600880546000838152600960205260408120829055600182018355919091527ff3f7a9fe364faab93b216da50a3214154f22a0a2b415b23a84c8169e8b636ee30155565b6000600161104584610579565b61104f9190611a0b565b6000838152600760205260409020549091508082146110a2576001600160a01b03841660009081526006602090815260408083208584528252808320548484528184208190558352600790915290208190555b5060009182526007602090815260408084208490556001600160a01b039094168352600681528383209183525290812055565b6008546000906110e790600190611a0b565b6000838152600960205260408120546008805493945090928490811061111d57634e487b7160e01b600052603260045260246000fd5b90600052602060002001549050806008838154811061114c57634e487b7160e01b600052603260045260246000fd5b600091825260208083209091019290925582815260099091526040808220849055858252812055600880548061119257634e487b7160e01b600052603160045260246000fd5b6001900381819060005260206000200160009055905550505050565b60006111b983610579565b6001600160a01b039093166000908152600660209081526040808320868452825280832085905593825260079052919091209190915550565b80356001600160a01b03811681146102c357600080fd5b60006020828403121561121a578081fd5b6107fc826111f2565b60008060408385031215611235578081fd5b61123e836111f2565b915061124c602084016111f2565b90509250929050565b600080600060608486031215611269578081fd5b611272846111f2565b9250611280602085016111f2565b9150604084013590509250925092565b600080600080608085870312156112a5578081fd5b6112ae856111f2565b935060206112bd8187016111f2565b935060408601359250606086013567ffffffffffffffff808211156112e0578384fd5b818801915088601f8301126112f3578384fd5b81358181111561130557611305611ae4565b604051601f8201601f191681018501838111828210171561132857611328611ae4565b60405281815283820185018b101561133e578586fd5b81858501868301379081019093019390935250939692955090935050565b6000806040838503121561136e578182fd5b611377836111f2565b91506020830135801515811461138b578182fd5b809150509250929050565b600080604083850312156113a8578182fd5b6113b1836111f2565b946020939093013593505050565b6000602082840312156113d0578081fd5b81356107fc81611afa565b6000602082840312156113ec578081fd5b81516107fc81611afa565b600060208284031215611408578081fd5b5035919050565b60008151808452611427816020860160208601611a22565b601f01601f19169290920160200192915050565b6000835161144d818460208801611a22565b835190830190611461818360208801611a22565b01949350505050565b6001600160a01b0391909116815260200190565b6001600160a01b03858116825284166020820152604081018390526080606082018190526000906114b19083018461140f565b9695505050505050565b901515815260200190565b6000602082526107fc602083018461140f565b6020808252602b908201527f455243373231456e756d657261626c653a206f776e657220696e646578206f7560408201526a74206f6620626f756e647360a81b606082015260800190565b60208082526032908201527f4552433732313a207472616e7366657220746f206e6f6e20455243373231526560408201527131b2b4bb32b91034b6b83632b6b2b73a32b960711b606082015260800190565b60208082526026908201527f4f776e61626c653a206e6577206f776e657220697320746865207a65726f206160408201526564647265737360d01b606082015260800190565b6020808252601c908201527f4552433732313a20746f6b656e20616c7265616479206d696e74656400000000604082015260600190565b60208082526024908201527f4552433732313a207472616e7366657220746f20746865207a65726f206164646040820152637265737360e01b606082015260800190565b60208082526019908201527f4552433732313a20617070726f766520746f2063616c6c657200000000000000604082015260600190565b6020808252602c908201527f4552433732313a206f70657261746f7220717565727920666f72206e6f6e657860408201526b34b9ba32b73a103a37b5b2b760a11b606082015260800190565b60208082526038908201527f4552433732313a20617070726f76652063616c6c6572206973206e6f74206f7760408201527f6e6572206e6f7220617070726f76656420666f7220616c6c0000000000000000606082015260800190565b6020808252602a908201527f4552433732313a2062616c616e636520717565727920666f7220746865207a65604082015269726f206164647265737360b01b606082015260800190565b60208082526029908201527f4552433732313a206f776e657220717565727920666f72206e6f6e657869737460408201526832b73a103a37b5b2b760b91b606082015260800190565b6020808252818101527f4552433732313a206d696e7420746f20746865207a65726f2061646472657373604082015260600190565b6020808252602c908201527f4552433732313a20617070726f76656420717565727920666f72206e6f6e657860408201526b34b9ba32b73a103a37b5b2b760a11b606082015260800190565b6020808252818101527f4f776e61626c653a2063616c6c6572206973206e6f7420746865206f776e6572604082015260600190565b60208082526029908201527f4552433732313a207472616e73666572206f6620746f6b656e2074686174206960408201526839903737ba1037bbb760b91b606082015260800190565b6020808252602f908201527f4552433732314d657461646174613a2055524920717565727920666f72206e6f60408201526e3732bc34b9ba32b73a103a37b5b2b760891b606082015260800190565b60208082526021908201527f4552433732313a20617070726f76616c20746f2063757272656e74206f776e656040820152603960f91b606082015260800190565b60208082526031908201527f4552433732313a207472616e736665722063616c6c6572206973206e6f74206f6040820152701ddb995c881b9bdc88185c1c1c9bdd9959607a1b606082015260800190565b6020808252602c908201527f455243373231456e756d657261626c653a20676c6f62616c20696e646578206f60408201526b7574206f6620626f756e647360a01b606082015260800190565b90815260200190565b600082198211156119f2576119f2611ab8565b500190565b600082611a0657611a06611ace565b500490565b600082821015611a1d57611a1d611ab8565b500390565b60005b83811015611a3d578181015183820152602001611a25565b8381111561077a5750506000910152565b600281046001821680611a6257607f821691505b60208210811415611a8357634e487b7160e01b600052602260045260246000fd5b50919050565b6000600019821415611a9d57611a9d611ab8565b5060010190565b600082611ab357611ab3611ace565b500690565b634e487b7160e01b600052601160045260246000fd5b634e487b7160e01b600052601260045260246000fd5b634e487b7160e01b600052604160045260246000fd5b6001600160e01b03198116811461089f57600080fdfea2646970667358221220760725a07c3047c6862884fabb3c5ab5b12339e9d90602e06474f7c440c10c8564736f6c63430008000033",
  "linkReferences": {},
  "deployedLinkReferences": {}
}