{
  "_format": "hh-sol-artifact-1",
  "contractName": "Global",
  "sourceName": "contracts/control/Global.sol",
  "abi": [
    {
      "inputs": [],
      "stateMutability": "nonpayable",
      "type": "constructor"
    },
    {
      "anonymous": false,
      "inputs": [
        {
          "indexed": false,
          "internalType": "address",
          "name": "account",
          "type": "address"
        }
      ],
      "name": "Paused",
      "type": "event"
    },
    {
      "anonymous": false,
      "inputs": [
        {
          "indexed": true,
          "internalType": "bytes32",
          "name": "role",
          "type": "bytes32"
        },
        {
          "indexed": true,
          "internalType": "bytes32",
          "name": "previousAdminRole",
          "type": "bytes32"
        },
        {
          "indexed": true,
          "internalType": "bytes32",
          "name": "newAdminRole",
          "type": "bytes32"
        }
      ],
      "name": "RoleAdminChanged",
      "type": "event"
    },
    {
      "anonymous": false,
      "inputs": [
        {
          "indexed": true,
          "internalType": "bytes32",
          "name": "role",
          "type": "bytes32"
        },
        {
          "indexed": true,
          "internalType": "address",
          "name": "account",
          "type": "address"
        },
        {
          "indexed": true,
          "internalType": "address",
          "name": "sender",
          "type": "address"
        }
      ],
      "name": "RoleGranted",
      "type": "event"
    },
    {
      "anonymous": false,
      "inputs": [
        {
          "indexed": true,
          "internalType": "bytes32",
          "name": "role",
          "type": "bytes32"
        },
        {
          "indexed": true,
          "internalType": "address",
          "name": "account",
          "type": "address"
        },
        {
          "indexed": true,
          "internalType": "address",
          "name": "sender",
          "type": "address"
        }
      ],
      "name": "RoleRevoked",
      "type": "event"
    },
    {
      "anonymous": false,
      "inputs": [
        {
          "indexed": false,
          "internalType": "address",
          "name": "account",
          "type": "address"
        }
      ],
      "name": "Unpaused",
      "type": "event"
    },
    {
      "inputs": [],
      "name": "DEFAULT_ADMIN_ROLE",
      "outputs": [
        {
          "internalType": "bytes32",
          "name": "",
          "type": "bytes32"
        }
      ],
      "stateMutability": "view",
      "type": "function"
    },
    {
      "inputs": [
        {
          "internalType": "uint256",
          "name": "_creatorFee",
          "type": "uint256"
        }
      ],
      "name": "changeCreatorFee",
      "outputs": [],
      "stateMutability": "nonpayable",
      "type": "function"
    },
    {
      "inputs": [
        {
          "internalType": "address",
          "name": "_dollarZoombies",
          "type": "address"
        }
      ],
      "name": "changeDollarZoombiesAddress",
      "outputs": [],
      "stateMutability": "nonpayable",
      "type": "function"
    },
    {
      "inputs": [
        {
          "internalType": "uint256",
          "name": "_maxAuctionTime",
          "type": "uint256"
        }
      ],
      "name": "changeMaxAuctionTime",
      "outputs": [],
      "stateMutability": "nonpayable",
      "type": "function"
    },
    {
      "inputs": [
        {
          "internalType": "uint256",
          "name": "_maxNFTCount",
          "type": "uint256"
        }
      ],
      "name": "changeMaxNFTCount",
      "outputs": [],
      "stateMutability": "nonpayable",
      "type": "function"
    },
    {
      "inputs": [
        {
          "internalType": "uint256",
          "name": "_zoombiesFee",
          "type": "uint256"
        }
      ],
      "name": "changeZoombiesFee",
      "outputs": [],
      "stateMutability": "nonpayable",
      "type": "function"
    },
    {
      "inputs": [],
      "name": "creatorFee",
      "outputs": [
        {
          "internalType": "uint256",
          "name": "",
          "type": "uint256"
        }
      ],
      "stateMutability": "view",
      "type": "function"
    },
    {
      "inputs": [],
      "name": "dollarZoombies",
      "outputs": [
        {
          "internalType": "address",
          "name": "",
          "type": "address"
        }
      ],
      "stateMutability": "view",
      "type": "function"
    },
    {
      "inputs": [
        {
          "internalType": "bytes32",
          "name": "role",
          "type": "bytes32"
        }
      ],
      "name": "getRoleAdmin",
      "outputs": [
        {
          "internalType": "bytes32",
          "name": "",
          "type": "bytes32"
        }
      ],
      "stateMutability": "view",
      "type": "function"
    },
    {
      "inputs": [
        {
          "internalType": "bytes32",
          "name": "role",
          "type": "bytes32"
        },
        {
          "internalType": "address",
          "name": "account",
          "type": "address"
        }
      ],
      "name": "grantRole",
      "outputs": [],
      "stateMutability": "nonpayable",
      "type": "function"
    },
    {
      "inputs": [
        {
          "internalType": "bytes32",
          "name": "role",
          "type": "bytes32"
        },
        {
          "internalType": "address",
          "name": "account",
          "type": "address"
        }
      ],
      "name": "hasRole",
      "outputs": [
        {
          "internalType": "bool",
          "name": "",
          "type": "bool"
        }
      ],
      "stateMutability": "view",
      "type": "function"
    },
    {
      "inputs": [],
      "name": "maxAuctionTime",
      "outputs": [
        {
          "internalType": "uint256",
          "name": "",
          "type": "uint256"
        }
      ],
      "stateMutability": "view",
      "type": "function"
    },
    {
      "inputs": [],
      "name": "maxNFTCount",
      "outputs": [
        {
          "internalType": "uint256",
          "name": "",
          "type": "uint256"
        }
      ],
      "stateMutability": "view",
      "type": "function"
    },
    {
      "inputs": [],
      "name": "pause",
      "outputs": [],
      "stateMutability": "nonpayable",
      "type": "function"
    },
    {
      "inputs": [],
      "name": "paused",
      "outputs": [
        {
          "internalType": "bool",
          "name": "",
          "type": "bool"
        }
      ],
      "stateMutability": "view",
      "type": "function"
    },
    {
      "inputs": [
        {
          "internalType": "bytes32",
          "name": "role",
          "type": "bytes32"
        },
        {
          "internalType": "address",
          "name": "account",
          "type": "address"
        }
      ],
      "name": "renounceRole",
      "outputs": [],
      "stateMutability": "nonpayable",
      "type": "function"
    },
    {
      "inputs": [
        {
          "internalType": "bytes32",
          "name": "role",
          "type": "bytes32"
        },
        {
          "internalType": "address",
          "name": "account",
          "type": "address"
        }
      ],
      "name": "revokeRole",
      "outputs": [],
      "stateMutability": "nonpayable",
      "type": "function"
    },
    {
      "inputs": [
        {
          "internalType": "bytes4",
          "name": "interfaceId",
          "type": "bytes4"
        }
      ],
      "name": "supportsInterface",
      "outputs": [
        {
          "internalType": "bool",
          "name": "",
          "type": "bool"
        }
      ],
      "stateMutability": "view",
      "type": "function"
    },
    {
      "inputs": [
        {
          "internalType": "address",
          "name": "",
          "type": "address"
        }
      ],
      "name": "tokenWhitelist",
      "outputs": [
        {
          "internalType": "bool",
          "name": "",
          "type": "bool"
        }
      ],
      "stateMutability": "view",
      "type": "function"
    },
    {
      "inputs": [],
      "name": "unpause",
      "outputs": [],
      "stateMutability": "nonpayable",
      "type": "function"
    },
    {
      "inputs": [
        {
          "internalType": "address",
          "name": "token",
          "type": "address"
        },
        {
          "internalType": "bool",
          "name": "isWhitelisted",
          "type": "bool"
        }
      ],
      "name": "whitelistToken",
      "outputs": [],
      "stateMutability": "nonpayable",
      "type": "function"
    },
    {
      "inputs": [],
      "name": "zoombiesFee",
      "outputs": [
        {
          "internalType": "uint256",
          "name": "",
          "type": "uint256"
        }
      ],
      "stateMutability": "view",
      "type": "function"
    }
  ],
  "bytecode": "0x608060405234801561001057600080fd5b506001805460ff19169055600560038190556002819055600480546001600160a01b031916339081179091556212750090915560ff60065561005490600090610064565b61005f600080610072565b61018c565b61006e82826100c5565b5050565b600061007d8361014a565b600084815260208190526040808220600101859055519192508391839186917fbd79b86ffe0ab8e8776151514217cd7cacd52c909f66475c3af44e129f0b00ff9190a4505050565b6100cf828261015f565b61006e576000828152602081815260408083206001600160a01b03851684529091529020805460ff19166001179055610106610188565b6001600160a01b0316816001600160a01b0316837f2f8788117e7eff1d82e926ec794901d17c78024a50270940304540a733656f0d60405160405180910390a45050565b60009081526020819052604090206001015490565b6000918252602082815260408084206001600160a01b0393909316845291905290205460ff1690565b3390565b610e4c8061019b6000396000f3fe608060405234801561001057600080fd5b50600436106101425760003560e01c80638456cb59116100b8578063a29b549a1161007c578063a29b549a1461025c578063a7f56c641461026f578063d547741f14610282578063e3c55e4014610295578063e88958dc146102a8578063f64989fe146102b057610142565b80638456cb591461021e5780638667f74814610226578063869e7ebb1461022e57806391d1485414610241578063a217fddf1461025457610142565b80633f4ba83a1161010a5780633f4ba83a146101cb578063518b057e146101d35780635c975abb146101db578063753d7563146101e357806377e71637146101f657806382f16cea1461020b57610142565b806301ffc9a7146101475780630ffb1d8b14610170578063248a9ca3146101855780632f2ff15d146101a557806336568abe146101b8575b600080fd5b61015a610155366004610b10565b6102b8565b6040516101679190610bc1565b60405180910390f35b61018361017e366004610a93565b6102e5565b005b610198610193366004610acd565b610340565b6040516101679190610bcc565b6101836101b3366004610ae5565b610355565b6101836101c6366004610ae5565b61037e565b6101836103c4565b6101986103f5565b61015a6103fb565b61015a6101f1366004610a79565b610404565b6101fe610419565b6040516101679190610bad565b610183610219366004610acd565b610428565b610183610475565b6101986104a4565b61018361023c366004610acd565b6104aa565b61015a61024f366004610ae5565b610501565b61019861052a565b61018361026a366004610a79565b61052f565b61018361027d366004610acd565b610578565b610183610290366004610ae5565b6105d6565b6101836102a3366004610acd565b6105f5565b61019861064c565b610198610652565b60006001600160e01b03198216637965db0b60e01b14806102dd57506102dd82610658565b90505b919050565b6102f0600033610501565b6103155760405162461bcd60e51b815260040161030c90610cc2565b60405180910390fd5b6001600160a01b03919091166000908152600760205260409020805460ff1916911515919091179055565b60009081526020819052604090206001015490565b61035e82610340565b61036f8161036a610671565b610675565b61037983836106d9565b505050565b610386610671565b6001600160a01b0316816001600160a01b0316146103b65760405162461bcd60e51b815260040161030c90610d33565b6103c0828261075e565b5050565b6103cf600033610501565b6103eb5760405162461bcd60e51b815260040161030c90610cc2565b6103f36107e1565b565b60055481565b60015460ff1690565b60076020526000908152604090205460ff1681565b6004546001600160a01b031681565b610433600033610501565b61044f5760405162461bcd60e51b815260040161030c90610cc2565b60018110156104705760405162461bcd60e51b815260040161030c90610c6b565b600655565b610480600033610501565b61049c5760405162461bcd60e51b815260040161030c90610cc2565b6103f361084f565b60035481565b6104b5600033610501565b6104d15760405162461bcd60e51b815260040161030c90610cc2565b601481111580156104e0575060015b6104fc5760405162461bcd60e51b815260040161030c90610d0c565b600355565b6000918252602082815260408084206001600160a01b0393909316845291905290205460ff1690565b600081565b61053a600033610501565b6105565760405162461bcd60e51b815260040161030c90610cc2565b600480546001600160a01b0319166001600160a01b0392909216919091179055565b610583600033610501565b61059f5760405162461bcd60e51b815260040161030c90610cc2565b6224ea0081111580156105b55750621275008110155b6105d15760405162461bcd60e51b815260040161030c90610d0c565b600555565b6105df82610340565b6105eb8161036a610671565b610379838361075e565b610600600033610501565b61061c5760405162461bcd60e51b815260040161030c90610cc2565b6014811115801561062b575060015b6106475760405162461bcd60e51b815260040161030c90610d0c565b600255565b60025481565b60065481565b6001600160e01b031981166301ffc9a760e01b14919050565b3390565b61067f8282610501565b6103c057610697816001600160a01b031660146108a9565b6106a28360206108a9565b6040516020016106b3929190610b38565b60408051601f198184030181529082905262461bcd60e51b825261030c91600401610bd5565b6106e38282610501565b6103c0576000828152602081815260408083206001600160a01b03851684529091529020805460ff1916600117905561071a610671565b6001600160a01b0316816001600160a01b0316837f2f8788117e7eff1d82e926ec794901d17c78024a50270940304540a733656f0d60405160405180910390a45050565b6107688282610501565b156103c0576000828152602081815260408083206001600160a01b03851684529091529020805460ff1916905561079d610671565b6001600160a01b0316816001600160a01b0316837ff6391f5c32d9c69d2a47ea670b442974b53935d1edc7fd64eb21e047a839171b60405160405180910390a45050565b6107e96103fb565b6108055760405162461bcd60e51b815260040161030c90610c3d565b6001805460ff191690557f5db9ee0a495bf2e6ff9c91a7834c1ba4fdd244a5e8aa4e537bd38aeae4b073aa610838610671565b6040516108459190610bad565b60405180910390a1565b6108576103fb565b156108745760405162461bcd60e51b815260040161030c90610c98565b6001805460ff1916811790557f62e78cea01bee320cd4e420270b5ea74000d11b0c9f74754ebdbfc544b05a258610838610671565b606060006108b8836002610d9a565b6108c3906002610d82565b67ffffffffffffffff8111156108e957634e487b7160e01b600052604160045260246000fd5b6040519080825280601f01601f191660200182016040528015610913576020820181803683370190505b509050600360fc1b8160008151811061093c57634e487b7160e01b600052603260045260246000fd5b60200101906001600160f81b031916908160001a905350600f60fb1b8160018151811061097957634e487b7160e01b600052603260045260246000fd5b60200101906001600160f81b031916908160001a905350600061099d846002610d9a565b6109a8906001610d82565b90505b6001811115610a3c576f181899199a1a9b1b9c1cb0b131b232b360811b85600f16601081106109ea57634e487b7160e01b600052603260045260246000fd5b1a60f81b828281518110610a0e57634e487b7160e01b600052603260045260246000fd5b60200101906001600160f81b031916908160001a90535060049490941c93610a3581610de9565b90506109ab565b508315610a5b5760405162461bcd60e51b815260040161030c90610c08565b9392505050565b80356001600160a01b03811681146102e057600080fd5b600060208284031215610a8a578081fd5b610a5b82610a62565b60008060408385031215610aa5578081fd5b610aae83610a62565b915060208301358015158114610ac2578182fd5b809150509250929050565b600060208284031215610ade578081fd5b5035919050565b60008060408385031215610af7578182fd5b82359150610b0760208401610a62565b90509250929050565b600060208284031215610b21578081fd5b81356001600160e01b031981168114610a5b578182fd5b60007f416363657373436f6e74726f6c3a206163636f756e742000000000000000000082528351610b70816017850160208801610db9565b7001034b99036b4b9b9b4b733903937b6329607d1b6017918401918201528351610ba1816028840160208801610db9565b01602801949350505050565b6001600160a01b0391909116815260200190565b901515815260200190565b90815260200190565b6000602082528251806020840152610bf4816040850160208701610db9565b601f01601f19169190910160400192915050565b6020808252818101527f537472696e67733a20686578206c656e67746820696e73756666696369656e74604082015260600190565b60208082526014908201527314185d5cd8589b194e881b9bdd081c185d5cd95960621b604082015260600190565b6020808252601390820152721a5b9d985b1a590813585e13919510dbdd5b9d606a1b604082015260600190565b60208082526010908201526f14185d5cd8589b194e881c185d5cd95960821b604082015260600190565b6020808252602a908201527f5a6f6f6d626965734e46543a205573657220646f6573206e6f7420686176652060408201526961646d696e20726f6c6560b01b606082015260800190565b6020808252600d908201526c6e6f7420696e20626f756e647360981b604082015260600190565b6020808252602f908201527f416363657373436f6e74726f6c3a2063616e206f6e6c792072656e6f756e636560408201526e103937b632b9903337b91039b2b63360891b606082015260800190565b60008219821115610d9557610d95610e00565b500190565b6000816000190483118215151615610db457610db4610e00565b500290565b60005b83811015610dd4578181015183820152602001610dbc565b83811115610de3576000848401525b50505050565b600081610df857610df8610e00565b506000190190565b634e487b7160e01b600052601160045260246000fdfea2646970667358221220c7c130875a9ec8c46a11bb3261c676cd3bbd715737cb738cf9ccff7f41c0b2f964736f6c63430008000033",
  "linkReferences": {},
  "deployedLinkReferences": {}
}