{
  "_format": "hh-sol-artifact-1",
  "contractName": "ZoombiesMarketPlace",
  "sourceName": "contracts/ZoombiesMarketplace.sol",
  "abi": [
    {
      "inputs": [
        {
          "internalType": "address",
          "name": "_zoomContract",
          "type": "address"
        },
        {
          "internalType": "address payable",
          "name": "xMovr",
          "type": "address"
        }
      ],
      "stateMutability": "nonpayable",
      "type": "constructor"
    },
    {
      "anonymous": false,
      "inputs": [
        {
          "indexed": true,
          "internalType": "uint256",
          "name": "itemNumber",
          "type": "uint256"
        },
        {
          "indexed": false,
          "internalType": "uint256",
          "name": "bidAmount",
          "type": "uint256"
        },
        {
          "indexed": true,
          "internalType": "address",
          "name": "bidder",
          "type": "address"
        },
        {
          "indexed": false,
          "internalType": "uint256[]",
          "name": "tokenIds",
          "type": "uint256[]"
        }
      ],
      "name": "Bid",
      "type": "event"
    },
    {
      "anonymous": false,
      "inputs": [
        {
          "indexed": true,
          "internalType": "uint256",
          "name": "itemNumber",
          "type": "uint256"
        },
        {
          "indexed": false,
          "internalType": "uint256",
          "name": "auctionEnd",
          "type": "uint256"
        },
        {
          "indexed": true,
          "internalType": "address",
          "name": "seller",
          "type": "address"
        },
        {
          "indexed": false,
          "internalType": "uint256[]",
          "name": "tokenIds",
          "type": "uint256[]"
        },
        {
          "indexed": false,
          "internalType": "address",
          "name": "saleToken",
          "type": "address"
        },
        {
          "indexed": true,
          "internalType": "address",
          "name": "nftToken",
          "type": "address"
        },
        {
          "indexed": false,
          "internalType": "uint256",
          "name": "minPrice",
          "type": "uint256"
        },
        {
          "indexed": false,
          "internalType": "uint256",
          "name": "zoomBurned",
          "type": "uint256"
        }
      ],
      "name": "ItemListed",
      "type": "event"
    },
    {
      "anonymous": false,
      "inputs": [
        {
          "indexed": false,
          "internalType": "address",
          "name": "account",
          "type": "address"
        }
      ],
      "name": "Paused",
      "type": "event"
    },
    {
      "anonymous": false,
      "inputs": [
        {
          "indexed": true,
          "internalType": "bytes32",
          "name": "role",
          "type": "bytes32"
        },
        {
          "indexed": true,
          "internalType": "bytes32",
          "name": "previousAdminRole",
          "type": "bytes32"
        },
        {
          "indexed": true,
          "internalType": "bytes32",
          "name": "newAdminRole",
          "type": "bytes32"
        }
      ],
      "name": "RoleAdminChanged",
      "type": "event"
    },
    {
      "anonymous": false,
      "inputs": [
        {
          "indexed": true,
          "internalType": "bytes32",
          "name": "role",
          "type": "bytes32"
        },
        {
          "indexed": true,
          "internalType": "address",
          "name": "account",
          "type": "address"
        },
        {
          "indexed": true,
          "internalType": "address",
          "name": "sender",
          "type": "address"
        }
      ],
      "name": "RoleGranted",
      "type": "event"
    },
    {
      "anonymous": false,
      "inputs": [
        {
          "indexed": true,
          "internalType": "bytes32",
          "name": "role",
          "type": "bytes32"
        },
        {
          "indexed": true,
          "internalType": "address",
          "name": "account",
          "type": "address"
        },
        {
          "indexed": true,
          "internalType": "address",
          "name": "sender",
          "type": "address"
        }
      ],
      "name": "RoleRevoked",
      "type": "event"
    },
    {
      "anonymous": false,
      "inputs": [
        {
          "indexed": true,
          "internalType": "uint256",
          "name": "itemNumber",
          "type": "uint256"
        },
        {
          "indexed": false,
          "internalType": "address",
          "name": "nftToken",
          "type": "address"
        },
        {
          "indexed": false,
          "internalType": "address",
          "name": "saleToken",
          "type": "address"
        },
        {
          "indexed": false,
          "internalType": "uint256",
          "name": "bidAmount",
          "type": "uint256"
        },
        {
          "indexed": true,
          "internalType": "address",
          "name": "winner",
          "type": "address"
        },
        {
          "indexed": true,
          "internalType": "address",
          "name": "seller",
          "type": "address"
        },
        {
          "indexed": false,
          "internalType": "address",
          "name": "royaltyReceiver",
          "type": "address"
        },
        {
          "indexed": false,
          "internalType": "uint256",
          "name": "royaltyAmount",
          "type": "uint256"
        },
        {
          "indexed": false,
          "internalType": "uint256[]",
          "name": "tokenIds",
          "type": "uint256[]"
        }
      ],
      "name": "Settled",
      "type": "event"
    },
    {
      "anonymous": false,
      "inputs": [
        {
          "indexed": false,
          "internalType": "address",
          "name": "account",
          "type": "address"
        }
      ],
      "name": "Unpaused",
      "type": "event"
    },
    {
      "stateMutability": "payable",
      "type": "fallback"
    },
    {
      "inputs": [],
      "name": "DEFAULT_ADMIN_ROLE",
      "outputs": [
        {
          "internalType": "bytes32",
          "name": "",
          "type": "bytes32"
        }
      ],
      "stateMutability": "view",
      "type": "function"
    },
    {
      "inputs": [
        {
          "internalType": "uint256",
          "name": "",
          "type": "uint256"
        }
      ],
      "name": "Items",
      "outputs": [
        {
          "internalType": "uint256",
          "name": "auctionEnd",
          "type": "uint256"
        },
        {
          "internalType": "uint256",
          "name": "minPrice",
          "type": "uint256"
        },
        {
          "internalType": "address",
          "name": "saleToken",
          "type": "address"
        },
        {
          "internalType": "address",
          "name": "nftToken",
          "type": "address"
        },
        {
          "internalType": "address",
          "name": "seller",
          "type": "address"
        },
        {
          "internalType": "address",
          "name": "highestBidder",
          "type": "address"
        },
        {
          "internalType": "uint256",
          "name": "highestBid",
          "type": "uint256"
        }
      ],
      "stateMutability": "view",
      "type": "function"
    },
    {
      "inputs": [
        {
          "internalType": "uint256",
          "name": "itemNumber",
          "type": "uint256"
        },
        {
          "internalType": "uint256",
          "name": "bidAmount",
          "type": "uint256"
        }
      ],
      "name": "bid",
      "outputs": [],
      "stateMutability": "payable",
      "type": "function"
    },
    {
      "inputs": [
        {
          "internalType": "uint256",
          "name": "_maxAuctionTime",
          "type": "uint256"
        }
      ],
      "name": "changeMaxAuctionTime",
      "outputs": [],
      "stateMutability": "nonpayable",
      "type": "function"
    },
    {
      "inputs": [
        {
          "internalType": "uint256",
          "name": "_maxNFTCount",
          "type": "uint256"
        }
      ],
      "name": "changeMaxNFTCount",
      "outputs": [],
      "stateMutability": "nonpayable",
      "type": "function"
    },
    {
      "inputs": [
        {
          "internalType": "uint256",
          "name": "_zoomBurnFee",
          "type": "uint256"
        }
      ],
      "name": "changeZoomBurnFee",
      "outputs": [],
      "stateMutability": "nonpayable",
      "type": "function"
    },
    {
      "inputs": [
        {
          "internalType": "uint256",
          "name": "itemNumber",
          "type": "uint256"
        }
      ],
      "name": "getListItem",
      "outputs": [
        {
          "components": [
            {
              "internalType": "uint256",
              "name": "auctionEnd",
              "type": "uint256"
            },
            {
              "internalType": "uint256",
              "name": "minPrice",
              "type": "uint256"
            },
            {
              "internalType": "address",
              "name": "saleToken",
              "type": "address"
            },
            {
              "internalType": "address",
              "name": "nftToken",
              "type": "address"
            },
            {
              "internalType": "address",
              "name": "seller",
              "type": "address"
            },
            {
              "internalType": "address",
              "name": "highestBidder",
              "type": "address"
            },
            {
              "internalType": "uint256",
              "name": "highestBid",
              "type": "uint256"
            },
            {
              "internalType": "uint256[]",
              "name": "tokenIds",
              "type": "uint256[]"
            }
          ],
          "internalType": "struct ZoombiesMarketPlace.Item",
          "name": "item",
          "type": "tuple"
        }
      ],
      "stateMutability": "view",
      "type": "function"
    },
    {
      "inputs": [
        {
          "internalType": "bytes32",
          "name": "role",
          "type": "bytes32"
        }
      ],
      "name": "getRoleAdmin",
      "outputs": [
        {
          "internalType": "bytes32",
          "name": "",
          "type": "bytes32"
        }
      ],
      "stateMutability": "view",
      "type": "function"
    },
    {
      "inputs": [
        {
          "internalType": "bytes32",
          "name": "role",
          "type": "bytes32"
        },
        {
          "internalType": "address",
          "name": "account",
          "type": "address"
        }
      ],
      "name": "grantRole",
      "outputs": [],
      "stateMutability": "nonpayable",
      "type": "function"
    },
    {
      "inputs": [
        {
          "internalType": "bytes32",
          "name": "role",
          "type": "bytes32"
        },
        {
          "internalType": "address",
          "name": "account",
          "type": "address"
        }
      ],
      "name": "hasRole",
      "outputs": [
        {
          "internalType": "bool",
          "name": "",
          "type": "bool"
        }
      ],
      "stateMutability": "view",
      "type": "function"
    },
    {
      "inputs": [],
      "name": "itemCount",
      "outputs": [
        {
          "internalType": "uint256",
          "name": "",
          "type": "uint256"
        }
      ],
      "stateMutability": "view",
      "type": "function"
    },
    {
      "inputs": [
        {
          "internalType": "uint256",
          "name": "auctionEnd",
          "type": "uint256"
        },
        {
          "internalType": "uint256",
          "name": "minPrice",
          "type": "uint256"
        },
        {
          "internalType": "uint256[]",
          "name": "tokenIds",
          "type": "uint256[]"
        },
        {
          "internalType": "address",
          "name": "nftToken",
          "type": "address"
        },
        {
          "internalType": "address",
          "name": "saleToken",
          "type": "address"
        }
      ],
      "name": "listItem",
      "outputs": [],
      "stateMutability": "payable",
      "type": "function"
    },
    {
      "inputs": [],
      "name": "maxAuctionTime",
      "outputs": [
        {
          "internalType": "uint256",
          "name": "",
          "type": "uint256"
        }
      ],
      "stateMutability": "view",
      "type": "function"
    },
    {
      "inputs": [],
      "name": "maxNFTCount",
      "outputs": [
        {
          "internalType": "uint256",
          "name": "",
          "type": "uint256"
        }
      ],
      "stateMutability": "view",
      "type": "function"
    },
    {
      "inputs": [
        {
          "internalType": "address",
          "name": "",
          "type": "address"
        }
      ],
      "name": "nftWhitelist",
      "outputs": [
        {
          "internalType": "bool",
          "name": "",
          "type": "bool"
        }
      ],
      "stateMutability": "view",
      "type": "function"
    },
    {
      "inputs": [
        {
          "internalType": "address",
          "name": "",
          "type": "address"
        },
        {
          "internalType": "address",
          "name": "",
          "type": "address"
        },
        {
          "internalType": "uint256",
          "name": "",
          "type": "uint256"
        },
        {
          "internalType": "bytes",
          "name": "",
          "type": "bytes"
        }
      ],
      "name": "onERC721Received",
      "outputs": [
        {
          "internalType": "bytes4",
          "name": "",
          "type": "bytes4"
        }
      ],
      "stateMutability": "nonpayable",
      "type": "function"
    },
    {
      "inputs": [
        {
          "internalType": "uint256",
          "name": "",
          "type": "uint256"
        }
      ],
      "name": "originalOwner",
      "outputs": [
        {
          "internalType": "address",
          "name": "",
          "type": "address"
        }
      ],
      "stateMutability": "view",
      "type": "function"
    },
    {
      "inputs": [],
      "name": "pause",
      "outputs": [],
      "stateMutability": "nonpayable",
      "type": "function"
    },
    {
      "inputs": [],
      "name": "paused",
      "outputs": [
        {
          "internalType": "bool",
          "name": "",
          "type": "bool"
        }
      ],
      "stateMutability": "view",
      "type": "function"
    },
    {
      "inputs": [
        {
          "internalType": "bytes32",
          "name": "role",
          "type": "bytes32"
        },
        {
          "internalType": "address",
          "name": "account",
          "type": "address"
        }
      ],
      "name": "renounceRole",
      "outputs": [],
      "stateMutability": "nonpayable",
      "type": "function"
    },
    {
      "inputs": [
        {
          "internalType": "bytes32",
          "name": "role",
          "type": "bytes32"
        },
        {
          "internalType": "address",
          "name": "account",
          "type": "address"
        }
      ],
      "name": "revokeRole",
      "outputs": [],
      "stateMutability": "nonpayable",
      "type": "function"
    },
    {
      "inputs": [
        {
          "internalType": "uint256",
          "name": "itemNumber",
          "type": "uint256"
        }
      ],
      "name": "settle",
      "outputs": [],
      "stateMutability": "nonpayable",
      "type": "function"
    },
    {
      "inputs": [
        {
          "internalType": "bytes4",
          "name": "interfaceId",
          "type": "bytes4"
        }
      ],
      "name": "supportsInterface",
      "outputs": [
        {
          "internalType": "bool",
          "name": "",
          "type": "bool"
        }
      ],
      "stateMutability": "view",
      "type": "function"
    },
    {
      "inputs": [
        {
          "internalType": "address",
          "name": "",
          "type": "address"
        }
      ],
      "name": "tokenMinIncrement",
      "outputs": [
        {
          "internalType": "uint256",
          "name": "",
          "type": "uint256"
        }
      ],
      "stateMutability": "view",
      "type": "function"
    },
    {
      "inputs": [
        {
          "internalType": "address",
          "name": "",
          "type": "address"
        }
      ],
      "name": "tokenWhitelist",
      "outputs": [
        {
          "internalType": "bool",
          "name": "",
          "type": "bool"
        }
      ],
      "stateMutability": "view",
      "type": "function"
    },
    {
      "inputs": [],
      "name": "unpause",
      "outputs": [],
      "stateMutability": "nonpayable",
      "type": "function"
    },
    {
      "inputs": [
        {
          "internalType": "address",
          "name": "token",
          "type": "address"
        },
        {
          "internalType": "bool",
          "name": "isWhitelisted",
          "type": "bool"
        }
      ],
      "name": "whitelistNFTToken",
      "outputs": [],
      "stateMutability": "nonpayable",
      "type": "function"
    },
    {
      "inputs": [
        {
          "internalType": "address",
          "name": "token",
          "type": "address"
        },
        {
          "internalType": "bool",
          "name": "isWhitelisted",
          "type": "bool"
        },
        {
          "internalType": "uint256",
          "name": "_minBidIncrement",
          "type": "uint256"
        }
      ],
      "name": "whitelistToken",
      "outputs": [],
      "stateMutability": "nonpayable",
      "type": "function"
    },
    {
      "inputs": [],
      "name": "zoomBurnFee",
      "outputs": [
        {
          "internalType": "uint256",
          "name": "",
          "type": "uint256"
        }
      ],
      "stateMutability": "view",
      "type": "function"
    },
    {
      "inputs": [],
      "name": "zoomContract",
      "outputs": [
        {
          "internalType": "address",
          "name": "",
          "type": "address"
        }
      ],
      "stateMutability": "view",
      "type": "function"
    }
  ],
  "bytecode": "0x60806040523480156200001157600080fd5b506040516200332d3803806200332d83398101604081905262000034916200028f565b600160009081556002805460ff1916905569021e19e0c9bab24000006003556212750060045560146005556200006b9033620000ec565b62000078600080620000fc565b60028054610100600160a81b0319166101006001600160a01b03851602179055620000b082600169054b40b1f852bda0000062000153565b620000c581600166470de4df82000062000153565b600a80546001600160a01b0319166001600160a01b0392909216919091179055506200032f565b620000f88282620001bd565b5050565b600062000109836200024a565b6000848152600160208190526040808320909101859055519192508391839186917fbd79b86ffe0ab8e8776151514217cd7cacd52c909f66475c3af44e129f0b00ff9190a4505050565b6200016060003362000260565b620001885760405162461bcd60e51b81526004016200017f90620002cd565b60405180910390fd5b6001600160a01b03929092166000908152600660209081526040808320805460ff191694151594909417909355600790522055565b620001c9828262000260565b620000f85760008281526001602081815260408084206001600160a01b0386168552909152909120805460ff19169091179055620002066200028b565b6001600160a01b0316816001600160a01b0316837f2f8788117e7eff1d82e926ec794901d17c78024a50270940304540a733656f0d60405160405180910390a45050565b6000908152600160208190526040909120015490565b60009182526001602090815260408084206001600160a01b0393909316845291905290205460ff1690565b3390565b60008060408385031215620002a2578182fd5b8251620002af8162000316565b6020840151909250620002c28162000316565b809150509250929050565b60208082526029908201527f5a6f6f6d4d61726b65743a205573657220646f6573206e6f7420686176652061604082015268646d696e20726f6c6560b81b606082015260800190565b6001600160a01b03811681146200032c57600080fd5b50565b612fee806200033f6000396000f3fe6080604052600436106101cd5760003560e01c80636597441e116100f75780638df8280011610095578063acc314ae11610064578063acc314ae14610507578063d08b186714610527578063d547741f1461053a578063f64989fe1461055a576101cd565b80638df828001461049257806391d14854146104b2578063a217fddf146104d2578063a7f56c64146104e7576101cd565b806376673ae0116100d157806376673ae0146104285780637c535b1f1461043d57806382f16cea1461045d5780638456cb591461047d576101cd565b80636597441e146103c65780636bfb0d01146103f3578063753d756314610408576101cd565b80632f2ff15d1161016f57806346b31b6e1161013e57806346b31b6e14610369578063518b057e14610389578063598647f81461039e5780635c975abb146103b1576101cd565b80632f2ff15d146102e757806336568abe146103075780633f4ba83a1461032757806340bb154d1461033c576101cd565b8063150b7a02116101ab578063150b7a021461025257806317b47cc41461027f578063248a9ca3146102b2578063290ebc82146102d2576101cd565b806301ffc9a7146101cf578063022300cb146102055780630feb2d1014610232575b005b3480156101db57600080fd5b506101ef6101ea36600461239e565b61056f565b6040516101fc91906126de565b60405180910390f35b34801561021157600080fd5b506102256102203660046121c9565b61059c565b6040516101fc91906126e9565b34801561023e57600080fd5b506101cd61024d3660046122a1565b6105ae565b34801561025e57600080fd5b5061027261026d3660046121e5565b610609565b6040516101fc91906126f2565b34801561028b57600080fd5b5061029f61029a366004612362565b610619565b6040516101fc9796959493929190612e58565b3480156102be57600080fd5b506102256102cd366004612362565b610667565b3480156102de57600080fd5b5061022561067d565b3480156102f357600080fd5b506101cd61030236600461237a565b610683565b34801561031357600080fd5b506101cd61032236600461237a565b6106ac565b34801561033357600080fd5b506101cd6106f2565b34801561034857600080fd5b5061035c610357366004612362565b610723565b6040516101fc91906125e7565b34801561037557600080fd5b506101ef6103843660046121c9565b61073e565b34801561039557600080fd5b50610225610753565b6101cd6103ac3660046123de565b610759565b3480156103bd57600080fd5b506101ef610a0c565b3480156103d257600080fd5b506103e66103e1366004612362565b610a15565b6040516101fc9190612d6d565b3480156103ff57600080fd5b50610225610ae5565b34801561041457600080fd5b506101ef6104233660046121c9565b610aeb565b34801561043457600080fd5b5061035c610b00565b34801561044957600080fd5b506101cd610458366004612362565b610b14565b34801561046957600080fd5b506101cd610478366004612362565b610b75565b34801561048957600080fd5b506101cd610bc2565b34801561049e57600080fd5b506101cd6104ad366004612362565b610bf1565b3480156104be57600080fd5b506101ef6104cd36600461237a565b610c2a565b3480156104de57600080fd5b50610225610c55565b3480156104f357600080fd5b506101cd610502366004612362565b610c5a565b34801561051357600080fd5b506101cd6105223660046122d9565b610cb8565b6101cd6105353660046123ff565b610d14565b34801561054657600080fd5b506101cd61055536600461237a565b61121e565b34801561056657600080fd5b5061022561123d565b60006001600160e01b03198216637965db0b60e01b1480610594575061059482611243565b90505b919050565b60076020526000908152604090205481565b6105b9600033610c2a565b6105de5760405162461bcd60e51b81526004016105d590612b0b565b60405180910390fd5b6001600160a01b03919091166000908152600860205260409020805460ff1916911515919091179055565b630a85bd0160e11b949350505050565b600b602052600090815260409020805460018201546002830154600384015460048501546005860154600690960154949593946001600160a01b039384169492841693918216929091169087565b6000908152600160208190526040909120015490565b60035481565b61068c82610667565b61069d8161069861125c565b611260565b6106a783836112c4565b505050565b6106b461125c565b6001600160a01b0316816001600160a01b0316146106e45760405162461bcd60e51b81526004016105d590612c94565b6106ee828261134c565b5050565b6106fd600033610c2a565b6107195760405162461bcd60e51b81526004016105d590612b0b565b6107216113d1565b565b6009602052600090815260409020546001600160a01b031681565b60086020526000908152604090205460ff1681565b60045481565b6002600054141561077c5760405162461bcd60e51b81526004016105d590612bd5565b600260005534158061078d57503481145b6107a95760405162461bcd60e51b81526004016105d590612803565b6000828152600b60205260409020600401546001600160a01b03166107e05760405162461bcd60e51b81526004016105d590612b9e565b6000828152600b60205260409020600101548110156108115760405162461bcd60e51b81526004016105d5906129d8565b6000828152600b60205260409020544211158061083a57506000828152600b6020526040902054155b6108565760405162461bcd60e51b81526004016105d59061279d565b6000828152600b60205260409020600401546001600160a01b03163314156108905760405162461bcd60e51b81526004016105d590612d27565b6000828152600b602052604090206006015415610904576000828152600b6020818152604080842060028101546001600160a01b03168552600783529084205493869052919052600601546108e59190612ebd565b8110156109045760405162461bcd60e51b81526004016105d590612c43565b6000828152600b6020526040902060020154610929906001600160a01b03168261143f565b6000828152600b60205260409020600501546001600160a01b03161561097d576000828152600b602052604090206006810154600582015460029092015461097d926001600160a01b0390811691166114db565b6000828152600b60205260409020600681018290556005810180546001600160a01b03191633179055546109b4576109b4826115a1565b6000828152600b6020526040908190209051339184917fc89dda33c6731f44e0ceaac4cdf122cc34f130dda4f2f2ace0630db3b6a0cafd916109fb91869160070190612e31565b60405180910390a350506001600055565b60025460ff1690565b610a1d6120d4565b6000828152600b60209081526040918290208251610100810184528154815260018201548184015260028201546001600160a01b039081168286015260038301548116606083015260048301548116608083015260058301541660a0820152600682015460c08201526007820180548551818602810186019096528086529194929360e08601939290830182828015610ad557602002820191906000526020600020905b815481526020019060010190808311610ac1575b5050505050815250509050919050565b600c5481565b60066020526000908152604090205460ff1681565b60025461010090046001600160a01b031681565b610b1f600033610c2a565b610b3b5760405162461bcd60e51b81526004016105d590612b0b565b6a084595161401484a0000008111158015610b54575060015b610b705760405162461bcd60e51b81526004016105d590612a0f565b600355565b610b80600033610c2a565b610b9c5760405162461bcd60e51b81526004016105d590612b0b565b6001811015610bbd5760405162461bcd60e51b81526004016105d590612873565b600555565b610bcd600033610c2a565b610be95760405162461bcd60e51b81526004016105d590612b0b565b6107216118e1565b60026000541415610c145760405162461bcd60e51b81526004016105d590612bd5565b6002600055610c22816115a1565b506001600055565b60009182526001602090815260408084206001600160a01b0393909316845291905290205460ff1690565b600081565b610c65600033610c2a565b610c815760405162461bcd60e51b81526004016105d590612b0b565b6224ea008111158015610c975750621275008110155b610cb35760405162461bcd60e51b81526004016105d590612a0f565b600455565b610cc3600033610c2a565b610cdf5760405162461bcd60e51b81526004016105d590612b0b565b6001600160a01b03929092166000908152600660209081526040808320805460ff191694151594909417909355600790522055565b60026000541415610d375760405162461bcd60e51b81526004016105d590612bd5565b6002600055610d44610a0c565b15610d615760405162461bcd60e51b81526004016105d59061292b565b610d6b833361193c565b600454610d79904290611a13565b851115610d985760405162461bcd60e51b81526004016105d5906127cc565b6001600160a01b03811660009081526006602052604090205460ff16610dd05760405162461bcd60e51b81526004016105d59061282d565b6001600160a01b03821660009081526008602052604090205460ff16610e085760405162461bcd60e51b81526004016105d590612ce3565b6000835111610e295760405162461bcd60e51b81526004016105d5906129a1565b600554835110610e4b5760405162461bcd60e51b81526004016105d5906128e6565b60008411610e6b5760405162461bcd60e51b81526004016105d590612955565b8251600354610e7991611a26565b600254604051636eb1769f60e11b81526101009091046001600160a01b03169063dd62ed3e90610eaf90339030906004016125fb565b60206040518083038186803b158015610ec757600080fd5b505afa158015610edb573d6000803e3d6000fd5b505050506040513d601f19601f82011682018060405250810190610eff91906123c6565b1015610f1d5760405162461bcd60e51b81526004016105d590612a36565b60025483516003546101009092046001600160a01b0316916379cc6790913391610f4691611a26565b6040518363ffffffff1660e01b8152600401610f639291906126c5565b600060405180830381600087803b158015610f7d57600080fd5b505af1158015610f91573d6000803e3d6000fd5b50505050604051806101000160405280868152602001858152602001826001600160a01b03168152602001836001600160a01b03168152602001336001600160a01b0316815260200160006001600160a01b031681526020016000815260200184815250600b6000600c548152602001908152602001600020600082015181600001556020820151816001015560408201518160020160006101000a8154816001600160a01b0302191690836001600160a01b0316021790555060608201518160030160006101000a8154816001600160a01b0302191690836001600160a01b0316021790555060808201518160040160006101000a8154816001600160a01b0302191690836001600160a01b0316021790555060a08201518160050160006101000a8154816001600160a01b0302191690836001600160a01b0316021790555060c0820151816006015560e08201518160070190805190602001906110f892919061213d565b5090505060005b83518110156111a457826001600160a01b031663b88d4fde333087858151811061113957634e487b7160e01b600052603260045260246000fd5b60200260200101516040518463ffffffff1660e01b815260040161115f93929190612687565b600060405180830381600087803b15801561117957600080fd5b505af115801561118d573d6000803e3d6000fd5b50505050808061119c90612f4e565b9150506110ff565b50816001600160a01b0316336001600160a01b0316600c547fa87e1bcc08ed64e4a40109dc0a599f230a9f1e2418e1fab9764bfcccb9cc3da28887868a6003546040516111f5959493929190612df2565b60405180910390a4600c805490600061120d83612f4e565b909155505060016000555050505050565b61122782610667565b6112338161069861125c565b6106a7838361134c565b60055481565b6001600160e01b031981166301ffc9a760e01b14919050565b3390565b61126a8282610c2a565b6106ee57611282816001600160a01b03166014611a32565b61128d836020611a32565b60405160200161129e929190612572565b60408051601f198184030181529082905262461bcd60e51b82526105d591600401612707565b6112ce8282610c2a565b6106ee5760008281526001602081815260408084206001600160a01b0386168552909152909120805460ff1916909117905561130861125c565b6001600160a01b0316816001600160a01b0316837f2f8788117e7eff1d82e926ec794901d17c78024a50270940304540a733656f0d60405160405180910390a45050565b6113568282610c2a565b156106ee5760008281526001602090815260408083206001600160a01b03851684529091529020805460ff1916905561138d61125c565b6001600160a01b0316816001600160a01b0316837ff6391f5c32d9c69d2a47ea670b442974b53935d1edc7fd64eb21e047a839171b60405160405180910390a45050565b6113d9610a0c565b6113f55760405162461bcd60e51b81526004016105d59061276f565b6002805460ff191690557f5db9ee0a495bf2e6ff9c91a7834c1ba4fdd244a5e8aa4e537bd38aeae4b073aa61142861125c565b60405161143591906125e7565b60405180910390a1565b341580159061145b5750600a546001600160a01b038381169116145b156114ce57600a60009054906101000a90046001600160a01b03166001600160a01b031663d0e30db0346040518263ffffffff1660e01b81526004016000604051808303818588803b1580156114b057600080fd5b505af11580156114c4573d6000803e3d6000fd5b50505050506106ee565b816106a781333085611be4565b600a546001600160a01b038281169116141561158f57600a54604051632e1a7d4d60e01b81526001600160a01b0390911690632e1a7d4d906115219086906004016126e9565b600060405180830381600087803b15801561153b57600080fd5b505af115801561154f573d6000803e3d6000fd5b50506040516001600160a01b038516925085156108fc02915085906000818181858888f19350505050158015611589573d6000803e3d6000fd5b506106a7565b8061159b818486611c3c565b50505050565b6000818152600b60205260409020544210156115cf5760405162461bcd60e51b81526004016105d590612c0c565b6000818152600b60205260409020600501546001600160a01b031633148061161057506000818152600b60205260409020600401546001600160a01b031633145b61162c5760405162461bcd60e51b81526004016105d590612ad4565b6000818152600b60205260409020600601546117985760005b6000828152600b6020526040902060070154811015611720576000828152600b6020526040902060038101546004820154600790920180546001600160a01b039283169363b88d4fde933093911691869081106116b257634e487b7160e01b600052603260045260246000fd5b90600052602060002001546040518463ffffffff1660e01b81526004016116db93929190612687565b600060405180830381600087803b1580156116f557600080fd5b505af1158015611709573d6000803e3d6000fd5b50505050808061171890612f4e565b915050611645565b506000818152600b602052604080822060048101546003820154600283015493516001600160a01b03928316959487947f1def3eb656522cfb92a17c098c3b03d4bb0e6954f0f87d78fca658f671d52ea39461178b9481169392169187918291829160070190612615565b60405180910390a4611880565b60005b6000828152600b6020526040902060070154811015611876576000828152600b6020526040902060038101546005820154600790920180546001600160a01b039283169363b88d4fde9330939116918690811061180857634e487b7160e01b600052603260045260246000fd5b90600052602060002001546040518463ffffffff1660e01b815260040161183193929190612687565b600060405180830381600087803b15801561184b57600080fd5b505af115801561185f573d6000803e3d6000fd5b50505050808061186e90612f4e565b91505061179b565b5061188081611c5b565b6000818152600b60205260408120818155600181018290556002810180546001600160a01b03199081169091556003820180548216905560048201805482169055600582018054909116905560068101829055906106a76007830182612188565b6118e9610a0c565b156119065760405162461bcd60e51b81526004016105d59061292b565b6002805460ff191660011790557f62e78cea01bee320cd4e420270b5ea74000d11b0c9f74754ebdbfc544b05a25861142861125c565b60005b82518110156106a75760006001600160a01b03166009600085848151811061197757634e487b7160e01b600052603260045260246000fd5b6020908102919091018101518252810191909152604001600020546001600160a01b03161415611a015781600960008584815181106119c657634e487b7160e01b600052603260045260246000fd5b6020026020010151815260200190815260200160002060006101000a8154816001600160a01b0302191690836001600160a01b031602179055505b80611a0b81612f4e565b91505061193f565b6000611a1f8284612ebd565b9392505050565b6000611a1f8284612ed5565b60606000611a41836002612ed5565b611a4c906002612ebd565b67ffffffffffffffff811115611a7257634e487b7160e01b600052604160045260246000fd5b6040519080825280601f01601f191660200182016040528015611a9c576020820181803683370190505b509050600360fc1b81600081518110611ac557634e487b7160e01b600052603260045260246000fd5b60200101906001600160f81b031916908160001a905350600f60fb1b81600181518110611b0257634e487b7160e01b600052603260045260246000fd5b60200101906001600160f81b031916908160001a9053506000611b26846002612ed5565b611b31906001612ebd565b90505b6001811115611bc5576f181899199a1a9b1b9c1cb0b131b232b360811b85600f1660108110611b7357634e487b7160e01b600052603260045260246000fd5b1a60f81b828281518110611b9757634e487b7160e01b600052603260045260246000fd5b60200101906001600160f81b031916908160001a90535060049490941c93611bbe81612f37565b9050611b34565b508315611a1f5760405162461bcd60e51b81526004016105d59061273a565b61159b846323b872dd60e01b858585604051602401611c0593929190612663565b60408051601f198184030181529190526020810180516001600160e01b03166001600160e01b031990931692909217909152611e9b565b6106a78363a9059cbb60e01b8484604051602401611c059291906126c5565b6000818152600b60205260408120600301548190611c81906001600160a01b0316611f2a565b8015611c9e57506000838152600b60205260409020600701546001145b15611dc4576000838152600b602052604081206003810154600790910180546001600160a01b0390921692632a55205a92611ce957634e487b7160e01b600052603260045260246000fd5b9060005260206000200154600b6000878152602001908152602001600020600601546040518363ffffffff1660e01b8152600401611d28929190612e4a565b604080518083038186803b158015611d3f57600080fd5b505afa158015611d53573d6000803e3d6000fd5b505050506040513d601f19601f82011682018060405250810190611d779190612319565b6000858152600b602052604090206006015491935091508110611d9c57506000611dc4565b6000838152600b6020526040902060020154611dc490829084906001600160a01b03166114db565b6000838152600b6020526040812060060154611de09083611fb2565b6000858152600b602052604090206004810154600290910154919250611e149183916001600160a01b0390811691166114db565b6000848152600b6020526040908190206004810154600582015460038301546002840154600685015495516001600160a01b0394851696938516958b957f1def3eb656522cfb92a17c098c3b03d4bb0e6954f0f87d78fca658f671d52ea395611e8d958216949091169290918c918c9160070190612615565b60405180910390a450505050565b6000611ef0826040518060400160405280602081526020017f5361666545524332303a206c6f772d6c6576656c2063616c6c206661696c6564815250856001600160a01b0316611fbe9092919063ffffffff16565b8051909150156106a75780806020019051810190611f0e9190612346565b6106a75760405162461bcd60e51b81526004016105d590612b54565b6040516301ffc9a760e01b815260009081906001600160a01b038416906301ffc9a790611f629063152a902d60e11b906004016126f2565b60206040518083038186803b158015611f7a57600080fd5b505afa158015611f8e573d6000803e3d6000fd5b505050506040513d601f19601f82011682018060405250810190611a1f9190612346565b6000611a1f8284612ef4565b6060611fcd8484600085611fd5565b949350505050565b606082471015611ff75760405162461bcd60e51b81526004016105d5906128a0565b61200085612095565b61201c5760405162461bcd60e51b81526004016105d590612a9d565b600080866001600160a01b031685876040516120389190612556565b60006040518083038185875af1925050503d8060008114612075576040519150601f19603f3d011682016040523d82523d6000602084013e61207a565b606091505b509150915061208a82828661209b565b979650505050505050565b3b151590565b606083156120aa575081611a1f565b8251156120ba5782518084602001fd5b8160405162461bcd60e51b81526004016105d59190612707565b604051806101000160405280600081526020016000815260200160006001600160a01b0316815260200160006001600160a01b0316815260200160006001600160a01b0316815260200160006001600160a01b0316815260200160008152602001606081525090565b828054828255906000526020600020908101928215612178579160200282015b8281111561217857825182559160200191906001019061215d565b506121849291506121a9565b5090565b50805460008255906000526020600020908101906121a691906121a9565b50565b5b8082111561218457600081556001016121aa565b803561059781612f95565b6000602082840312156121da578081fd5b8135611a1f81612f95565b600080600080608085870312156121fa578283fd5b843561220581612f95565b935060208581013561221681612f95565b935060408601359250606086013567ffffffffffffffff80821115612239578384fd5b818801915088601f83011261224c578384fd5b81358181111561225e5761225e612f7f565b612270601f8201601f19168501612e93565b91508082528984828501011115612285578485fd5b8084840185840137810190920192909252939692955090935050565b600080604083850312156122b3578182fd5b82356122be81612f95565b915060208301356122ce81612faa565b809150509250929050565b6000806000606084860312156122ed578283fd5b83356122f881612f95565b9250602084013561230881612faa565b929592945050506040919091013590565b6000806040838503121561232b578182fd5b825161233681612f95565b6020939093015192949293505050565b600060208284031215612357578081fd5b8151611a1f81612faa565b600060208284031215612373578081fd5b5035919050565b6000806040838503121561238c578182fd5b8235915060208301356122ce81612f95565b6000602082840312156123af578081fd5b81356001600160e01b031981168114611a1f578182fd5b6000602082840312156123d7578081fd5b5051919050565b600080604083850312156123f0578182fd5b50508035926020909101359150565b600080600080600060a08688031215612416578283fd5b853594506020808701359450604087013567ffffffffffffffff8082111561243c578586fd5b818901915089601f83011261244f578586fd5b81358181111561246157612461612f7f565b8381029150612471848301612e93565b8181528481019084860184860187018e101561248b57898afd5b8995505b838610156124ad57803583526001959095019491860191860161248f565b508098505050505050506124c3606087016121be565b91506124d1608087016121be565b90509295509295909350565b6001600160a01b03169052565b6000815180845260208085019450808401835b83811015612519578151875295820195908201906001016124fd565b509495945050505050565b6000815480845260208085019450838352808320835b838110156125195781548752958201956001918201910161253a565b60008251612568818460208701612f0b565b9190910192915050565b60007f416363657373436f6e74726f6c3a206163636f756e7420000000000000000000825283516125aa816017850160208801612f0b565b7001034b99036b4b9b9b4b733903937b6329607d1b60179184019182015283516125db816028840160208801612f0b565b01602801949350505050565b6001600160a01b0391909116815260200190565b6001600160a01b0392831681529116602082015260400190565b6001600160a01b038781168252868116602083015260408201869052841660608201526080810183905260c060a0820181905260009061265790830184612524565b98975050505050505050565b6001600160a01b039384168152919092166020820152604081019190915260600190565b6001600160a01b039384168152919092166020820152604081019190915260806060820181905260029082015261060f60f31b60a082015260c00190565b6001600160a01b03929092168252602082015260400190565b901515815260200190565b90815260200190565b6001600160e01b031991909116815260200190565b6000602082528251806020840152612726816040850160208701612f0b565b601f01601f19169190910160400192915050565b6020808252818101527f537472696e67733a20686578206c656e67746820696e73756666696369656e74604082015260600190565b60208082526014908201527314185d5cd8589b194e881b9bdd081c185d5cd95960621b604082015260600190565b60208082526015908201527413585c9ad95d0e88185d58dd1a5bdb88195b991959605a1b604082015260600190565b60208082526018908201527f4d61726b65743a2061756374696f6e20746f6f206c6f6e670000000000000000604082015260600190565b60208082526010908201526f09ac2e4d6cae874409ad2e6dac2e8c6d60831b604082015260600190565b60208082526026908201527f4d61726b65743a20455243323020636f6e7472616374206e6f742077686974656040820152651b1a5cdd195960d21b606082015260800190565b6020808252601390820152721a5b9d985b1a590813585e13919510dbdd5b9d606a1b604082015260600190565b60208082526026908201527f416464726573733a20696e73756666696369656e742062616c616e636520666f6040820152651c8818d85b1b60d21b606082015260800190565b60208082526025908201527f4d61726b65743a20746f6b656e20636f756e742065786365656473206d61782060408201526418dbdd5b9d60da1b606082015260800190565b60208082526010908201526f14185d5cd8589b194e881c185d5cd95960821b604082015260600190565b6020808252602c908201527f4d61726b65743a206d696e696d756d207072696365206d75737420626520677260408201526b06561746572207468616e20360a41b606082015260800190565b6020808252601f908201527f4d61726b65743a2073656c656374206174206c65617374203120746f6b656e00604082015260600190565b6020808252601b908201527f4d61726b65743a2062696420756e646572206d696e2070726963650000000000604082015260600190565b6020808252600d908201526c6e6f7420696e20626f756e647360981b604082015260600190565b60208082526041908201527f4c697374696e67206974656d73207265717569726520617070726f76616c206f60408201527f66206d696e2e205a4f4f4d206275726e206665652058206e756d2e206974656d6060820152607360f81b608082015260a00190565b6020808252601d908201527f416464726573733a2063616c6c20746f206e6f6e2d636f6e7472616374000000604082015260600190565b6020808252601c908201527f4d61726b65743a206e6f7420626964646572206f722073656c6c657200000000604082015260600190565b60208082526029908201527f5a6f6f6d4d61726b65743a205573657220646f6573206e6f7420686176652061604082015268646d696e20726f6c6560b81b606082015260800190565b6020808252602a908201527f5361666545524332303a204552433230206f7065726174696f6e20646964206e6040820152691bdd081cdd58d8d9595960b21b606082015260800190565b60208082526018908201527f4d61726b65743a204e6f6e206578697374696e67206269640000000000000000604082015260600190565b6020808252601f908201527f5265656e7472616e637947756172643a207265656e7472616e742063616c6c00604082015260600190565b60208082526019908201527f4d61726b65743a2061756374696f6e206e6f7420656e64656400000000000000604082015260600190565b60208082526031908201527f4d61726b65743a2062696420756e646572206869676865737420626964202b206040820152701b5a5b9a5b5d5b481a5b98dc995b595b9d607a1b606082015260800190565b6020808252602f908201527f416363657373436f6e74726f6c3a2063616e206f6e6c792072656e6f756e636560408201526e103937b632b9903337b91039b2b63360891b606082015260800190565b60208082526024908201527f4d61726b65743a204e465420636f6e7472616374206e6f742077686974656c696040820152631cdd195960e21b606082015260800190565b60208082526026908201527f4d61726b65743a2063616e6e6f7420626964206f6e20796f7572206f776e206c604082015265697374696e6760d01b606082015260800190565b6000602082528251602083015260208301516040830152604083015160018060a01b03808216606085015280606086015116608085015250506080830151612db860a08401826124dd565b5060a0830151612dcb60c08401826124dd565b5060c083015160e083015260e0830151610100808185015250611fcd6101208401826124ea565b600086825260a06020830152612e0b60a08301876124ea565b6001600160a01b0395909516604083015250606081019290925260809091015292915050565b600083825260406020830152611fcd6040830184612524565b918252602082015260400190565b96875260208701959095526001600160a01b0393841660408701529183166060860152821660808501521660a083015260c082015260e00190565b60405181810167ffffffffffffffff81118282101715612eb557612eb5612f7f565b604052919050565b60008219821115612ed057612ed0612f69565b500190565b6000816000190483118215151615612eef57612eef612f69565b500290565b600082821015612f0657612f06612f69565b500390565b60005b83811015612f26578181015183820152602001612f0e565b8381111561159b5750506000910152565b600081612f4657612f46612f69565b506000190190565b6000600019821415612f6257612f62612f69565b5060010190565b634e487b7160e01b600052601160045260246000fd5b634e487b7160e01b600052604160045260246000fd5b6001600160a01b03811681146121a657600080fd5b80151581146121a657600080fdfea264697066735822122000aa37e7f9bc8a92253610165bbd1e39be90bb9fcdbbb26e955a9eb2b7a9e89d64736f6c63430008000033",
  "linkReferences": {},
  "deployedLinkReferences": {}
}