{
  "_format": "hh-sol-artifact-1",
  "contractName": "ZoombiesMarketPlace",
  "sourceName": "contracts/ZoombiesMarketplace.sol",
  "abi": [
    {
      "inputs": [
        {
          "internalType": "string",
          "name": "name",
          "type": "string"
        },
        {
          "internalType": "string",
          "name": "symbol",
          "type": "string"
        },
        {
          "internalType": "address payable",
          "name": "xMovr",
          "type": "address"
        },
        {
          "internalType": "address payable",
          "name": "xZoombies",
          "type": "address"
        }
      ],
      "stateMutability": "nonpayable",
      "type": "constructor"
    },
    {
      "anonymous": false,
      "inputs": [
        {
          "indexed": true,
          "internalType": "address",
          "name": "owner",
          "type": "address"
        },
        {
          "indexed": true,
          "internalType": "address",
          "name": "approved",
          "type": "address"
        },
        {
          "indexed": true,
          "internalType": "uint256",
          "name": "tokenId",
          "type": "uint256"
        }
      ],
      "name": "Approval",
      "type": "event"
    },
    {
      "anonymous": false,
      "inputs": [
        {
          "indexed": true,
          "internalType": "address",
          "name": "owner",
          "type": "address"
        },
        {
          "indexed": true,
          "internalType": "address",
          "name": "operator",
          "type": "address"
        },
        {
          "indexed": false,
          "internalType": "bool",
          "name": "approved",
          "type": "bool"
        }
      ],
      "name": "ApprovalForAll",
      "type": "event"
    },
    {
      "anonymous": false,
      "inputs": [
        {
          "indexed": false,
          "internalType": "uint256",
          "name": "itemNumber",
          "type": "uint256"
        },
        {
          "indexed": false,
          "internalType": "uint256",
          "name": "bidAmount",
          "type": "uint256"
        },
        {
          "indexed": true,
          "internalType": "address",
          "name": "bidder",
          "type": "address"
        },
        {
          "indexed": true,
          "internalType": "uint256[]",
          "name": "tokenIds",
          "type": "uint256[]"
        }
      ],
      "name": "Bid",
      "type": "event"
    },
    {
      "anonymous": false,
      "inputs": [
        {
          "indexed": true,
          "internalType": "address",
          "name": "lister",
          "type": "address"
        },
        {
          "indexed": true,
          "internalType": "uint256[]",
          "name": "tokenIds",
          "type": "uint256[]"
        },
        {
          "indexed": true,
          "internalType": "address",
          "name": "saleToken",
          "type": "address"
        },
        {
          "indexed": false,
          "internalType": "uint256",
          "name": "minPrice",
          "type": "uint256"
        }
      ],
      "name": "ItemListed",
      "type": "event"
    },
    {
      "anonymous": false,
      "inputs": [
        {
          "indexed": false,
          "internalType": "address",
          "name": "account",
          "type": "address"
        }
      ],
      "name": "Paused",
      "type": "event"
    },
    {
      "anonymous": false,
      "inputs": [
        {
          "indexed": true,
          "internalType": "bytes32",
          "name": "role",
          "type": "bytes32"
        },
        {
          "indexed": true,
          "internalType": "bytes32",
          "name": "previousAdminRole",
          "type": "bytes32"
        },
        {
          "indexed": true,
          "internalType": "bytes32",
          "name": "newAdminRole",
          "type": "bytes32"
        }
      ],
      "name": "RoleAdminChanged",
      "type": "event"
    },
    {
      "anonymous": false,
      "inputs": [
        {
          "indexed": true,
          "internalType": "bytes32",
          "name": "role",
          "type": "bytes32"
        },
        {
          "indexed": true,
          "internalType": "address",
          "name": "account",
          "type": "address"
        },
        {
          "indexed": true,
          "internalType": "address",
          "name": "sender",
          "type": "address"
        }
      ],
      "name": "RoleGranted",
      "type": "event"
    },
    {
      "anonymous": false,
      "inputs": [
        {
          "indexed": true,
          "internalType": "bytes32",
          "name": "role",
          "type": "bytes32"
        },
        {
          "indexed": true,
          "internalType": "address",
          "name": "account",
          "type": "address"
        },
        {
          "indexed": true,
          "internalType": "address",
          "name": "sender",
          "type": "address"
        }
      ],
      "name": "RoleRevoked",
      "type": "event"
    },
    {
      "anonymous": false,
      "inputs": [
        {
          "indexed": false,
          "internalType": "uint256",
          "name": "itemNumber",
          "type": "uint256"
        },
        {
          "indexed": false,
          "internalType": "uint256",
          "name": "bidAmount",
          "type": "uint256"
        },
        {
          "indexed": true,
          "internalType": "address",
          "name": "winner",
          "type": "address"
        },
        {
          "indexed": true,
          "internalType": "address",
          "name": "seller",
          "type": "address"
        },
        {
          "indexed": true,
          "internalType": "uint256[]",
          "name": "tokenIds",
          "type": "uint256[]"
        }
      ],
      "name": "Settled",
      "type": "event"
    },
    {
      "anonymous": false,
      "inputs": [
        {
          "indexed": true,
          "internalType": "address",
          "name": "from",
          "type": "address"
        },
        {
          "indexed": true,
          "internalType": "address",
          "name": "to",
          "type": "address"
        },
        {
          "indexed": true,
          "internalType": "uint256",
          "name": "tokenId",
          "type": "uint256"
        }
      ],
      "name": "Transfer",
      "type": "event"
    },
    {
      "anonymous": false,
      "inputs": [
        {
          "indexed": false,
          "internalType": "address",
          "name": "account",
          "type": "address"
        }
      ],
      "name": "Unpaused",
      "type": "event"
    },
    {
      "stateMutability": "payable",
      "type": "fallback"
    },
    {
      "inputs": [],
      "name": "DEFAULT_ADMIN_ROLE",
      "outputs": [
        {
          "internalType": "bytes32",
          "name": "",
          "type": "bytes32"
        }
      ],
      "stateMutability": "view",
      "type": "function"
    },
    {
      "inputs": [
        {
          "internalType": "uint256",
          "name": "",
          "type": "uint256"
        }
      ],
      "name": "Items",
      "outputs": [
        {
          "internalType": "uint256",
          "name": "auctionEnd",
          "type": "uint256"
        },
        {
          "internalType": "uint256",
          "name": "minPrice",
          "type": "uint256"
        },
        {
          "internalType": "address",
          "name": "saleToken",
          "type": "address"
        },
        {
          "internalType": "address",
          "name": "seller",
          "type": "address"
        },
        {
          "internalType": "address",
          "name": "highestBidder",
          "type": "address"
        },
        {
          "internalType": "uint256",
          "name": "highestBid",
          "type": "uint256"
        }
      ],
      "stateMutability": "view",
      "type": "function"
    },
    {
      "inputs": [
        {
          "internalType": "address",
          "name": "to",
          "type": "address"
        },
        {
          "internalType": "uint256",
          "name": "tokenId",
          "type": "uint256"
        }
      ],
      "name": "approve",
      "outputs": [],
      "stateMutability": "nonpayable",
      "type": "function"
    },
    {
      "inputs": [
        {
          "internalType": "address",
          "name": "owner",
          "type": "address"
        }
      ],
      "name": "balanceOf",
      "outputs": [
        {
          "internalType": "uint256",
          "name": "",
          "type": "uint256"
        }
      ],
      "stateMutability": "view",
      "type": "function"
    },
    {
      "inputs": [
        {
          "internalType": "uint256",
          "name": "itemNumber",
          "type": "uint256"
        },
        {
          "internalType": "uint256",
          "name": "bidAmount",
          "type": "uint256"
        }
      ],
      "name": "bid",
      "outputs": [],
      "stateMutability": "payable",
      "type": "function"
    },
    {
      "inputs": [
        {
          "internalType": "uint256",
          "name": "tokenId",
          "type": "uint256"
        }
      ],
      "name": "burn",
      "outputs": [
        {
          "internalType": "bool",
          "name": "",
          "type": "bool"
        }
      ],
      "stateMutability": "nonpayable",
      "type": "function"
    },
    {
      "inputs": [
        {
          "internalType": "uint256",
          "name": "_creatorFee",
          "type": "uint256"
        }
      ],
      "name": "changeCreatorFee",
      "outputs": [],
      "stateMutability": "nonpayable",
      "type": "function"
    },
    {
      "inputs": [
        {
          "internalType": "address",
          "name": "_dollarZoombies",
          "type": "address"
        }
      ],
      "name": "changeDollarZoombiesAddress",
      "outputs": [],
      "stateMutability": "nonpayable",
      "type": "function"
    },
    {
      "inputs": [
        {
          "internalType": "uint256",
          "name": "_maxAuctionTime",
          "type": "uint256"
        }
      ],
      "name": "changeMaxAuctionTime",
      "outputs": [],
      "stateMutability": "nonpayable",
      "type": "function"
    },
    {
      "inputs": [
        {
          "internalType": "uint256",
          "name": "_maxNFTCount",
          "type": "uint256"
        }
      ],
      "name": "changeMaxNFTCount",
      "outputs": [],
      "stateMutability": "nonpayable",
      "type": "function"
    },
    {
      "inputs": [
        {
          "internalType": "uint256",
          "name": "_zoombiesFee",
          "type": "uint256"
        }
      ],
      "name": "changeZoombiesFee",
      "outputs": [],
      "stateMutability": "nonpayable",
      "type": "function"
    },
    {
      "inputs": [],
      "name": "creatorFee",
      "outputs": [
        {
          "internalType": "uint256",
          "name": "",
          "type": "uint256"
        }
      ],
      "stateMutability": "view",
      "type": "function"
    },
    {
      "inputs": [],
      "name": "dollarZoombies",
      "outputs": [
        {
          "internalType": "address",
          "name": "",
          "type": "address"
        }
      ],
      "stateMutability": "view",
      "type": "function"
    },
    {
      "inputs": [
        {
          "internalType": "uint256",
          "name": "tokenId",
          "type": "uint256"
        }
      ],
      "name": "getApproved",
      "outputs": [
        {
          "internalType": "address",
          "name": "",
          "type": "address"
        }
      ],
      "stateMutability": "view",
      "type": "function"
    },
    {
      "inputs": [
        {
          "internalType": "bytes32",
          "name": "role",
          "type": "bytes32"
        }
      ],
      "name": "getRoleAdmin",
      "outputs": [
        {
          "internalType": "bytes32",
          "name": "",
          "type": "bytes32"
        }
      ],
      "stateMutability": "view",
      "type": "function"
    },
    {
      "inputs": [
        {
          "internalType": "bytes32",
          "name": "role",
          "type": "bytes32"
        },
        {
          "internalType": "address",
          "name": "account",
          "type": "address"
        }
      ],
      "name": "grantRole",
      "outputs": [],
      "stateMutability": "nonpayable",
      "type": "function"
    },
    {
      "inputs": [
        {
          "internalType": "bytes32",
          "name": "role",
          "type": "bytes32"
        },
        {
          "internalType": "address",
          "name": "account",
          "type": "address"
        }
      ],
      "name": "hasRole",
      "outputs": [
        {
          "internalType": "bool",
          "name": "",
          "type": "bool"
        }
      ],
      "stateMutability": "view",
      "type": "function"
    },
    {
      "inputs": [
        {
          "internalType": "address",
          "name": "owner",
          "type": "address"
        },
        {
          "internalType": "address",
          "name": "operator",
          "type": "address"
        }
      ],
      "name": "isApprovedForAll",
      "outputs": [
        {
          "internalType": "bool",
          "name": "",
          "type": "bool"
        }
      ],
      "stateMutability": "view",
      "type": "function"
    },
    {
      "inputs": [],
      "name": "itemCount",
      "outputs": [
        {
          "internalType": "uint256",
          "name": "",
          "type": "uint256"
        }
      ],
      "stateMutability": "view",
      "type": "function"
    },
    {
      "inputs": [
        {
          "internalType": "uint256",
          "name": "auctionEnd",
          "type": "uint256"
        },
        {
          "internalType": "uint256",
          "name": "minPrice",
          "type": "uint256"
        },
        {
          "internalType": "uint256[]",
          "name": "tokenIds",
          "type": "uint256[]"
        },
        {
          "internalType": "address",
          "name": "saleToken",
          "type": "address"
        }
      ],
      "name": "listItem",
      "outputs": [],
      "stateMutability": "payable",
      "type": "function"
    },
    {
      "inputs": [],
      "name": "maxAuctionTime",
      "outputs": [
        {
          "internalType": "uint256",
          "name": "",
          "type": "uint256"
        }
      ],
      "stateMutability": "view",
      "type": "function"
    },
    {
      "inputs": [],
      "name": "maxNFTCount",
      "outputs": [
        {
          "internalType": "uint256",
          "name": "",
          "type": "uint256"
        }
      ],
      "stateMutability": "view",
      "type": "function"
    },
    {
      "inputs": [
        {
          "internalType": "address",
          "name": "to",
          "type": "address"
        },
        {
          "internalType": "uint256",
          "name": "tokenId",
          "type": "uint256"
        }
      ],
      "name": "mint",
      "outputs": [
        {
          "internalType": "bool",
          "name": "",
          "type": "bool"
        }
      ],
      "stateMutability": "nonpayable",
      "type": "function"
    },
    {
      "inputs": [],
      "name": "name",
      "outputs": [
        {
          "internalType": "string",
          "name": "",
          "type": "string"
        }
      ],
      "stateMutability": "view",
      "type": "function"
    },
    {
      "inputs": [
        {
          "internalType": "address",
          "name": "",
          "type": "address"
        },
        {
          "internalType": "address",
          "name": "",
          "type": "address"
        },
        {
          "internalType": "uint256",
          "name": "",
          "type": "uint256"
        },
        {
          "internalType": "bytes",
          "name": "",
          "type": "bytes"
        }
      ],
      "name": "onERC721Received",
      "outputs": [
        {
          "internalType": "bytes4",
          "name": "",
          "type": "bytes4"
        }
      ],
      "stateMutability": "nonpayable",
      "type": "function"
    },
    {
      "inputs": [
        {
          "internalType": "uint256",
          "name": "",
          "type": "uint256"
        }
      ],
      "name": "originalOwner",
      "outputs": [
        {
          "internalType": "address",
          "name": "",
          "type": "address"
        }
      ],
      "stateMutability": "view",
      "type": "function"
    },
    {
      "inputs": [
        {
          "internalType": "uint256",
          "name": "tokenId",
          "type": "uint256"
        }
      ],
      "name": "ownerOf",
      "outputs": [
        {
          "internalType": "address",
          "name": "",
          "type": "address"
        }
      ],
      "stateMutability": "view",
      "type": "function"
    },
    {
      "inputs": [],
      "name": "pause",
      "outputs": [],
      "stateMutability": "nonpayable",
      "type": "function"
    },
    {
      "inputs": [],
      "name": "paused",
      "outputs": [
        {
          "internalType": "bool",
          "name": "",
          "type": "bool"
        }
      ],
      "stateMutability": "view",
      "type": "function"
    },
    {
      "inputs": [
        {
          "internalType": "bytes32",
          "name": "role",
          "type": "bytes32"
        },
        {
          "internalType": "address",
          "name": "account",
          "type": "address"
        }
      ],
      "name": "renounceRole",
      "outputs": [],
      "stateMutability": "nonpayable",
      "type": "function"
    },
    {
      "inputs": [
        {
          "internalType": "bytes32",
          "name": "role",
          "type": "bytes32"
        },
        {
          "internalType": "address",
          "name": "account",
          "type": "address"
        }
      ],
      "name": "revokeRole",
      "outputs": [],
      "stateMutability": "nonpayable",
      "type": "function"
    },
    {
      "inputs": [
        {
          "internalType": "address",
          "name": "from",
          "type": "address"
        },
        {
          "internalType": "address",
          "name": "to",
          "type": "address"
        },
        {
          "internalType": "uint256",
          "name": "tokenId",
          "type": "uint256"
        }
      ],
      "name": "safeTransferFrom",
      "outputs": [],
      "stateMutability": "nonpayable",
      "type": "function"
    },
    {
      "inputs": [
        {
          "internalType": "address",
          "name": "from",
          "type": "address"
        },
        {
          "internalType": "address",
          "name": "to",
          "type": "address"
        },
        {
          "internalType": "uint256",
          "name": "tokenId",
          "type": "uint256"
        },
        {
          "internalType": "bytes",
          "name": "_data",
          "type": "bytes"
        }
      ],
      "name": "safeTransferFrom",
      "outputs": [],
      "stateMutability": "nonpayable",
      "type": "function"
    },
    {
      "inputs": [
        {
          "internalType": "address",
          "name": "to",
          "type": "address"
        },
        {
          "internalType": "uint256",
          "name": "tokenId",
          "type": "uint256"
        }
      ],
      "name": "safemint",
      "outputs": [
        {
          "internalType": "bool",
          "name": "",
          "type": "bool"
        }
      ],
      "stateMutability": "nonpayable",
      "type": "function"
    },
    {
      "inputs": [
        {
          "internalType": "address",
          "name": "operator",
          "type": "address"
        },
        {
          "internalType": "bool",
          "name": "approved",
          "type": "bool"
        }
      ],
      "name": "setApprovalForAll",
      "outputs": [],
      "stateMutability": "nonpayable",
      "type": "function"
    },
    {
      "inputs": [
        {
          "internalType": "uint256",
          "name": "tokenId",
          "type": "uint256"
        },
        {
          "internalType": "string",
          "name": "_tokenURI",
          "type": "string"
        }
      ],
      "name": "setTokenURI",
      "outputs": [
        {
          "internalType": "bool",
          "name": "",
          "type": "bool"
        }
      ],
      "stateMutability": "nonpayable",
      "type": "function"
    },
    {
      "inputs": [
        {
          "internalType": "uint256",
          "name": "itemNumber",
          "type": "uint256"
        }
      ],
      "name": "settle",
      "outputs": [],
      "stateMutability": "nonpayable",
      "type": "function"
    },
    {
      "inputs": [
        {
          "internalType": "bytes4",
          "name": "interfaceId",
          "type": "bytes4"
        }
      ],
      "name": "supportsInterface",
      "outputs": [
        {
          "internalType": "bool",
          "name": "",
          "type": "bool"
        }
      ],
      "stateMutability": "view",
      "type": "function"
    },
    {
      "inputs": [],
      "name": "symbol",
      "outputs": [
        {
          "internalType": "string",
          "name": "",
          "type": "string"
        }
      ],
      "stateMutability": "view",
      "type": "function"
    },
    {
      "inputs": [
        {
          "internalType": "uint256",
          "name": "index",
          "type": "uint256"
        }
      ],
      "name": "tokenByIndex",
      "outputs": [
        {
          "internalType": "uint256",
          "name": "",
          "type": "uint256"
        }
      ],
      "stateMutability": "view",
      "type": "function"
    },
    {
      "inputs": [
        {
          "internalType": "address",
          "name": "owner",
          "type": "address"
        },
        {
          "internalType": "uint256",
          "name": "index",
          "type": "uint256"
        }
      ],
      "name": "tokenOfOwnerByIndex",
      "outputs": [
        {
          "internalType": "uint256",
          "name": "",
          "type": "uint256"
        }
      ],
      "stateMutability": "view",
      "type": "function"
    },
    {
      "inputs": [
        {
          "internalType": "uint256",
          "name": "tokenId",
          "type": "uint256"
        }
      ],
      "name": "tokenURI",
      "outputs": [
        {
          "internalType": "string",
          "name": "",
          "type": "string"
        }
      ],
      "stateMutability": "view",
      "type": "function"
    },
    {
      "inputs": [
        {
          "internalType": "address",
          "name": "",
          "type": "address"
        }
      ],
      "name": "tokenWhitelist",
      "outputs": [
        {
          "internalType": "bool",
          "name": "",
          "type": "bool"
        }
      ],
      "stateMutability": "view",
      "type": "function"
    },
    {
      "inputs": [],
      "name": "totalSupply",
      "outputs": [
        {
          "internalType": "uint256",
          "name": "",
          "type": "uint256"
        }
      ],
      "stateMutability": "view",
      "type": "function"
    },
    {
      "inputs": [
        {
          "internalType": "address",
          "name": "from",
          "type": "address"
        },
        {
          "internalType": "address",
          "name": "to",
          "type": "address"
        },
        {
          "internalType": "uint256",
          "name": "tokenId",
          "type": "uint256"
        }
      ],
      "name": "transferFrom",
      "outputs": [],
      "stateMutability": "nonpayable",
      "type": "function"
    },
    {
      "inputs": [],
      "name": "unpause",
      "outputs": [],
      "stateMutability": "nonpayable",
      "type": "function"
    },
    {
      "inputs": [
        {
          "internalType": "address",
          "name": "token",
          "type": "address"
        },
        {
          "internalType": "bool",
          "name": "isWhitelisted",
          "type": "bool"
        }
      ],
      "name": "whitelistToken",
      "outputs": [],
      "stateMutability": "nonpayable",
      "type": "function"
    },
    {
      "inputs": [],
      "name": "zoombiesFee",
      "outputs": [
        {
          "internalType": "uint256",
          "name": "",
          "type": "uint256"
        }
      ],
      "stateMutability": "view",
      "type": "function"
    }
  ],
  "bytecode": "0x60806040523480156200001157600080fd5b506040516200479838038062004798833981016040819052620000349162000396565b838381818160009080519060200190620000509291906200022d565b508051620000669060019060208401906200022d565b5050600c805460ff19169055506005600e819055600d55600f80546001600160a01b031916339081179091556212750060105560ff601155620000ac90600090620000f5565b620000b960008062000105565b50506001601355601580546001600160a01b039384166001600160a01b0319918216179091556016805492909316911617905550620004759050565b6200010182826200015a565b5050565b60006200011283620001e6565b6000848152600b6020526040808220600101859055519192508391839186917fbd79b86ffe0ab8e8776151514217cd7cacd52c909f66475c3af44e129f0b00ff9190a4505050565b620001668282620001fe565b62000101576000828152600b602090815260408083206001600160a01b03851684529091529020805460ff19166001179055620001a262000229565b6001600160a01b0316816001600160a01b0316837f2f8788117e7eff1d82e926ec794901d17c78024a50270940304540a733656f0d60405160405180910390a45050565b6000818152600b60205260409020600101545b919050565b6000918252600b602090815260408084206001600160a01b0393909316845291905290205460ff1690565b3390565b8280546200023b9062000422565b90600052602060002090601f0160209004810192826200025f5760008555620002aa565b82601f106200027a57805160ff1916838001178555620002aa565b82800160010185558215620002aa579182015b82811115620002aa5782518255916020019190600101906200028d565b50620002b8929150620002bc565b5090565b5b80821115620002b85760008155600101620002bd565b80516001600160a01b0381168114620001f957600080fd5b600082601f830112620002fc578081fd5b81516001600160401b03808211156200031957620003196200045f565b6040516020601f8401601f19168201810183811183821017156200034157620003416200045f565b604052838252858401810187101562000358578485fd5b8492505b838310156200037b57858301810151828401820152918201916200035c565b838311156200038c57848185840101525b5095945050505050565b60008060008060808587031215620003ac578384fd5b84516001600160401b0380821115620003c3578586fd5b620003d188838901620002eb565b95506020870151915080821115620003e7578485fd5b50620003f687828801620002eb565b9350506200040760408601620002d3565b91506200041760608601620002d3565b905092959194509250565b6002810460018216806200043757607f821691505b602082108114156200045957634e487b7160e01b600052602260045260246000fd5b50919050565b634e487b7160e01b600052604160045260246000fd5b61431380620004856000396000f3fe6080604052600436106102935760003560e01c80635c975abb1161015a57806395d89b41116100c1578063c87b56dd1161007a578063c87b56dd1461079e578063d547741f146107be578063e3c55e40146107de578063e88958dc146107fe578063e985e9c514610813578063f64989fe1461083357610293565b806395d89b41146106f4578063a217fddf14610709578063a22cb4651461071e578063a29b549a1461073e578063a7f56c641461075e578063b88d4fde1461077e57610293565b806382f16cea1161011357806382f16cea1461064a5780638456cb591461066a5780638667f7481461067f578063869e7ebb146106945780638df82800146106b457806391d14854146106d457610293565b80635c975abb146105ab5780636352211e146105c05780636bfb0d01146105e057806370a08231146105f5578063753d75631461061557806377e716371461063557610293565b80632f745c59116101fe57806342842e0e116101b757806342842e0e1461051057806342966c68146105305780634b146da6146105505780634f6ccce714610563578063518b057e14610583578063598647f81461059857610293565b80632f745c591461045b57806336568abe1461047b57806338ff4fc41461049b5780633f4ba83a146104bb57806340bb154d146104d057806340c10f19146104f057610293565b8063162094c411610250578063162094c41461038757806317b47cc4146103a757806318160ddd146103d957806323b872dd146103fb578063248a9ca31461041b5780632f2ff15d1461043b57610293565b806301ffc9a71461029557806306fdde03146102cb578063081812fc146102ed578063095ea7b31461031a5780630ffb1d8b1461033a578063150b7a021461035a575b005b3480156102a157600080fd5b506102b56102b036600461337d565b610848565b6040516102c29190613717565b60405180910390f35b3480156102d757600080fd5b506102e061085b565b6040516102c29190613740565b3480156102f957600080fd5b5061030d610308366004613343565b6108ed565b6040516102c2919061364b565b34801561032657600080fd5b506102936103353660046132fe565b610939565b34801561034657600080fd5b506102936103553660046132c8565b6109d1565b34801561036657600080fd5b5061037a61037536600461324f565b610a23565b6040516102c2919061372b565b34801561039357600080fd5b506102b56103a23660046133b5565b610a34565b3480156103b357600080fd5b506103c76103c2366004613343565b610a6f565b6040516102c29695949392919061410a565b3480156103e557600080fd5b506103ee610ab4565b6040516102c29190613722565b34801561040757600080fd5b50610293610416366004613214565b610aba565b34801561042757600080fd5b506103ee610436366004613343565b610af2565b34801561044757600080fd5b5061029361045636600461335b565b610b07565b34801561046757600080fd5b506103ee6104763660046132fe565b610b2b565b34801561048757600080fd5b5061029361049636600461335b565b610b7d565b3480156104a757600080fd5b506102b56104b63660046132fe565b610bc3565b3480156104c757600080fd5b50610293610bf5565b3480156104dc57600080fd5b5061030d6104eb366004613343565b610c26565b3480156104fc57600080fd5b506102b561050b3660046132fe565b610c41565b34801561051c57600080fd5b5061029361052b366004613214565b610c73565b34801561053c57600080fd5b506102b561054b366004613343565b610c8e565b61029361055e36600461342e565b610cc7565b34801561056f57600080fd5b506103ee61057e366004613343565b610fbb565b34801561058f57600080fd5b506103ee611016565b6102936105a636600461340d565b61101c565b3480156105b757600080fd5b506102b561126d565b3480156105cc57600080fd5b5061030d6105db366004613343565b611276565b3480156105ec57600080fd5b506103ee6112ab565b34801561060157600080fd5b506103ee6106103660046131c8565b6112b1565b34801561062157600080fd5b506102b56106303660046131c8565b6112f5565b34801561064157600080fd5b5061030d61130a565b34801561065657600080fd5b50610293610665366004613343565b611319565b34801561067657600080fd5b50610293611366565b34801561068b57600080fd5b506103ee611395565b3480156106a057600080fd5b506102936106af366004613343565b61139b565b3480156106c057600080fd5b506102936106cf366004613343565b6113f2565b3480156106e057600080fd5b506102b56106ef36600461335b565b61142b565b34801561070057600080fd5b506102e0611456565b34801561071557600080fd5b506103ee611465565b34801561072a57600080fd5b506102936107393660046132c8565b61146a565b34801561074a57600080fd5b506102936107593660046131c8565b611538565b34801561076a57600080fd5b50610293610779366004613343565b611581565b34801561078a57600080fd5b5061029361079936600461324f565b6115df565b3480156107aa57600080fd5b506102e06107b9366004613343565b61161e565b3480156107ca57600080fd5b506102936107d936600461335b565b611629565b3480156107ea57600080fd5b506102936107f9366004613343565b611648565b34801561080a57600080fd5b506103ee61169f565b34801561081f57600080fd5b506102b561082e3660046131e2565b6116a5565b34801561083f57600080fd5b506103ee6116d3565b6000610853826116d9565b90505b919050565b60606000805461086a9061420d565b80601f01602080910402602001604051908101604052809291908181526020018280546108969061420d565b80156108e35780601f106108b8576101008083540402835291602001916108e3565b820191906000526020600020905b8154815290600101906020018083116108c657829003601f168201915b5050505050905090565b60006108f8826116fe565b61091d5760405162461bcd60e51b815260040161091490613cc2565b60405180910390fd5b506000908152600460205260409020546001600160a01b031690565b600061094482611276565b9050806001600160a01b0316836001600160a01b031614156109785760405162461bcd60e51b815260040161091490613e3b565b806001600160a01b031661098a61171b565b6001600160a01b031614806109a657506109a68161082e61171b565b6109c25760405162461bcd60e51b815260040161091490613ab4565b6109cc838361171f565b505050565b6109dc60003361142b565b6109f85760405162461bcd60e51b815260040161091490613c27565b6001600160a01b03919091166000908152601260205260409020805460ff1916911515919091179055565b630a85bd0160e11b5b949350505050565b6000610a40813361142b565b610a5c5760405162461bcd60e51b815260040161091490613c27565b610a66838361178d565b50600192915050565b601760205260009081526040902080546001820154600283015460038401546004850154600690950154939492936001600160a01b0392831693918316929091169086565b60095490565b610acb610ac561171b565b826117d1565b610ae75760405162461bcd60e51b815260040161091490613e7c565b6109cc83838361184e565b6000908152600b602052604090206001015490565b610b1082610af2565b610b2181610b1c61171b565b61197b565b6109cc83836119df565b6000610b36836112b1565b8210610b545760405162461bcd60e51b81526004016109149061381c565b506001600160a01b03919091166000908152600760209081526040808320938352929052205490565b610b8561171b565b6001600160a01b0316816001600160a01b031614610bb55760405162461bcd60e51b8152600401610914906140ad565b610bbf8282611a66565b5050565b6000610bcf813361142b565b610beb5760405162461bcd60e51b815260040161091490613c27565b610a668383611aeb565b610c0060003361142b565b610c1c5760405162461bcd60e51b815260040161091490613c27565b610c24611b05565b565b6014602052600090815260409020546001600160a01b031681565b6000610c4d813361142b565b610c695760405162461bcd60e51b815260040161091490613c27565b610a668383611b73565b6109cc838383604051806020016040528060008152506115df565b6000610c9a813361142b565b610cb65760405162461bcd60e51b815260040161091490613c27565b610cbf82611c52565b506001919050565b60026013541415610cea5760405162461bcd60e51b815260040161091490614008565b6002601355610cf761126d565b15610d145760405162461bcd60e51b815260040161091490613a8a565b610d1e8233611c5e565b601054610d2c904290611d35565b841115610d4b5760405162461bcd60e51b8152600401610914906137e5565b6001600160a01b03811660009081526012602052604090205460ff16610d835760405162461bcd60e51b81526004016109149061403f565b6000825111610da45760405162461bcd60e51b815260040161091490613d57565b601154825110610dc65760405162461bcd60e51b815260040161091490613a45565b6040805160e08101825285815260208082018681526001600160a01b03808616848601908152336060860190815260006080870181815260a088018b815260c0890183905260185483526017885298909120875181559451600186015591516002850180549185166001600160a01b03199283161790559051600385018054918516918316919091179055905160048401805491909316911617905592518051929392610e799260058501920190613030565b5060c0919091015160069091015560188054906000610e9783614248565b919050555060005b8251811015610f4e5760165483516001600160a01b039091169063b88d4fde9033903090879086908110610ee357634e487b7160e01b600052603260045260246000fd5b60200260200101516040518463ffffffff1660e01b8152600401610f09939291906136c0565b600060405180830381600087803b158015610f2357600080fd5b505af1158015610f37573d6000803e3d6000fd5b505050508080610f4690614248565b915050610e9f565b50806001600160a01b031682604051610f679190613527565b6040518091039020336001600160a01b03167f9dbca28d8c738fb7417ef3d1ab2d0fc29d51bbf1d0be0af28b7d59a8c5bddca486604051610fa89190613722565b60405180910390a4505060016013555050565b6000610fc5610ab4565b8210610fe35760405162461bcd60e51b815260040161091490613f04565b6009828154811061100457634e487b7160e01b600052603260045260246000fd5b90600052602060002001549050919050565b60105481565b6002601354141561103f5760405162461bcd60e51b815260040161091490614008565b600260135534158061105057503481145b61106c5760405162461bcd60e51b8152600401610914906138f0565b6000828152601760205260409020600301546001600160a01b03166110a35760405162461bcd60e51b815260040161091490613fd1565b6000828152601760205260409020600101548110156110d45760405162461bcd60e51b815260040161091490613ddd565b6000828152601760205260409020600601548110156111055760405162461bcd60e51b815260040161091490613995565b6000828152601760205260409020544211158061112e5750600082815260176020526040902054155b61114a5760405162461bcd60e51b8152600401610914906137b6565b60008281526017602052604090206002015461116f906001600160a01b031682611d48565b6000828152601760205260409020600401546001600160a01b0316156111c3576000828152601760205260409020600681015460048201546002909201546111c3926001600160a01b039081169116611de4565b6000828152601760205260409020600681018290556004810180546001600160a01b03191633179055546111fa576111fa82611ea4565b600082815260176020526040908190209051611219916005019061355d565b6040518091039020336001600160a01b03167fc89dda33c6731f44e0ceaac4cdf122cc34f130dda4f2f2ace0630db3b6a0cafd848460405161125c9291906140fc565b60405180910390a350506001601355565b600c5460ff1690565b6000818152600260205260408120546001600160a01b0316806108535760405162461bcd60e51b815260040161091490613b5b565b60185481565b60006001600160a01b0382166112d95760405162461bcd60e51b815260040161091490613b11565b506001600160a01b031660009081526003602052604090205490565b60126020526000908152604090205460ff1681565b600f546001600160a01b031681565b61132460003361142b565b6113405760405162461bcd60e51b815260040161091490613c27565b60018110156113615760405162461bcd60e51b8152600401610914906139cc565b601155565b61137160003361142b565b61138d5760405162461bcd60e51b815260040161091490613c27565b610c2461227a565b600e5481565b6113a660003361142b565b6113c25760405162461bcd60e51b815260040161091490613c27565b601481111580156113d1575060015b6113ed5760405162461bcd60e51b815260040161091490613e14565b600e55565b600260135414156114155760405162461bcd60e51b815260040161091490614008565b600260135561142381611ea4565b506001601355565b6000918252600b602090815260408084206001600160a01b0393909316845291905290205460ff1690565b60606001805461086a9061420d565b600081565b61147261171b565b6001600160a01b0316826001600160a01b031614156114a35760405162461bcd60e51b81526004016109149061395e565b80600560006114b061171b565b6001600160a01b03908116825260208083019390935260409182016000908120918716808252919093529120805460ff1916921515929092179091556114f461171b565b6001600160a01b03167f17307eab39ab6107e8899845ad3d59bd9653f200f220920489ca2b5937696c318360405161152c9190613717565b60405180910390a35050565b61154360003361142b565b61155f5760405162461bcd60e51b815260040161091490613c27565b600f80546001600160a01b0319166001600160a01b0392909216919091179055565b61158c60003361142b565b6115a85760405162461bcd60e51b815260040161091490613c27565b6224ea0081111580156115be5750621275008110155b6115da5760405162461bcd60e51b815260040161091490613e14565b601055565b6115f06115ea61171b565b836117d1565b61160c5760405162461bcd60e51b815260040161091490613e7c565b611618848484846122d5565b50505050565b606061085382612308565b61163282610af2565b61163e81610b1c61171b565b6109cc8383611a66565b61165360003361142b565b61166f5760405162461bcd60e51b815260040161091490613c27565b6014811115801561167e575060015b61169a5760405162461bcd60e51b815260040161091490613e14565b600d55565b600d5481565b6001600160a01b03918216600090815260056020908152604080832093909416825291909152205460ff1690565b60115481565b60006001600160e01b03198216637965db0b60e01b1480610853575061085382612421565b6000908152600260205260409020546001600160a01b0316151590565b3390565b600081815260046020526040902080546001600160a01b0319166001600160a01b038416908117909155819061175482611276565b6001600160a01b03167f8c5be1e5ebec7d5bd14f71427d1e84f3dd0314c0f7b2291e5b200ac8c7c3b92560405160405180910390a45050565b611796826116fe565b6117b25760405162461bcd60e51b815260040161091490613ba4565b600082815260066020908152604090912082516109cc9284019061307b565b60006117dc826116fe565b6117f85760405162461bcd60e51b8152600401610914906139f9565b600061180383611276565b9050806001600160a01b0316846001600160a01b0316148061183e5750836001600160a01b0316611833846108ed565b6001600160a01b0316145b80610a2c5750610a2c81856116a5565b826001600160a01b031661186182611276565b6001600160a01b0316146118875760405162461bcd60e51b815260040161091490613d0e565b6001600160a01b0382166118ad5760405162461bcd60e51b81526004016109149061391a565b6118b8838383612446565b6118c360008261171f565b6001600160a01b03831660009081526003602052604081208054600192906118ec9084906141b3565b90915550506001600160a01b038216600090815260036020526040812080546001929061191a908490614168565b909155505060008181526002602052604080822080546001600160a01b0319166001600160a01b0386811691821790925591518493918716917fddf252ad1be2c89b69c2b068fc378daa952ba7f163c4a11628f55a4df523b3ef91a4505050565b611985828261142b565b610bbf5761199d816001600160a01b03166014612451565b6119a8836020612451565b6040516020016119b99291906135d6565b60408051601f198184030181529082905262461bcd60e51b825261091491600401613740565b6119e9828261142b565b610bbf576000828152600b602090815260408083206001600160a01b03851684529091529020805460ff19166001179055611a2261171b565b6001600160a01b0316816001600160a01b0316837f2f8788117e7eff1d82e926ec794901d17c78024a50270940304540a733656f0d60405160405180910390a45050565b611a70828261142b565b15610bbf576000828152600b602090815260408083206001600160a01b03851684529091529020805460ff19169055611aa761171b565b6001600160a01b0316816001600160a01b0316837ff6391f5c32d9c69d2a47ea670b442974b53935d1edc7fd64eb21e047a839171b60405160405180910390a45050565b610bbf828260405180602001604052806000815250612603565b611b0d61126d565b611b295760405162461bcd60e51b815260040161091490613788565b600c805460ff191690557f5db9ee0a495bf2e6ff9c91a7834c1ba4fdd244a5e8aa4e537bd38aeae4b073aa611b5c61171b565b604051611b69919061364b565b60405180910390a1565b6001600160a01b038216611b995760405162461bcd60e51b815260040161091490613bf2565b611ba2816116fe565b15611bbf5760405162461bcd60e51b8152600401610914906138b9565b611bcb60008383612446565b6001600160a01b0382166000908152600360205260408120805460019290611bf4908490614168565b909155505060008181526002602052604080822080546001600160a01b0319166001600160a01b03861690811790915590518392907fddf252ad1be2c89b69c2b068fc378daa952ba7f163c4a11628f55a4df523b3ef908290a45050565b611c5b81612636565b50565b60005b82518110156109cc5760006001600160a01b031660146000858481518110611c9957634e487b7160e01b600052603260045260246000fd5b6020908102919091018101518252810191909152604001600020546001600160a01b03161415611d23578160146000858481518110611ce857634e487b7160e01b600052603260045260246000fd5b6020026020010151815260200190815260200160002060006101000a8154816001600160a01b0302191690836001600160a01b031602179055505b80611d2d81614248565b915050611c61565b6000611d418284614168565b9392505050565b3415801590611d6457506015546001600160a01b038381169116145b15611dd757601560009054906101000a90046001600160a01b03166001600160a01b031663d0e30db0346040518263ffffffff1660e01b81526004016000604051808303818588803b158015611db957600080fd5b505af1158015611dcd573d6000803e3d6000fd5b5050505050610bbf565b816109cc81333085612676565b6015546001600160a01b0382811691161415611e9857601554604051632e1a7d4d60e01b81526001600160a01b0390911690632e1a7d4d90611e2a908690600401613722565b600060405180830381600087803b158015611e4457600080fd5b505af1158015611e58573d6000803e3d6000fd5b50506040516001600160a01b038516925085156108fc02915085906000818181858888f19350505050158015611e92573d6000803e3d6000fd5b506109cc565b806116188184866126ce565b600081815260176020526040902054421015611ed25760405162461bcd60e51b815260040161091490614076565b6000818152601760205260409020600401546001600160a01b0316331480611f1357506000818152601760205260409020600301546001600160a01b031633145b611f2f5760405162461bcd60e51b815260040161091490613f50565b6000818152601760205260409020600601546120a75760005b6000828152601760205260409020600501548110156120215760165460008381526017602052604090206003810154600590910180546001600160a01b039384169363b88d4fde93309391169186908110611fb357634e487b7160e01b600052603260045260246000fd5b90600052602060002001546040518463ffffffff1660e01b8152600401611fdc939291906136c0565b600060405180830381600087803b158015611ff657600080fd5b505af115801561200a573d6000803e3d6000fd5b50505050808061201990614248565b915050611f48565b50600081815260176020526040908190209051612041916005019061355d565b60408051918290038220600084815260176020529182206003015490926001600160a01b0390911691907ff3392b8c642ed07dd5bf912c1bd3883a810e5c9076c8d275a621c9220138ad269061209a90869084906140fc565b60405180910390a461221d565b60005b6000828152601760205260409020600501548110156121835760165460008381526017602052604090206004810154600590910180546001600160a01b039384169363b88d4fde9330939116918690811061211557634e487b7160e01b600052603260045260246000fd5b90600052602060002001546040518463ffffffff1660e01b815260040161213e939291906136c0565b600060405180830381600087803b15801561215857600080fd5b505af115801561216c573d6000803e3d6000fd5b50505050808061217b90614248565b9150506120aa565b5061218d816126ed565b6000818152601760205260409081902090516121ac916005019061355d565b6040805191829003822060008481526017602052919091206003810154600482015460069092015492936001600160a01b039182169392909116917ff3392b8c642ed07dd5bf912c1bd3883a810e5c9076c8d275a621c9220138ad26916122149187916140fc565b60405180910390a45b6000818152601760205260408120818155600181018290556002810180546001600160a01b03199081169091556003820180548216905560048201805490911690559061226d60058301826130ee565b6006820160009055505050565b61228261126d565b1561229f5760405162461bcd60e51b815260040161091490613a8a565b600c805460ff191660011790557f62e78cea01bee320cd4e420270b5ea74000d11b0c9f74754ebdbfc544b05a258611b5c61171b565b6122e084848461184e565b6122ec84848484612847565b6116185760405162461bcd60e51b815260040161091490613867565b6060612313826116fe565b61232f5760405162461bcd60e51b815260040161091490613c71565b600082815260066020526040812080546123489061420d565b80601f01602080910402602001604051908101604052809291908181526020018280546123749061420d565b80156123c15780601f10612396576101008083540402835291602001916123c1565b820191906000526020600020905b8154815290600101906020018083116123a457829003601f168201915b5050505050905060006123d261295f565b90508051600014156123e657509050610856565b8151156124185780826040516020016124009291906135a7565b60405160208183030381529060405292505050610856565b610a2c84612971565b60006001600160e01b0319821663780e9d6360e01b14806108535750610853826129f3565b6109cc838383612a33565b60606000612460836002614194565b61246b906002614168565b67ffffffffffffffff81111561249157634e487b7160e01b600052604160045260246000fd5b6040519080825280601f01601f1916602001820160405280156124bb576020820181803683370190505b509050600360fc1b816000815181106124e457634e487b7160e01b600052603260045260246000fd5b60200101906001600160f81b031916908160001a905350600f60fb1b8160018151811061252157634e487b7160e01b600052603260045260246000fd5b60200101906001600160f81b031916908160001a9053506000612545846002614194565b612550906001614168565b90505b60018111156125e4576f181899199a1a9b1b9c1cb0b131b232b360811b85600f166010811061259257634e487b7160e01b600052603260045260246000fd5b1a60f81b8282815181106125b657634e487b7160e01b600052603260045260246000fd5b60200101906001600160f81b031916908160001a90535060049490941c936125dd816141f6565b9050612553565b508315611d415760405162461bcd60e51b815260040161091490613753565b61260d8383611b73565b61261a6000848484612847565b6109cc5760405162461bcd60e51b815260040161091490613867565b61263f81612abc565b600081815260066020526040902080546126589061420d565b159050611c5b576000818152600660205260408120611c5b9161310c565b611618846323b872dd60e01b8585856040516024016126979392919061365f565b60408051601f198184030181529190526020810180516001600160e01b03166001600160e01b031990931692909217909152612b63565b6109cc8363a9059cbb60e01b84846040516024016126979291906136fe565b600e54600082815260176020526040812060060154909161271b916064916127159190612bf2565b90612bfe565b600d54600084815260176020526040812060060154929350916127449160649161271591612bf2565b6000848152601760205260408120600601549192509061277090839061276a9086612c0a565b90612c0a565b600f546000868152601760205260409020600201549192506127a09185916001600160a01b039081169116611de4565b6000848152601760205260408120600501805461281692859260149282906127d857634e487b7160e01b600052603260045260246000fd5b60009182526020808320909101548352828101939093526040918201812054898252601790935220600201546001600160a01b039182169116611de4565b600084815260176020526040902060038101546002909101546116189183916001600160a01b039182169116611de4565b600061285b846001600160a01b0316612c16565b1561295757836001600160a01b031663150b7a0261287761171b565b8786866040518563ffffffff1660e01b81526004016128999493929190613683565b602060405180830381600087803b1580156128b357600080fd5b505af19250505080156128e3575060408051601f3d908101601f191682019092526128e091810190613399565b60015b61293d573d808015612911576040519150601f19603f3d011682016040523d82523d6000602084013e612916565b606091505b5080516129355760405162461bcd60e51b815260040161091490613867565b805181602001fd5b6001600160e01b031916630a85bd0160e11b149050610a2c565b506001610a2c565b60408051602081019091526000815290565b606061297c826116fe565b6129985760405162461bcd60e51b815260040161091490613d8e565b60006129a261295f565b905060008151116129c25760405180602001604052806000815250611d41565b806129cc84612c1c565b6040516020016129dd9291906135a7565b6040516020818303038152906040529392505050565b60006001600160e01b031982166380ac58cd60e01b1480612a2457506001600160e01b03198216635b5e139f60e01b145b80610853575061085382612d37565b612a3e8383836109cc565b6001600160a01b038316612a5a57612a5581612d50565b612a7d565b816001600160a01b0316836001600160a01b031614612a7d57612a7d8382612d94565b6001600160a01b038216612a9957612a9481612e31565b6109cc565b826001600160a01b0316826001600160a01b0316146109cc576109cc8282612f0a565b6000612ac782611276565b9050612ad581600084612446565b612ae060008361171f565b6001600160a01b0381166000908152600360205260408120805460019290612b099084906141b3565b909155505060008281526002602052604080822080546001600160a01b0319169055518391906001600160a01b038416907fddf252ad1be2c89b69c2b068fc378daa952ba7f163c4a11628f55a4df523b3ef908390a45050565b6000612bb8826040518060400160405280602081526020017f5361666545524332303a206c6f772d6c6576656c2063616c6c206661696c6564815250856001600160a01b0316612f4e9092919063ffffffff16565b8051909150156109cc5780806020019051810190612bd69190613327565b6109cc5760405162461bcd60e51b815260040161091490613f87565b6000611d418284614194565b6000611d418284614180565b6000611d4182846141b3565b3b151590565b606081612c4157506040805180820190915260018152600360fc1b6020820152610856565b8160005b8115612c6b5780612c5581614248565b9150612c649050600a83614180565b9150612c45565b60008167ffffffffffffffff811115612c9457634e487b7160e01b600052604160045260246000fd5b6040519080825280601f01601f191660200182016040528015612cbe576020820181803683370190505b5090505b8415610a2c57612cd36001836141b3565b9150612ce0600a86614263565b612ceb906030614168565b60f81b818381518110612d0e57634e487b7160e01b600052603260045260246000fd5b60200101906001600160f81b031916908160001a905350612d30600a86614180565b9450612cc2565b6001600160e01b031981166301ffc9a760e01b14919050565b600980546000838152600a60205260408120829055600182018355919091527f6e1540171b6c0c960b71a7020d9f60077f6af931a8bbf590da0223dacf75c7af0155565b60006001612da1846112b1565b612dab91906141b3565b600083815260086020526040902054909150808214612dfe576001600160a01b03841660009081526007602090815260408083208584528252808320548484528184208190558352600890915290208190555b5060009182526008602090815260408084208490556001600160a01b039094168352600781528383209183525290812055565b600954600090612e43906001906141b3565b6000838152600a602052604081205460098054939450909284908110612e7957634e487b7160e01b600052603260045260246000fd5b906000526020600020015490508060098381548110612ea857634e487b7160e01b600052603260045260246000fd5b6000918252602080832090910192909255828152600a90915260408082208490558582528120556009805480612eee57634e487b7160e01b600052603160045260246000fd5b6001900381819060005260206000200160009055905550505050565b6000612f15836112b1565b6001600160a01b039093166000908152600760209081526040808320868452825280832085905593825260089052919091209190915550565b6060610a2c848460008585612f6285612c16565b612f7e5760405162461bcd60e51b815260040161091490613ecd565b600080866001600160a01b03168587604051612f9a919061358b565b60006040518083038185875af1925050503d8060008114612fd7576040519150601f19603f3d011682016040523d82523d6000602084013e612fdc565b606091505b5091509150612fec828286612ff7565b979650505050505050565b60608315613006575081611d41565b8251156130165782518084602001fd5b8160405162461bcd60e51b81526004016109149190613740565b82805482825590600052602060002090810192821561306b579160200282015b8281111561306b578251825591602001919060010190613050565b50613077929150613144565b5090565b8280546130879061420d565b90600052602060002090601f0160209004810192826130a9576000855561306b565b82601f106130c257805160ff191683800117855561306b565b8280016001018555821561306b579182018281111561306b578251825591602001919060010190613050565b5080546000825590600052602060002090810190611c5b9190613144565b5080546131189061420d565b6000825580601f1061312a5750611c5b565b601f016020900490600052602060002090810190611c5b91905b5b808211156130775760008155600101613145565b600067ffffffffffffffff831115613173576131736142a3565b613186601f8401601f191660200161413e565b905082815283838301111561319a57600080fd5b828260208301376000602084830101529392505050565b80356001600160a01b038116811461085657600080fd5b6000602082840312156131d9578081fd5b611d41826131b1565b600080604083850312156131f4578081fd5b6131fd836131b1565b915061320b602084016131b1565b90509250929050565b600080600060608486031215613228578081fd5b613231846131b1565b925061323f602085016131b1565b9150604084013590509250925092565b60008060008060808587031215613264578081fd5b61326d856131b1565b935061327b602086016131b1565b925060408501359150606085013567ffffffffffffffff81111561329d578182fd5b8501601f810187136132ad578182fd5b6132bc87823560208401613159565b91505092959194509250565b600080604083850312156132da578182fd5b6132e3836131b1565b915060208301356132f3816142b9565b809150509250929050565b60008060408385031215613310578182fd5b613319836131b1565b946020939093013593505050565b600060208284031215613338578081fd5b8151611d41816142b9565b600060208284031215613354578081fd5b5035919050565b6000806040838503121561336d578182fd5b8235915061320b602084016131b1565b60006020828403121561338e578081fd5b8135611d41816142c7565b6000602082840312156133aa578081fd5b8151611d41816142c7565b600080604083850312156133c7578182fd5b82359150602083013567ffffffffffffffff8111156133e4578182fd5b8301601f810185136133f4578182fd5b61340385823560208401613159565b9150509250929050565b6000806040838503121561341f578182fd5b50508035926020909101359150565b60008060008060808587031215613443578182fd5b843593506020808601359350604086013567ffffffffffffffff80821115613469578485fd5b818801915088601f83011261347c578485fd5b81358181111561348e5761348e6142a3565b838102915061349e84830161413e565b8181528481019084860184860187018d10156134b8578889fd5b8895505b838610156134da5780358352600195909501949186019186016134bc565b508097505050505050506134f0606086016131b1565b905092959194509250565b600081518084526135138160208601602086016141ca565b601f01601f19169290920160200192915050565b815160009082906020808601845b8381101561355157815185529382019390820190600101613535565b50929695505050505050565b60008183548391508483526020808420845b838110156135515781548552938201936001918201910161356f565b6000825161359d8184602087016141ca565b9190910192915050565b600083516135b98184602088016141ca565b8351908301906135cd8183602088016141ca565b01949350505050565b60007f416363657373436f6e74726f6c3a206163636f756e74200000000000000000008252835161360e8160178501602088016141ca565b7001034b99036b4b9b9b4b733903937b6329607d1b601791840191820152835161363f8160288401602088016141ca565b01602801949350505050565b6001600160a01b0391909116815260200190565b6001600160a01b039384168152919092166020820152604081019190915260600190565b6001600160a01b03858116825284166020820152604081018390526080606082018190526000906136b6908301846134fb565b9695505050505050565b6001600160a01b039384168152919092166020820152604081019190915260806060820181905260029082015261060f60f31b60a082015260c00190565b6001600160a01b03929092168252602082015260400190565b901515815260200190565b90815260200190565b6001600160e01b031991909116815260200190565b600060208252611d4160208301846134fb565b6020808252818101527f537472696e67733a20686578206c656e67746820696e73756666696369656e74604082015260600190565b60208082526014908201527314185d5cd8589b194e881b9bdd081c185d5cd95960621b604082015260600190565b60208082526015908201527413585c9ad95d0e88185d58dd1a5bdb88195b991959605a1b604082015260600190565b60208082526018908201527f4d61726b65743a2061756374696f6e20746f6f206c6f6e670000000000000000604082015260600190565b6020808252602b908201527f455243373231456e756d657261626c653a206f776e657220696e646578206f7560408201526a74206f6620626f756e647360a81b606082015260800190565b60208082526032908201527f4552433732313a207472616e7366657220746f206e6f6e20455243373231526560408201527131b2b4bb32b91034b6b83632b6b2b73a32b960711b606082015260800190565b6020808252601c908201527f4552433732313a20746f6b656e20616c7265616479206d696e74656400000000604082015260600190565b60208082526010908201526f09ac2e4d6cae874409ad2e6dac2e8c6d60831b604082015260600190565b60208082526024908201527f4552433732313a207472616e7366657220746f20746865207a65726f206164646040820152637265737360e01b606082015260800190565b60208082526019908201527f4552433732313a20617070726f766520746f2063616c6c657200000000000000604082015260600190565b6020808252601d908201527f4d61726b65743a2062696420756e646572206869676865737420626964000000604082015260600190565b6020808252601390820152721a5b9d985b1a590813585e13919510dbdd5b9d606a1b604082015260600190565b6020808252602c908201527f4552433732313a206f70657261746f7220717565727920666f72206e6f6e657860408201526b34b9ba32b73a103a37b5b2b760a11b606082015260800190565b60208082526025908201527f4d61726b65743a20746f6b656e20636f756e742065786365656473206d61782060408201526418dbdd5b9d60da1b606082015260800190565b60208082526010908201526f14185d5cd8589b194e881c185d5cd95960821b604082015260600190565b60208082526038908201527f4552433732313a20617070726f76652063616c6c6572206973206e6f74206f7760408201527f6e6572206e6f7220617070726f76656420666f7220616c6c0000000000000000606082015260800190565b6020808252602a908201527f4552433732313a2062616c616e636520717565727920666f7220746865207a65604082015269726f206164647265737360b01b606082015260800190565b60208082526029908201527f4552433732313a206f776e657220717565727920666f72206e6f6e657869737460408201526832b73a103a37b5b2b760b91b606082015260800190565b6020808252602e908201527f45524337323155524953746f726167653a2055524920736574206f66206e6f6e60408201526d32bc34b9ba32b73a103a37b5b2b760911b606082015260800190565b6020808252818101527f4552433732313a206d696e7420746f20746865207a65726f2061646472657373604082015260600190565b6020808252602a908201527f5a6f6f6d626965734e46543a205573657220646f6573206e6f7420686176652060408201526961646d696e20726f6c6560b01b606082015260800190565b60208082526031908201527f45524337323155524953746f726167653a2055524920717565727920666f72206040820152703737b732bc34b9ba32b73a103a37b5b2b760791b606082015260800190565b6020808252602c908201527f4552433732313a20617070726f76656420717565727920666f72206e6f6e657860408201526b34b9ba32b73a103a37b5b2b760a11b606082015260800190565b60208082526029908201527f4552433732313a207472616e73666572206f6620746f6b656e2074686174206960408201526839903737ba1037bbb760b91b606082015260800190565b6020808252601f908201527f4d61726b65743a2073656c656374206174206c65617374203120746f6b656e00604082015260600190565b6020808252602f908201527f4552433732314d657461646174613a2055524920717565727920666f72206e6f60408201526e3732bc34b9ba32b73a103a37b5b2b760891b606082015260800190565b6020808252601b908201527f4d61726b65743a2062696420756e646572206d696e2070726963650000000000604082015260600190565b6020808252600d908201526c6e6f7420696e20626f756e647360981b604082015260600190565b60208082526021908201527f4552433732313a20617070726f76616c20746f2063757272656e74206f776e656040820152603960f91b606082015260800190565b60208082526031908201527f4552433732313a207472616e736665722063616c6c6572206973206e6f74206f6040820152701ddb995c881b9bdc88185c1c1c9bdd9959607a1b606082015260800190565b6020808252601d908201527f416464726573733a2063616c6c20746f206e6f6e2d636f6e7472616374000000604082015260600190565b6020808252602c908201527f455243373231456e756d657261626c653a20676c6f62616c20696e646578206f60408201526b7574206f6620626f756e647360a01b606082015260800190565b6020808252601c908201527f4d61726b65743a206e6f7420626964646572206f722073656c6c657200000000604082015260600190565b6020808252602a908201527f5361666545524332303a204552433230206f7065726174696f6e20646964206e6040820152691bdd081cdd58d8d9595960b21b606082015260800190565b60208082526018908201527f4d61726b65743a204e6f6e206578697374696e67206269640000000000000000604082015260600190565b6020808252601f908201527f5265656e7472616e637947756172643a207265656e7472616e742063616c6c00604082015260600190565b6020808252601d908201527f4d61726b65743a20746f6b656e206e6f742077686974656c6973746564000000604082015260600190565b60208082526019908201527f4d61726b65743a2061756374696f6e206e6f7420656e64656400000000000000604082015260600190565b6020808252602f908201527f416363657373436f6e74726f6c3a2063616e206f6e6c792072656e6f756e636560408201526e103937b632b9903337b91039b2b63360891b606082015260800190565b918252602082015260400190565b95865260208601949094526001600160a01b039283166040860152908216606085015216608083015260a082015260c00190565b60405181810167ffffffffffffffff81118282101715614160576141606142a3565b604052919050565b6000821982111561417b5761417b614277565b500190565b60008261418f5761418f61428d565b500490565b60008160001904831182151516156141ae576141ae614277565b500290565b6000828210156141c5576141c5614277565b500390565b60005b838110156141e55781810151838201526020016141cd565b838111156116185750506000910152565b60008161420557614205614277565b506000190190565b60028104600182168061422157607f821691505b6020821081141561424257634e487b7160e01b600052602260045260246000fd5b50919050565b600060001982141561425c5761425c614277565b5060010190565b6000826142725761427261428d565b500690565b634e487b7160e01b600052601160045260246000fd5b634e487b7160e01b600052601260045260246000fd5b634e487b7160e01b600052604160045260246000fd5b8015158114611c5b57600080fd5b6001600160e01b031981168114611c5b57600080fdfea264697066735822122068d5ae0161866e810dad8f2d2d9587cd34d88ce414d8ef0d0398cc590ac61add64736f6c63430008000033",
  "linkReferences": {},
  "deployedLinkReferences": {}
}