{
  "_format": "hh-sol-artifact-1",
  "contractName": "ZoombiesMarketPlace",
  "sourceName": "contracts/ZoombiesMarketplace.sol",
  "abi": [
    {
      "inputs": [
        {
          "internalType": "address",
          "name": "_zoomContract",
          "type": "address"
        },
        {
          "internalType": "address payable",
          "name": "xMovr",
          "type": "address"
        }
      ],
      "stateMutability": "nonpayable",
      "type": "constructor"
    },
    {
      "anonymous": false,
      "inputs": [
        {
          "indexed": true,
          "internalType": "uint256",
          "name": "itemNumber",
          "type": "uint256"
        },
        {
          "indexed": false,
          "internalType": "uint256",
          "name": "bidAmount",
          "type": "uint256"
        },
        {
          "indexed": true,
          "internalType": "address",
          "name": "bidder",
          "type": "address"
        },
        {
          "indexed": false,
          "internalType": "uint256[]",
          "name": "tokenIds",
          "type": "uint256[]"
        }
      ],
      "name": "Bid",
      "type": "event"
    },
    {
      "anonymous": false,
      "inputs": [
        {
          "indexed": true,
          "internalType": "uint256",
          "name": "itemNumber",
          "type": "uint256"
        },
        {
          "indexed": false,
          "internalType": "uint256",
          "name": "auctionEnd",
          "type": "uint256"
        },
        {
          "indexed": true,
          "internalType": "address",
          "name": "seller",
          "type": "address"
        },
        {
          "indexed": false,
          "internalType": "uint256[]",
          "name": "tokenIds",
          "type": "uint256[]"
        },
        {
          "indexed": false,
          "internalType": "address",
          "name": "saleToken",
          "type": "address"
        },
        {
          "indexed": true,
          "internalType": "address",
          "name": "nftToken",
          "type": "address"
        },
        {
          "indexed": false,
          "internalType": "uint256",
          "name": "minPrice",
          "type": "uint256"
        },
        {
          "indexed": false,
          "internalType": "uint256",
          "name": "zoomBurned",
          "type": "uint256"
        }
      ],
      "name": "ItemListed",
      "type": "event"
    },
    {
      "anonymous": false,
      "inputs": [
        {
          "indexed": false,
          "internalType": "address",
          "name": "account",
          "type": "address"
        }
      ],
      "name": "Paused",
      "type": "event"
    },
    {
      "anonymous": false,
      "inputs": [
        {
          "indexed": true,
          "internalType": "bytes32",
          "name": "role",
          "type": "bytes32"
        },
        {
          "indexed": true,
          "internalType": "bytes32",
          "name": "previousAdminRole",
          "type": "bytes32"
        },
        {
          "indexed": true,
          "internalType": "bytes32",
          "name": "newAdminRole",
          "type": "bytes32"
        }
      ],
      "name": "RoleAdminChanged",
      "type": "event"
    },
    {
      "anonymous": false,
      "inputs": [
        {
          "indexed": true,
          "internalType": "bytes32",
          "name": "role",
          "type": "bytes32"
        },
        {
          "indexed": true,
          "internalType": "address",
          "name": "account",
          "type": "address"
        },
        {
          "indexed": true,
          "internalType": "address",
          "name": "sender",
          "type": "address"
        }
      ],
      "name": "RoleGranted",
      "type": "event"
    },
    {
      "anonymous": false,
      "inputs": [
        {
          "indexed": true,
          "internalType": "bytes32",
          "name": "role",
          "type": "bytes32"
        },
        {
          "indexed": true,
          "internalType": "address",
          "name": "account",
          "type": "address"
        },
        {
          "indexed": true,
          "internalType": "address",
          "name": "sender",
          "type": "address"
        }
      ],
      "name": "RoleRevoked",
      "type": "event"
    },
    {
      "anonymous": false,
      "inputs": [
        {
          "indexed": true,
          "internalType": "uint256",
          "name": "itemNumber",
          "type": "uint256"
        },
        {
          "indexed": false,
          "internalType": "address",
          "name": "nftToken",
          "type": "address"
        },
        {
          "indexed": false,
          "internalType": "address",
          "name": "saleToken",
          "type": "address"
        },
        {
          "indexed": false,
          "internalType": "uint256",
          "name": "bidAmount",
          "type": "uint256"
        },
        {
          "indexed": true,
          "internalType": "address",
          "name": "winner",
          "type": "address"
        },
        {
          "indexed": true,
          "internalType": "address",
          "name": "seller",
          "type": "address"
        },
        {
          "indexed": false,
          "internalType": "address",
          "name": "royaltyReceiver",
          "type": "address"
        },
        {
          "indexed": false,
          "internalType": "uint256",
          "name": "royaltyAmount",
          "type": "uint256"
        },
        {
          "indexed": false,
          "internalType": "uint256[]",
          "name": "tokenIds",
          "type": "uint256[]"
        }
      ],
      "name": "Settled",
      "type": "event"
    },
    {
      "anonymous": false,
      "inputs": [
        {
          "indexed": false,
          "internalType": "address",
          "name": "account",
          "type": "address"
        }
      ],
      "name": "Unpaused",
      "type": "event"
    },
    {
      "anonymous": false,
      "inputs": [
        {
          "indexed": false,
          "internalType": "uint256",
          "name": "newMaxAuctionTime",
          "type": "uint256"
        }
      ],
      "name": "auctionMaxTimeChanged",
      "type": "event"
    },
    {
      "anonymous": false,
      "inputs": [
        {
          "indexed": false,
          "internalType": "uint256",
          "name": "newMaxNFTCount",
          "type": "uint256"
        }
      ],
      "name": "maxNFTCountChanged",
      "type": "event"
    },
    {
      "anonymous": false,
      "inputs": [
        {
          "indexed": false,
          "internalType": "address",
          "name": "token",
          "type": "address"
        },
        {
          "indexed": false,
          "internalType": "bool",
          "name": "isWhitelisted",
          "type": "bool"
        }
      ],
      "name": "nftWhiteListed",
      "type": "event"
    },
    {
      "anonymous": false,
      "inputs": [
        {
          "indexed": false,
          "internalType": "address",
          "name": "token",
          "type": "address"
        },
        {
          "indexed": false,
          "internalType": "bool",
          "name": "isWhitelisted",
          "type": "bool"
        },
        {
          "indexed": false,
          "internalType": "uint256",
          "name": "minBidIncrement",
          "type": "uint256"
        }
      ],
      "name": "tokenWhiteListed",
      "type": "event"
    },
    {
      "anonymous": false,
      "inputs": [
        {
          "indexed": false,
          "internalType": "uint256",
          "name": "newZoomBurnFee",
          "type": "uint256"
        }
      ],
      "name": "zoomBurnFeeChanged",
      "type": "event"
    },
    {
      "stateMutability": "payable",
      "type": "fallback"
    },
    {
      "inputs": [],
      "name": "DEFAULT_ADMIN_ROLE",
      "outputs": [
        {
          "internalType": "bytes32",
          "name": "",
          "type": "bytes32"
        }
      ],
      "stateMutability": "view",
      "type": "function"
    },
    {
      "inputs": [
        {
          "internalType": "uint256",
          "name": "",
          "type": "uint256"
        }
      ],
      "name": "Items",
      "outputs": [
        {
          "internalType": "uint256",
          "name": "auctionEnd",
          "type": "uint256"
        },
        {
          "internalType": "uint256",
          "name": "minPrice",
          "type": "uint256"
        },
        {
          "internalType": "address",
          "name": "saleToken",
          "type": "address"
        },
        {
          "internalType": "address",
          "name": "nftToken",
          "type": "address"
        },
        {
          "internalType": "address",
          "name": "seller",
          "type": "address"
        },
        {
          "internalType": "address",
          "name": "highestBidder",
          "type": "address"
        },
        {
          "internalType": "uint256",
          "name": "highestBid",
          "type": "uint256"
        }
      ],
      "stateMutability": "view",
      "type": "function"
    },
    {
      "inputs": [
        {
          "internalType": "uint256",
          "name": "itemNumber",
          "type": "uint256"
        },
        {
          "internalType": "uint256",
          "name": "bidAmount",
          "type": "uint256"
        }
      ],
      "name": "bid",
      "outputs": [],
      "stateMutability": "payable",
      "type": "function"
    },
    {
      "inputs": [
        {
          "internalType": "uint256",
          "name": "_maxAuctionTime",
          "type": "uint256"
        }
      ],
      "name": "changeMaxAuctionTime",
      "outputs": [],
      "stateMutability": "nonpayable",
      "type": "function"
    },
    {
      "inputs": [
        {
          "internalType": "uint256",
          "name": "_maxNFTCount",
          "type": "uint256"
        }
      ],
      "name": "changeMaxNFTCount",
      "outputs": [],
      "stateMutability": "nonpayable",
      "type": "function"
    },
    {
      "inputs": [
        {
          "internalType": "uint256",
          "name": "_zoomBurnFee",
          "type": "uint256"
        }
      ],
      "name": "changeZoomBurnFee",
      "outputs": [],
      "stateMutability": "nonpayable",
      "type": "function"
    },
    {
      "inputs": [
        {
          "internalType": "uint256",
          "name": "itemNumber",
          "type": "uint256"
        }
      ],
      "name": "getListItem",
      "outputs": [
        {
          "components": [
            {
              "internalType": "uint256",
              "name": "auctionEnd",
              "type": "uint256"
            },
            {
              "internalType": "uint256",
              "name": "minPrice",
              "type": "uint256"
            },
            {
              "internalType": "address",
              "name": "saleToken",
              "type": "address"
            },
            {
              "internalType": "address",
              "name": "nftToken",
              "type": "address"
            },
            {
              "internalType": "address",
              "name": "seller",
              "type": "address"
            },
            {
              "internalType": "address",
              "name": "highestBidder",
              "type": "address"
            },
            {
              "internalType": "uint256",
              "name": "highestBid",
              "type": "uint256"
            },
            {
              "internalType": "uint256[]",
              "name": "tokenIds",
              "type": "uint256[]"
            }
          ],
          "internalType": "struct ZoombiesMarketPlace.Item",
          "name": "item",
          "type": "tuple"
        }
      ],
      "stateMutability": "view",
      "type": "function"
    },
    {
      "inputs": [
        {
          "internalType": "bytes32",
          "name": "role",
          "type": "bytes32"
        }
      ],
      "name": "getRoleAdmin",
      "outputs": [
        {
          "internalType": "bytes32",
          "name": "",
          "type": "bytes32"
        }
      ],
      "stateMutability": "view",
      "type": "function"
    },
    {
      "inputs": [
        {
          "internalType": "bytes32",
          "name": "role",
          "type": "bytes32"
        },
        {
          "internalType": "address",
          "name": "account",
          "type": "address"
        }
      ],
      "name": "grantRole",
      "outputs": [],
      "stateMutability": "nonpayable",
      "type": "function"
    },
    {
      "inputs": [
        {
          "internalType": "bytes32",
          "name": "role",
          "type": "bytes32"
        },
        {
          "internalType": "address",
          "name": "account",
          "type": "address"
        }
      ],
      "name": "hasRole",
      "outputs": [
        {
          "internalType": "bool",
          "name": "",
          "type": "bool"
        }
      ],
      "stateMutability": "view",
      "type": "function"
    },
    {
      "inputs": [],
      "name": "itemCount",
      "outputs": [
        {
          "internalType": "uint256",
          "name": "",
          "type": "uint256"
        }
      ],
      "stateMutability": "view",
      "type": "function"
    },
    {
      "inputs": [
        {
          "internalType": "uint256",
          "name": "auctionEnd",
          "type": "uint256"
        },
        {
          "internalType": "uint256",
          "name": "minPrice",
          "type": "uint256"
        },
        {
          "internalType": "uint256[]",
          "name": "tokenIds",
          "type": "uint256[]"
        },
        {
          "internalType": "address",
          "name": "nftToken",
          "type": "address"
        },
        {
          "internalType": "address",
          "name": "saleToken",
          "type": "address"
        }
      ],
      "name": "listItem",
      "outputs": [],
      "stateMutability": "payable",
      "type": "function"
    },
    {
      "inputs": [],
      "name": "maxAuctionTime",
      "outputs": [
        {
          "internalType": "uint256",
          "name": "",
          "type": "uint256"
        }
      ],
      "stateMutability": "view",
      "type": "function"
    },
    {
      "inputs": [],
      "name": "maxNFTCount",
      "outputs": [
        {
          "internalType": "uint256",
          "name": "",
          "type": "uint256"
        }
      ],
      "stateMutability": "view",
      "type": "function"
    },
    {
      "inputs": [
        {
          "internalType": "address",
          "name": "",
          "type": "address"
        }
      ],
      "name": "nftWhitelist",
      "outputs": [
        {
          "internalType": "bool",
          "name": "",
          "type": "bool"
        }
      ],
      "stateMutability": "view",
      "type": "function"
    },
    {
      "inputs": [
        {
          "internalType": "address",
          "name": "",
          "type": "address"
        },
        {
          "internalType": "address",
          "name": "",
          "type": "address"
        },
        {
          "internalType": "uint256",
          "name": "",
          "type": "uint256"
        },
        {
          "internalType": "bytes",
          "name": "",
          "type": "bytes"
        }
      ],
      "name": "onERC721Received",
      "outputs": [
        {
          "internalType": "bytes4",
          "name": "",
          "type": "bytes4"
        }
      ],
      "stateMutability": "nonpayable",
      "type": "function"
    },
    {
      "inputs": [
        {
          "internalType": "uint256",
          "name": "",
          "type": "uint256"
        }
      ],
      "name": "originalOwner",
      "outputs": [
        {
          "internalType": "address",
          "name": "",
          "type": "address"
        }
      ],
      "stateMutability": "view",
      "type": "function"
    },
    {
      "inputs": [],
      "name": "pause",
      "outputs": [],
      "stateMutability": "nonpayable",
      "type": "function"
    },
    {
      "inputs": [],
      "name": "paused",
      "outputs": [
        {
          "internalType": "bool",
          "name": "",
          "type": "bool"
        }
      ],
      "stateMutability": "view",
      "type": "function"
    },
    {
      "inputs": [
        {
          "internalType": "bytes32",
          "name": "role",
          "type": "bytes32"
        },
        {
          "internalType": "address",
          "name": "account",
          "type": "address"
        }
      ],
      "name": "renounceRole",
      "outputs": [],
      "stateMutability": "nonpayable",
      "type": "function"
    },
    {
      "inputs": [
        {
          "internalType": "bytes32",
          "name": "role",
          "type": "bytes32"
        },
        {
          "internalType": "address",
          "name": "account",
          "type": "address"
        }
      ],
      "name": "revokeRole",
      "outputs": [],
      "stateMutability": "nonpayable",
      "type": "function"
    },
    {
      "inputs": [
        {
          "internalType": "uint256",
          "name": "itemNumber",
          "type": "uint256"
        }
      ],
      "name": "settle",
      "outputs": [],
      "stateMutability": "nonpayable",
      "type": "function"
    },
    {
      "inputs": [
        {
          "internalType": "bytes4",
          "name": "interfaceId",
          "type": "bytes4"
        }
      ],
      "name": "supportsInterface",
      "outputs": [
        {
          "internalType": "bool",
          "name": "",
          "type": "bool"
        }
      ],
      "stateMutability": "view",
      "type": "function"
    },
    {
      "inputs": [
        {
          "internalType": "address",
          "name": "",
          "type": "address"
        }
      ],
      "name": "tokenMinIncrement",
      "outputs": [
        {
          "internalType": "uint256",
          "name": "",
          "type": "uint256"
        }
      ],
      "stateMutability": "view",
      "type": "function"
    },
    {
      "inputs": [
        {
          "internalType": "address",
          "name": "",
          "type": "address"
        }
      ],
      "name": "tokenWhitelist",
      "outputs": [
        {
          "internalType": "bool",
          "name": "",
          "type": "bool"
        }
      ],
      "stateMutability": "view",
      "type": "function"
    },
    {
      "inputs": [],
      "name": "unpause",
      "outputs": [],
      "stateMutability": "nonpayable",
      "type": "function"
    },
    {
      "inputs": [
        {
          "internalType": "address",
          "name": "token",
          "type": "address"
        },
        {
          "internalType": "bool",
          "name": "isWhitelisted",
          "type": "bool"
        }
      ],
      "name": "whitelistNFTToken",
      "outputs": [],
      "stateMutability": "nonpayable",
      "type": "function"
    },
    {
      "inputs": [
        {
          "internalType": "address",
          "name": "token",
          "type": "address"
        },
        {
          "internalType": "bool",
          "name": "isWhitelisted",
          "type": "bool"
        },
        {
          "internalType": "uint256",
          "name": "_minBidIncrement",
          "type": "uint256"
        }
      ],
      "name": "whitelistToken",
      "outputs": [],
      "stateMutability": "nonpayable",
      "type": "function"
    },
    {
      "inputs": [],
      "name": "zoomBurnFee",
      "outputs": [
        {
          "internalType": "uint256",
          "name": "",
          "type": "uint256"
        }
      ],
      "stateMutability": "view",
      "type": "function"
    },
    {
      "inputs": [],
      "name": "zoomContract",
      "outputs": [
        {
          "internalType": "address",
          "name": "",
          "type": "address"
        }
      ],
      "stateMutability": "view",
      "type": "function"
    }
  ],
  "bytecode": "0x60806040523480156200001157600080fd5b5060405162005f4d38038062005f4d8339818101604052810190620000379190620004cd565b60016000819055506000600260006101000a81548160ff02191690831515021790555069021e19e0c9bab2400000600381905550621275006004819055506014600581905550620000926000801b336200016d60201b60201c565b620000aa6000801b6000801b6200018360201b60201c565b81600260016101000a81548173ffffffffffffffffffffffffffffffffffffffff021916908373ffffffffffffffffffffffffffffffffffffffff1602179055506200010982600169054b40b1f852bda00000620001e760201b60201c565b6200012481600166470de4df820000620001e760201b60201c565b80600a60006101000a81548173ffffffffffffffffffffffffffffffffffffffff021916908373ffffffffffffffffffffffffffffffffffffffff1602179055505050620006ab565b6200017f82826200031b60201b60201c565b5050565b600062000196836200040c60201b60201c565b90508160016000858152602001908152602001600020600101819055508181847fbd79b86ffe0ab8e8776151514217cd7cacd52c909f66475c3af44e129f0b00ff60405160405180910390a4505050565b620001fc6000801b336200042c60201b60201c565b6200023e576040517f08c379a00000000000000000000000000000000000000000000000000000000081526004016200023590620005e6565b60405180910390fd5b81600660008573ffffffffffffffffffffffffffffffffffffffff1673ffffffffffffffffffffffffffffffffffffffff16815260200190815260200160002060006101000a81548160ff02191690831515021790555080600760008573ffffffffffffffffffffffffffffffffffffffff1673ffffffffffffffffffffffffffffffffffffffff168152602001908152602001600020819055507f0dd971567ed8b4efa1d02757f4ad293368bc10c4eeae5106e6f47f9b1cd1800d8383836040516200030e93929190620005a9565b60405180910390a1505050565b6200032d82826200042c60201b60201c565b6200040857600180600084815260200190815260200160002060000160008373ffffffffffffffffffffffffffffffffffffffff1673ffffffffffffffffffffffffffffffffffffffff16815260200190815260200160002060006101000a81548160ff021916908315150217905550620003ad6200049760201b60201c565b73ffffffffffffffffffffffffffffffffffffffff168173ffffffffffffffffffffffffffffffffffffffff16837f2f8788117e7eff1d82e926ec794901d17c78024a50270940304540a733656f0d60405160405180910390a45b5050565b600060016000838152602001908152602001600020600101549050919050565b60006001600084815260200190815260200160002060000160008373ffffffffffffffffffffffffffffffffffffffff1673ffffffffffffffffffffffffffffffffffffffff16815260200190815260200160002060009054906101000a900460ff16905092915050565b600033905090565b600081519050620004b08162000677565b92915050565b600081519050620004c78162000691565b92915050565b60008060408385031215620004e157600080fd5b6000620004f1858286016200049f565b92505060206200050485828601620004b6565b9150509250929050565b620005198162000619565b82525050565b6200052a8162000641565b82525050565b60006200053f60298362000608565b91507f5a6f6f6d4d61726b65743a205573657220646f6573206e6f742068617665206160008301527f646d696e20726f6c6500000000000000000000000000000000000000000000006020830152604082019050919050565b620005a3816200066d565b82525050565b6000606082019050620005c060008301866200050e565b620005cf60208301856200051f565b620005de604083018462000598565b949350505050565b60006020820190508181036000830152620006018162000530565b9050919050565b600082825260208201905092915050565b600062000626826200064d565b9050919050565b60006200063a826200064d565b9050919050565b60008115159050919050565b600073ffffffffffffffffffffffffffffffffffffffff82169050919050565b6000819050919050565b620006828162000619565b81146200068e57600080fd5b50565b6200069c816200062d565b8114620006a857600080fd5b50565b61589280620006bb6000396000f3fe6080604052600436106101d15760003560e01c80636597441e116100f75780638df8280011610095578063acc314ae11610064578063acc314ae146106a7578063d08b1867146106d0578063d547741f146106ec578063f64989fe14610715576101d2565b80638df82800146105ed57806391d1485414610616578063a217fddf14610653578063a7f56c641461067e576101d2565b806376673ae0116100d157806376673ae0146105595780637c535b1f1461058457806382f16cea146105ad5780638456cb59146105d6576101d2565b80636597441e146104b45780636bfb0d01146104f1578063753d75631461051c576101d2565b80632f2ff15d1161016f57806346b31b6e1161013e57806346b31b6e14610405578063518b057e14610442578063598647f81461046d5780635c975abb14610489576101d2565b80632f2ff15d1461035f57806336568abe146103885780633f4ba83a146103b157806340bb154d146103c8576101d2565b8063150b7a02116101ab578063150b7a021461027757806317b47cc4146102b4578063248a9ca3146102f7578063290ebc8214610334576101d2565b806301ffc9a7146101d4578063022300cb146102115780630feb2d101461024e576101d2565b5b005b3480156101e057600080fd5b506101fb60048036038101906101f69190613ef0565b610740565b6040516102089190614ea9565b60405180910390f35b34801561021d57600080fd5b5061023860048036038101906102339190613cf7565b6107ba565b604051610245919061527e565b60405180910390f35b34801561025a57600080fd5b5061027560048036038101906102709190613d9b565b6107d2565b005b34801561028357600080fd5b5061029e60048036038101906102999190613d20565b6108b2565b6040516102ab9190614edf565b60405180910390f35b3480156102c057600080fd5b506102db60048036038101906102d69190613f19565b6108c6565b6040516102ee979695949392919061534c565b60405180910390f35b34801561030357600080fd5b5061031e60048036038101906103199190613e8b565b610988565b60405161032b9190614ec4565b60405180910390f35b34801561034057600080fd5b506103496109a8565b604051610356919061527e565b60405180910390f35b34801561036b57600080fd5b5061038660048036038101906103819190613eb4565b6109ae565b005b34801561039457600080fd5b506103af60048036038101906103aa9190613eb4565b6109d7565b005b3480156103bd57600080fd5b506103c6610a5a565b005b3480156103d457600080fd5b506103ef60048036038101906103ea9190613f19565b610ab0565b6040516103fc9190614c8b565b60405180910390f35b34801561041157600080fd5b5061042c60048036038101906104279190613cf7565b610ae3565b6040516104399190614ea9565b60405180910390f35b34801561044e57600080fd5b50610457610b03565b604051610464919061527e565b60405180910390f35b61048760048036038101906104829190613f6b565b610b09565b005b34801561049557600080fd5b5061049e6110fe565b6040516104ab9190614ea9565b60405180910390f35b3480156104c057600080fd5b506104db60048036038101906104d69190613f19565b611115565b6040516104e8919061525c565b60405180910390f35b3480156104fd57600080fd5b50610506611311565b604051610513919061527e565b60405180910390f35b34801561052857600080fd5b50610543600480360381019061053e9190613cf7565b611317565b6040516105509190614ea9565b60405180910390f35b34801561056557600080fd5b5061056e611337565b60405161057b9190614c8b565b60405180910390f35b34801561059057600080fd5b506105ab60048036038101906105a69190613f19565b61135d565b005b3480156105b957600080fd5b506105d460048036038101906105cf9190613f19565b611445565b005b3480156105e257600080fd5b506105eb611516565b005b3480156105f957600080fd5b50610614600480360381019061060f9190613f19565b61156c565b005b34801561062257600080fd5b5061063d60048036038101906106389190613eb4565b6115ce565b60405161064a9190614ea9565b60405180910390f35b34801561065f57600080fd5b50610668611639565b6040516106759190614ec4565b60405180910390f35b34801561068a57600080fd5b506106a560048036038101906106a09190613f19565b611640565b005b3480156106b357600080fd5b506106ce60048036038101906106c99190613dd7565b611722565b005b6106ea60048036038101906106e59190613fa7565b611849565b005b3480156106f857600080fd5b50610713600480360381019061070e9190613eb4565b61204a565b005b34801561072157600080fd5b5061072a612073565b604051610737919061527e565b60405180910390f35b60007f7965db0b000000000000000000000000000000000000000000000000000000007bffffffffffffffffffffffffffffffffffffffffffffffffffffffff1916827bffffffffffffffffffffffffffffffffffffffffffffffffffffffff191614806107b357506107b282612079565b5b9050919050565b60076020528060005260406000206000915090505481565b6107df6000801b336115ce565b61081e576040517f08c379a00000000000000000000000000000000000000000000000000000000081526004016108159061513c565b60405180910390fd5b80600860008473ffffffffffffffffffffffffffffffffffffffff1673ffffffffffffffffffffffffffffffffffffffff16815260200190815260200160002060006101000a81548160ff0219169083151502179055507f5e015b085b12a78c1cf8c6c3a6262e130cc7a628a04e03f2ae070c96b2314dae82826040516108a6929190614e20565b60405180910390a15050565b600063150b7a0260e01b9050949350505050565b600b6020528060005260406000206000915090508060000154908060010154908060020160009054906101000a900473ffffffffffffffffffffffffffffffffffffffff16908060030160009054906101000a900473ffffffffffffffffffffffffffffffffffffffff16908060040160009054906101000a900473ffffffffffffffffffffffffffffffffffffffff16908060050160009054906101000a900473ffffffffffffffffffffffffffffffffffffffff16908060060154905087565b600060016000838152602001908152602001600020600101549050919050565b60035481565b6109b782610988565b6109c8816109c36120e3565b6120eb565b6109d28383612188565b505050565b6109df6120e3565b73ffffffffffffffffffffffffffffffffffffffff168173ffffffffffffffffffffffffffffffffffffffff1614610a4c576040517f08c379a0000000000000000000000000000000000000000000000000000000008152600401610a43906151fc565b60405180910390fd5b610a568282612268565b5050565b610a676000801b336115ce565b610aa6576040517f08c379a0000000000000000000000000000000000000000000000000000000008152600401610a9d9061513c565b60405180910390fd5b610aae61234a565b565b60096020528060005260406000206000915054906101000a900473ffffffffffffffffffffffffffffffffffffffff1681565b60086020528060005260406000206000915054906101000a900460ff1681565b60045481565b60026000541415610b4f576040517f08c379a0000000000000000000000000000000000000000000000000000000008152600401610b469061519c565b60405180910390fd5b60026000819055506000341480610b6557503481145b610ba4576040517f08c379a0000000000000000000000000000000000000000000000000000000008152600401610b9b90614f9c565b60405180910390fd5b600b600083815260200190815260200160002060040160009054906101000a900473ffffffffffffffffffffffffffffffffffffffff1673ffffffffffffffffffffffffffffffffffffffff16600073ffffffffffffffffffffffffffffffffffffffff161415610c4a576040517f08c379a0000000000000000000000000000000000000000000000000000000008152600401610c419061517c565b60405180910390fd5b600b600083815260200190815260200160002060010154811015610ca3576040517f08c379a0000000000000000000000000000000000000000000000000000000008152600401610c9a9061509c565b60405180910390fd5b600b60008381526020019081526020016000206000015442111580610cde57506000600b600084815260200190815260200160002060000154145b610d1d576040517f08c379a0000000000000000000000000000000000000000000000000000000008152600401610d1490614f5c565b60405180910390fd5b600b600083815260200190815260200160002060040160009054906101000a900473ffffffffffffffffffffffffffffffffffffffff1673ffffffffffffffffffffffffffffffffffffffff163373ffffffffffffffffffffffffffffffffffffffff161415610dc2576040517f08c379a0000000000000000000000000000000000000000000000000000000008152600401610db99061523c565b60405180910390fd5b6000600b6000848152602001908152602001600020600601541115610ebb5760076000600b600085815260200190815260200160002060020160009054906101000a900473ffffffffffffffffffffffffffffffffffffffff1673ffffffffffffffffffffffffffffffffffffffff1673ffffffffffffffffffffffffffffffffffffffff16815260200190815260200160002054600b600084815260200190815260200160002060060154610e78919061550d565b811015610eba576040517f08c379a0000000000000000000000000000000000000000000000000000000008152600401610eb1906151dc565b60405180910390fd5b5b610efb600b600084815260200190815260200160002060020160009054906101000a900473ffffffffffffffffffffffffffffffffffffffff16826123ec565b600073ffffffffffffffffffffffffffffffffffffffff16600b600084815260200190815260200160002060050160009054906101000a900473ffffffffffffffffffffffffffffffffffffffff1673ffffffffffffffffffffffffffffffffffffffff1614610ff357610ff2600b600084815260200190815260200160002060060154600b600085815260200190815260200160002060050160009054906101000a900473ffffffffffffffffffffffffffffffffffffffff16600b600086815260200190815260200160002060020160009054906101000a900473ffffffffffffffffffffffffffffffffffffffff166124ee565b5b80600b60008481526020019081526020016000206006018190555033600b600084815260200190815260200160002060050160006101000a81548173ffffffffffffffffffffffffffffffffffffffff021916908373ffffffffffffffffffffffffffffffffffffffff1602179055506000600b600084815260200190815260200160002060000154141561108c5761108b82612634565b5b3373ffffffffffffffffffffffffffffffffffffffff16827fc89dda33c6731f44e0ceaac4cdf122cc34f130dda4f2f2ace0630db3b6a0cafd83600b60008781526020019081526020016000206007016040516110ea9291906152f3565b60405180910390a360016000819055505050565b6000600260009054906101000a900460ff16905090565b61111d613a29565b600b60008381526020019081526020016000206040518061010001604052908160008201548152602001600182015481526020016002820160009054906101000a900473ffffffffffffffffffffffffffffffffffffffff1673ffffffffffffffffffffffffffffffffffffffff1673ffffffffffffffffffffffffffffffffffffffff1681526020016003820160009054906101000a900473ffffffffffffffffffffffffffffffffffffffff1673ffffffffffffffffffffffffffffffffffffffff1673ffffffffffffffffffffffffffffffffffffffff1681526020016004820160009054906101000a900473ffffffffffffffffffffffffffffffffffffffff1673ffffffffffffffffffffffffffffffffffffffff1673ffffffffffffffffffffffffffffffffffffffff1681526020016005820160009054906101000a900473ffffffffffffffffffffffffffffffffffffffff1673ffffffffffffffffffffffffffffffffffffffff1673ffffffffffffffffffffffffffffffffffffffff168152602001600682015481526020016007820180548060200260200160405190810160405280929190818152602001828054801561130157602002820191906000526020600020905b8154815260200190600101908083116112ed575b5050505050815250509050919050565b600c5481565b60066020528060005260406000206000915054906101000a900460ff1681565b600260019054906101000a900473ffffffffffffffffffffffffffffffffffffffff1681565b61136a6000801b336115ce565b6113a9576040517f08c379a00000000000000000000000000000000000000000000000000000000081526004016113a09061513c565b60405180910390fd5b6a084595161401484a00000081111580156113c5575060008110155b611404576040517f08c379a00000000000000000000000000000000000000000000000000000000081526004016113fb906150bc565b60405180910390fd5b806003819055507f06a65e195266dad72acd795716564f694ce6f63566ecef0f907d07dd8f5ed1538160405161143a919061527e565b60405180910390a150565b6114526000801b336115ce565b611491576040517f08c379a00000000000000000000000000000000000000000000000000000000081526004016114889061513c565b60405180910390fd5b60018110156114d5576040517f08c379a00000000000000000000000000000000000000000000000000000000081526004016114cc90614fdc565b60405180910390fd5b806005819055507f63352072b20fb9911c4c686c094ec0f2a00012d85fa7f29e078cd9f19b301c088160405161150b919061527e565b60405180910390a150565b6115236000801b336115ce565b611562576040517f08c379a00000000000000000000000000000000000000000000000000000000081526004016115599061513c565b60405180910390fd5b61156a612ca8565b565b600260005414156115b2576040517f08c379a00000000000000000000000000000000000000000000000000000000081526004016115a99061519c565b60405180910390fd5b60026000819055506115c381612634565b600160008190555050565b60006001600084815260200190815260200160002060000160008373ffffffffffffffffffffffffffffffffffffffff1673ffffffffffffffffffffffffffffffffffffffff16815260200190815260200160002060009054906101000a900460ff16905092915050565b6000801b81565b61164d6000801b336115ce565b61168c576040517f08c379a00000000000000000000000000000000000000000000000000000000081526004016116839061513c565b60405180910390fd5b6224ea0081111580156116a25750621275008110155b6116e1576040517f08c379a00000000000000000000000000000000000000000000000000000000081526004016116d8906150bc565b60405180910390fd5b806004819055507f765b56cfa0eae873b71afb67a3eaa2997f9eb0f9d7fcdea125569419b02da08681604051611717919061527e565b60405180910390a150565b61172f6000801b336115ce565b61176e576040517f08c379a00000000000000000000000000000000000000000000000000000000081526004016117659061513c565b60405180910390fd5b81600660008573ffffffffffffffffffffffffffffffffffffffff1673ffffffffffffffffffffffffffffffffffffffff16815260200190815260200160002060006101000a81548160ff02191690831515021790555080600760008573ffffffffffffffffffffffffffffffffffffffff1673ffffffffffffffffffffffffffffffffffffffff168152602001908152602001600020819055507f0dd971567ed8b4efa1d02757f4ad293368bc10c4eeae5106e6f47f9b1cd1800d83838360405161183c93929190614e49565b60405180910390a1505050565b6002600054141561188f576040517f08c379a00000000000000000000000000000000000000000000000000000000081526004016118869061519c565b60405180910390fd5b600260008190555061189f6110fe565b156118df576040517f08c379a00000000000000000000000000000000000000000000000000000000081526004016118d69061503c565b60405180910390fd5b6118e98333612d4b565b6118fe60045442612eaa90919063ffffffff16565b851115611940576040517f08c379a000000000000000000000000000000000000000000000000000000000815260040161193790614f7c565b60405180910390fd5b600660008273ffffffffffffffffffffffffffffffffffffffff1673ffffffffffffffffffffffffffffffffffffffff16815260200190815260200160002060009054906101000a900460ff166119cc576040517f08c379a00000000000000000000000000000000000000000000000000000000081526004016119c390614fbc565b60405180910390fd5b600860008373ffffffffffffffffffffffffffffffffffffffff1673ffffffffffffffffffffffffffffffffffffffff16815260200190815260200160002060009054906101000a900460ff16611a58576040517f08c379a0000000000000000000000000000000000000000000000000000000008152600401611a4f9061521c565b60405180910390fd5b6000835111611a9c576040517f08c379a0000000000000000000000000000000000000000000000000000000008152600401611a939061507c565b60405180910390fd5b600554835110611ae1576040517f08c379a0000000000000000000000000000000000000000000000000000000008152600401611ad89061501c565b60405180910390fd5b60008411611b24576040517f08c379a0000000000000000000000000000000000000000000000000000000008152600401611b1b9061505c565b60405180910390fd5b611b3a8351600354612ec090919063ffffffff16565b600260019054906101000a900473ffffffffffffffffffffffffffffffffffffffff1673ffffffffffffffffffffffffffffffffffffffff1663dd62ed3e33306040518363ffffffff1660e01b8152600401611b97929190614ca6565b60206040518083038186803b158015611baf57600080fd5b505afa158015611bc3573d6000803e3d6000fd5b505050506040513d601f19601f82011682018060405250810190611be79190613f42565b1015611c28576040517f08c379a0000000000000000000000000000000000000000000000000000000008152600401611c1f906150dc565b60405180910390fd5b600260019054906101000a900473ffffffffffffffffffffffffffffffffffffffff1673ffffffffffffffffffffffffffffffffffffffff166379cc679033611c7d8651600354612ec090919063ffffffff16565b6040518363ffffffff1660e01b8152600401611c9a929190614e80565b600060405180830381600087803b158015611cb457600080fd5b505af1158015611cc8573d6000803e3d6000fd5b505050506040518061010001604052808681526020018581526020018273ffffffffffffffffffffffffffffffffffffffff1681526020018373ffffffffffffffffffffffffffffffffffffffff1681526020013373ffffffffffffffffffffffffffffffffffffffff168152602001600073ffffffffffffffffffffffffffffffffffffffff1681526020016000815260200184815250600b6000600c548152602001908152602001600020600082015181600001556020820151816001015560408201518160020160006101000a81548173ffffffffffffffffffffffffffffffffffffffff021916908373ffffffffffffffffffffffffffffffffffffffff16021790555060608201518160030160006101000a81548173ffffffffffffffffffffffffffffffffffffffff021916908373ffffffffffffffffffffffffffffffffffffffff16021790555060808201518160040160006101000a81548173ffffffffffffffffffffffffffffffffffffffff021916908373ffffffffffffffffffffffffffffffffffffffff16021790555060a08201518160050160006101000a81548173ffffffffffffffffffffffffffffffffffffffff021916908373ffffffffffffffffffffffffffffffffffffffff16021790555060c0820151816006015560e0820151816007019080519060200190611ecb929190613ac6565b5090505060005b8351811015611f9d578273ffffffffffffffffffffffffffffffffffffffff1663b88d4fde3330878581518110611f32577f4e487b7100000000000000000000000000000000000000000000000000000000600052603260045260246000fd5b60200260200101516040518463ffffffff1660e01b8152600401611f5893929190614dd6565b600060405180830381600087803b158015611f7257600080fd5b505af1158015611f86573d6000803e3d6000fd5b505050508080611f9590615711565b915050611ed2565b508173ffffffffffffffffffffffffffffffffffffffff163373ffffffffffffffffffffffffffffffffffffffff16600c547fa87e1bcc08ed64e4a40109dc0a599f230a9f1e2418e1fab9764bfcccb9cc3da28887868a61200a8b51600354612ec090919063ffffffff16565b60405161201b959493929190615299565b60405180910390a4600c600081548092919061203690615711565b919050555060016000819055505050505050565b61205382610988565b6120648161205f6120e3565b6120eb565b61206e8383612268565b505050565b60055481565b60007f01ffc9a7000000000000000000000000000000000000000000000000000000007bffffffffffffffffffffffffffffffffffffffffffffffffffffffff1916827bffffffffffffffffffffffffffffffffffffffffffffffffffffffff1916149050919050565b600033905090565b6120f582826115ce565b6121845761211a8173ffffffffffffffffffffffffffffffffffffffff166014612ed6565b6121288360001c6020612ed6565b604051602001612139929190614c51565b6040516020818303038152906040526040517f08c379a000000000000000000000000000000000000000000000000000000000815260040161217b9190614efa565b60405180910390fd5b5050565b61219282826115ce565b61226457600180600084815260200190815260200160002060000160008373ffffffffffffffffffffffffffffffffffffffff1673ffffffffffffffffffffffffffffffffffffffff16815260200190815260200160002060006101000a81548160ff0219169083151502179055506122096120e3565b73ffffffffffffffffffffffffffffffffffffffff168173ffffffffffffffffffffffffffffffffffffffff16837f2f8788117e7eff1d82e926ec794901d17c78024a50270940304540a733656f0d60405160405180910390a45b5050565b61227282826115ce565b156123465760006001600084815260200190815260200160002060000160008373ffffffffffffffffffffffffffffffffffffffff1673ffffffffffffffffffffffffffffffffffffffff16815260200190815260200160002060006101000a81548160ff0219169083151502179055506122eb6120e3565b73ffffffffffffffffffffffffffffffffffffffff168173ffffffffffffffffffffffffffffffffffffffff16837ff6391f5c32d9c69d2a47ea670b442974b53935d1edc7fd64eb21e047a839171b60405160405180910390a45b5050565b6123526110fe565b612391576040517f08c379a000000000000000000000000000000000000000000000000000000000815260040161238890614f3c565b60405180910390fd5b6000600260006101000a81548160ff0219169083151502179055507f5db9ee0a495bf2e6ff9c91a7834c1ba4fdd244a5e8aa4e537bd38aeae4b073aa6123d56120e3565b6040516123e29190614c8b565b60405180910390a1565b6000341415801561244a5750600a60009054906101000a900473ffffffffffffffffffffffffffffffffffffffff1673ffffffffffffffffffffffffffffffffffffffff168273ffffffffffffffffffffffffffffffffffffffff16145b156124d757600a60009054906101000a900473ffffffffffffffffffffffffffffffffffffffff1673ffffffffffffffffffffffffffffffffffffffff1663d0e30db0346040518263ffffffff1660e01b81526004016000604051808303818588803b1580156124b957600080fd5b505af11580156124cd573d6000803e3d6000fd5b50505050506124ea565b60008290506124e8813330856131d0565b505b5050565b600a60009054906101000a900473ffffffffffffffffffffffffffffffffffffffff1673ffffffffffffffffffffffffffffffffffffffff168173ffffffffffffffffffffffffffffffffffffffff16141561261d57600a60009054906101000a900473ffffffffffffffffffffffffffffffffffffffff1673ffffffffffffffffffffffffffffffffffffffff16632e1a7d4d846040518263ffffffff1660e01b815260040161259f919061527e565b600060405180830381600087803b1580156125b957600080fd5b505af11580156125cd573d6000803e3d6000fd5b505050508173ffffffffffffffffffffffffffffffffffffffff166108fc849081150290604051600060405180830381858888f19350505050158015612617573d6000803e3d6000fd5b5061262f565b600081905061262d818486613259565b505b505050565b600b60008281526020019081526020016000206000015442101561268d576040517f08c379a0000000000000000000000000000000000000000000000000000000008152600401612684906151bc565b60405180910390fd5b600b600082815260200190815260200160002060050160009054906101000a900473ffffffffffffffffffffffffffffffffffffffff1673ffffffffffffffffffffffffffffffffffffffff163373ffffffffffffffffffffffffffffffffffffffff16148061275e5750600b600082815260200190815260200160002060040160009054906101000a900473ffffffffffffffffffffffffffffffffffffffff1673ffffffffffffffffffffffffffffffffffffffff163373ffffffffffffffffffffffffffffffffffffffff16145b61279d576040517f08c379a00000000000000000000000000000000000000000000000000000000081526004016127949061511c565b60405180910390fd5b6000600b6000838152602001908152602001600020600601541415612a565760005b600b60008381526020019081526020016000206007018054905081101561292657600b600083815260200190815260200160002060030160009054906101000a900473ffffffffffffffffffffffffffffffffffffffff1673ffffffffffffffffffffffffffffffffffffffff1663b88d4fde30600b600086815260200190815260200160002060040160009054906101000a900473ffffffffffffffffffffffffffffffffffffffff16600b600087815260200190815260200160002060070185815481106128b8577f4e487b7100000000000000000000000000000000000000000000000000000000600052603260045260246000fd5b90600052602060002001546040518463ffffffff1660e01b81526004016128e193929190614dd6565b600060405180830381600087803b1580156128fb57600080fd5b505af115801561290f573d6000803e3d6000fd5b50505050808061291e90615711565b9150506127bf565b50600b600082815260200190815260200160002060040160009054906101000a900473ffffffffffffffffffffffffffffffffffffffff1673ffffffffffffffffffffffffffffffffffffffff16600073ffffffffffffffffffffffffffffffffffffffff16827f1def3eb656522cfb92a17c098c3b03d4bb0e6954f0f87d78fca658f671d52ea3600b600086815260200190815260200160002060030160009054906101000a900473ffffffffffffffffffffffffffffffffffffffff16600b600087815260200190815260200160002060020160009054906101000a900473ffffffffffffffffffffffffffffffffffffffff166000806000600b60008b8152602001908152602001600020600701604051612a4996959493929190614ccf565b60405180910390a4612bcb565b60005b600b600083815260200190815260200160002060070180549050811015612bc057600b600083815260200190815260200160002060030160009054906101000a900473ffffffffffffffffffffffffffffffffffffffff1673ffffffffffffffffffffffffffffffffffffffff1663b88d4fde30600b600086815260200190815260200160002060050160009054906101000a900473ffffffffffffffffffffffffffffffffffffffff16600b60008781526020019081526020016000206007018581548110612b52577f4e487b7100000000000000000000000000000000000000000000000000000000600052603260045260246000fd5b90600052602060002001546040518463ffffffff1660e01b8152600401612b7b93929190614dd6565b600060405180830381600087803b158015612b9557600080fd5b505af1158015612ba9573d6000803e3d6000fd5b505050508080612bb890615711565b915050612a59565b50612bca816132df565b5b600b600082815260200190815260200160002060008082016000905560018201600090556002820160006101000a81549073ffffffffffffffffffffffffffffffffffffffff02191690556003820160006101000a81549073ffffffffffffffffffffffffffffffffffffffff02191690556004820160006101000a81549073ffffffffffffffffffffffffffffffffffffffff02191690556005820160006101000a81549073ffffffffffffffffffffffffffffffffffffffff02191690556006820160009055600782016000612ca39190613b13565b505050565b612cb06110fe565b15612cf0576040517f08c379a0000000000000000000000000000000000000000000000000000000008152600401612ce79061503c565b60405180910390fd5b6001600260006101000a81548160ff0219169083151502179055507f62e78cea01bee320cd4e420270b5ea74000d11b0c9f74754ebdbfc544b05a258612d346120e3565b604051612d419190614c8b565b60405180910390a1565b60005b8251811015612ea557600073ffffffffffffffffffffffffffffffffffffffff1660096000858481518110612dac577f4e487b7100000000000000000000000000000000000000000000000000000000600052603260045260246000fd5b6020026020010151815260200190815260200160002060009054906101000a900473ffffffffffffffffffffffffffffffffffffffff1673ffffffffffffffffffffffffffffffffffffffff161415612e92578160096000858481518110612e3d577f4e487b7100000000000000000000000000000000000000000000000000000000600052603260045260246000fd5b6020026020010151815260200190815260200160002060006101000a81548173ffffffffffffffffffffffffffffffffffffffff021916908373ffffffffffffffffffffffffffffffffffffffff1602179055505b8080612e9d90615711565b915050612d4e565b505050565b60008183612eb8919061550d565b905092915050565b60008183612ece9190615563565b905092915050565b606060006002836002612ee99190615563565b612ef3919061550d565b67ffffffffffffffff811115612f32577f4e487b7100000000000000000000000000000000000000000000000000000000600052604160045260246000fd5b6040519080825280601f01601f191660200182016040528015612f645781602001600182028036833780820191505090505b5090507f300000000000000000000000000000000000000000000000000000000000000081600081518110612fc2577f4e487b7100000000000000000000000000000000000000000000000000000000600052603260045260246000fd5b60200101907effffffffffffffffffffffffffffffffffffffffffffffffffffffffffffff1916908160001a9053507f78000000000000000000000000000000000000000000000000000000000000008160018151811061304c577f4e487b7100000000000000000000000000000000000000000000000000000000600052603260045260246000fd5b60200101907effffffffffffffffffffffffffffffffffffffffffffffffffffffffffffff1916908160001a9053506000600184600261308c9190615563565b613096919061550d565b90505b6001811115613182577f3031323334353637383961626364656600000000000000000000000000000000600f8616601081106130fe577f4e487b7100000000000000000000000000000000000000000000000000000000600052603260045260246000fd5b1a60f81b82828151811061313b577f4e487b7100000000000000000000000000000000000000000000000000000000600052603260045260246000fd5b60200101907effffffffffffffffffffffffffffffffffffffffffffffffffffffffffffff1916908160001a905350600485901c94508061317b906156cd565b9050613099565b50600084146131c6576040517f08c379a00000000000000000000000000000000000000000000000000000000081526004016131bd90614f1c565b60405180910390fd5b8091505092915050565b613253846323b872dd60e01b8585856040516024016131f193929190614d37565b604051602081830303815290604052907bffffffffffffffffffffffffffffffffffffffffffffffffffffffff19166020820180517bffffffffffffffffffffffffffffffffffffffffffffffffffffffff8381831617835250505050613708565b50505050565b6132da8363a9059cbb60e01b8484604051602401613278929190614e80565b604051602081830303815290604052907bffffffffffffffffffffffffffffffffffffffffffffffffffffffff19166020820180517bffffffffffffffffffffffffffffffffffffffffffffffffffffffff8381831617835250505050613708565b505050565b600080613321600b600085815260200190815260200160002060030160009054906101000a900473ffffffffffffffffffffffffffffffffffffffff166137cf565b801561334657506001600b600085815260200190815260200160002060070180549050145b156134eb57600b600084815260200190815260200160002060030160009054906101000a900473ffffffffffffffffffffffffffffffffffffffff1673ffffffffffffffffffffffffffffffffffffffff16632a55205a600b60008681526020019081526020016000206007016000815481106133ec577f4e487b7100000000000000000000000000000000000000000000000000000000600052603260045260246000fd5b9060005260206000200154600b6000878152602001908152602001600020600601546040518363ffffffff1660e01b815260040161342b929190615323565b604080518083038186803b15801561344257600080fd5b505afa158015613456573d6000803e3d6000fd5b505050506040513d601f19601f8201168201806040525081019061347a9190613e26565b8092508193505050600b60008481526020019081526020016000206006015481106134a857600090506134ea565b6134e98183600b600087815260200190815260200160002060020160009054906101000a900473ffffffffffffffffffffffffffffffffffffffff166124ee565b5b5b600061351682600b60008781526020019081526020016000206006015461386d90919063ffffffff16565b905061358f81600b600087815260200190815260200160002060040160009054906101000a900473ffffffffffffffffffffffffffffffffffffffff16600b600088815260200190815260200160002060020160009054906101000a900473ffffffffffffffffffffffffffffffffffffffff166124ee565b600b600085815260200190815260200160002060040160009054906101000a900473ffffffffffffffffffffffffffffffffffffffff1673ffffffffffffffffffffffffffffffffffffffff16600b600086815260200190815260200160002060050160009054906101000a900473ffffffffffffffffffffffffffffffffffffffff1673ffffffffffffffffffffffffffffffffffffffff16857f1def3eb656522cfb92a17c098c3b03d4bb0e6954f0f87d78fca658f671d52ea3600b600089815260200190815260200160002060030160009054906101000a900473ffffffffffffffffffffffffffffffffffffffff16600b60008a815260200190815260200160002060020160009054906101000a900473ffffffffffffffffffffffffffffffffffffffff16600b60008b8152602001908152602001600020600601548989600b60008e81526020019081526020016000206007016040516136fa96959493929190614d6e565b60405180910390a450505050565b600061376a826040518060400160405280602081526020017f5361666545524332303a206c6f772d6c6576656c2063616c6c206661696c65648152508573ffffffffffffffffffffffffffffffffffffffff166138839092919063ffffffff16565b90506000815111156137ca578080602001905181019061378a9190613e62565b6137c9576040517f08c379a00000000000000000000000000000000000000000000000000000000081526004016137c09061515c565b60405180910390fd5b5b505050565b6000808273ffffffffffffffffffffffffffffffffffffffff166301ffc9a7632a55205a60e01b6040518263ffffffff1660e01b81526004016138129190614edf565b60206040518083038186803b15801561382a57600080fd5b505afa15801561383e573d6000803e3d6000fd5b505050506040513d601f19601f820116820180604052508101906138629190613e62565b905080915050919050565b6000818361387b91906155bd565b905092915050565b6060613892848460008561389b565b90509392505050565b6060824710156138e0576040517f08c379a00000000000000000000000000000000000000000000000000000000081526004016138d790614ffc565b60405180910390fd5b6138e9856139af565b613928576040517f08c379a000000000000000000000000000000000000000000000000000000000815260040161391f906150fc565b60405180910390fd5b6000808673ffffffffffffffffffffffffffffffffffffffff1685876040516139519190614c3a565b60006040518083038185875af1925050503d806000811461398e576040519150601f19603f3d011682016040523d82523d6000602084013e613993565b606091505b50915091506139a38282866139c2565b92505050949350505050565b600080823b905060008111915050919050565b606083156139d257829050613a22565b6000835111156139e55782518084602001fd5b816040517f08c379a0000000000000000000000000000000000000000000000000000000008152600401613a199190614efa565b60405180910390fd5b9392505050565b6040518061010001604052806000815260200160008152602001600073ffffffffffffffffffffffffffffffffffffffff168152602001600073ffffffffffffffffffffffffffffffffffffffff168152602001600073ffffffffffffffffffffffffffffffffffffffff168152602001600073ffffffffffffffffffffffffffffffffffffffff16815260200160008152602001606081525090565b828054828255906000526020600020908101928215613b02579160200282015b82811115613b01578251825591602001919060010190613ae6565b5b509050613b0f9190613b34565b5090565b5080546000825590600052602060002090810190613b319190613b34565b50565b5b80821115613b4d576000816000905550600101613b35565b5090565b6000613b64613b5f846153ec565b6153bb565b90508083825260208201905082856020860282011115613b8357600080fd5b60005b85811015613bb35781613b998882613ccd565b845260208401935060208301925050600181019050613b86565b5050509392505050565b6000613bd0613bcb84615418565b6153bb565b905082815260208101848484011115613be857600080fd5b613bf384828561568b565b509392505050565b600081359050613c0a816157e9565b92915050565b600081519050613c1f816157e9565b92915050565b600082601f830112613c3657600080fd5b8135613c46848260208601613b51565b91505092915050565b600081359050613c5e81615800565b92915050565b600081519050613c7381615800565b92915050565b600081359050613c8881615817565b92915050565b600081359050613c9d8161582e565b92915050565b600082601f830112613cb457600080fd5b8135613cc4848260208601613bbd565b91505092915050565b600081359050613cdc81615845565b92915050565b600081519050613cf181615845565b92915050565b600060208284031215613d0957600080fd5b6000613d1784828501613bfb565b91505092915050565b60008060008060808587031215613d3657600080fd5b6000613d4487828801613bfb565b9450506020613d5587828801613bfb565b9350506040613d6687828801613ccd565b925050606085013567ffffffffffffffff811115613d8357600080fd5b613d8f87828801613ca3565b91505092959194509250565b60008060408385031215613dae57600080fd5b6000613dbc85828601613bfb565b9250506020613dcd85828601613c4f565b9150509250929050565b600080600060608486031215613dec57600080fd5b6000613dfa86828701613bfb565b9350506020613e0b86828701613c4f565b9250506040613e1c86828701613ccd565b9150509250925092565b60008060408385031215613e3957600080fd5b6000613e4785828601613c10565b9250506020613e5885828601613ce2565b9150509250929050565b600060208284031215613e7457600080fd5b6000613e8284828501613c64565b91505092915050565b600060208284031215613e9d57600080fd5b6000613eab84828501613c79565b91505092915050565b60008060408385031215613ec757600080fd5b6000613ed585828601613c79565b9250506020613ee685828601613bfb565b9150509250929050565b600060208284031215613f0257600080fd5b6000613f1084828501613c8e565b91505092915050565b600060208284031215613f2b57600080fd5b6000613f3984828501613ccd565b91505092915050565b600060208284031215613f5457600080fd5b6000613f6284828501613ce2565b91505092915050565b60008060408385031215613f7e57600080fd5b6000613f8c85828601613ccd565b9250506020613f9d85828601613ccd565b9150509250929050565b600080600080600060a08688031215613fbf57600080fd5b6000613fcd88828901613ccd565b9550506020613fde88828901613ccd565b945050604086013567ffffffffffffffff811115613ffb57600080fd5b61400788828901613c25565b935050606061401888828901613bfb565b925050608061402988828901613bfb565b9150509295509295909350565b60006140428383614c1c565b60208301905092915050565b614057816155fb565b82525050565b614066816155fb565b82525050565b60006140778261546d565b61408181856154b3565b935061408c83615448565b8060005b838110156140bd5781516140a48882614036565b97506140af83615499565b925050600181019050614090565b5085935050505092915050565b60006140d58261546d565b6140df81856154c4565b93506140ea83615448565b8060005b8381101561411b5781516141028882614036565b975061410d83615499565b9250506001810190506140ee565b5085935050505092915050565b600061413382615478565b61413d81856154c4565b935061414883615458565b8060005b838110156141805761415d826157b8565b6141678882614036565b9750614172836154a6565b92505060018101905061414c565b5085935050505092915050565b6141968161560d565b82525050565b6141a581615619565b82525050565b6141b481615623565b82525050565b60006141c582615483565b6141cf81856154e6565b93506141df81856020860161569a565b80840191505092915050565b6141f481615679565b82525050565b60006142058261548e565b61420f81856154f1565b935061421f81856020860161569a565b614228816157cb565b840191505092915050565b600061423e8261548e565b6142488185615502565b935061425881856020860161569a565b80840191505092915050565b60006142716020836154f1565b91507f537472696e67733a20686578206c656e67746820696e73756666696369656e746000830152602082019050919050565b60006142b16014836154f1565b91507f5061757361626c653a206e6f74207061757365640000000000000000000000006000830152602082019050919050565b60006142f16015836154f1565b91507f4d61726b65743a2061756374696f6e20656e64656400000000000000000000006000830152602082019050919050565b60006143316018836154f1565b91507f4d61726b65743a2061756374696f6e20746f6f206c6f6e6700000000000000006000830152602082019050919050565b60006143716010836154f1565b91507f4d61726b65743a204d69736d61746368000000000000000000000000000000006000830152602082019050919050565b60006143b16002836154d5565b91507f30780000000000000000000000000000000000000000000000000000000000006000830152602082019050919050565b60006143f16026836154f1565b91507f4d61726b65743a20455243323020636f6e7472616374206e6f7420776869746560008301527f6c697374656400000000000000000000000000000000000000000000000000006020830152604082019050919050565b60006144576013836154f1565b91507f696e76616c6964204d61784e4654436f756e74000000000000000000000000006000830152602082019050919050565b60006144976026836154f1565b91507f416464726573733a20696e73756666696369656e742062616c616e636520666f60008301527f722063616c6c00000000000000000000000000000000000000000000000000006020830152604082019050919050565b60006144fd6025836154f1565b91507f4d61726b65743a20746f6b656e20636f756e742065786365656473206d61782060008301527f636f756e740000000000000000000000000000000000000000000000000000006020830152604082019050919050565b60006145636010836154f1565b91507f5061757361626c653a20706175736564000000000000000000000000000000006000830152602082019050919050565b60006145a3602c836154f1565b91507f4d61726b65743a206d696e696d756d207072696365206d75737420626520677260008301527f6561746572207468616e203000000000000000000000000000000000000000006020830152604082019050919050565b6000614609601f836154f1565b91507f4d61726b65743a2073656c656374206174206c65617374203120746f6b656e006000830152602082019050919050565b6000614649601b836154f1565b91507f4d61726b65743a2062696420756e646572206d696e20707269636500000000006000830152602082019050919050565b6000614689600d836154f1565b91507f6e6f7420696e20626f756e6473000000000000000000000000000000000000006000830152602082019050919050565b60006146c96041836154f1565b91507f4c697374696e67206974656d73207265717569726520617070726f76616c206f60008301527f66206d696e2e205a4f4f4d206275726e206665652058206e756d2e206974656d60208301527f73000000000000000000000000000000000000000000000000000000000000006040830152606082019050919050565b6000614755601d836154f1565b91507f416464726573733a2063616c6c20746f206e6f6e2d636f6e74726163740000006000830152602082019050919050565b6000614795601c836154f1565b91507f4d61726b65743a206e6f7420626964646572206f722073656c6c6572000000006000830152602082019050919050565b60006147d5601783615502565b91507f416363657373436f6e74726f6c3a206163636f756e74200000000000000000006000830152601782019050919050565b60006148156029836154f1565b91507f5a6f6f6d4d61726b65743a205573657220646f6573206e6f742068617665206160008301527f646d696e20726f6c6500000000000000000000000000000000000000000000006020830152604082019050919050565b600061487b602a836154f1565b91507f5361666545524332303a204552433230206f7065726174696f6e20646964206e60008301527f6f742073756363656564000000000000000000000000000000000000000000006020830152604082019050919050565b60006148e16018836154f1565b91507f4d61726b65743a204e6f6e206578697374696e672062696400000000000000006000830152602082019050919050565b6000614921601f836154f1565b91507f5265656e7472616e637947756172643a207265656e7472616e742063616c6c006000830152602082019050919050565b60006149616019836154f1565b91507f4d61726b65743a2061756374696f6e206e6f7420656e646564000000000000006000830152602082019050919050565b60006149a16031836154f1565b91507f4d61726b65743a2062696420756e646572206869676865737420626964202b2060008301527f6d696e696d756d20696e6372656d656e740000000000000000000000000000006020830152604082019050919050565b6000614a07601183615502565b91507f206973206d697373696e6720726f6c65200000000000000000000000000000006000830152601182019050919050565b6000614a47602f836154f1565b91507f416363657373436f6e74726f6c3a2063616e206f6e6c792072656e6f756e636560008301527f20726f6c657320666f722073656c6600000000000000000000000000000000006020830152604082019050919050565b6000614aad6024836154f1565b91507f4d61726b65743a204e465420636f6e7472616374206e6f742077686974656c6960008301527f73746564000000000000000000000000000000000000000000000000000000006020830152604082019050919050565b6000614b136026836154f1565b91507f4d61726b65743a2063616e6e6f7420626964206f6e20796f7572206f776e206c60008301527f697374696e6700000000000000000000000000000000000000000000000000006020830152604082019050919050565b600061010083016000830151614b856000860182614c1c565b506020830151614b986020860182614c1c565b506040830151614bab604086018261404e565b506060830151614bbe606086018261404e565b506080830151614bd1608086018261404e565b5060a0830151614be460a086018261404e565b5060c0830151614bf760c0860182614c1c565b5060e083015184820360e0860152614c0f828261406c565b9150508091505092915050565b614c258161566f565b82525050565b614c348161566f565b82525050565b6000614c4682846141ba565b915081905092915050565b6000614c5c826147c8565b9150614c688285614233565b9150614c73826149fa565b9150614c7f8284614233565b91508190509392505050565b6000602082019050614ca0600083018461405d565b92915050565b6000604082019050614cbb600083018561405d565b614cc8602083018461405d565b9392505050565b600060c082019050614ce4600083018961405d565b614cf1602083018861405d565b614cfe60408301876141eb565b614d0b606083018661405d565b614d1860808301856141eb565b81810360a0830152614d2a8184614128565b9050979650505050505050565b6000606082019050614d4c600083018661405d565b614d59602083018561405d565b614d666040830184614c2b565b949350505050565b600060c082019050614d83600083018961405d565b614d90602083018861405d565b614d9d6040830187614c2b565b614daa606083018661405d565b614db76080830185614c2b565b81810360a0830152614dc98184614128565b9050979650505050505050565b6000608082019050614deb600083018661405d565b614df8602083018561405d565b614e056040830184614c2b565b8181036060830152614e16816143a4565b9050949350505050565b6000604082019050614e35600083018561405d565b614e42602083018461418d565b9392505050565b6000606082019050614e5e600083018661405d565b614e6b602083018561418d565b614e786040830184614c2b565b949350505050565b6000604082019050614e95600083018561405d565b614ea26020830184614c2b565b9392505050565b6000602082019050614ebe600083018461418d565b92915050565b6000602082019050614ed9600083018461419c565b92915050565b6000602082019050614ef460008301846141ab565b92915050565b60006020820190508181036000830152614f1481846141fa565b905092915050565b60006020820190508181036000830152614f3581614264565b9050919050565b60006020820190508181036000830152614f55816142a4565b9050919050565b60006020820190508181036000830152614f75816142e4565b9050919050565b60006020820190508181036000830152614f9581614324565b9050919050565b60006020820190508181036000830152614fb581614364565b9050919050565b60006020820190508181036000830152614fd5816143e4565b9050919050565b60006020820190508181036000830152614ff58161444a565b9050919050565b600060208201905081810360008301526150158161448a565b9050919050565b60006020820190508181036000830152615035816144f0565b9050919050565b6000602082019050818103600083015261505581614556565b9050919050565b6000602082019050818103600083015261507581614596565b9050919050565b60006020820190508181036000830152615095816145fc565b9050919050565b600060208201905081810360008301526150b58161463c565b9050919050565b600060208201905081810360008301526150d58161467c565b9050919050565b600060208201905081810360008301526150f5816146bc565b9050919050565b6000602082019050818103600083015261511581614748565b9050919050565b6000602082019050818103600083015261513581614788565b9050919050565b6000602082019050818103600083015261515581614808565b9050919050565b600060208201905081810360008301526151758161486e565b9050919050565b60006020820190508181036000830152615195816148d4565b9050919050565b600060208201905081810360008301526151b581614914565b9050919050565b600060208201905081810360008301526151d581614954565b9050919050565b600060208201905081810360008301526151f581614994565b9050919050565b6000602082019050818103600083015261521581614a3a565b9050919050565b6000602082019050818103600083015261523581614aa0565b9050919050565b6000602082019050818103600083015261525581614b06565b9050919050565b600060208201905081810360008301526152768184614b6c565b905092915050565b60006020820190506152936000830184614c2b565b92915050565b600060a0820190506152ae6000830188614c2b565b81810360208301526152c081876140ca565b90506152cf604083018661405d565b6152dc6060830185614c2b565b6152e96080830184614c2b565b9695505050505050565b60006040820190506153086000830185614c2b565b818103602083015261531a8184614128565b90509392505050565b60006040820190506153386000830185614c2b565b6153456020830184614c2b565b9392505050565b600060e082019050615361600083018a614c2b565b61536e6020830189614c2b565b61537b604083018861405d565b615388606083018761405d565b615395608083018661405d565b6153a260a083018561405d565b6153af60c0830184614c2b565b98975050505050505050565b6000604051905081810181811067ffffffffffffffff821117156153e2576153e1615789565b5b8060405250919050565b600067ffffffffffffffff82111561540757615406615789565b5b602082029050602081019050919050565b600067ffffffffffffffff82111561543357615432615789565b5b601f19601f8301169050602081019050919050565b6000819050602082019050919050565b60008190508160005260206000209050919050565b600081519050919050565b600081549050919050565b600081519050919050565b600081519050919050565b6000602082019050919050565b6000600182019050919050565b600082825260208201905092915050565b600082825260208201905092915050565b600082825260208201905092915050565b600081905092915050565b600082825260208201905092915050565b600081905092915050565b60006155188261566f565b91506155238361566f565b9250827fffffffffffffffffffffffffffffffffffffffffffffffffffffffffffffffff038211156155585761555761575a565b5b828201905092915050565b600061556e8261566f565b91506155798361566f565b9250817fffffffffffffffffffffffffffffffffffffffffffffffffffffffffffffffff04831182151516156155b2576155b161575a565b5b828202905092915050565b60006155c88261566f565b91506155d38361566f565b9250828210156155e6576155e561575a565b5b828203905092915050565b6000819050919050565b60006156068261564f565b9050919050565b60008115159050919050565b6000819050919050565b60007fffffffff0000000000000000000000000000000000000000000000000000000082169050919050565b600073ffffffffffffffffffffffffffffffffffffffff82169050919050565b6000819050919050565b60006156848261566f565b9050919050565b82818337600083830152505050565b60005b838110156156b857808201518184015260208101905061569d565b838111156156c7576000848401525b50505050565b60006156d88261566f565b915060008214156156ec576156eb61575a565b5b600182039050919050565b600061570a615705836157dc565b6155f1565b9050919050565b600061571c8261566f565b91507fffffffffffffffffffffffffffffffffffffffffffffffffffffffffffffffff82141561574f5761574e61575a565b5b600182019050919050565b7f4e487b7100000000000000000000000000000000000000000000000000000000600052601160045260246000fd5b7f4e487b7100000000000000000000000000000000000000000000000000000000600052604160045260246000fd5b60006157c482546156f7565b9050919050565b6000601f19601f8301169050919050565b60008160001c9050919050565b6157f2816155fb565b81146157fd57600080fd5b50565b6158098161560d565b811461581457600080fd5b50565b61582081615619565b811461582b57600080fd5b50565b61583781615623565b811461584257600080fd5b50565b61584e8161566f565b811461585957600080fd5b5056fea26469706673582212201556f216c3498662cedd86a4dedff5ec6be5856a142501772f69ad057f6e146964736f6c63430008000033",
  "linkReferences": {},
  "deployedLinkReferences": {}
}