{
  "_format": "hh-sol-artifact-1",
  "contractName": "ZoombiesMarketPlace",
  "sourceName": "contracts/ZoombiesMarketplace.sol",
  "abi": [
    {
      "inputs": [
        {
          "internalType": "address payable",
          "name": "xMovr",
          "type": "address"
        }
      ],
      "stateMutability": "nonpayable",
      "type": "constructor"
    },
    {
      "anonymous": false,
      "inputs": [
        {
          "indexed": true,
          "internalType": "uint256",
          "name": "itemNumber",
          "type": "uint256"
        },
        {
          "indexed": false,
          "internalType": "uint256",
          "name": "bidAmount",
          "type": "uint256"
        },
        {
          "indexed": true,
          "internalType": "address",
          "name": "bidder",
          "type": "address"
        },
        {
          "indexed": false,
          "internalType": "uint256[]",
          "name": "tokenIds",
          "type": "uint256[]"
        }
      ],
      "name": "Bid",
      "type": "event"
    },
    {
      "anonymous": false,
      "inputs": [
        {
          "indexed": true,
          "internalType": "uint256",
          "name": "itemNumber",
          "type": "uint256"
        },
        {
          "indexed": false,
          "internalType": "uint256",
          "name": "auctionEnd",
          "type": "uint256"
        },
        {
          "indexed": true,
          "internalType": "address",
          "name": "seller",
          "type": "address"
        },
        {
          "indexed": false,
          "internalType": "uint256[]",
          "name": "tokenIds",
          "type": "uint256[]"
        },
        {
          "indexed": false,
          "internalType": "address",
          "name": "saleToken",
          "type": "address"
        },
        {
          "indexed": true,
          "internalType": "address",
          "name": "nftToken",
          "type": "address"
        },
        {
          "indexed": false,
          "internalType": "uint256",
          "name": "minPrice",
          "type": "uint256"
        }
      ],
      "name": "ItemListed",
      "type": "event"
    },
    {
      "anonymous": false,
      "inputs": [
        {
          "indexed": false,
          "internalType": "address",
          "name": "account",
          "type": "address"
        }
      ],
      "name": "Paused",
      "type": "event"
    },
    {
      "anonymous": false,
      "inputs": [
        {
          "indexed": true,
          "internalType": "bytes32",
          "name": "role",
          "type": "bytes32"
        },
        {
          "indexed": true,
          "internalType": "bytes32",
          "name": "previousAdminRole",
          "type": "bytes32"
        },
        {
          "indexed": true,
          "internalType": "bytes32",
          "name": "newAdminRole",
          "type": "bytes32"
        }
      ],
      "name": "RoleAdminChanged",
      "type": "event"
    },
    {
      "anonymous": false,
      "inputs": [
        {
          "indexed": true,
          "internalType": "bytes32",
          "name": "role",
          "type": "bytes32"
        },
        {
          "indexed": true,
          "internalType": "address",
          "name": "account",
          "type": "address"
        },
        {
          "indexed": true,
          "internalType": "address",
          "name": "sender",
          "type": "address"
        }
      ],
      "name": "RoleGranted",
      "type": "event"
    },
    {
      "anonymous": false,
      "inputs": [
        {
          "indexed": true,
          "internalType": "bytes32",
          "name": "role",
          "type": "bytes32"
        },
        {
          "indexed": true,
          "internalType": "address",
          "name": "account",
          "type": "address"
        },
        {
          "indexed": true,
          "internalType": "address",
          "name": "sender",
          "type": "address"
        }
      ],
      "name": "RoleRevoked",
      "type": "event"
    },
    {
      "anonymous": false,
      "inputs": [
        {
          "indexed": true,
          "internalType": "uint256",
          "name": "itemNumber",
          "type": "uint256"
        },
        {
          "indexed": false,
          "internalType": "uint256",
          "name": "bidAmount",
          "type": "uint256"
        },
        {
          "indexed": true,
          "internalType": "address",
          "name": "winner",
          "type": "address"
        },
        {
          "indexed": true,
          "internalType": "address",
          "name": "seller",
          "type": "address"
        },
        {
          "indexed": false,
          "internalType": "uint256[]",
          "name": "tokenIds",
          "type": "uint256[]"
        }
      ],
      "name": "Settled",
      "type": "event"
    },
    {
      "anonymous": false,
      "inputs": [
        {
          "indexed": false,
          "internalType": "address",
          "name": "account",
          "type": "address"
        }
      ],
      "name": "Unpaused",
      "type": "event"
    },
    {
      "stateMutability": "payable",
      "type": "fallback"
    },
    {
      "inputs": [],
      "name": "DEFAULT_ADMIN_ROLE",
      "outputs": [
        {
          "internalType": "bytes32",
          "name": "",
          "type": "bytes32"
        }
      ],
      "stateMutability": "view",
      "type": "function"
    },
    {
      "inputs": [
        {
          "internalType": "uint256",
          "name": "",
          "type": "uint256"
        }
      ],
      "name": "Items",
      "outputs": [
        {
          "internalType": "uint256",
          "name": "auctionEnd",
          "type": "uint256"
        },
        {
          "internalType": "uint256",
          "name": "minPrice",
          "type": "uint256"
        },
        {
          "internalType": "address",
          "name": "saleToken",
          "type": "address"
        },
        {
          "internalType": "address",
          "name": "nftToken",
          "type": "address"
        },
        {
          "internalType": "address",
          "name": "seller",
          "type": "address"
        },
        {
          "internalType": "address",
          "name": "highestBidder",
          "type": "address"
        },
        {
          "internalType": "uint256",
          "name": "highestBid",
          "type": "uint256"
        }
      ],
      "stateMutability": "view",
      "type": "function"
    },
    {
      "inputs": [
        {
          "internalType": "uint256",
          "name": "itemNumber",
          "type": "uint256"
        },
        {
          "internalType": "uint256",
          "name": "bidAmount",
          "type": "uint256"
        }
      ],
      "name": "bid",
      "outputs": [],
      "stateMutability": "payable",
      "type": "function"
    },
    {
      "inputs": [
        {
          "internalType": "uint256",
          "name": "_creatorFee",
          "type": "uint256"
        }
      ],
      "name": "changeCreatorFee",
      "outputs": [],
      "stateMutability": "nonpayable",
      "type": "function"
    },
    {
      "inputs": [
        {
          "internalType": "address",
          "name": "_dollarZoombies",
          "type": "address"
        }
      ],
      "name": "changeDollarZoombiesAddress",
      "outputs": [],
      "stateMutability": "nonpayable",
      "type": "function"
    },
    {
      "inputs": [
        {
          "internalType": "uint256",
          "name": "_maxAuctionTime",
          "type": "uint256"
        }
      ],
      "name": "changeMaxAuctionTime",
      "outputs": [],
      "stateMutability": "nonpayable",
      "type": "function"
    },
    {
      "inputs": [
        {
          "internalType": "uint256",
          "name": "_maxNFTCount",
          "type": "uint256"
        }
      ],
      "name": "changeMaxNFTCount",
      "outputs": [],
      "stateMutability": "nonpayable",
      "type": "function"
    },
    {
      "inputs": [
        {
          "internalType": "uint256",
          "name": "_zoombiesFee",
          "type": "uint256"
        }
      ],
      "name": "changeZoombiesFee",
      "outputs": [],
      "stateMutability": "nonpayable",
      "type": "function"
    },
    {
      "inputs": [],
      "name": "creatorFee",
      "outputs": [
        {
          "internalType": "uint256",
          "name": "",
          "type": "uint256"
        }
      ],
      "stateMutability": "view",
      "type": "function"
    },
    {
      "inputs": [],
      "name": "dollarZoombies",
      "outputs": [
        {
          "internalType": "address",
          "name": "",
          "type": "address"
        }
      ],
      "stateMutability": "view",
      "type": "function"
    },
    {
      "inputs": [
        {
          "internalType": "uint256",
          "name": "itemNumber",
          "type": "uint256"
        }
      ],
      "name": "getListItem",
      "outputs": [
        {
          "components": [
            {
              "internalType": "uint256",
              "name": "auctionEnd",
              "type": "uint256"
            },
            {
              "internalType": "uint256",
              "name": "minPrice",
              "type": "uint256"
            },
            {
              "internalType": "address",
              "name": "saleToken",
              "type": "address"
            },
            {
              "internalType": "address",
              "name": "nftToken",
              "type": "address"
            },
            {
              "internalType": "address",
              "name": "seller",
              "type": "address"
            },
            {
              "internalType": "address",
              "name": "highestBidder",
              "type": "address"
            },
            {
              "internalType": "uint256",
              "name": "highestBid",
              "type": "uint256"
            },
            {
              "internalType": "uint256[]",
              "name": "tokenIds",
              "type": "uint256[]"
            }
          ],
          "internalType": "struct ZoombiesMarketPlace.Item",
          "name": "item",
          "type": "tuple"
        }
      ],
      "stateMutability": "view",
      "type": "function"
    },
    {
      "inputs": [
        {
          "internalType": "bytes32",
          "name": "role",
          "type": "bytes32"
        }
      ],
      "name": "getRoleAdmin",
      "outputs": [
        {
          "internalType": "bytes32",
          "name": "",
          "type": "bytes32"
        }
      ],
      "stateMutability": "view",
      "type": "function"
    },
    {
      "inputs": [
        {
          "internalType": "bytes32",
          "name": "role",
          "type": "bytes32"
        },
        {
          "internalType": "address",
          "name": "account",
          "type": "address"
        }
      ],
      "name": "grantRole",
      "outputs": [],
      "stateMutability": "nonpayable",
      "type": "function"
    },
    {
      "inputs": [
        {
          "internalType": "bytes32",
          "name": "role",
          "type": "bytes32"
        },
        {
          "internalType": "address",
          "name": "account",
          "type": "address"
        }
      ],
      "name": "hasRole",
      "outputs": [
        {
          "internalType": "bool",
          "name": "",
          "type": "bool"
        }
      ],
      "stateMutability": "view",
      "type": "function"
    },
    {
      "inputs": [],
      "name": "itemCount",
      "outputs": [
        {
          "internalType": "uint256",
          "name": "",
          "type": "uint256"
        }
      ],
      "stateMutability": "view",
      "type": "function"
    },
    {
      "inputs": [
        {
          "internalType": "uint256",
          "name": "auctionEnd",
          "type": "uint256"
        },
        {
          "internalType": "uint256",
          "name": "minPrice",
          "type": "uint256"
        },
        {
          "internalType": "uint256[]",
          "name": "tokenIds",
          "type": "uint256[]"
        },
        {
          "internalType": "address",
          "name": "nftToken",
          "type": "address"
        },
        {
          "internalType": "address",
          "name": "saleToken",
          "type": "address"
        }
      ],
      "name": "listItem",
      "outputs": [],
      "stateMutability": "payable",
      "type": "function"
    },
    {
      "inputs": [],
      "name": "maxAuctionTime",
      "outputs": [
        {
          "internalType": "uint256",
          "name": "",
          "type": "uint256"
        }
      ],
      "stateMutability": "view",
      "type": "function"
    },
    {
      "inputs": [],
      "name": "maxNFTCount",
      "outputs": [
        {
          "internalType": "uint256",
          "name": "",
          "type": "uint256"
        }
      ],
      "stateMutability": "view",
      "type": "function"
    },
    {
      "inputs": [
        {
          "internalType": "address",
          "name": "",
          "type": "address"
        }
      ],
      "name": "nftWhitelist",
      "outputs": [
        {
          "internalType": "bool",
          "name": "",
          "type": "bool"
        }
      ],
      "stateMutability": "view",
      "type": "function"
    },
    {
      "inputs": [
        {
          "internalType": "address",
          "name": "",
          "type": "address"
        },
        {
          "internalType": "address",
          "name": "",
          "type": "address"
        },
        {
          "internalType": "uint256",
          "name": "",
          "type": "uint256"
        },
        {
          "internalType": "bytes",
          "name": "",
          "type": "bytes"
        }
      ],
      "name": "onERC721Received",
      "outputs": [
        {
          "internalType": "bytes4",
          "name": "",
          "type": "bytes4"
        }
      ],
      "stateMutability": "nonpayable",
      "type": "function"
    },
    {
      "inputs": [
        {
          "internalType": "uint256",
          "name": "",
          "type": "uint256"
        }
      ],
      "name": "originalOwner",
      "outputs": [
        {
          "internalType": "address",
          "name": "",
          "type": "address"
        }
      ],
      "stateMutability": "view",
      "type": "function"
    },
    {
      "inputs": [],
      "name": "pause",
      "outputs": [],
      "stateMutability": "nonpayable",
      "type": "function"
    },
    {
      "inputs": [],
      "name": "paused",
      "outputs": [
        {
          "internalType": "bool",
          "name": "",
          "type": "bool"
        }
      ],
      "stateMutability": "view",
      "type": "function"
    },
    {
      "inputs": [
        {
          "internalType": "bytes32",
          "name": "role",
          "type": "bytes32"
        },
        {
          "internalType": "address",
          "name": "account",
          "type": "address"
        }
      ],
      "name": "renounceRole",
      "outputs": [],
      "stateMutability": "nonpayable",
      "type": "function"
    },
    {
      "inputs": [
        {
          "internalType": "bytes32",
          "name": "role",
          "type": "bytes32"
        },
        {
          "internalType": "address",
          "name": "account",
          "type": "address"
        }
      ],
      "name": "revokeRole",
      "outputs": [],
      "stateMutability": "nonpayable",
      "type": "function"
    },
    {
      "inputs": [
        {
          "internalType": "uint256",
          "name": "itemNumber",
          "type": "uint256"
        }
      ],
      "name": "settle",
      "outputs": [],
      "stateMutability": "nonpayable",
      "type": "function"
    },
    {
      "inputs": [
        {
          "internalType": "bytes4",
          "name": "interfaceId",
          "type": "bytes4"
        }
      ],
      "name": "supportsInterface",
      "outputs": [
        {
          "internalType": "bool",
          "name": "",
          "type": "bool"
        }
      ],
      "stateMutability": "view",
      "type": "function"
    },
    {
      "inputs": [
        {
          "internalType": "address",
          "name": "",
          "type": "address"
        }
      ],
      "name": "tokenMinIncrement",
      "outputs": [
        {
          "internalType": "uint256",
          "name": "",
          "type": "uint256"
        }
      ],
      "stateMutability": "view",
      "type": "function"
    },
    {
      "inputs": [
        {
          "internalType": "address",
          "name": "",
          "type": "address"
        }
      ],
      "name": "tokenWhitelist",
      "outputs": [
        {
          "internalType": "bool",
          "name": "",
          "type": "bool"
        }
      ],
      "stateMutability": "view",
      "type": "function"
    },
    {
      "inputs": [],
      "name": "unpause",
      "outputs": [],
      "stateMutability": "nonpayable",
      "type": "function"
    },
    {
      "inputs": [
        {
          "internalType": "address",
          "name": "token",
          "type": "address"
        },
        {
          "internalType": "bool",
          "name": "isWhitelisted",
          "type": "bool"
        }
      ],
      "name": "whitelistNFTToken",
      "outputs": [],
      "stateMutability": "nonpayable",
      "type": "function"
    },
    {
      "inputs": [
        {
          "internalType": "address",
          "name": "token",
          "type": "address"
        },
        {
          "internalType": "bool",
          "name": "isWhitelisted",
          "type": "bool"
        },
        {
          "internalType": "uint256",
          "name": "_minBidIncrement",
          "type": "uint256"
        }
      ],
      "name": "whitelistToken",
      "outputs": [],
      "stateMutability": "nonpayable",
      "type": "function"
    },
    {
      "inputs": [],
      "name": "zoombiesFee",
      "outputs": [
        {
          "internalType": "uint256",
          "name": "",
          "type": "uint256"
        }
      ],
      "stateMutability": "view",
      "type": "function"
    }
  ],
  "bytecode": "0x60806040523480156200001157600080fd5b5060405162002f6038038062002f608339810160408190526200003491620001e8565b600160009081556002805460ff1916905560056004819055600381905580546001600160a01b031916339081179091556212750060065560ff6007556200007c9190620000af565b62000089600080620000bf565b600c80546001600160a01b0319166001600160a01b039290921691909117905562000218565b620000bb828262000116565b5050565b6000620000cc83620001a3565b6000848152600160208190526040808320909101859055519192508391839186917fbd79b86ffe0ab8e8776151514217cd7cacd52c909f66475c3af44e129f0b00ff9190a4505050565b620001228282620001b9565b620000bb5760008281526001602081815260408084206001600160a01b0386168552909152909120805460ff191690911790556200015f620001e4565b6001600160a01b0316816001600160a01b0316837f2f8788117e7eff1d82e926ec794901d17c78024a50270940304540a733656f0d60405160405180910390a45050565b6000908152600160208190526040909120015490565b60009182526001602090815260408084206001600160a01b0393909316845291905290205460ff1690565b3390565b600060208284031215620001fa578081fd5b81516001600160a01b038116811462000211578182fd5b9392505050565b612d3880620002286000396000f3fe6080604052600436106101ee5760003560e01c8063753d75631161010d578063a217fddf116100a0578063d08b18671161006f578063d08b186714610568578063d547741f1461057b578063e3c55e401461059b578063e88958dc146105bb578063f64989fe146105d0576101ee565b8063a217fddf146104f3578063a29b549a14610508578063a7f56c6414610528578063acc314ae14610548576101ee565b80638667f748116100dc5780638667f7481461047e578063869e7ebb146104935780638df82800146104b357806391d14854146104d3576101ee565b8063753d75631461041457806377e716371461043457806382f16cea146104495780638456cb5914610469576101ee565b80633f4ba83a11610185578063598647f811610154578063598647f8146103aa5780635c975abb146103bd5780636597441e146103d25780636bfb0d01146103ff576101ee565b80633f4ba83a1461033357806340bb154d1461034857806346b31b6e14610375578063518b057e14610395576101ee565b806317b47cc4116101c157806317b47cc4146102a0578063248a9ca3146102d35780632f2ff15d146102f357806336568abe14610313576101ee565b806301ffc9a7146101f0578063022300cb146102265780630feb2d1014610253578063150b7a0214610273575b005b3480156101fc57600080fd5b5061021061020b3660046121b0565b6105e5565b60405161021d9190612470565b60405180910390f35b34801561023257600080fd5b5061024661024136600461200b565b610612565b60405161021d919061247b565b34801561025f57600080fd5b506101ee61026e3660046120dd565b610624565b34801561027f57600080fd5b5061029361028e366004612025565b61067f565b60405161021d9190612484565b3480156102ac57600080fd5b506102c06102bb36600461216d565b61068f565b60405161021d9796959493929190612b97565b3480156102df57600080fd5b506102466102ee36600461216d565b6106dd565b3480156102ff57600080fd5b506101ee61030e366004612185565b6106f3565b34801561031f57600080fd5b506101ee61032e366004612185565b61071c565b34801561033f57600080fd5b506101ee610762565b34801561035457600080fd5b5061036861036336600461216d565b610793565b60405161021d91906123e1565b34801561038157600080fd5b5061021061039036600461200b565b6107ae565b3480156103a157600080fd5b506102466107c3565b6101ee6103b83660046121d8565b6107c9565b3480156103c957600080fd5b50610210610a65565b3480156103de57600080fd5b506103f26103ed36600461216d565b610a6e565b60405161021d9190612ab2565b34801561040b57600080fd5b50610246610b3e565b34801561042057600080fd5b5061021061042f36600461200b565b610b44565b34801561044057600080fd5b50610368610b59565b34801561045557600080fd5b506101ee61046436600461216d565b610b68565b34801561047557600080fd5b506101ee610bb5565b34801561048a57600080fd5b50610246610be4565b34801561049f57600080fd5b506101ee6104ae36600461216d565b610bea565b3480156104bf57600080fd5b506101ee6104ce36600461216d565b610c41565b3480156104df57600080fd5b506102106104ee366004612185565b610c7a565b3480156104ff57600080fd5b50610246610ca5565b34801561051457600080fd5b506101ee61052336600461200b565b610caa565b34801561053457600080fd5b506101ee61054336600461216d565b610cf3565b34801561055457600080fd5b506101ee610563366004612113565b610d51565b6101ee6105763660046121f9565b610dad565b34801561058757600080fd5b506101ee610596366004612185565b6110ff565b3480156105a757600080fd5b506101ee6105b636600461216d565b61111e565b3480156105c757600080fd5b50610246611175565b3480156105dc57600080fd5b5061024661117b565b60006001600160e01b03198216637965db0b60e01b148061060a575061060a82611181565b90505b919050565b60096020526000908152604090205481565b61062f600033610c7a565b6106545760405162461bcd60e51b815260040161064b9061274c565b60405180910390fd5b6001600160a01b03919091166000908152600a60205260409020805460ff1916911515919091179055565b630a85bd0160e11b949350505050565b600d602052600090815260409020805460018201546002830154600384015460048501546005860154600690960154949593946001600160a01b039384169492841693918216929091169087565b6000908152600160208190526040909120015490565b6106fc826106dd565b61070d8161070861119a565b61119e565b6107178383611202565b505050565b61072461119a565b6001600160a01b0316816001600160a01b0316146107545760405162461bcd60e51b815260040161064b906129d9565b61075e828261128a565b5050565b61076d600033610c7a565b6107895760405162461bcd60e51b815260040161064b9061274c565b61079161130f565b565b600b602052600090815260409020546001600160a01b031681565b600a6020526000908152604090205460ff1681565b60065481565b600260005414156107ec5760405162461bcd60e51b815260040161064b9061291a565b60026000553415806107fd57503481145b6108195760405162461bcd60e51b815260040161064b906125ae565b6000828152600d60205260409020600401546001600160a01b03166108505760405162461bcd60e51b815260040161064b906128e3565b6000828152600d60205260409020600101548110156108815760405162461bcd60e51b815260040161064b906127cd565b6000828152600d6020526040902054421115806108aa57506000828152600d6020526040902054155b6108c65760405162461bcd60e51b815260040161064b90612548565b6000828152600d60205260409020600401546001600160a01b03163314156109005760405162461bcd60e51b815260040161064b90612a6c565b6000828152600d6020818152604080842060028101546001600160a01b031685526009835290842054938690529190526006015461093e9190612bfc565b81101561095d5760405162461bcd60e51b815260040161064b90612988565b6000828152600d6020526040902060020154610982906001600160a01b03168261137d565b6000828152600d60205260409020600501546001600160a01b0316156109d6576000828152600d60205260409020600681015460058201546002909201546109d6926001600160a01b039081169116611419565b6000828152600d60205260409020600681018290556005810180546001600160a01b0319163317905554610a0d57610a0d826114df565b6000828152600d6020526040908190209051339184917fc89dda33c6731f44e0ceaac4cdf122cc34f130dda4f2f2ace0630db3b6a0cafd91610a5491869160070190612499565b60405180910390a350506001600055565b60025460ff1690565b610a76611f0a565b6000828152600d60209081526040918290208251610100810184528154815260018201548184015260028201546001600160a01b039081168286015260038301548116606083015260048301548116608083015260058301541660a0820152600682015460c08201526007820180548551818602810186019096528086529194929360e08601939290830182828015610b2e57602002820191906000526020600020905b815481526020019060010190808311610b1a575b5050505050815250509050919050565b600e5481565b60086020526000908152604090205460ff1681565b6005546001600160a01b031681565b610b73600033610c7a565b610b8f5760405162461bcd60e51b815260040161064b9061274c565b6001811015610bb05760405162461bcd60e51b815260040161064b9061261e565b600755565b610bc0600033610c7a565b610bdc5760405162461bcd60e51b815260040161064b9061274c565b610791611879565b60045481565b610bf5600033610c7a565b610c115760405162461bcd60e51b815260040161064b9061274c565b60148111158015610c20575060015b610c3c5760405162461bcd60e51b815260040161064b90612804565b600455565b60026000541415610c645760405162461bcd60e51b815260040161064b9061291a565b6002600055610c72816114df565b506001600055565b60009182526001602090815260408084206001600160a01b0393909316845291905290205460ff1690565b600081565b610cb5600033610c7a565b610cd15760405162461bcd60e51b815260040161064b9061274c565b600580546001600160a01b0319166001600160a01b0392909216919091179055565b610cfe600033610c7a565b610d1a5760405162461bcd60e51b815260040161064b9061274c565b6224ea008111158015610d305750621275008110155b610d4c5760405162461bcd60e51b815260040161064b90612804565b600655565b610d5c600033610c7a565b610d785760405162461bcd60e51b815260040161064b9061274c565b6001600160a01b03929092166000908152600860209081526040808320805460ff191694151594909417909355600990522055565b60026000541415610dd05760405162461bcd60e51b815260040161064b9061291a565b6002600055610ddd610a65565b15610dfa5760405162461bcd60e51b815260040161064b906126d6565b610e0483336118d4565b600654610e129042906119ab565b851115610e315760405162461bcd60e51b815260040161064b90612577565b6001600160a01b03811660009081526008602052604090205460ff16610e695760405162461bcd60e51b815260040161064b906125d8565b6001600160a01b0382166000908152600a602052604090205460ff16610ea15760405162461bcd60e51b815260040161064b90612a28565b6000835111610ec25760405162461bcd60e51b815260040161064b90612796565b600754835110610ee45760405162461bcd60e51b815260040161064b90612691565b60008411610f045760405162461bcd60e51b815260040161064b90612700565b604080516101008101825286815260208082018781526001600160a01b03808616848601908152878216606086019081523360808701908152600060a0880181815260c0890182815260e08a018e8152600e548452600d8a529a909220895181559651600188015593516002870180549187166001600160a01b03199283161790559251600387018054918716918516919091179055905160048601805491861691841691909117905591516005850180549190941691161790915551600682015592518051929392610fdd9260078501920190611f73565b5090505060005b835181101561108957826001600160a01b031663b88d4fde333087858151811061101e57634e487b7160e01b600052603260045260246000fd5b60200260200101516040518463ffffffff1660e01b815260040161104493929190612419565b600060405180830381600087803b15801561105e57600080fd5b505af1158015611072573d6000803e3d6000fd5b50505050808061108190612cad565b915050610fe4565b50816001600160a01b0316336001600160a01b0316600e547ff2b930499b549a20135d02dffcd8b6d3a8f53814489772d7a47a8b3150b711558887868a6040516110d69493929190612b37565b60405180910390a4600e80549060006110ee83612cad565b909155505060016000555050505050565b611108826106dd565b6111148161070861119a565b610717838361128a565b611129600033610c7a565b6111455760405162461bcd60e51b815260040161064b9061274c565b60148111158015611154575060015b6111705760405162461bcd60e51b815260040161064b90612804565b600355565b60035481565b60075481565b6001600160e01b031981166301ffc9a760e01b14919050565b3390565b6111a88282610c7a565b61075e576111c0816001600160a01b031660146119be565b6111cb8360206119be565b6040516020016111dc92919061236c565b60408051601f198184030181529082905262461bcd60e51b825261064b916004016124b2565b61120c8282610c7a565b61075e5760008281526001602081815260408084206001600160a01b0386168552909152909120805460ff1916909117905561124661119a565b6001600160a01b0316816001600160a01b0316837f2f8788117e7eff1d82e926ec794901d17c78024a50270940304540a733656f0d60405160405180910390a45050565b6112948282610c7a565b1561075e5760008281526001602090815260408083206001600160a01b03851684529091529020805460ff191690556112cb61119a565b6001600160a01b0316816001600160a01b0316837ff6391f5c32d9c69d2a47ea670b442974b53935d1edc7fd64eb21e047a839171b60405160405180910390a45050565b611317610a65565b6113335760405162461bcd60e51b815260040161064b9061251a565b6002805460ff191690557f5db9ee0a495bf2e6ff9c91a7834c1ba4fdd244a5e8aa4e537bd38aeae4b073aa61136661119a565b60405161137391906123e1565b60405180910390a1565b34158015906113995750600c546001600160a01b038381169116145b1561140c57600c60009054906101000a90046001600160a01b03166001600160a01b031663d0e30db0346040518263ffffffff1660e01b81526004016000604051808303818588803b1580156113ee57600080fd5b505af1158015611402573d6000803e3d6000fd5b505050505061075e565b8161071781333085611b70565b600c546001600160a01b03828116911614156114cd57600c54604051632e1a7d4d60e01b81526001600160a01b0390911690632e1a7d4d9061145f90869060040161247b565b600060405180830381600087803b15801561147957600080fd5b505af115801561148d573d6000803e3d6000fd5b50506040516001600160a01b038516925085156108fc02915085906000818181858888f193505050501580156114c7573d6000803e3d6000fd5b50610717565b806114d9818486611bc8565b50505050565b6000818152600d602052604090205442101561150d5760405162461bcd60e51b815260040161064b90612951565b6000818152600d60205260409020600501546001600160a01b031633148061154e57506000818152600d60205260409020600401546001600160a01b031633145b61156a5760405162461bcd60e51b815260040161064b90612862565b6000818152600d60205260409020600601546116c45760005b6000828152600d602052604090206007015481101561165e576000828152600d6020526040902060038101546004820154600790920180546001600160a01b039283169363b88d4fde933093911691869081106115f057634e487b7160e01b600052603260045260246000fd5b90600052602060002001546040518463ffffffff1660e01b815260040161161993929190612419565b600060405180830381600087803b15801561163357600080fd5b505af1158015611647573d6000803e3d6000fd5b50505050808061165690612cad565b915050611583565b506000818152600d6020526040808220600481015491516001600160a01b03909216929184917ff3392b8c642ed07dd5bf912c1bd3883a810e5c9076c8d275a621c9220138ad26916116b7918591600790910190612499565b60405180910390a4611818565b60005b6000828152600d60205260409020600701548110156117a2576000828152600d6020526040902060038101546005820154600790920180546001600160a01b039283169363b88d4fde9330939116918690811061173457634e487b7160e01b600052603260045260246000fd5b90600052602060002001546040518463ffffffff1660e01b815260040161175d93929190612419565b600060405180830381600087803b15801561177757600080fd5b505af115801561178b573d6000803e3d6000fd5b50505050808061179a90612cad565b9150506116c7565b506117ac81611be7565b6000818152600d60205260409081902060048101546005820154600683015493516001600160a01b0392831694929091169285927ff3392b8c642ed07dd5bf912c1bd3883a810e5c9076c8d275a621c9220138ad269261180f9260070190612499565b60405180910390a45b6000818152600d60205260408120818155600181018290556002810180546001600160a01b03199081169091556003820180548216905560048201805482169055600582018054909116905560068101829055906107176007830182611fbe565b611881610a65565b1561189e5760405162461bcd60e51b815260040161064b906126d6565b6002805460ff191660011790557f62e78cea01bee320cd4e420270b5ea74000d11b0c9f74754ebdbfc544b05a25861136661119a565b60005b82518110156107175760006001600160a01b0316600b600085848151811061190f57634e487b7160e01b600052603260045260246000fd5b6020908102919091018101518252810191909152604001600020546001600160a01b031614156119995781600b600085848151811061195e57634e487b7160e01b600052603260045260246000fd5b6020026020010151815260200190815260200160002060006101000a8154816001600160a01b0302191690836001600160a01b031602179055505b806119a381612cad565b9150506118d7565b60006119b78284612bfc565b9392505050565b606060006119cd836002612c34565b6119d8906002612bfc565b67ffffffffffffffff8111156119fe57634e487b7160e01b600052604160045260246000fd5b6040519080825280601f01601f191660200182016040528015611a28576020820181803683370190505b509050600360fc1b81600081518110611a5157634e487b7160e01b600052603260045260246000fd5b60200101906001600160f81b031916908160001a905350600f60fb1b81600181518110611a8e57634e487b7160e01b600052603260045260246000fd5b60200101906001600160f81b031916908160001a9053506000611ab2846002612c34565b611abd906001612bfc565b90505b6001811115611b51576f181899199a1a9b1b9c1cb0b131b232b360811b85600f1660108110611aff57634e487b7160e01b600052603260045260246000fd5b1a60f81b828281518110611b2357634e487b7160e01b600052603260045260246000fd5b60200101906001600160f81b031916908160001a90535060049490941c93611b4a81612c96565b9050611ac0565b5083156119b75760405162461bcd60e51b815260040161064b906124e5565b6114d9846323b872dd60e01b858585604051602401611b91939291906123f5565b60408051601f198184030181529190526020810180516001600160e01b03166001600160e01b031990931692909217909152611d41565b6107178363a9059cbb60e01b8484604051602401611b91929190612457565b6004546000828152600d60205260408120600601549091611c1591606491611c0f9190611dd0565b90611ddc565b6003546000848152600d602052604081206006015492935091611c3e91606491611c0f91611dd0565b6000848152600d602052604081206006015491925090611c6a908390611c649086611de8565b90611de8565b6005546000868152600d6020526040902060020154919250611c9a9185916001600160a01b039081169116611419565b6000848152600d602052604081206007018054611d10928592600b928290611cd257634e487b7160e01b600052603260045260246000fd5b60009182526020808320909101548352828101939093526040918201812054898252600d90935220600201546001600160a01b039182169116611419565b6000848152600d6020526040902060048101546002909101546114d99183916001600160a01b039182169116611419565b6000611d96826040518060400160405280602081526020017f5361666545524332303a206c6f772d6c6576656c2063616c6c206661696c6564815250856001600160a01b0316611df49092919063ffffffff16565b8051909150156107175780806020019051810190611db49190612151565b6107175760405162461bcd60e51b815260040161064b90612899565b60006119b78284612c34565b60006119b78284612c14565b60006119b78284612c53565b6060611e038484600085611e0b565b949350505050565b606082471015611e2d5760405162461bcd60e51b815260040161064b9061264b565b611e3685611ecb565b611e525760405162461bcd60e51b815260040161064b9061282b565b600080866001600160a01b03168587604051611e6e9190612350565b60006040518083038185875af1925050503d8060008114611eab576040519150601f19603f3d011682016040523d82523d6000602084013e611eb0565b606091505b5091509150611ec0828286611ed1565b979650505050505050565b3b151590565b60608315611ee05750816119b7565b825115611ef05782518084602001fd5b8160405162461bcd60e51b815260040161064b91906124b2565b604051806101000160405280600081526020016000815260200160006001600160a01b0316815260200160006001600160a01b0316815260200160006001600160a01b0316815260200160006001600160a01b0316815260200160008152602001606081525090565b828054828255906000526020600020908101928215611fae579160200282015b82811115611fae578251825591602001919060010190611f93565b50611fba929150611fdf565b5090565b5080546000825590600052602060002090810190611fdc9190611fdf565b50565b5b80821115611fba5760008155600101611fe0565b80356001600160a01b038116811461060d57600080fd5b60006020828403121561201c578081fd5b6119b782611ff4565b6000806000806080858703121561203a578283fd5b61204385611ff4565b93506020612052818701611ff4565b935060408601359250606086013567ffffffffffffffff80821115612075578384fd5b818801915088601f830112612088578384fd5b81358181111561209a5761209a612cde565b6120ac601f8201601f19168501612bd2565b915080825289848285010111156120c1578485fd5b8084840185840137810190920192909252939692955090935050565b600080604083850312156120ef578182fd5b6120f883611ff4565b9150602083013561210881612cf4565b809150509250929050565b600080600060608486031215612127578283fd5b61213084611ff4565b9250602084013561214081612cf4565b929592945050506040919091013590565b600060208284031215612162578081fd5b81516119b781612cf4565b60006020828403121561217e578081fd5b5035919050565b60008060408385031215612197578182fd5b823591506121a760208401611ff4565b90509250929050565b6000602082840312156121c1578081fd5b81356001600160e01b0319811681146119b7578182fd5b600080604083850312156121ea578182fd5b50508035926020909101359150565b600080600080600060a08688031215612210578081fd5b853594506020808701359450604087013567ffffffffffffffff80821115612236578384fd5b818901915089601f830112612249578384fd5b81358181111561225b5761225b612cde565b838102915061226b848301612bd2565b8181528481019084860184860187018e1015612285578788fd5b8795505b838610156122a7578035835260019590950194918601918601612289565b508098505050505050506122bd60608701611ff4565b91506122cb60808701611ff4565b90509295509295909350565b6001600160a01b03169052565b6000815180845260208085019450808401835b83811015612313578151875295820195908201906001016122f7565b509495945050505050565b6000815480845260208085019450838352808320835b8381101561231357815487529582019560019182019101612334565b60008251612362818460208701612c6a565b9190910192915050565b60007f416363657373436f6e74726f6c3a206163636f756e7420000000000000000000825283516123a4816017850160208801612c6a565b7001034b99036b4b9b9b4b733903937b6329607d1b60179184019182015283516123d5816028840160208801612c6a565b01602801949350505050565b6001600160a01b0391909116815260200190565b6001600160a01b039384168152919092166020820152604081019190915260600190565b6001600160a01b039384168152919092166020820152604081019190915260806060820181905260029082015261060f60f31b60a082015260c00190565b6001600160a01b03929092168252602082015260400190565b901515815260200190565b90815260200190565b6001600160e01b031991909116815260200190565b600083825260406020830152611e03604083018461231e565b60006020825282518060208401526124d1816040850160208701612c6a565b601f01601f19169190910160400192915050565b6020808252818101527f537472696e67733a20686578206c656e67746820696e73756666696369656e74604082015260600190565b60208082526014908201527314185d5cd8589b194e881b9bdd081c185d5cd95960621b604082015260600190565b60208082526015908201527413585c9ad95d0e88185d58dd1a5bdb88195b991959605a1b604082015260600190565b60208082526018908201527f4d61726b65743a2061756374696f6e20746f6f206c6f6e670000000000000000604082015260600190565b60208082526010908201526f09ac2e4d6cae874409ad2e6dac2e8c6d60831b604082015260600190565b60208082526026908201527f4d61726b65743a20455243323020636f6e7472616374206e6f742077686974656040820152651b1a5cdd195960d21b606082015260800190565b6020808252601390820152721a5b9d985b1a590813585e13919510dbdd5b9d606a1b604082015260600190565b60208082526026908201527f416464726573733a20696e73756666696369656e742062616c616e636520666f6040820152651c8818d85b1b60d21b606082015260800190565b60208082526025908201527f4d61726b65743a20746f6b656e20636f756e742065786365656473206d61782060408201526418dbdd5b9d60da1b606082015260800190565b60208082526010908201526f14185d5cd8589b194e881c185d5cd95960821b604082015260600190565b6020808252602c908201527f4d61726b65743a206d696e696d756d207072696365206d75737420626520677260408201526b06561746572207468616e20360a41b606082015260800190565b6020808252602a908201527f5a6f6f6d626965734e46543a205573657220646f6573206e6f7420686176652060408201526961646d696e20726f6c6560b01b606082015260800190565b6020808252601f908201527f4d61726b65743a2073656c656374206174206c65617374203120746f6b656e00604082015260600190565b6020808252601b908201527f4d61726b65743a2062696420756e646572206d696e2070726963650000000000604082015260600190565b6020808252600d908201526c6e6f7420696e20626f756e647360981b604082015260600190565b6020808252601d908201527f416464726573733a2063616c6c20746f206e6f6e2d636f6e7472616374000000604082015260600190565b6020808252601c908201527f4d61726b65743a206e6f7420626964646572206f722073656c6c657200000000604082015260600190565b6020808252602a908201527f5361666545524332303a204552433230206f7065726174696f6e20646964206e6040820152691bdd081cdd58d8d9595960b21b606082015260800190565b60208082526018908201527f4d61726b65743a204e6f6e206578697374696e67206269640000000000000000604082015260600190565b6020808252601f908201527f5265656e7472616e637947756172643a207265656e7472616e742063616c6c00604082015260600190565b60208082526019908201527f4d61726b65743a2061756374696f6e206e6f7420656e64656400000000000000604082015260600190565b60208082526031908201527f4d61726b65743a2062696420756e646572206869676865737420626964202b206040820152701b5a5b9a5b5d5b481a5b98dc995b595b9d607a1b606082015260800190565b6020808252602f908201527f416363657373436f6e74726f6c3a2063616e206f6e6c792072656e6f756e636560408201526e103937b632b9903337b91039b2b63360891b606082015260800190565b60208082526024908201527f4d61726b65743a204e465420636f6e7472616374206e6f742077686974656c696040820152631cdd195960e21b606082015260800190565b60208082526026908201527f4d61726b65743a2063616e6e6f7420626964206f6e20796f7572206f776e206c604082015265697374696e6760d01b606082015260800190565b6000602082528251602083015260208301516040830152604083015160018060a01b03808216606085015280606086015116608085015250506080830151612afd60a08401826122d7565b5060a0830151612b1060c08401826122d7565b5060c083015160e083015260e0830151610100808185015250611e036101208401826122e4565b600060808201868352602060808185015281875180845260a0860191508289019350845b81811015612b7757845183529383019391830191600101612b5b565b50506001600160a01b039690961660408501525050506060015292915050565b96875260208701959095526001600160a01b0393841660408701529183166060860152821660808501521660a083015260c082015260e00190565b60405181810167ffffffffffffffff81118282101715612bf457612bf4612cde565b604052919050565b60008219821115612c0f57612c0f612cc8565b500190565b600082612c2f57634e487b7160e01b81526012600452602481fd5b500490565b6000816000190483118215151615612c4e57612c4e612cc8565b500290565b600082821015612c6557612c65612cc8565b500390565b60005b83811015612c85578181015183820152602001612c6d565b838111156114d95750506000910152565b600081612ca557612ca5612cc8565b506000190190565b6000600019821415612cc157612cc1612cc8565b5060010190565b634e487b7160e01b600052601160045260246000fd5b634e487b7160e01b600052604160045260246000fd5b8015158114611fdc57600080fdfea2646970667358221220b7484acb8ac61f408fe86d4f151028097f4daad2fb48c036c641a2c374e34bbf64736f6c63430008000033",
  "linkReferences": {},
  "deployedLinkReferences": {}
}