{
  "_format": "hh-sol-artifact-1",
  "contractName": "ZoombiesMarketPlace",
  "sourceName": "contracts/ZoombiesMarketplace.sol",
  "abi": [
    {
      "inputs": [
        {
          "internalType": "string",
          "name": "name",
          "type": "string"
        },
        {
          "internalType": "string",
          "name": "symbol",
          "type": "string"
        },
        {
          "internalType": "address payable",
          "name": "xMovr",
          "type": "address"
        },
        {
          "internalType": "address payable",
          "name": "xZoombies",
          "type": "address"
        }
      ],
      "stateMutability": "nonpayable",
      "type": "constructor"
    },
    {
      "anonymous": false,
      "inputs": [
        {
          "indexed": true,
          "internalType": "address",
          "name": "owner",
          "type": "address"
        },
        {
          "indexed": true,
          "internalType": "address",
          "name": "approved",
          "type": "address"
        },
        {
          "indexed": true,
          "internalType": "uint256",
          "name": "tokenId",
          "type": "uint256"
        }
      ],
      "name": "Approval",
      "type": "event"
    },
    {
      "anonymous": false,
      "inputs": [
        {
          "indexed": true,
          "internalType": "address",
          "name": "owner",
          "type": "address"
        },
        {
          "indexed": true,
          "internalType": "address",
          "name": "operator",
          "type": "address"
        },
        {
          "indexed": false,
          "internalType": "bool",
          "name": "approved",
          "type": "bool"
        }
      ],
      "name": "ApprovalForAll",
      "type": "event"
    },
    {
      "anonymous": false,
      "inputs": [
        {
          "indexed": false,
          "internalType": "uint256",
          "name": "itemNumber",
          "type": "uint256"
        },
        {
          "indexed": false,
          "internalType": "uint256",
          "name": "bidAmount",
          "type": "uint256"
        },
        {
          "indexed": true,
          "internalType": "address",
          "name": "bidder",
          "type": "address"
        },
        {
          "indexed": true,
          "internalType": "uint256[]",
          "name": "tokenIds",
          "type": "uint256[]"
        }
      ],
      "name": "Bid",
      "type": "event"
    },
    {
      "anonymous": false,
      "inputs": [
        {
          "indexed": true,
          "internalType": "address",
          "name": "lister",
          "type": "address"
        },
        {
          "indexed": true,
          "internalType": "uint256[]",
          "name": "tokenIds",
          "type": "uint256[]"
        },
        {
          "indexed": true,
          "internalType": "address",
          "name": "saleToken",
          "type": "address"
        },
        {
          "indexed": false,
          "internalType": "uint256",
          "name": "minPrice",
          "type": "uint256"
        }
      ],
      "name": "ItemListed",
      "type": "event"
    },
    {
      "anonymous": false,
      "inputs": [
        {
          "indexed": false,
          "internalType": "address",
          "name": "account",
          "type": "address"
        }
      ],
      "name": "Paused",
      "type": "event"
    },
    {
      "anonymous": false,
      "inputs": [
        {
          "indexed": true,
          "internalType": "bytes32",
          "name": "role",
          "type": "bytes32"
        },
        {
          "indexed": true,
          "internalType": "bytes32",
          "name": "previousAdminRole",
          "type": "bytes32"
        },
        {
          "indexed": true,
          "internalType": "bytes32",
          "name": "newAdminRole",
          "type": "bytes32"
        }
      ],
      "name": "RoleAdminChanged",
      "type": "event"
    },
    {
      "anonymous": false,
      "inputs": [
        {
          "indexed": true,
          "internalType": "bytes32",
          "name": "role",
          "type": "bytes32"
        },
        {
          "indexed": true,
          "internalType": "address",
          "name": "account",
          "type": "address"
        },
        {
          "indexed": true,
          "internalType": "address",
          "name": "sender",
          "type": "address"
        }
      ],
      "name": "RoleGranted",
      "type": "event"
    },
    {
      "anonymous": false,
      "inputs": [
        {
          "indexed": true,
          "internalType": "bytes32",
          "name": "role",
          "type": "bytes32"
        },
        {
          "indexed": true,
          "internalType": "address",
          "name": "account",
          "type": "address"
        },
        {
          "indexed": true,
          "internalType": "address",
          "name": "sender",
          "type": "address"
        }
      ],
      "name": "RoleRevoked",
      "type": "event"
    },
    {
      "anonymous": false,
      "inputs": [
        {
          "indexed": false,
          "internalType": "uint256",
          "name": "itemNumber",
          "type": "uint256"
        },
        {
          "indexed": false,
          "internalType": "uint256",
          "name": "bidAmount",
          "type": "uint256"
        },
        {
          "indexed": true,
          "internalType": "address",
          "name": "winner",
          "type": "address"
        },
        {
          "indexed": true,
          "internalType": "address",
          "name": "seller",
          "type": "address"
        },
        {
          "indexed": true,
          "internalType": "uint256[]",
          "name": "tokenIds",
          "type": "uint256[]"
        }
      ],
      "name": "Settled",
      "type": "event"
    },
    {
      "anonymous": false,
      "inputs": [
        {
          "indexed": true,
          "internalType": "address",
          "name": "from",
          "type": "address"
        },
        {
          "indexed": true,
          "internalType": "address",
          "name": "to",
          "type": "address"
        },
        {
          "indexed": true,
          "internalType": "uint256",
          "name": "tokenId",
          "type": "uint256"
        }
      ],
      "name": "Transfer",
      "type": "event"
    },
    {
      "anonymous": false,
      "inputs": [
        {
          "indexed": false,
          "internalType": "address",
          "name": "account",
          "type": "address"
        }
      ],
      "name": "Unpaused",
      "type": "event"
    },
    {
      "stateMutability": "payable",
      "type": "fallback"
    },
    {
      "inputs": [],
      "name": "DEFAULT_ADMIN_ROLE",
      "outputs": [
        {
          "internalType": "bytes32",
          "name": "",
          "type": "bytes32"
        }
      ],
      "stateMutability": "view",
      "type": "function"
    },
    {
      "inputs": [
        {
          "internalType": "uint256",
          "name": "",
          "type": "uint256"
        }
      ],
      "name": "Items",
      "outputs": [
        {
          "internalType": "uint256",
          "name": "auctionEnd",
          "type": "uint256"
        },
        {
          "internalType": "uint256",
          "name": "minPrice",
          "type": "uint256"
        },
        {
          "internalType": "address",
          "name": "saleToken",
          "type": "address"
        },
        {
          "internalType": "address",
          "name": "seller",
          "type": "address"
        },
        {
          "internalType": "address",
          "name": "highestBidder",
          "type": "address"
        },
        {
          "internalType": "uint256",
          "name": "highestBid",
          "type": "uint256"
        }
      ],
      "stateMutability": "view",
      "type": "function"
    },
    {
      "inputs": [
        {
          "internalType": "address",
          "name": "to",
          "type": "address"
        },
        {
          "internalType": "uint256",
          "name": "tokenId",
          "type": "uint256"
        }
      ],
      "name": "approve",
      "outputs": [],
      "stateMutability": "nonpayable",
      "type": "function"
    },
    {
      "inputs": [
        {
          "internalType": "address",
          "name": "owner",
          "type": "address"
        }
      ],
      "name": "balanceOf",
      "outputs": [
        {
          "internalType": "uint256",
          "name": "",
          "type": "uint256"
        }
      ],
      "stateMutability": "view",
      "type": "function"
    },
    {
      "inputs": [
        {
          "internalType": "uint256",
          "name": "itemNumber",
          "type": "uint256"
        },
        {
          "internalType": "uint256",
          "name": "bidAmount",
          "type": "uint256"
        }
      ],
      "name": "bid",
      "outputs": [],
      "stateMutability": "payable",
      "type": "function"
    },
    {
      "inputs": [
        {
          "internalType": "uint256",
          "name": "tokenId",
          "type": "uint256"
        }
      ],
      "name": "burn",
      "outputs": [
        {
          "internalType": "bool",
          "name": "",
          "type": "bool"
        }
      ],
      "stateMutability": "nonpayable",
      "type": "function"
    },
    {
      "inputs": [
        {
          "internalType": "uint256",
          "name": "_creatorFee",
          "type": "uint256"
        }
      ],
      "name": "changeCreatorFee",
      "outputs": [],
      "stateMutability": "nonpayable",
      "type": "function"
    },
    {
      "inputs": [
        {
          "internalType": "address",
          "name": "_dollarZoombies",
          "type": "address"
        }
      ],
      "name": "changeDollarZoombiesAddress",
      "outputs": [],
      "stateMutability": "nonpayable",
      "type": "function"
    },
    {
      "inputs": [
        {
          "internalType": "uint256",
          "name": "_maxAuctionTime",
          "type": "uint256"
        }
      ],
      "name": "changeMaxAuctionTime",
      "outputs": [],
      "stateMutability": "nonpayable",
      "type": "function"
    },
    {
      "inputs": [
        {
          "internalType": "uint256",
          "name": "_maxNFTCount",
          "type": "uint256"
        }
      ],
      "name": "changeMaxNFTCount",
      "outputs": [],
      "stateMutability": "nonpayable",
      "type": "function"
    },
    {
      "inputs": [
        {
          "internalType": "uint256",
          "name": "_zoombiesFee",
          "type": "uint256"
        }
      ],
      "name": "changeZoombiesFee",
      "outputs": [],
      "stateMutability": "nonpayable",
      "type": "function"
    },
    {
      "inputs": [],
      "name": "creatorFee",
      "outputs": [
        {
          "internalType": "uint256",
          "name": "",
          "type": "uint256"
        }
      ],
      "stateMutability": "view",
      "type": "function"
    },
    {
      "inputs": [],
      "name": "dollarZoombies",
      "outputs": [
        {
          "internalType": "address",
          "name": "",
          "type": "address"
        }
      ],
      "stateMutability": "view",
      "type": "function"
    },
    {
      "inputs": [
        {
          "internalType": "uint256",
          "name": "tokenId",
          "type": "uint256"
        }
      ],
      "name": "getApproved",
      "outputs": [
        {
          "internalType": "address",
          "name": "",
          "type": "address"
        }
      ],
      "stateMutability": "view",
      "type": "function"
    },
    {
      "inputs": [
        {
          "internalType": "uint256",
          "name": "itemNumber",
          "type": "uint256"
        }
      ],
      "name": "getListItem",
      "outputs": [
        {
          "components": [
            {
              "internalType": "uint256",
              "name": "auctionEnd",
              "type": "uint256"
            },
            {
              "internalType": "uint256",
              "name": "minPrice",
              "type": "uint256"
            },
            {
              "internalType": "address",
              "name": "saleToken",
              "type": "address"
            },
            {
              "internalType": "address",
              "name": "seller",
              "type": "address"
            },
            {
              "internalType": "address",
              "name": "highestBidder",
              "type": "address"
            },
            {
              "internalType": "uint256",
              "name": "highestBid",
              "type": "uint256"
            },
            {
              "internalType": "uint256[]",
              "name": "tokenIds",
              "type": "uint256[]"
            }
          ],
          "internalType": "struct ZoombiesMarketPlace.Item",
          "name": "item",
          "type": "tuple"
        }
      ],
      "stateMutability": "view",
      "type": "function"
    },
    {
      "inputs": [
        {
          "internalType": "bytes32",
          "name": "role",
          "type": "bytes32"
        }
      ],
      "name": "getRoleAdmin",
      "outputs": [
        {
          "internalType": "bytes32",
          "name": "",
          "type": "bytes32"
        }
      ],
      "stateMutability": "view",
      "type": "function"
    },
    {
      "inputs": [
        {
          "internalType": "bytes32",
          "name": "role",
          "type": "bytes32"
        },
        {
          "internalType": "address",
          "name": "account",
          "type": "address"
        }
      ],
      "name": "grantRole",
      "outputs": [],
      "stateMutability": "nonpayable",
      "type": "function"
    },
    {
      "inputs": [
        {
          "internalType": "bytes32",
          "name": "role",
          "type": "bytes32"
        },
        {
          "internalType": "address",
          "name": "account",
          "type": "address"
        }
      ],
      "name": "hasRole",
      "outputs": [
        {
          "internalType": "bool",
          "name": "",
          "type": "bool"
        }
      ],
      "stateMutability": "view",
      "type": "function"
    },
    {
      "inputs": [
        {
          "internalType": "address",
          "name": "owner",
          "type": "address"
        },
        {
          "internalType": "address",
          "name": "operator",
          "type": "address"
        }
      ],
      "name": "isApprovedForAll",
      "outputs": [
        {
          "internalType": "bool",
          "name": "",
          "type": "bool"
        }
      ],
      "stateMutability": "view",
      "type": "function"
    },
    {
      "inputs": [],
      "name": "itemCount",
      "outputs": [
        {
          "internalType": "uint256",
          "name": "",
          "type": "uint256"
        }
      ],
      "stateMutability": "view",
      "type": "function"
    },
    {
      "inputs": [
        {
          "internalType": "uint256",
          "name": "auctionEnd",
          "type": "uint256"
        },
        {
          "internalType": "uint256",
          "name": "minPrice",
          "type": "uint256"
        },
        {
          "internalType": "uint256[]",
          "name": "tokenIds",
          "type": "uint256[]"
        },
        {
          "internalType": "address",
          "name": "saleToken",
          "type": "address"
        }
      ],
      "name": "listItem",
      "outputs": [],
      "stateMutability": "payable",
      "type": "function"
    },
    {
      "inputs": [],
      "name": "maxAuctionTime",
      "outputs": [
        {
          "internalType": "uint256",
          "name": "",
          "type": "uint256"
        }
      ],
      "stateMutability": "view",
      "type": "function"
    },
    {
      "inputs": [],
      "name": "maxNFTCount",
      "outputs": [
        {
          "internalType": "uint256",
          "name": "",
          "type": "uint256"
        }
      ],
      "stateMutability": "view",
      "type": "function"
    },
    {
      "inputs": [
        {
          "internalType": "address",
          "name": "to",
          "type": "address"
        },
        {
          "internalType": "uint256",
          "name": "tokenId",
          "type": "uint256"
        }
      ],
      "name": "mint",
      "outputs": [
        {
          "internalType": "bool",
          "name": "",
          "type": "bool"
        }
      ],
      "stateMutability": "nonpayable",
      "type": "function"
    },
    {
      "inputs": [],
      "name": "name",
      "outputs": [
        {
          "internalType": "string",
          "name": "",
          "type": "string"
        }
      ],
      "stateMutability": "view",
      "type": "function"
    },
    {
      "inputs": [
        {
          "internalType": "address",
          "name": "",
          "type": "address"
        },
        {
          "internalType": "address",
          "name": "",
          "type": "address"
        },
        {
          "internalType": "uint256",
          "name": "",
          "type": "uint256"
        },
        {
          "internalType": "bytes",
          "name": "",
          "type": "bytes"
        }
      ],
      "name": "onERC721Received",
      "outputs": [
        {
          "internalType": "bytes4",
          "name": "",
          "type": "bytes4"
        }
      ],
      "stateMutability": "nonpayable",
      "type": "function"
    },
    {
      "inputs": [
        {
          "internalType": "uint256",
          "name": "",
          "type": "uint256"
        }
      ],
      "name": "originalOwner",
      "outputs": [
        {
          "internalType": "address",
          "name": "",
          "type": "address"
        }
      ],
      "stateMutability": "view",
      "type": "function"
    },
    {
      "inputs": [
        {
          "internalType": "uint256",
          "name": "tokenId",
          "type": "uint256"
        }
      ],
      "name": "ownerOf",
      "outputs": [
        {
          "internalType": "address",
          "name": "",
          "type": "address"
        }
      ],
      "stateMutability": "view",
      "type": "function"
    },
    {
      "inputs": [],
      "name": "pause",
      "outputs": [],
      "stateMutability": "nonpayable",
      "type": "function"
    },
    {
      "inputs": [],
      "name": "paused",
      "outputs": [
        {
          "internalType": "bool",
          "name": "",
          "type": "bool"
        }
      ],
      "stateMutability": "view",
      "type": "function"
    },
    {
      "inputs": [
        {
          "internalType": "bytes32",
          "name": "role",
          "type": "bytes32"
        },
        {
          "internalType": "address",
          "name": "account",
          "type": "address"
        }
      ],
      "name": "renounceRole",
      "outputs": [],
      "stateMutability": "nonpayable",
      "type": "function"
    },
    {
      "inputs": [
        {
          "internalType": "bytes32",
          "name": "role",
          "type": "bytes32"
        },
        {
          "internalType": "address",
          "name": "account",
          "type": "address"
        }
      ],
      "name": "revokeRole",
      "outputs": [],
      "stateMutability": "nonpayable",
      "type": "function"
    },
    {
      "inputs": [
        {
          "internalType": "address",
          "name": "from",
          "type": "address"
        },
        {
          "internalType": "address",
          "name": "to",
          "type": "address"
        },
        {
          "internalType": "uint256",
          "name": "tokenId",
          "type": "uint256"
        }
      ],
      "name": "safeTransferFrom",
      "outputs": [],
      "stateMutability": "nonpayable",
      "type": "function"
    },
    {
      "inputs": [
        {
          "internalType": "address",
          "name": "from",
          "type": "address"
        },
        {
          "internalType": "address",
          "name": "to",
          "type": "address"
        },
        {
          "internalType": "uint256",
          "name": "tokenId",
          "type": "uint256"
        },
        {
          "internalType": "bytes",
          "name": "_data",
          "type": "bytes"
        }
      ],
      "name": "safeTransferFrom",
      "outputs": [],
      "stateMutability": "nonpayable",
      "type": "function"
    },
    {
      "inputs": [
        {
          "internalType": "address",
          "name": "to",
          "type": "address"
        },
        {
          "internalType": "uint256",
          "name": "tokenId",
          "type": "uint256"
        }
      ],
      "name": "safemint",
      "outputs": [
        {
          "internalType": "bool",
          "name": "",
          "type": "bool"
        }
      ],
      "stateMutability": "nonpayable",
      "type": "function"
    },
    {
      "inputs": [
        {
          "internalType": "address",
          "name": "operator",
          "type": "address"
        },
        {
          "internalType": "bool",
          "name": "approved",
          "type": "bool"
        }
      ],
      "name": "setApprovalForAll",
      "outputs": [],
      "stateMutability": "nonpayable",
      "type": "function"
    },
    {
      "inputs": [
        {
          "internalType": "uint256",
          "name": "tokenId",
          "type": "uint256"
        },
        {
          "internalType": "string",
          "name": "_tokenURI",
          "type": "string"
        }
      ],
      "name": "setTokenURI",
      "outputs": [
        {
          "internalType": "bool",
          "name": "",
          "type": "bool"
        }
      ],
      "stateMutability": "nonpayable",
      "type": "function"
    },
    {
      "inputs": [
        {
          "internalType": "uint256",
          "name": "itemNumber",
          "type": "uint256"
        }
      ],
      "name": "settle",
      "outputs": [],
      "stateMutability": "nonpayable",
      "type": "function"
    },
    {
      "inputs": [
        {
          "internalType": "bytes4",
          "name": "interfaceId",
          "type": "bytes4"
        }
      ],
      "name": "supportsInterface",
      "outputs": [
        {
          "internalType": "bool",
          "name": "",
          "type": "bool"
        }
      ],
      "stateMutability": "view",
      "type": "function"
    },
    {
      "inputs": [],
      "name": "symbol",
      "outputs": [
        {
          "internalType": "string",
          "name": "",
          "type": "string"
        }
      ],
      "stateMutability": "view",
      "type": "function"
    },
    {
      "inputs": [
        {
          "internalType": "uint256",
          "name": "index",
          "type": "uint256"
        }
      ],
      "name": "tokenByIndex",
      "outputs": [
        {
          "internalType": "uint256",
          "name": "",
          "type": "uint256"
        }
      ],
      "stateMutability": "view",
      "type": "function"
    },
    {
      "inputs": [
        {
          "internalType": "address",
          "name": "owner",
          "type": "address"
        },
        {
          "internalType": "uint256",
          "name": "index",
          "type": "uint256"
        }
      ],
      "name": "tokenOfOwnerByIndex",
      "outputs": [
        {
          "internalType": "uint256",
          "name": "",
          "type": "uint256"
        }
      ],
      "stateMutability": "view",
      "type": "function"
    },
    {
      "inputs": [
        {
          "internalType": "uint256",
          "name": "tokenId",
          "type": "uint256"
        }
      ],
      "name": "tokenURI",
      "outputs": [
        {
          "internalType": "string",
          "name": "",
          "type": "string"
        }
      ],
      "stateMutability": "view",
      "type": "function"
    },
    {
      "inputs": [
        {
          "internalType": "address",
          "name": "",
          "type": "address"
        }
      ],
      "name": "tokenWhitelist",
      "outputs": [
        {
          "internalType": "bool",
          "name": "",
          "type": "bool"
        }
      ],
      "stateMutability": "view",
      "type": "function"
    },
    {
      "inputs": [],
      "name": "totalSupply",
      "outputs": [
        {
          "internalType": "uint256",
          "name": "",
          "type": "uint256"
        }
      ],
      "stateMutability": "view",
      "type": "function"
    },
    {
      "inputs": [
        {
          "internalType": "address",
          "name": "from",
          "type": "address"
        },
        {
          "internalType": "address",
          "name": "to",
          "type": "address"
        },
        {
          "internalType": "uint256",
          "name": "tokenId",
          "type": "uint256"
        }
      ],
      "name": "transferFrom",
      "outputs": [],
      "stateMutability": "nonpayable",
      "type": "function"
    },
    {
      "inputs": [],
      "name": "unpause",
      "outputs": [],
      "stateMutability": "nonpayable",
      "type": "function"
    },
    {
      "inputs": [
        {
          "internalType": "address",
          "name": "token",
          "type": "address"
        },
        {
          "internalType": "bool",
          "name": "isWhitelisted",
          "type": "bool"
        }
      ],
      "name": "whitelistToken",
      "outputs": [],
      "stateMutability": "nonpayable",
      "type": "function"
    },
    {
      "inputs": [],
      "name": "zoombiesFee",
      "outputs": [
        {
          "internalType": "uint256",
          "name": "",
          "type": "uint256"
        }
      ],
      "stateMutability": "view",
      "type": "function"
    }
  ],
  "bytecode": "0x60806040523480156200001157600080fd5b506040516200499038038062004990833981016040819052620000349162000396565b838381818160009080519060200190620000509291906200022d565b508051620000669060019060208401906200022d565b5050600c805460ff19169055506005600e819055600d55600f80546001600160a01b031916339081179091556212750060105560ff601155620000ac90600090620000f5565b620000b960008062000105565b50506001601355601580546001600160a01b039384166001600160a01b0319918216179091556016805492909316911617905550620004759050565b6200010182826200015a565b5050565b60006200011283620001e6565b6000848152600b6020526040808220600101859055519192508391839186917fbd79b86ffe0ab8e8776151514217cd7cacd52c909f66475c3af44e129f0b00ff9190a4505050565b620001668282620001fe565b62000101576000828152600b602090815260408083206001600160a01b03851684529091529020805460ff19166001179055620001a262000229565b6001600160a01b0316816001600160a01b0316837f2f8788117e7eff1d82e926ec794901d17c78024a50270940304540a733656f0d60405160405180910390a45050565b6000818152600b60205260409020600101545b919050565b6000918252600b602090815260408084206001600160a01b0393909316845291905290205460ff1690565b3390565b8280546200023b9062000422565b90600052602060002090601f0160209004810192826200025f5760008555620002aa565b82601f106200027a57805160ff1916838001178555620002aa565b82800160010185558215620002aa579182015b82811115620002aa5782518255916020019190600101906200028d565b50620002b8929150620002bc565b5090565b5b80821115620002b85760008155600101620002bd565b80516001600160a01b0381168114620001f957600080fd5b600082601f830112620002fc578081fd5b81516001600160401b03808211156200031957620003196200045f565b6040516020601f8401601f19168201810183811183821017156200034157620003416200045f565b604052838252858401810187101562000358578485fd5b8492505b838310156200037b57858301810151828401820152918201916200035c565b838311156200038c57848185840101525b5095945050505050565b60008060008060808587031215620003ac578384fd5b84516001600160401b0380821115620003c3578586fd5b620003d188838901620002eb565b95506020870151915080821115620003e7578485fd5b50620003f687828801620002eb565b9350506200040760408601620002d3565b91506200041760608601620002d3565b905092959194509250565b6002810460018216806200043757607f821691505b602082108114156200045957634e487b7160e01b600052602260045260246000fd5b50919050565b634e487b7160e01b600052604160045260246000fd5b61450b80620004856000396000f3fe6080604052600436106102ae5760003560e01c80635c975abb1161017557806391d14854116100dc578063b88d4fde11610095578063e3c55e401161006f578063e3c55e4014610826578063e88958dc14610846578063e985e9c51461085b578063f64989fe1461087b576102ae565b8063b88d4fde146107c6578063c87b56dd146107e6578063d547741f14610806576102ae565b806391d148541461071c57806395d89b411461073c578063a217fddf14610751578063a22cb46514610766578063a29b549a14610786578063a7f56c64146107a6576102ae565b806377e716371161012e57806377e716371461067d57806382f16cea146106925780638456cb59146106b25780638667f748146106c7578063869e7ebb146106dc5780638df82800146106fc576102ae565b80635c975abb146105c65780636352211e146105db5780636597441e146105fb5780636bfb0d011461062857806370a082311461063d578063753d75631461065d576102ae565b80632f745c591161021957806342842e0e116101d257806342842e0e1461052b57806342966c681461054b5780634b146da61461056b5780634f6ccce71461057e578063518b057e1461059e578063598647f8146105b3576102ae565b80632f745c591461047657806336568abe1461049657806338ff4fc4146104b65780633f4ba83a146104d657806340bb154d146104eb57806340c10f191461050b576102ae565b8063162094c41161026b578063162094c4146103a257806317b47cc4146103c257806318160ddd146103f457806323b872dd14610416578063248a9ca3146104365780632f2ff15d14610456576102ae565b806301ffc9a7146102b057806306fdde03146102e6578063081812fc14610308578063095ea7b3146103355780630ffb1d8b14610355578063150b7a0214610375575b005b3480156102bc57600080fd5b506102d06102cb3660046134d6565b610890565b6040516102dd9190613870565b60405180910390f35b3480156102f257600080fd5b506102fb6108a3565b6040516102dd9190613899565b34801561031457600080fd5b5061032861032336600461349c565b610935565b6040516102dd91906137a4565b34801561034157600080fd5b506102ae610350366004613457565b610981565b34801561036157600080fd5b506102ae610370366004613421565b610a19565b34801561038157600080fd5b506103956103903660046133a8565b610a6b565b6040516102dd9190613884565b3480156103ae57600080fd5b506102d06103bd36600461350e565b610a7c565b3480156103ce57600080fd5b506103e26103dd36600461349c565b610ab7565b6040516102dd96959493929190614302565b34801561040057600080fd5b50610409610afc565b6040516102dd919061387b565b34801561042257600080fd5b506102ae61043136600461336d565b610b02565b34801561044257600080fd5b5061040961045136600461349c565b610b3a565b34801561046257600080fd5b506102ae6104713660046134b4565b610b4f565b34801561048257600080fd5b50610409610491366004613457565b610b73565b3480156104a257600080fd5b506102ae6104b13660046134b4565b610bc5565b3480156104c257600080fd5b506102d06104d1366004613457565b610c0b565b3480156104e257600080fd5b506102ae610c3d565b3480156104f757600080fd5b5061032861050636600461349c565b610c6e565b34801561051757600080fd5b506102d0610526366004613457565b610c89565b34801561053757600080fd5b506102ae61054636600461336d565b610cbb565b34801561055757600080fd5b506102d061056636600461349c565b610cd6565b6102ae610579366004613587565b610d0f565b34801561058a57600080fd5b5061040961059936600461349c565b610fff565b3480156105aa57600080fd5b5061040961105a565b6102ae6105c1366004613566565b611060565b3480156105d257600080fd5b506102d06112b1565b3480156105e757600080fd5b506103286105f636600461349c565b6112ba565b34801561060757600080fd5b5061061b61061636600461349c565b6112ef565b6040516102dd9190614255565b34801561063457600080fd5b506104096113b2565b34801561064957600080fd5b50610409610658366004613321565b6113b8565b34801561066957600080fd5b506102d0610678366004613321565b6113fc565b34801561068957600080fd5b50610328611411565b34801561069e57600080fd5b506102ae6106ad36600461349c565b611420565b3480156106be57600080fd5b506102ae61146d565b3480156106d357600080fd5b5061040961149c565b3480156106e857600080fd5b506102ae6106f736600461349c565b6114a2565b34801561070857600080fd5b506102ae61071736600461349c565b6114f9565b34801561072857600080fd5b506102d06107373660046134b4565b611532565b34801561074857600080fd5b506102fb61155d565b34801561075d57600080fd5b5061040961156c565b34801561077257600080fd5b506102ae610781366004613421565b611571565b34801561079257600080fd5b506102ae6107a1366004613321565b61163f565b3480156107b257600080fd5b506102ae6107c136600461349c565b611688565b3480156107d257600080fd5b506102ae6107e13660046133a8565b6116e6565b3480156107f257600080fd5b506102fb61080136600461349c565b611725565b34801561081257600080fd5b506102ae6108213660046134b4565b611730565b34801561083257600080fd5b506102ae61084136600461349c565b61174f565b34801561085257600080fd5b506104096117a6565b34801561086757600080fd5b506102d061087636600461333b565b6117ac565b34801561088757600080fd5b506104096117da565b600061089b826117e0565b90505b919050565b6060600080546108b290614405565b80601f01602080910402602001604051908101604052809291908181526020018280546108de90614405565b801561092b5780601f106109005761010080835404028352916020019161092b565b820191906000526020600020905b81548152906001019060200180831161090e57829003601f168201915b5050505050905090565b600061094082611805565b6109655760405162461bcd60e51b815260040161095c90613e1b565b60405180910390fd5b506000908152600460205260409020546001600160a01b031690565b600061098c826112ba565b9050806001600160a01b0316836001600160a01b031614156109c05760405162461bcd60e51b815260040161095c90613f94565b806001600160a01b03166109d2611822565b6001600160a01b031614806109ee57506109ee81610876611822565b610a0a5760405162461bcd60e51b815260040161095c90613c0d565b610a148383611826565b505050565b610a24600033611532565b610a405760405162461bcd60e51b815260040161095c90613d80565b6001600160a01b03919091166000908152601260205260409020805460ff1916911515919091179055565b630a85bd0160e11b5b949350505050565b6000610a888133611532565b610aa45760405162461bcd60e51b815260040161095c90613d80565b610aae8383611894565b50600192915050565b601760205260009081526040902080546001820154600283015460038401546004850154600590950154939492936001600160a01b0392831693918316929091169086565b60095490565b610b13610b0d611822565b826118d8565b610b2f5760405162461bcd60e51b815260040161095c90613fd5565b610a14838383611955565b6000908152600b602052604090206001015490565b610b5882610b3a565b610b6981610b64611822565b611a82565b610a148383611ae6565b6000610b7e836113b8565b8210610b9c5760405162461bcd60e51b815260040161095c90613975565b506001600160a01b03919091166000908152600760209081526040808320938352929052205490565b610bcd611822565b6001600160a01b0316816001600160a01b031614610bfd5760405162461bcd60e51b815260040161095c90614206565b610c078282611b6d565b5050565b6000610c178133611532565b610c335760405162461bcd60e51b815260040161095c90613d80565b610aae8383611bf2565b610c48600033611532565b610c645760405162461bcd60e51b815260040161095c90613d80565b610c6c611c0c565b565b6014602052600090815260409020546001600160a01b031681565b6000610c958133611532565b610cb15760405162461bcd60e51b815260040161095c90613d80565b610aae8383611c7a565b610a14838383604051806020016040528060008152506116e6565b6000610ce28133611532565b610cfe5760405162461bcd60e51b815260040161095c90613d80565b610d0782611d59565b506001919050565b60026013541415610d325760405162461bcd60e51b815260040161095c90614161565b6002601355610d3f6112b1565b15610d5c5760405162461bcd60e51b815260040161095c90613be3565b610d668233611d65565b601054610d74904290611e3c565b841115610d935760405162461bcd60e51b815260040161095c9061393e565b6001600160a01b03811660009081526012602052604090205460ff16610dcb5760405162461bcd60e51b815260040161095c90614198565b6000825111610dec5760405162461bcd60e51b815260040161095c90613eb0565b601154825110610e0e5760405162461bcd60e51b815260040161095c90613b9e565b6040805160e08101825285815260208082018681526001600160a01b03808616848601908152336060860190815260006080870181815260a0880182815260c089018c815260185484526017895299909220885181559551600187015592516002860180549186166001600160a01b0319928316179055915160038601805491861691841691909117905591516004850180549190941691161790915551600582015592518051929392610ec89260068501920190613131565b50506018805491506000610edb83614440565b919050555060005b8251811015610f925760165483516001600160a01b039091169063b88d4fde9033903090879086908110610f2757634e487b7160e01b600052603260045260246000fd5b60200260200101516040518463ffffffff1660e01b8152600401610f4d93929190613819565b600060405180830381600087803b158015610f6757600080fd5b505af1158015610f7b573d6000803e3d6000fd5b505050508080610f8a90614440565b915050610ee3565b50806001600160a01b031682604051610fab9190613680565b6040518091039020336001600160a01b03167f9dbca28d8c738fb7417ef3d1ab2d0fc29d51bbf1d0be0af28b7d59a8c5bddca486604051610fec919061387b565b60405180910390a4505060016013555050565b6000611009610afc565b82106110275760405162461bcd60e51b815260040161095c9061405d565b6009828154811061104857634e487b7160e01b600052603260045260246000fd5b90600052602060002001549050919050565b60105481565b600260135414156110835760405162461bcd60e51b815260040161095c90614161565b600260135534158061109457503481145b6110b05760405162461bcd60e51b815260040161095c90613a49565b6000828152601760205260409020600301546001600160a01b03166110e75760405162461bcd60e51b815260040161095c9061412a565b6000828152601760205260409020600101548110156111185760405162461bcd60e51b815260040161095c90613f36565b6000828152601760205260409020600501548110156111495760405162461bcd60e51b815260040161095c90613aee565b600082815260176020526040902054421115806111725750600082815260176020526040902054155b61118e5760405162461bcd60e51b815260040161095c9061390f565b6000828152601760205260409020600201546111b3906001600160a01b031682611e4f565b6000828152601760205260409020600401546001600160a01b03161561120757600082815260176020526040902060058101546004820154600290920154611207926001600160a01b039081169116611eeb565b6000828152601760205260409020600581018290556004810180546001600160a01b031916331790555461123e5761123e82611fab565b60008281526017602052604090819020905161125d91600601906136b6565b6040518091039020336001600160a01b03167fc89dda33c6731f44e0ceaac4cdf122cc34f130dda4f2f2ace0630db3b6a0cafd84846040516112a09291906142f4565b60405180910390a350506001601355565b600c5460ff1690565b6000818152600260205260408120546001600160a01b03168061089b5760405162461bcd60e51b815260040161095c90613cb4565b6112f761317c565b600082815260176020908152604091829020825160e0810184528154815260018201548184015260028201546001600160a01b03908116828601526003830154811660608301526004830154166080820152600582015460a08201526006820180548551818602810186019096528086529194929360c086019392908301828280156113a257602002820191906000526020600020905b81548152602001906001019080831161138e575b5050505050815250509050919050565b60185481565b60006001600160a01b0382166113e05760405162461bcd60e51b815260040161095c90613c6a565b506001600160a01b031660009081526003602052604090205490565b60126020526000908152604090205460ff1681565b600f546001600160a01b031681565b61142b600033611532565b6114475760405162461bcd60e51b815260040161095c90613d80565b60018110156114685760405162461bcd60e51b815260040161095c90613b25565b601155565b611478600033611532565b6114945760405162461bcd60e51b815260040161095c90613d80565b610c6c61237b565b600e5481565b6114ad600033611532565b6114c95760405162461bcd60e51b815260040161095c90613d80565b601481111580156114d8575060015b6114f45760405162461bcd60e51b815260040161095c90613f6d565b600e55565b6002601354141561151c5760405162461bcd60e51b815260040161095c90614161565b600260135561152a81611fab565b506001601355565b6000918252600b602090815260408084206001600160a01b0393909316845291905290205460ff1690565b6060600180546108b290614405565b600081565b611579611822565b6001600160a01b0316826001600160a01b031614156115aa5760405162461bcd60e51b815260040161095c90613ab7565b80600560006115b7611822565b6001600160a01b03908116825260208083019390935260409182016000908120918716808252919093529120805460ff1916921515929092179091556115fb611822565b6001600160a01b03167f17307eab39ab6107e8899845ad3d59bd9653f200f220920489ca2b5937696c31836040516116339190613870565b60405180910390a35050565b61164a600033611532565b6116665760405162461bcd60e51b815260040161095c90613d80565b600f80546001600160a01b0319166001600160a01b0392909216919091179055565b611693600033611532565b6116af5760405162461bcd60e51b815260040161095c90613d80565b6224ea0081111580156116c55750621275008110155b6116e15760405162461bcd60e51b815260040161095c90613f6d565b601055565b6116f76116f1611822565b836118d8565b6117135760405162461bcd60e51b815260040161095c90613fd5565b61171f848484846123d6565b50505050565b606061089b82612409565b61173982610b3a565b61174581610b64611822565b610a148383611b6d565b61175a600033611532565b6117765760405162461bcd60e51b815260040161095c90613d80565b60148111158015611785575060015b6117a15760405162461bcd60e51b815260040161095c90613f6d565b600d55565b600d5481565b6001600160a01b03918216600090815260056020908152604080832093909416825291909152205460ff1690565b60115481565b60006001600160e01b03198216637965db0b60e01b148061089b575061089b82612522565b6000908152600260205260409020546001600160a01b0316151590565b3390565b600081815260046020526040902080546001600160a01b0319166001600160a01b038416908117909155819061185b826112ba565b6001600160a01b03167f8c5be1e5ebec7d5bd14f71427d1e84f3dd0314c0f7b2291e5b200ac8c7c3b92560405160405180910390a45050565b61189d82611805565b6118b95760405162461bcd60e51b815260040161095c90613cfd565b60008281526006602090815260409091208251610a14928401906131d4565b60006118e382611805565b6118ff5760405162461bcd60e51b815260040161095c90613b52565b600061190a836112ba565b9050806001600160a01b0316846001600160a01b031614806119455750836001600160a01b031661193a84610935565b6001600160a01b0316145b80610a745750610a7481856117ac565b826001600160a01b0316611968826112ba565b6001600160a01b03161461198e5760405162461bcd60e51b815260040161095c90613e67565b6001600160a01b0382166119b45760405162461bcd60e51b815260040161095c90613a73565b6119bf838383612547565b6119ca600082611826565b6001600160a01b03831660009081526003602052604081208054600192906119f39084906143ab565b90915550506001600160a01b0382166000908152600360205260408120805460019290611a21908490614360565b909155505060008181526002602052604080822080546001600160a01b0319166001600160a01b0386811691821790925591518493918716917fddf252ad1be2c89b69c2b068fc378daa952ba7f163c4a11628f55a4df523b3ef91a4505050565b611a8c8282611532565b610c0757611aa4816001600160a01b03166014612552565b611aaf836020612552565b604051602001611ac092919061372f565b60408051601f198184030181529082905262461bcd60e51b825261095c91600401613899565b611af08282611532565b610c07576000828152600b602090815260408083206001600160a01b03851684529091529020805460ff19166001179055611b29611822565b6001600160a01b0316816001600160a01b0316837f2f8788117e7eff1d82e926ec794901d17c78024a50270940304540a733656f0d60405160405180910390a45050565b611b778282611532565b15610c07576000828152600b602090815260408083206001600160a01b03851684529091529020805460ff19169055611bae611822565b6001600160a01b0316816001600160a01b0316837ff6391f5c32d9c69d2a47ea670b442974b53935d1edc7fd64eb21e047a839171b60405160405180910390a45050565b610c07828260405180602001604052806000815250612704565b611c146112b1565b611c305760405162461bcd60e51b815260040161095c906138e1565b600c805460ff191690557f5db9ee0a495bf2e6ff9c91a7834c1ba4fdd244a5e8aa4e537bd38aeae4b073aa611c63611822565b604051611c7091906137a4565b60405180910390a1565b6001600160a01b038216611ca05760405162461bcd60e51b815260040161095c90613d4b565b611ca981611805565b15611cc65760405162461bcd60e51b815260040161095c90613a12565b611cd260008383612547565b6001600160a01b0382166000908152600360205260408120805460019290611cfb908490614360565b909155505060008181526002602052604080822080546001600160a01b0319166001600160a01b03861690811790915590518392907fddf252ad1be2c89b69c2b068fc378daa952ba7f163c4a11628f55a4df523b3ef908290a45050565b611d6281612737565b50565b60005b8251811015610a145760006001600160a01b031660146000858481518110611da057634e487b7160e01b600052603260045260246000fd5b6020908102919091018101518252810191909152604001600020546001600160a01b03161415611e2a578160146000858481518110611def57634e487b7160e01b600052603260045260246000fd5b6020026020010151815260200190815260200160002060006101000a8154816001600160a01b0302191690836001600160a01b031602179055505b80611e3481614440565b915050611d68565b6000611e488284614360565b9392505050565b3415801590611e6b57506015546001600160a01b038381169116145b15611ede57601560009054906101000a90046001600160a01b03166001600160a01b031663d0e30db0346040518263ffffffff1660e01b81526004016000604051808303818588803b158015611ec057600080fd5b505af1158015611ed4573d6000803e3d6000fd5b5050505050610c07565b81610a1481333085612777565b6015546001600160a01b0382811691161415611f9f57601554604051632e1a7d4d60e01b81526001600160a01b0390911690632e1a7d4d90611f3190869060040161387b565b600060405180830381600087803b158015611f4b57600080fd5b505af1158015611f5f573d6000803e3d6000fd5b50506040516001600160a01b038516925085156108fc02915085906000818181858888f19350505050158015611f99573d6000803e3d6000fd5b50610a14565b8061171f8184866127cf565b600081815260176020526040902054421015611fd95760405162461bcd60e51b815260040161095c906141cf565b6000818152601760205260409020600401546001600160a01b031633148061201a57506000818152601760205260409020600301546001600160a01b031633145b6120365760405162461bcd60e51b815260040161095c906140a9565b6000818152601760205260409020600501546121ae5760005b6000828152601760205260409020600601548110156121285760165460008381526017602052604090206003810154600690910180546001600160a01b039384169363b88d4fde933093911691869081106120ba57634e487b7160e01b600052603260045260246000fd5b90600052602060002001546040518463ffffffff1660e01b81526004016120e393929190613819565b600060405180830381600087803b1580156120fd57600080fd5b505af1158015612111573d6000803e3d6000fd5b50505050808061212090614440565b91505061204f565b5060008181526017602052604090819020905161214891600601906136b6565b60408051918290038220600084815260176020529182206003015490926001600160a01b0390911691907ff3392b8c642ed07dd5bf912c1bd3883a810e5c9076c8d275a621c9220138ad26906121a190869084906142f4565b60405180910390a4612324565b60005b60008281526017602052604090206006015481101561228a5760165460008381526017602052604090206004810154600690910180546001600160a01b039384169363b88d4fde9330939116918690811061221c57634e487b7160e01b600052603260045260246000fd5b90600052602060002001546040518463ffffffff1660e01b815260040161224593929190613819565b600060405180830381600087803b15801561225f57600080fd5b505af1158015612273573d6000803e3d6000fd5b50505050808061228290614440565b9150506121b1565b50612294816127ee565b6000818152601760205260409081902090516122b391600601906136b6565b6040805191829003822060008481526017602052919091206003810154600482015460059092015492936001600160a01b039182169392909116917ff3392b8c642ed07dd5bf912c1bd3883a810e5c9076c8d275a621c9220138ad269161231b9187916142f4565b60405180910390a45b6000818152601760205260408120818155600181018290556002810180546001600160a01b03199081169091556003820180548216905560048201805490911690556005810182905590610a146006830182613247565b6123836112b1565b156123a05760405162461bcd60e51b815260040161095c90613be3565b600c805460ff191660011790557f62e78cea01bee320cd4e420270b5ea74000d11b0c9f74754ebdbfc544b05a258611c63611822565b6123e1848484611955565b6123ed84848484612948565b61171f5760405162461bcd60e51b815260040161095c906139c0565b606061241482611805565b6124305760405162461bcd60e51b815260040161095c90613dca565b6000828152600660205260408120805461244990614405565b80601f016020809104026020016040519081016040528092919081815260200182805461247590614405565b80156124c25780601f10612497576101008083540402835291602001916124c2565b820191906000526020600020905b8154815290600101906020018083116124a557829003601f168201915b5050505050905060006124d3612a60565b90508051600014156124e75750905061089e565b815115612519578082604051602001612501929190613700565b6040516020818303038152906040529250505061089e565b610a7484612a72565b60006001600160e01b0319821663780e9d6360e01b148061089b575061089b82612af4565b610a14838383612b34565b6060600061256183600261438c565b61256c906002614360565b67ffffffffffffffff81111561259257634e487b7160e01b600052604160045260246000fd5b6040519080825280601f01601f1916602001820160405280156125bc576020820181803683370190505b509050600360fc1b816000815181106125e557634e487b7160e01b600052603260045260246000fd5b60200101906001600160f81b031916908160001a905350600f60fb1b8160018151811061262257634e487b7160e01b600052603260045260246000fd5b60200101906001600160f81b031916908160001a905350600061264684600261438c565b612651906001614360565b90505b60018111156126e5576f181899199a1a9b1b9c1cb0b131b232b360811b85600f166010811061269357634e487b7160e01b600052603260045260246000fd5b1a60f81b8282815181106126b757634e487b7160e01b600052603260045260246000fd5b60200101906001600160f81b031916908160001a90535060049490941c936126de816143ee565b9050612654565b508315611e485760405162461bcd60e51b815260040161095c906138ac565b61270e8383611c7a565b61271b6000848484612948565b610a145760405162461bcd60e51b815260040161095c906139c0565b61274081612bbd565b6000818152600660205260409020805461275990614405565b159050611d62576000818152600660205260408120611d6291613265565b61171f846323b872dd60e01b858585604051602401612798939291906137b8565b60408051601f198184030181529190526020810180516001600160e01b03166001600160e01b031990931692909217909152612c64565b610a148363a9059cbb60e01b8484604051602401612798929190613857565b600e54600082815260176020526040812060050154909161281c916064916128169190612cf3565b90612cff565b600d54600084815260176020526040812060050154929350916128459160649161281691612cf3565b6000848152601760205260408120600501549192509061287190839061286b9086612d0b565b90612d0b565b600f546000868152601760205260409020600201549192506128a19185916001600160a01b039081169116611eeb565b6000848152601760205260408120600601805461291792859260149282906128d957634e487b7160e01b600052603260045260246000fd5b60009182526020808320909101548352828101939093526040918201812054898252601790935220600201546001600160a01b039182169116611eeb565b6000848152601760205260409020600381015460029091015461171f9183916001600160a01b039182169116611eeb565b600061295c846001600160a01b0316612d17565b15612a5857836001600160a01b031663150b7a02612978611822565b8786866040518563ffffffff1660e01b815260040161299a94939291906137dc565b602060405180830381600087803b1580156129b457600080fd5b505af19250505080156129e4575060408051601f3d908101601f191682019092526129e1918101906134f2565b60015b612a3e573d808015612a12576040519150601f19603f3d011682016040523d82523d6000602084013e612a17565b606091505b508051612a365760405162461bcd60e51b815260040161095c906139c0565b805181602001fd5b6001600160e01b031916630a85bd0160e11b149050610a74565b506001610a74565b60408051602081019091526000815290565b6060612a7d82611805565b612a995760405162461bcd60e51b815260040161095c90613ee7565b6000612aa3612a60565b90506000815111612ac35760405180602001604052806000815250611e48565b80612acd84612d1d565b604051602001612ade929190613700565b6040516020818303038152906040529392505050565b60006001600160e01b031982166380ac58cd60e01b1480612b2557506001600160e01b03198216635b5e139f60e01b145b8061089b575061089b82612e38565b612b3f838383610a14565b6001600160a01b038316612b5b57612b5681612e51565b612b7e565b816001600160a01b0316836001600160a01b031614612b7e57612b7e8382612e95565b6001600160a01b038216612b9a57612b9581612f32565b610a14565b826001600160a01b0316826001600160a01b031614610a1457610a14828261300b565b6000612bc8826112ba565b9050612bd681600084612547565b612be1600083611826565b6001600160a01b0381166000908152600360205260408120805460019290612c0a9084906143ab565b909155505060008281526002602052604080822080546001600160a01b0319169055518391906001600160a01b038416907fddf252ad1be2c89b69c2b068fc378daa952ba7f163c4a11628f55a4df523b3ef908390a45050565b6000612cb9826040518060400160405280602081526020017f5361666545524332303a206c6f772d6c6576656c2063616c6c206661696c6564815250856001600160a01b031661304f9092919063ffffffff16565b805190915015610a145780806020019051810190612cd79190613480565b610a145760405162461bcd60e51b815260040161095c906140e0565b6000611e48828461438c565b6000611e488284614378565b6000611e4882846143ab565b3b151590565b606081612d4257506040805180820190915260018152600360fc1b602082015261089e565b8160005b8115612d6c5780612d5681614440565b9150612d659050600a83614378565b9150612d46565b60008167ffffffffffffffff811115612d9557634e487b7160e01b600052604160045260246000fd5b6040519080825280601f01601f191660200182016040528015612dbf576020820181803683370190505b5090505b8415610a7457612dd46001836143ab565b9150612de1600a8661445b565b612dec906030614360565b60f81b818381518110612e0f57634e487b7160e01b600052603260045260246000fd5b60200101906001600160f81b031916908160001a905350612e31600a86614378565b9450612dc3565b6001600160e01b031981166301ffc9a760e01b14919050565b600980546000838152600a60205260408120829055600182018355919091527f6e1540171b6c0c960b71a7020d9f60077f6af931a8bbf590da0223dacf75c7af0155565b60006001612ea2846113b8565b612eac91906143ab565b600083815260086020526040902054909150808214612eff576001600160a01b03841660009081526007602090815260408083208584528252808320548484528184208190558352600890915290208190555b5060009182526008602090815260408084208490556001600160a01b039094168352600781528383209183525290812055565b600954600090612f44906001906143ab565b6000838152600a602052604081205460098054939450909284908110612f7a57634e487b7160e01b600052603260045260246000fd5b906000526020600020015490508060098381548110612fa957634e487b7160e01b600052603260045260246000fd5b6000918252602080832090910192909255828152600a90915260408082208490558582528120556009805480612fef57634e487b7160e01b600052603160045260246000fd5b6001900381819060005260206000200160009055905550505050565b6000613016836113b8565b6001600160a01b039093166000908152600760209081526040808320868452825280832085905593825260089052919091209190915550565b6060610a7484846000858561306385612d17565b61307f5760405162461bcd60e51b815260040161095c90614026565b600080866001600160a01b0316858760405161309b91906136e4565b60006040518083038185875af1925050503d80600081146130d8576040519150601f19603f3d011682016040523d82523d6000602084013e6130dd565b606091505b50915091506130ed8282866130f8565b979650505050505050565b60608315613107575081611e48565b8251156131175782518084602001fd5b8160405162461bcd60e51b815260040161095c9190613899565b82805482825590600052602060002090810192821561316c579160200282015b8281111561316c578251825591602001919060010190613151565b5061317892915061329d565b5090565b6040518060e00160405280600081526020016000815260200160006001600160a01b0316815260200160006001600160a01b0316815260200160006001600160a01b0316815260200160008152602001606081525090565b8280546131e090614405565b90600052602060002090601f016020900481019282613202576000855561316c565b82601f1061321b57805160ff191683800117855561316c565b8280016001018555821561316c579182018281111561316c578251825591602001919060010190613151565b5080546000825590600052602060002090810190611d62919061329d565b50805461327190614405565b6000825580601f106132835750611d62565b601f016020900490600052602060002090810190611d6291905b5b80821115613178576000815560010161329e565b600067ffffffffffffffff8311156132cc576132cc61449b565b6132df601f8401601f1916602001614336565b90508281528383830111156132f357600080fd5b828260208301376000602084830101529392505050565b80356001600160a01b038116811461089e57600080fd5b600060208284031215613332578081fd5b611e488261330a565b6000806040838503121561334d578081fd5b6133568361330a565b91506133646020840161330a565b90509250929050565b600080600060608486031215613381578081fd5b61338a8461330a565b92506133986020850161330a565b9150604084013590509250925092565b600080600080608085870312156133bd578081fd5b6133c68561330a565b93506133d46020860161330a565b925060408501359150606085013567ffffffffffffffff8111156133f6578182fd5b8501601f81018713613406578182fd5b613415878235602084016132b2565b91505092959194509250565b60008060408385031215613433578182fd5b61343c8361330a565b9150602083013561344c816144b1565b809150509250929050565b60008060408385031215613469578182fd5b6134728361330a565b946020939093013593505050565b600060208284031215613491578081fd5b8151611e48816144b1565b6000602082840312156134ad578081fd5b5035919050565b600080604083850312156134c6578182fd5b823591506133646020840161330a565b6000602082840312156134e7578081fd5b8135611e48816144bf565b600060208284031215613503578081fd5b8151611e48816144bf565b60008060408385031215613520578182fd5b82359150602083013567ffffffffffffffff81111561353d578182fd5b8301601f8101851361354d578182fd5b61355c858235602084016132b2565b9150509250929050565b60008060408385031215613578578182fd5b50508035926020909101359150565b6000806000806080858703121561359c578182fd5b843593506020808601359350604086013567ffffffffffffffff808211156135c2578485fd5b818801915088601f8301126135d5578485fd5b8135818111156135e7576135e761449b565b83810291506135f7848301614336565b8181528481019084860184860187018d1015613611578889fd5b8895505b83861015613633578035835260019590950194918601918601613615565b508097505050505050506136496060860161330a565b905092959194509250565b6000815180845261366c8160208601602086016143c2565b601f01601f19169290920160200192915050565b815160009082906020808601845b838110156136aa5781518552938201939082019060010161368e565b50929695505050505050565b60008183548391508483526020808420845b838110156136aa578154855293820193600191820191016136c8565b600082516136f68184602087016143c2565b9190910192915050565b600083516137128184602088016143c2565b8351908301906137268183602088016143c2565b01949350505050565b60007f416363657373436f6e74726f6c3a206163636f756e7420000000000000000000825283516137678160178501602088016143c2565b7001034b99036b4b9b9b4b733903937b6329607d1b60179184019182015283516137988160288401602088016143c2565b01602801949350505050565b6001600160a01b0391909116815260200190565b6001600160a01b039384168152919092166020820152604081019190915260600190565b6001600160a01b038581168252841660208201526040810183905260806060820181905260009061380f90830184613654565b9695505050505050565b6001600160a01b039384168152919092166020820152604081019190915260806060820181905260029082015261060f60f31b60a082015260c00190565b6001600160a01b03929092168252602082015260400190565b901515815260200190565b90815260200190565b6001600160e01b031991909116815260200190565b600060208252611e486020830184613654565b6020808252818101527f537472696e67733a20686578206c656e67746820696e73756666696369656e74604082015260600190565b60208082526014908201527314185d5cd8589b194e881b9bdd081c185d5cd95960621b604082015260600190565b60208082526015908201527413585c9ad95d0e88185d58dd1a5bdb88195b991959605a1b604082015260600190565b60208082526018908201527f4d61726b65743a2061756374696f6e20746f6f206c6f6e670000000000000000604082015260600190565b6020808252602b908201527f455243373231456e756d657261626c653a206f776e657220696e646578206f7560408201526a74206f6620626f756e647360a81b606082015260800190565b60208082526032908201527f4552433732313a207472616e7366657220746f206e6f6e20455243373231526560408201527131b2b4bb32b91034b6b83632b6b2b73a32b960711b606082015260800190565b6020808252601c908201527f4552433732313a20746f6b656e20616c7265616479206d696e74656400000000604082015260600190565b60208082526010908201526f09ac2e4d6cae874409ad2e6dac2e8c6d60831b604082015260600190565b60208082526024908201527f4552433732313a207472616e7366657220746f20746865207a65726f206164646040820152637265737360e01b606082015260800190565b60208082526019908201527f4552433732313a20617070726f766520746f2063616c6c657200000000000000604082015260600190565b6020808252601d908201527f4d61726b65743a2062696420756e646572206869676865737420626964000000604082015260600190565b6020808252601390820152721a5b9d985b1a590813585e13919510dbdd5b9d606a1b604082015260600190565b6020808252602c908201527f4552433732313a206f70657261746f7220717565727920666f72206e6f6e657860408201526b34b9ba32b73a103a37b5b2b760a11b606082015260800190565b60208082526025908201527f4d61726b65743a20746f6b656e20636f756e742065786365656473206d61782060408201526418dbdd5b9d60da1b606082015260800190565b60208082526010908201526f14185d5cd8589b194e881c185d5cd95960821b604082015260600190565b60208082526038908201527f4552433732313a20617070726f76652063616c6c6572206973206e6f74206f7760408201527f6e6572206e6f7220617070726f76656420666f7220616c6c0000000000000000606082015260800190565b6020808252602a908201527f4552433732313a2062616c616e636520717565727920666f7220746865207a65604082015269726f206164647265737360b01b606082015260800190565b60208082526029908201527f4552433732313a206f776e657220717565727920666f72206e6f6e657869737460408201526832b73a103a37b5b2b760b91b606082015260800190565b6020808252602e908201527f45524337323155524953746f726167653a2055524920736574206f66206e6f6e60408201526d32bc34b9ba32b73a103a37b5b2b760911b606082015260800190565b6020808252818101527f4552433732313a206d696e7420746f20746865207a65726f2061646472657373604082015260600190565b6020808252602a908201527f5a6f6f6d626965734e46543a205573657220646f6573206e6f7420686176652060408201526961646d696e20726f6c6560b01b606082015260800190565b60208082526031908201527f45524337323155524953746f726167653a2055524920717565727920666f72206040820152703737b732bc34b9ba32b73a103a37b5b2b760791b606082015260800190565b6020808252602c908201527f4552433732313a20617070726f76656420717565727920666f72206e6f6e657860408201526b34b9ba32b73a103a37b5b2b760a11b606082015260800190565b60208082526029908201527f4552433732313a207472616e73666572206f6620746f6b656e2074686174206960408201526839903737ba1037bbb760b91b606082015260800190565b6020808252601f908201527f4d61726b65743a2073656c656374206174206c65617374203120746f6b656e00604082015260600190565b6020808252602f908201527f4552433732314d657461646174613a2055524920717565727920666f72206e6f60408201526e3732bc34b9ba32b73a103a37b5b2b760891b606082015260800190565b6020808252601b908201527f4d61726b65743a2062696420756e646572206d696e2070726963650000000000604082015260600190565b6020808252600d908201526c6e6f7420696e20626f756e647360981b604082015260600190565b60208082526021908201527f4552433732313a20617070726f76616c20746f2063757272656e74206f776e656040820152603960f91b606082015260800190565b60208082526031908201527f4552433732313a207472616e736665722063616c6c6572206973206e6f74206f6040820152701ddb995c881b9bdc88185c1c1c9bdd9959607a1b606082015260800190565b6020808252601d908201527f416464726573733a2063616c6c20746f206e6f6e2d636f6e7472616374000000604082015260600190565b6020808252602c908201527f455243373231456e756d657261626c653a20676c6f62616c20696e646578206f60408201526b7574206f6620626f756e647360a01b606082015260800190565b6020808252601c908201527f4d61726b65743a206e6f7420626964646572206f722073656c6c657200000000604082015260600190565b6020808252602a908201527f5361666545524332303a204552433230206f7065726174696f6e20646964206e6040820152691bdd081cdd58d8d9595960b21b606082015260800190565b60208082526018908201527f4d61726b65743a204e6f6e206578697374696e67206269640000000000000000604082015260600190565b6020808252601f908201527f5265656e7472616e637947756172643a207265656e7472616e742063616c6c00604082015260600190565b6020808252601d908201527f4d61726b65743a20746f6b656e206e6f742077686974656c6973746564000000604082015260600190565b60208082526019908201527f4d61726b65743a2061756374696f6e206e6f7420656e64656400000000000000604082015260600190565b6020808252602f908201527f416363657373436f6e74726f6c3a2063616e206f6e6c792072656e6f756e636560408201526e103937b632b9903337b91039b2b63360891b606082015260800190565b600060208083526101008301845182850152818501516040850152604085015160018060a01b0380821660608701528060608801511660808701528060808801511660a0870152505060a085015160c085015260c085015160e0808601528181518084526101208701915084830193508592505b808310156142e957835182529284019260019290920191908401906142c9565b509695505050505050565b918252602082015260400190565b95865260208601949094526001600160a01b039283166040860152908216606085015216608083015260a082015260c00190565b60405181810167ffffffffffffffff811182821017156143585761435861449b565b604052919050565b600082198211156143735761437361446f565b500190565b60008261438757614387614485565b500490565b60008160001904831182151516156143a6576143a661446f565b500290565b6000828210156143bd576143bd61446f565b500390565b60005b838110156143dd5781810151838201526020016143c5565b8381111561171f5750506000910152565b6000816143fd576143fd61446f565b506000190190565b60028104600182168061441957607f821691505b6020821081141561443a57634e487b7160e01b600052602260045260246000fd5b50919050565b60006000198214156144545761445461446f565b5060010190565b60008261446a5761446a614485565b500690565b634e487b7160e01b600052601160045260246000fd5b634e487b7160e01b600052601260045260246000fd5b634e487b7160e01b600052604160045260246000fd5b8015158114611d6257600080fd5b6001600160e01b031981168114611d6257600080fdfea264697066735822122098b26702cca793cfab9ce2a5c711c0ecc00caed9134ff544a367a026a1be741b64736f6c63430008000033",
  "linkReferences": {},
  "deployedLinkReferences": {}
}