{
  "_format": "hh-sol-artifact-1",
  "contractName": "ZoombiesMarketPlace",
  "sourceName": "contracts/ZoombiesMarketplace.sol",
  "abi": [
    {
      "inputs": [
        {
          "internalType": "address payable",
          "name": "xMovr",
          "type": "address"
        }
      ],
      "stateMutability": "nonpayable",
      "type": "constructor"
    },
    {
      "anonymous": false,
      "inputs": [
        {
          "indexed": true,
          "internalType": "uint256",
          "name": "itemNumber",
          "type": "uint256"
        },
        {
          "indexed": false,
          "internalType": "uint256",
          "name": "bidAmount",
          "type": "uint256"
        },
        {
          "indexed": true,
          "internalType": "address",
          "name": "bidder",
          "type": "address"
        },
        {
          "indexed": false,
          "internalType": "uint256[]",
          "name": "tokenIds",
          "type": "uint256[]"
        }
      ],
      "name": "Bid",
      "type": "event"
    },
    {
      "anonymous": false,
      "inputs": [
        {
          "indexed": true,
          "internalType": "uint256",
          "name": "itemNumber",
          "type": "uint256"
        },
        {
          "indexed": false,
          "internalType": "uint256",
          "name": "auctionEnd",
          "type": "uint256"
        },
        {
          "indexed": true,
          "internalType": "address",
          "name": "seller",
          "type": "address"
        },
        {
          "indexed": false,
          "internalType": "uint256[]",
          "name": "tokenIds",
          "type": "uint256[]"
        },
        {
          "indexed": false,
          "internalType": "address",
          "name": "saleToken",
          "type": "address"
        },
        {
          "indexed": true,
          "internalType": "address",
          "name": "nftToken",
          "type": "address"
        },
        {
          "indexed": false,
          "internalType": "uint256",
          "name": "minPrice",
          "type": "uint256"
        }
      ],
      "name": "ItemListed",
      "type": "event"
    },
    {
      "anonymous": false,
      "inputs": [
        {
          "indexed": false,
          "internalType": "address",
          "name": "account",
          "type": "address"
        }
      ],
      "name": "Paused",
      "type": "event"
    },
    {
      "anonymous": false,
      "inputs": [
        {
          "indexed": true,
          "internalType": "bytes32",
          "name": "role",
          "type": "bytes32"
        },
        {
          "indexed": true,
          "internalType": "bytes32",
          "name": "previousAdminRole",
          "type": "bytes32"
        },
        {
          "indexed": true,
          "internalType": "bytes32",
          "name": "newAdminRole",
          "type": "bytes32"
        }
      ],
      "name": "RoleAdminChanged",
      "type": "event"
    },
    {
      "anonymous": false,
      "inputs": [
        {
          "indexed": true,
          "internalType": "bytes32",
          "name": "role",
          "type": "bytes32"
        },
        {
          "indexed": true,
          "internalType": "address",
          "name": "account",
          "type": "address"
        },
        {
          "indexed": true,
          "internalType": "address",
          "name": "sender",
          "type": "address"
        }
      ],
      "name": "RoleGranted",
      "type": "event"
    },
    {
      "anonymous": false,
      "inputs": [
        {
          "indexed": true,
          "internalType": "bytes32",
          "name": "role",
          "type": "bytes32"
        },
        {
          "indexed": true,
          "internalType": "address",
          "name": "account",
          "type": "address"
        },
        {
          "indexed": true,
          "internalType": "address",
          "name": "sender",
          "type": "address"
        }
      ],
      "name": "RoleRevoked",
      "type": "event"
    },
    {
      "anonymous": false,
      "inputs": [
        {
          "indexed": true,
          "internalType": "uint256",
          "name": "itemNumber",
          "type": "uint256"
        },
        {
          "indexed": false,
          "internalType": "uint256",
          "name": "bidAmount",
          "type": "uint256"
        },
        {
          "indexed": true,
          "internalType": "address",
          "name": "winner",
          "type": "address"
        },
        {
          "indexed": true,
          "internalType": "address",
          "name": "seller",
          "type": "address"
        },
        {
          "indexed": false,
          "internalType": "uint256[]",
          "name": "tokenIds",
          "type": "uint256[]"
        }
      ],
      "name": "Settled",
      "type": "event"
    },
    {
      "anonymous": false,
      "inputs": [
        {
          "indexed": false,
          "internalType": "address",
          "name": "account",
          "type": "address"
        }
      ],
      "name": "Unpaused",
      "type": "event"
    },
    {
      "stateMutability": "payable",
      "type": "fallback"
    },
    {
      "inputs": [],
      "name": "DEFAULT_ADMIN_ROLE",
      "outputs": [
        {
          "internalType": "bytes32",
          "name": "",
          "type": "bytes32"
        }
      ],
      "stateMutability": "view",
      "type": "function"
    },
    {
      "inputs": [
        {
          "internalType": "uint256",
          "name": "",
          "type": "uint256"
        }
      ],
      "name": "Items",
      "outputs": [
        {
          "internalType": "uint256",
          "name": "auctionEnd",
          "type": "uint256"
        },
        {
          "internalType": "uint256",
          "name": "minPrice",
          "type": "uint256"
        },
        {
          "internalType": "address",
          "name": "saleToken",
          "type": "address"
        },
        {
          "internalType": "address",
          "name": "nftToken",
          "type": "address"
        },
        {
          "internalType": "address",
          "name": "seller",
          "type": "address"
        },
        {
          "internalType": "address",
          "name": "highestBidder",
          "type": "address"
        },
        {
          "internalType": "uint256",
          "name": "highestBid",
          "type": "uint256"
        }
      ],
      "stateMutability": "view",
      "type": "function"
    },
    {
      "inputs": [
        {
          "internalType": "uint256",
          "name": "itemNumber",
          "type": "uint256"
        },
        {
          "internalType": "uint256",
          "name": "bidAmount",
          "type": "uint256"
        }
      ],
      "name": "bid",
      "outputs": [],
      "stateMutability": "payable",
      "type": "function"
    },
    {
      "inputs": [
        {
          "internalType": "uint256",
          "name": "_creatorFee",
          "type": "uint256"
        }
      ],
      "name": "changeCreatorFee",
      "outputs": [],
      "stateMutability": "nonpayable",
      "type": "function"
    },
    {
      "inputs": [
        {
          "internalType": "address",
          "name": "_dollarZoombies",
          "type": "address"
        }
      ],
      "name": "changeDollarZoombiesAddress",
      "outputs": [],
      "stateMutability": "nonpayable",
      "type": "function"
    },
    {
      "inputs": [
        {
          "internalType": "uint256",
          "name": "_maxAuctionTime",
          "type": "uint256"
        }
      ],
      "name": "changeMaxAuctionTime",
      "outputs": [],
      "stateMutability": "nonpayable",
      "type": "function"
    },
    {
      "inputs": [
        {
          "internalType": "uint256",
          "name": "_maxNFTCount",
          "type": "uint256"
        }
      ],
      "name": "changeMaxNFTCount",
      "outputs": [],
      "stateMutability": "nonpayable",
      "type": "function"
    },
    {
      "inputs": [
        {
          "internalType": "uint256",
          "name": "_zoombiesFee",
          "type": "uint256"
        }
      ],
      "name": "changeZoombiesFee",
      "outputs": [],
      "stateMutability": "nonpayable",
      "type": "function"
    },
    {
      "inputs": [],
      "name": "creatorFee",
      "outputs": [
        {
          "internalType": "uint256",
          "name": "",
          "type": "uint256"
        }
      ],
      "stateMutability": "view",
      "type": "function"
    },
    {
      "inputs": [],
      "name": "dollarZoombies",
      "outputs": [
        {
          "internalType": "address",
          "name": "",
          "type": "address"
        }
      ],
      "stateMutability": "view",
      "type": "function"
    },
    {
      "inputs": [
        {
          "internalType": "uint256",
          "name": "itemNumber",
          "type": "uint256"
        }
      ],
      "name": "getListItem",
      "outputs": [
        {
          "components": [
            {
              "internalType": "uint256",
              "name": "auctionEnd",
              "type": "uint256"
            },
            {
              "internalType": "uint256",
              "name": "minPrice",
              "type": "uint256"
            },
            {
              "internalType": "address",
              "name": "saleToken",
              "type": "address"
            },
            {
              "internalType": "address",
              "name": "nftToken",
              "type": "address"
            },
            {
              "internalType": "address",
              "name": "seller",
              "type": "address"
            },
            {
              "internalType": "address",
              "name": "highestBidder",
              "type": "address"
            },
            {
              "internalType": "uint256",
              "name": "highestBid",
              "type": "uint256"
            },
            {
              "internalType": "uint256[]",
              "name": "tokenIds",
              "type": "uint256[]"
            }
          ],
          "internalType": "struct ZoombiesMarketPlace.Item",
          "name": "item",
          "type": "tuple"
        }
      ],
      "stateMutability": "view",
      "type": "function"
    },
    {
      "inputs": [
        {
          "internalType": "bytes32",
          "name": "role",
          "type": "bytes32"
        }
      ],
      "name": "getRoleAdmin",
      "outputs": [
        {
          "internalType": "bytes32",
          "name": "",
          "type": "bytes32"
        }
      ],
      "stateMutability": "view",
      "type": "function"
    },
    {
      "inputs": [
        {
          "internalType": "bytes32",
          "name": "role",
          "type": "bytes32"
        },
        {
          "internalType": "address",
          "name": "account",
          "type": "address"
        }
      ],
      "name": "grantRole",
      "outputs": [],
      "stateMutability": "nonpayable",
      "type": "function"
    },
    {
      "inputs": [
        {
          "internalType": "bytes32",
          "name": "role",
          "type": "bytes32"
        },
        {
          "internalType": "address",
          "name": "account",
          "type": "address"
        }
      ],
      "name": "hasRole",
      "outputs": [
        {
          "internalType": "bool",
          "name": "",
          "type": "bool"
        }
      ],
      "stateMutability": "view",
      "type": "function"
    },
    {
      "inputs": [],
      "name": "itemCount",
      "outputs": [
        {
          "internalType": "uint256",
          "name": "",
          "type": "uint256"
        }
      ],
      "stateMutability": "view",
      "type": "function"
    },
    {
      "inputs": [
        {
          "internalType": "uint256",
          "name": "auctionEnd",
          "type": "uint256"
        },
        {
          "internalType": "uint256",
          "name": "minPrice",
          "type": "uint256"
        },
        {
          "internalType": "uint256[]",
          "name": "tokenIds",
          "type": "uint256[]"
        },
        {
          "internalType": "address",
          "name": "nftToken",
          "type": "address"
        },
        {
          "internalType": "address",
          "name": "saleToken",
          "type": "address"
        }
      ],
      "name": "listItem",
      "outputs": [],
      "stateMutability": "payable",
      "type": "function"
    },
    {
      "inputs": [],
      "name": "maxAuctionTime",
      "outputs": [
        {
          "internalType": "uint256",
          "name": "",
          "type": "uint256"
        }
      ],
      "stateMutability": "view",
      "type": "function"
    },
    {
      "inputs": [],
      "name": "maxNFTCount",
      "outputs": [
        {
          "internalType": "uint256",
          "name": "",
          "type": "uint256"
        }
      ],
      "stateMutability": "view",
      "type": "function"
    },
    {
      "inputs": [
        {
          "internalType": "address",
          "name": "",
          "type": "address"
        }
      ],
      "name": "nftWhitelist",
      "outputs": [
        {
          "internalType": "bool",
          "name": "",
          "type": "bool"
        }
      ],
      "stateMutability": "view",
      "type": "function"
    },
    {
      "inputs": [
        {
          "internalType": "address",
          "name": "",
          "type": "address"
        },
        {
          "internalType": "address",
          "name": "",
          "type": "address"
        },
        {
          "internalType": "uint256",
          "name": "",
          "type": "uint256"
        },
        {
          "internalType": "bytes",
          "name": "",
          "type": "bytes"
        }
      ],
      "name": "onERC721Received",
      "outputs": [
        {
          "internalType": "bytes4",
          "name": "",
          "type": "bytes4"
        }
      ],
      "stateMutability": "nonpayable",
      "type": "function"
    },
    {
      "inputs": [
        {
          "internalType": "uint256",
          "name": "",
          "type": "uint256"
        }
      ],
      "name": "originalOwner",
      "outputs": [
        {
          "internalType": "address",
          "name": "",
          "type": "address"
        }
      ],
      "stateMutability": "view",
      "type": "function"
    },
    {
      "inputs": [],
      "name": "pause",
      "outputs": [],
      "stateMutability": "nonpayable",
      "type": "function"
    },
    {
      "inputs": [],
      "name": "paused",
      "outputs": [
        {
          "internalType": "bool",
          "name": "",
          "type": "bool"
        }
      ],
      "stateMutability": "view",
      "type": "function"
    },
    {
      "inputs": [
        {
          "internalType": "bytes32",
          "name": "role",
          "type": "bytes32"
        },
        {
          "internalType": "address",
          "name": "account",
          "type": "address"
        }
      ],
      "name": "renounceRole",
      "outputs": [],
      "stateMutability": "nonpayable",
      "type": "function"
    },
    {
      "inputs": [
        {
          "internalType": "bytes32",
          "name": "role",
          "type": "bytes32"
        },
        {
          "internalType": "address",
          "name": "account",
          "type": "address"
        }
      ],
      "name": "revokeRole",
      "outputs": [],
      "stateMutability": "nonpayable",
      "type": "function"
    },
    {
      "inputs": [
        {
          "internalType": "uint256",
          "name": "itemNumber",
          "type": "uint256"
        }
      ],
      "name": "settle",
      "outputs": [],
      "stateMutability": "nonpayable",
      "type": "function"
    },
    {
      "inputs": [
        {
          "internalType": "bytes4",
          "name": "interfaceId",
          "type": "bytes4"
        }
      ],
      "name": "supportsInterface",
      "outputs": [
        {
          "internalType": "bool",
          "name": "",
          "type": "bool"
        }
      ],
      "stateMutability": "view",
      "type": "function"
    },
    {
      "inputs": [
        {
          "internalType": "address",
          "name": "",
          "type": "address"
        }
      ],
      "name": "tokenWhitelist",
      "outputs": [
        {
          "internalType": "bool",
          "name": "",
          "type": "bool"
        }
      ],
      "stateMutability": "view",
      "type": "function"
    },
    {
      "inputs": [],
      "name": "unpause",
      "outputs": [],
      "stateMutability": "nonpayable",
      "type": "function"
    },
    {
      "inputs": [
        {
          "internalType": "address",
          "name": "token",
          "type": "address"
        },
        {
          "internalType": "bool",
          "name": "isWhitelisted",
          "type": "bool"
        }
      ],
      "name": "whitelistNFTToken",
      "outputs": [],
      "stateMutability": "nonpayable",
      "type": "function"
    },
    {
      "inputs": [
        {
          "internalType": "address",
          "name": "token",
          "type": "address"
        },
        {
          "internalType": "bool",
          "name": "isWhitelisted",
          "type": "bool"
        }
      ],
      "name": "whitelistToken",
      "outputs": [],
      "stateMutability": "nonpayable",
      "type": "function"
    },
    {
      "inputs": [],
      "name": "zoombiesFee",
      "outputs": [
        {
          "internalType": "uint256",
          "name": "",
          "type": "uint256"
        }
      ],
      "stateMutability": "view",
      "type": "function"
    }
  ],
  "bytecode": "0x60806040523480156200001157600080fd5b5060405162002da938038062002da98339810160408190526200003491620001e8565b600160009081556002805460ff1916905560056004819055600381905580546001600160a01b031916339081179091556212750060065560ff6007556200007c9190620000af565b62000089600080620000bf565b600b80546001600160a01b0319166001600160a01b039290921691909117905562000218565b620000bb828262000116565b5050565b6000620000cc83620001a3565b6000848152600160208190526040808320909101859055519192508391839186917fbd79b86ffe0ab8e8776151514217cd7cacd52c909f66475c3af44e129f0b00ff9190a4505050565b620001228282620001b9565b620000bb5760008281526001602081815260408084206001600160a01b0386168552909152909120805460ff191690911790556200015f620001e4565b6001600160a01b0316816001600160a01b0316837f2f8788117e7eff1d82e926ec794901d17c78024a50270940304540a733656f0d60405160405180910390a45050565b6000908152600160208190526040909120015490565b60009182526001602090815260408084206001600160a01b0393909316845291905290205460ff1690565b3390565b600060208284031215620001fa578081fd5b81516001600160a01b038116811462000211578182fd5b9392505050565b612b8180620002286000396000f3fe6080604052600436106101e35760003560e01c8063753d756311610102578063a217fddf11610095578063d547741f11610064578063d547741f14610550578063e3c55e4014610570578063e88958dc14610590578063f64989fe146105a5576101e3565b8063a217fddf146104e8578063a29b549a146104fd578063a7f56c641461051d578063d08b18671461053d576101e3565b80638667f748116100d15780638667f74814610473578063869e7ebb146104885780638df82800146104a857806391d14854146104c8576101e3565b8063753d75631461040957806377e716371461042957806382f16cea1461043e5780638456cb591461045e576101e3565b80633f4ba83a1161017a578063598647f811610149578063598647f81461039f5780635c975abb146103b25780636597441e146103c75780636bfb0d01146103f4576101e3565b80633f4ba83a1461032857806340bb154d1461033d57806346b31b6e1461036a578063518b057e1461038a576101e3565b806317b47cc4116101b657806317b47cc414610288578063248a9ca3146102bb5780632f2ff15d146102e857806336568abe14610308576101e3565b806301ffc9a7146101e55780630feb2d101461021b5780630ffb1d8b1461023b578063150b7a021461025b575b005b3480156101f157600080fd5b506102056102003660046120a5565b6105ba565b6040516102129190612365565b60405180910390f35b34801561022757600080fd5b506101e3610236366004612010565b6105e7565b34801561024757600080fd5b506101e3610256366004612010565b610642565b34801561026757600080fd5b5061027b610276366004611f58565b610694565b6040516102129190612379565b34801561029457600080fd5b506102a86102a3366004612062565b6106a4565b60405161021297969594939291906129e0565b3480156102c757600080fd5b506102db6102d6366004612062565b6106f2565b6040516102129190612370565b3480156102f457600080fd5b506101e361030336600461207a565b610708565b34801561031457600080fd5b506101e361032336600461207a565b610731565b34801561033457600080fd5b506101e3610777565b34801561034957600080fd5b5061035d610358366004612062565b6107a8565b60405161021291906122d6565b34801561037657600080fd5b50610205610385366004611f3e565b6107c3565b34801561039657600080fd5b506102db6107d8565b6101e36103ad3660046120cd565b6107de565b3480156103be57600080fd5b50610205610a14565b3480156103d357600080fd5b506103e76103e2366004612062565b610a1d565b60405161021291906128fb565b34801561040057600080fd5b506102db610aed565b34801561041557600080fd5b50610205610424366004611f3e565b610af3565b34801561043557600080fd5b5061035d610b08565b34801561044a57600080fd5b506101e3610459366004612062565b610b17565b34801561046a57600080fd5b506101e3610b64565b34801561047f57600080fd5b506102db610b93565b34801561049457600080fd5b506101e36104a3366004612062565b610b99565b3480156104b457600080fd5b506101e36104c3366004612062565b610bf0565b3480156104d457600080fd5b506102056104e336600461207a565b610c29565b3480156104f457600080fd5b506102db610c54565b34801561050957600080fd5b506101e3610518366004611f3e565b610c59565b34801561052957600080fd5b506101e3610538366004612062565b610ca2565b6101e361054b3660046120ee565b610d00565b34801561055c57600080fd5b506101e361056b36600461207a565b611032565b34801561057c57600080fd5b506101e361058b366004612062565b611051565b34801561059c57600080fd5b506102db6110a8565b3480156105b157600080fd5b506102db6110ae565b60006001600160e01b03198216637965db0b60e01b14806105df57506105df826110b4565b90505b919050565b6105f2600033610c29565b6106175760405162461bcd60e51b815260040161060e9061262c565b60405180910390fd5b6001600160a01b03919091166000908152600960205260409020805460ff1916911515919091179055565b61064d600033610c29565b6106695760405162461bcd60e51b815260040161060e9061262c565b6001600160a01b03919091166000908152600860205260409020805460ff1916911515919091179055565b630a85bd0160e11b949350505050565b600c602052600090815260409020805460018201546002830154600384015460048501546005860154600690960154949593946001600160a01b039384169492841693918216929091169087565b6000908152600160208190526040909120015490565b610711826106f2565b6107228161071d6110cd565b6110d1565b61072c8383611135565b505050565b6107396110cd565b6001600160a01b0316816001600160a01b0316146107695760405162461bcd60e51b815260040161060e90612868565b61077382826111bd565b5050565b610782600033610c29565b61079e5760405162461bcd60e51b815260040161060e9061262c565b6107a6611242565b565b600a602052600090815260409020546001600160a01b031681565b60096020526000908152604090205460ff1681565b60065481565b600260005414156108015760405162461bcd60e51b815260040161060e906127fa565b600260005534158061081257503481145b61082e5760405162461bcd60e51b815260040161060e906124a3565b6000828152600c60205260409020600401546001600160a01b03166108655760405162461bcd60e51b815260040161060e906127c3565b6000828152600c60205260409020600101548110156108965760405162461bcd60e51b815260040161060e906126ad565b6000828152600c60205260409020600601548110156108c75760405162461bcd60e51b815260040161060e90612513565b6000828152600c6020526040902054421115806108f057506000828152600c6020526040902054155b61090c5760405162461bcd60e51b815260040161060e9061243d565b6000828152600c6020526040902060020154610931906001600160a01b0316826112b0565b6000828152600c60205260409020600501546001600160a01b031615610985576000828152600c6020526040902060068101546005820154600290920154610985926001600160a01b03908116911661134c565b6000828152600c60205260409020600681018290556005810180546001600160a01b03191633179055546109bc576109bc82611412565b6000828152600c6020526040908190209051339184917fc89dda33c6731f44e0ceaac4cdf122cc34f130dda4f2f2ace0630db3b6a0cafd91610a039186916007019061238e565b60405180910390a350506001600055565b60025460ff1690565b610a25611e3d565b6000828152600c60209081526040918290208251610100810184528154815260018201548184015260028201546001600160a01b039081168286015260038301548116606083015260048301548116608083015260058301541660a0820152600682015460c08201526007820180548551818602810186019096528086529194929360e08601939290830182828015610add57602002820191906000526020600020905b815481526020019060010190808311610ac9575b5050505050815250509050919050565b600d5481565b60086020526000908152604090205460ff1681565b6005546001600160a01b031681565b610b22600033610c29565b610b3e5760405162461bcd60e51b815260040161060e9061262c565b6001811015610b5f5760405162461bcd60e51b815260040161060e9061254a565b600755565b610b6f600033610c29565b610b8b5760405162461bcd60e51b815260040161060e9061262c565b6107a66117ac565b60045481565b610ba4600033610c29565b610bc05760405162461bcd60e51b815260040161060e9061262c565b60148111158015610bcf575060015b610beb5760405162461bcd60e51b815260040161060e906126e4565b600455565b60026000541415610c135760405162461bcd60e51b815260040161060e906127fa565b6002600055610c2181611412565b506001600055565b60009182526001602090815260408084206001600160a01b0393909316845291905290205460ff1690565b600081565b610c64600033610c29565b610c805760405162461bcd60e51b815260040161060e9061262c565b600580546001600160a01b0319166001600160a01b0392909216919091179055565b610cad600033610c29565b610cc95760405162461bcd60e51b815260040161060e9061262c565b6224ea008111158015610cdf5750621275008110155b610cfb5760405162461bcd60e51b815260040161060e906126e4565b600655565b60026000541415610d235760405162461bcd60e51b815260040161060e906127fa565b6002600055610d30610a14565b15610d4d5760405162461bcd60e51b815260040161060e90612602565b610d578333611807565b600654610d659042906118de565b851115610d845760405162461bcd60e51b815260040161060e9061246c565b6001600160a01b03811660009081526008602052604090205460ff16610dbc5760405162461bcd60e51b815260040161060e906124cd565b6001600160a01b03821660009081526009602052604090205460ff16610df45760405162461bcd60e51b815260040161060e906128b7565b6000835111610e155760405162461bcd60e51b815260040161060e90612676565b600754835110610e375760405162461bcd60e51b815260040161060e906125bd565b604080516101008101825286815260208082018781526001600160a01b03808616848601908152878216606086019081523360808701908152600060a0880181815260c0890182815260e08a018e8152600d548452600c8a529a909220895181559651600188015593516002870180549187166001600160a01b03199283161790559251600387018054918716918516919091179055905160048601805491861691841691909117905591516005850180549190941691161790915551600682015592518051929392610f109260078501920190611ea6565b5090505060005b8351811015610fbc57826001600160a01b031663b88d4fde3330878581518110610f5157634e487b7160e01b600052603260045260246000fd5b60200260200101516040518463ffffffff1660e01b8152600401610f779392919061230e565b600060405180830381600087803b158015610f9157600080fd5b505af1158015610fa5573d6000803e3d6000fd5b505050508080610fb490612af6565b915050610f17565b50816001600160a01b0316336001600160a01b0316600d547ff2b930499b549a20135d02dffcd8b6d3a8f53814489772d7a47a8b3150b711558887868a6040516110099493929190612980565b60405180910390a4600d805490600061102183612af6565b909155505060016000555050505050565b61103b826106f2565b6110478161071d6110cd565b61072c83836111bd565b61105c600033610c29565b6110785760405162461bcd60e51b815260040161060e9061262c565b60148111158015611087575060015b6110a35760405162461bcd60e51b815260040161060e906126e4565b600355565b60035481565b60075481565b6001600160e01b031981166301ffc9a760e01b14919050565b3390565b6110db8282610c29565b610773576110f3816001600160a01b031660146118f1565b6110fe8360206118f1565b60405160200161110f929190612261565b60408051601f198184030181529082905262461bcd60e51b825261060e916004016123a7565b61113f8282610c29565b6107735760008281526001602081815260408084206001600160a01b0386168552909152909120805460ff191690911790556111796110cd565b6001600160a01b0316816001600160a01b0316837f2f8788117e7eff1d82e926ec794901d17c78024a50270940304540a733656f0d60405160405180910390a45050565b6111c78282610c29565b156107735760008281526001602090815260408083206001600160a01b03851684529091529020805460ff191690556111fe6110cd565b6001600160a01b0316816001600160a01b0316837ff6391f5c32d9c69d2a47ea670b442974b53935d1edc7fd64eb21e047a839171b60405160405180910390a45050565b61124a610a14565b6112665760405162461bcd60e51b815260040161060e9061240f565b6002805460ff191690557f5db9ee0a495bf2e6ff9c91a7834c1ba4fdd244a5e8aa4e537bd38aeae4b073aa6112996110cd565b6040516112a691906122d6565b60405180910390a1565b34158015906112cc5750600b546001600160a01b038381169116145b1561133f57600b60009054906101000a90046001600160a01b03166001600160a01b031663d0e30db0346040518263ffffffff1660e01b81526004016000604051808303818588803b15801561132157600080fd5b505af1158015611335573d6000803e3d6000fd5b5050505050610773565b8161072c81333085611aa3565b600b546001600160a01b038281169116141561140057600b54604051632e1a7d4d60e01b81526001600160a01b0390911690632e1a7d4d90611392908690600401612370565b600060405180830381600087803b1580156113ac57600080fd5b505af11580156113c0573d6000803e3d6000fd5b50506040516001600160a01b038516925085156108fc02915085906000818181858888f193505050501580156113fa573d6000803e3d6000fd5b5061072c565b8061140c818486611afb565b50505050565b6000818152600c60205260409020544210156114405760405162461bcd60e51b815260040161060e90612831565b6000818152600c60205260409020600501546001600160a01b031633148061148157506000818152600c60205260409020600401546001600160a01b031633145b61149d5760405162461bcd60e51b815260040161060e90612742565b6000818152600c60205260409020600601546115f75760005b6000828152600c6020526040902060070154811015611591576000828152600c6020526040902060038101546004820154600790920180546001600160a01b039283169363b88d4fde9330939116918690811061152357634e487b7160e01b600052603260045260246000fd5b90600052602060002001546040518463ffffffff1660e01b815260040161154c9392919061230e565b600060405180830381600087803b15801561156657600080fd5b505af115801561157a573d6000803e3d6000fd5b50505050808061158990612af6565b9150506114b6565b506000818152600c6020526040808220600481015491516001600160a01b03909216929184917ff3392b8c642ed07dd5bf912c1bd3883a810e5c9076c8d275a621c9220138ad26916115ea91859160079091019061238e565b60405180910390a461174b565b60005b6000828152600c60205260409020600701548110156116d5576000828152600c6020526040902060038101546005820154600790920180546001600160a01b039283169363b88d4fde9330939116918690811061166757634e487b7160e01b600052603260045260246000fd5b90600052602060002001546040518463ffffffff1660e01b81526004016116909392919061230e565b600060405180830381600087803b1580156116aa57600080fd5b505af11580156116be573d6000803e3d6000fd5b5050505080806116cd90612af6565b9150506115fa565b506116df81611b1a565b6000818152600c60205260409081902060048101546005820154600683015493516001600160a01b0392831694929091169285927ff3392b8c642ed07dd5bf912c1bd3883a810e5c9076c8d275a621c9220138ad2692611742926007019061238e565b60405180910390a45b6000818152600c60205260408120818155600181018290556002810180546001600160a01b031990811690915560038201805482169055600482018054821690556005820180549091169055600681018290559061072c6007830182611ef1565b6117b4610a14565b156117d15760405162461bcd60e51b815260040161060e90612602565b6002805460ff191660011790557f62e78cea01bee320cd4e420270b5ea74000d11b0c9f74754ebdbfc544b05a2586112996110cd565b60005b825181101561072c5760006001600160a01b0316600a600085848151811061184257634e487b7160e01b600052603260045260246000fd5b6020908102919091018101518252810191909152604001600020546001600160a01b031614156118cc5781600a600085848151811061189157634e487b7160e01b600052603260045260246000fd5b6020026020010151815260200190815260200160002060006101000a8154816001600160a01b0302191690836001600160a01b031602179055505b806118d681612af6565b91505061180a565b60006118ea8284612a45565b9392505050565b60606000611900836002612a7d565b61190b906002612a45565b67ffffffffffffffff81111561193157634e487b7160e01b600052604160045260246000fd5b6040519080825280601f01601f19166020018201604052801561195b576020820181803683370190505b509050600360fc1b8160008151811061198457634e487b7160e01b600052603260045260246000fd5b60200101906001600160f81b031916908160001a905350600f60fb1b816001815181106119c157634e487b7160e01b600052603260045260246000fd5b60200101906001600160f81b031916908160001a90535060006119e5846002612a7d565b6119f0906001612a45565b90505b6001811115611a84576f181899199a1a9b1b9c1cb0b131b232b360811b85600f1660108110611a3257634e487b7160e01b600052603260045260246000fd5b1a60f81b828281518110611a5657634e487b7160e01b600052603260045260246000fd5b60200101906001600160f81b031916908160001a90535060049490941c93611a7d81612adf565b90506119f3565b5083156118ea5760405162461bcd60e51b815260040161060e906123da565b61140c846323b872dd60e01b858585604051602401611ac4939291906122ea565b60408051601f198184030181529190526020810180516001600160e01b03166001600160e01b031990931692909217909152611c74565b61072c8363a9059cbb60e01b8484604051602401611ac492919061234c565b6004546000828152600c60205260408120600601549091611b4891606491611b429190611d03565b90611d0f565b6003546000848152600c602052604081206006015492935091611b7191606491611b4291611d03565b6000848152600c602052604081206006015491925090611b9d908390611b979086611d1b565b90611d1b565b6005546000868152600c6020526040902060020154919250611bcd9185916001600160a01b03908116911661134c565b6000848152600c602052604081206007018054611c43928592600a928290611c0557634e487b7160e01b600052603260045260246000fd5b60009182526020808320909101548352828101939093526040918201812054898252600c90935220600201546001600160a01b03918216911661134c565b6000848152600c60205260409020600481015460029091015461140c9183916001600160a01b03918216911661134c565b6000611cc9826040518060400160405280602081526020017f5361666545524332303a206c6f772d6c6576656c2063616c6c206661696c6564815250856001600160a01b0316611d279092919063ffffffff16565b80519091501561072c5780806020019051810190611ce79190612046565b61072c5760405162461bcd60e51b815260040161060e90612779565b60006118ea8284612a7d565b60006118ea8284612a5d565b60006118ea8284612a9c565b6060611d368484600085611d3e565b949350505050565b606082471015611d605760405162461bcd60e51b815260040161060e90612577565b611d6985611dfe565b611d855760405162461bcd60e51b815260040161060e9061270b565b600080866001600160a01b03168587604051611da19190612245565b60006040518083038185875af1925050503d8060008114611dde576040519150601f19603f3d011682016040523d82523d6000602084013e611de3565b606091505b5091509150611df3828286611e04565b979650505050505050565b3b151590565b60608315611e135750816118ea565b825115611e235782518084602001fd5b8160405162461bcd60e51b815260040161060e91906123a7565b604051806101000160405280600081526020016000815260200160006001600160a01b0316815260200160006001600160a01b0316815260200160006001600160a01b0316815260200160006001600160a01b0316815260200160008152602001606081525090565b828054828255906000526020600020908101928215611ee1579160200282015b82811115611ee1578251825591602001919060010190611ec6565b50611eed929150611f12565b5090565b5080546000825590600052602060002090810190611f0f9190611f12565b50565b5b80821115611eed5760008155600101611f13565b80356001600160a01b03811681146105e257600080fd5b600060208284031215611f4f578081fd5b6118ea82611f27565b60008060008060808587031215611f6d578283fd5b611f7685611f27565b93506020611f85818701611f27565b935060408601359250606086013567ffffffffffffffff80821115611fa8578384fd5b818801915088601f830112611fbb578384fd5b813581811115611fcd57611fcd612b27565b611fdf601f8201601f19168501612a1b565b91508082528984828501011115611ff4578485fd5b8084840185840137810190920192909252939692955090935050565b60008060408385031215612022578182fd5b61202b83611f27565b9150602083013561203b81612b3d565b809150509250929050565b600060208284031215612057578081fd5b81516118ea81612b3d565b600060208284031215612073578081fd5b5035919050565b6000806040838503121561208c578182fd5b8235915061209c60208401611f27565b90509250929050565b6000602082840312156120b6578081fd5b81356001600160e01b0319811681146118ea578182fd5b600080604083850312156120df578182fd5b50508035926020909101359150565b600080600080600060a08688031215612105578081fd5b853594506020808701359450604087013567ffffffffffffffff8082111561212b578384fd5b818901915089601f83011261213e578384fd5b81358181111561215057612150612b27565b8381029150612160848301612a1b565b8181528481019084860184860187018e101561217a578788fd5b8795505b8386101561219c57803583526001959095019491860191860161217e565b508098505050505050506121b260608701611f27565b91506121c060808701611f27565b90509295509295909350565b6001600160a01b03169052565b6000815180845260208085019450808401835b83811015612208578151875295820195908201906001016121ec565b509495945050505050565b6000815480845260208085019450838352808320835b8381101561220857815487529582019560019182019101612229565b60008251612257818460208701612ab3565b9190910192915050565b60007f416363657373436f6e74726f6c3a206163636f756e742000000000000000000082528351612299816017850160208801612ab3565b7001034b99036b4b9b9b4b733903937b6329607d1b60179184019182015283516122ca816028840160208801612ab3565b01602801949350505050565b6001600160a01b0391909116815260200190565b6001600160a01b039384168152919092166020820152604081019190915260600190565b6001600160a01b039384168152919092166020820152604081019190915260806060820181905260029082015261060f60f31b60a082015260c00190565b6001600160a01b03929092168252602082015260400190565b901515815260200190565b90815260200190565b6001600160e01b031991909116815260200190565b600083825260406020830152611d366040830184612213565b60006020825282518060208401526123c6816040850160208701612ab3565b601f01601f19169190910160400192915050565b6020808252818101527f537472696e67733a20686578206c656e67746820696e73756666696369656e74604082015260600190565b60208082526014908201527314185d5cd8589b194e881b9bdd081c185d5cd95960621b604082015260600190565b60208082526015908201527413585c9ad95d0e88185d58dd1a5bdb88195b991959605a1b604082015260600190565b60208082526018908201527f4d61726b65743a2061756374696f6e20746f6f206c6f6e670000000000000000604082015260600190565b60208082526010908201526f09ac2e4d6cae874409ad2e6dac2e8c6d60831b604082015260600190565b60208082526026908201527f4d61726b65743a20455243323020636f6e7472616374206e6f742077686974656040820152651b1a5cdd195960d21b606082015260800190565b6020808252601d908201527f4d61726b65743a2062696420756e646572206869676865737420626964000000604082015260600190565b6020808252601390820152721a5b9d985b1a590813585e13919510dbdd5b9d606a1b604082015260600190565b60208082526026908201527f416464726573733a20696e73756666696369656e742062616c616e636520666f6040820152651c8818d85b1b60d21b606082015260800190565b60208082526025908201527f4d61726b65743a20746f6b656e20636f756e742065786365656473206d61782060408201526418dbdd5b9d60da1b606082015260800190565b60208082526010908201526f14185d5cd8589b194e881c185d5cd95960821b604082015260600190565b6020808252602a908201527f5a6f6f6d626965734e46543a205573657220646f6573206e6f7420686176652060408201526961646d696e20726f6c6560b01b606082015260800190565b6020808252601f908201527f4d61726b65743a2073656c656374206174206c65617374203120746f6b656e00604082015260600190565b6020808252601b908201527f4d61726b65743a2062696420756e646572206d696e2070726963650000000000604082015260600190565b6020808252600d908201526c6e6f7420696e20626f756e647360981b604082015260600190565b6020808252601d908201527f416464726573733a2063616c6c20746f206e6f6e2d636f6e7472616374000000604082015260600190565b6020808252601c908201527f4d61726b65743a206e6f7420626964646572206f722073656c6c657200000000604082015260600190565b6020808252602a908201527f5361666545524332303a204552433230206f7065726174696f6e20646964206e6040820152691bdd081cdd58d8d9595960b21b606082015260800190565b60208082526018908201527f4d61726b65743a204e6f6e206578697374696e67206269640000000000000000604082015260600190565b6020808252601f908201527f5265656e7472616e637947756172643a207265656e7472616e742063616c6c00604082015260600190565b60208082526019908201527f4d61726b65743a2061756374696f6e206e6f7420656e64656400000000000000604082015260600190565b6020808252602f908201527f416363657373436f6e74726f6c3a2063616e206f6e6c792072656e6f756e636560408201526e103937b632b9903337b91039b2b63360891b606082015260800190565b60208082526024908201527f4d61726b65743a204e465420636f6e7472616374206e6f742077686974656c696040820152631cdd195960e21b606082015260800190565b6000602082528251602083015260208301516040830152604083015160018060a01b0380821660608501528060608601511660808501525050608083015161294660a08401826121cc565b5060a083015161295960c08401826121cc565b5060c083015160e083015260e0830151610100808185015250611d366101208401826121d9565b600060808201868352602060808185015281875180845260a0860191508289019350845b818110156129c0578451835293830193918301916001016129a4565b50506001600160a01b039690961660408501525050506060015292915050565b96875260208701959095526001600160a01b0393841660408701529183166060860152821660808501521660a083015260c082015260e00190565b60405181810167ffffffffffffffff81118282101715612a3d57612a3d612b27565b604052919050565b60008219821115612a5857612a58612b11565b500190565b600082612a7857634e487b7160e01b81526012600452602481fd5b500490565b6000816000190483118215151615612a9757612a97612b11565b500290565b600082821015612aae57612aae612b11565b500390565b60005b83811015612ace578181015183820152602001612ab6565b8381111561140c5750506000910152565b600081612aee57612aee612b11565b506000190190565b6000600019821415612b0a57612b0a612b11565b5060010190565b634e487b7160e01b600052601160045260246000fd5b634e487b7160e01b600052604160045260246000fd5b8015158114611f0f57600080fdfea26469706673582212208056e7304bd514e039abd3126f208443a72e0a3d6a0bc1412b0540be40b0f7b464736f6c63430008000033",
  "linkReferences": {},
  "deployedLinkReferences": {}
}