{
  "_format": "hh-sol-artifact-1",
  "contractName": "ZoombiesNFT",
  "sourceName": "contracts/ZoombiesNFT.sol",
  "abi": [
    {
      "inputs": [
        {
          "internalType": "string",
          "name": "name",
          "type": "string"
        },
        {
          "internalType": "string",
          "name": "symbol",
          "type": "string"
        }
      ],
      "stateMutability": "nonpayable",
      "type": "constructor"
    },
    {
      "anonymous": false,
      "inputs": [
        {
          "indexed": true,
          "internalType": "address",
          "name": "owner",
          "type": "address"
        },
        {
          "indexed": true,
          "internalType": "address",
          "name": "approved",
          "type": "address"
        },
        {
          "indexed": true,
          "internalType": "uint256",
          "name": "tokenId",
          "type": "uint256"
        }
      ],
      "name": "Approval",
      "type": "event"
    },
    {
      "anonymous": false,
      "inputs": [
        {
          "indexed": true,
          "internalType": "address",
          "name": "owner",
          "type": "address"
        },
        {
          "indexed": true,
          "internalType": "address",
          "name": "operator",
          "type": "address"
        },
        {
          "indexed": false,
          "internalType": "bool",
          "name": "approved",
          "type": "bool"
        }
      ],
      "name": "ApprovalForAll",
      "type": "event"
    },
    {
      "anonymous": false,
      "inputs": [
        {
          "indexed": false,
          "internalType": "address",
          "name": "account",
          "type": "address"
        }
      ],
      "name": "Paused",
      "type": "event"
    },
    {
      "anonymous": false,
      "inputs": [
        {
          "indexed": true,
          "internalType": "bytes32",
          "name": "role",
          "type": "bytes32"
        },
        {
          "indexed": true,
          "internalType": "bytes32",
          "name": "previousAdminRole",
          "type": "bytes32"
        },
        {
          "indexed": true,
          "internalType": "bytes32",
          "name": "newAdminRole",
          "type": "bytes32"
        }
      ],
      "name": "RoleAdminChanged",
      "type": "event"
    },
    {
      "anonymous": false,
      "inputs": [
        {
          "indexed": true,
          "internalType": "bytes32",
          "name": "role",
          "type": "bytes32"
        },
        {
          "indexed": true,
          "internalType": "address",
          "name": "account",
          "type": "address"
        },
        {
          "indexed": true,
          "internalType": "address",
          "name": "sender",
          "type": "address"
        }
      ],
      "name": "RoleGranted",
      "type": "event"
    },
    {
      "anonymous": false,
      "inputs": [
        {
          "indexed": true,
          "internalType": "bytes32",
          "name": "role",
          "type": "bytes32"
        },
        {
          "indexed": true,
          "internalType": "address",
          "name": "account",
          "type": "address"
        },
        {
          "indexed": true,
          "internalType": "address",
          "name": "sender",
          "type": "address"
        }
      ],
      "name": "RoleRevoked",
      "type": "event"
    },
    {
      "anonymous": false,
      "inputs": [
        {
          "indexed": true,
          "internalType": "address",
          "name": "from",
          "type": "address"
        },
        {
          "indexed": true,
          "internalType": "address",
          "name": "to",
          "type": "address"
        },
        {
          "indexed": true,
          "internalType": "uint256",
          "name": "tokenId",
          "type": "uint256"
        }
      ],
      "name": "Transfer",
      "type": "event"
    },
    {
      "anonymous": false,
      "inputs": [
        {
          "indexed": false,
          "internalType": "address",
          "name": "account",
          "type": "address"
        }
      ],
      "name": "Unpaused",
      "type": "event"
    },
    {
      "inputs": [],
      "name": "DEFAULT_ADMIN_ROLE",
      "outputs": [
        {
          "internalType": "bytes32",
          "name": "",
          "type": "bytes32"
        }
      ],
      "stateMutability": "view",
      "type": "function"
    },
    {
      "inputs": [
        {
          "internalType": "address",
          "name": "to",
          "type": "address"
        },
        {
          "internalType": "uint256",
          "name": "tokenId",
          "type": "uint256"
        }
      ],
      "name": "approve",
      "outputs": [],
      "stateMutability": "nonpayable",
      "type": "function"
    },
    {
      "inputs": [
        {
          "internalType": "address",
          "name": "owner",
          "type": "address"
        }
      ],
      "name": "balanceOf",
      "outputs": [
        {
          "internalType": "uint256",
          "name": "",
          "type": "uint256"
        }
      ],
      "stateMutability": "view",
      "type": "function"
    },
    {
      "inputs": [
        {
          "internalType": "uint256",
          "name": "tokenId",
          "type": "uint256"
        }
      ],
      "name": "burn",
      "outputs": [
        {
          "internalType": "bool",
          "name": "",
          "type": "bool"
        }
      ],
      "stateMutability": "nonpayable",
      "type": "function"
    },
    {
      "inputs": [
        {
          "internalType": "uint256",
          "name": "_creatorFee",
          "type": "uint256"
        }
      ],
      "name": "changeCreatorFee",
      "outputs": [],
      "stateMutability": "nonpayable",
      "type": "function"
    },
    {
      "inputs": [
        {
          "internalType": "address",
          "name": "_dollarZoombies",
          "type": "address"
        }
      ],
      "name": "changeDollarZoombiesAddress",
      "outputs": [],
      "stateMutability": "nonpayable",
      "type": "function"
    },
    {
      "inputs": [
        {
          "internalType": "uint256",
          "name": "_maxAuctionTime",
          "type": "uint256"
        }
      ],
      "name": "changeMaxAuctionTime",
      "outputs": [],
      "stateMutability": "nonpayable",
      "type": "function"
    },
    {
      "inputs": [
        {
          "internalType": "uint256",
          "name": "_maxNFTCount",
          "type": "uint256"
        }
      ],
      "name": "changeMaxNFTCount",
      "outputs": [],
      "stateMutability": "nonpayable",
      "type": "function"
    },
    {
      "inputs": [
        {
          "internalType": "uint256",
          "name": "_zoombiesFee",
          "type": "uint256"
        }
      ],
      "name": "changeZoombiesFee",
      "outputs": [],
      "stateMutability": "nonpayable",
      "type": "function"
    },
    {
      "inputs": [],
      "name": "creatorFee",
      "outputs": [
        {
          "internalType": "uint256",
          "name": "",
          "type": "uint256"
        }
      ],
      "stateMutability": "view",
      "type": "function"
    },
    {
      "inputs": [],
      "name": "dollarZoombies",
      "outputs": [
        {
          "internalType": "address",
          "name": "",
          "type": "address"
        }
      ],
      "stateMutability": "view",
      "type": "function"
    },
    {
      "inputs": [
        {
          "internalType": "uint256",
          "name": "tokenId",
          "type": "uint256"
        }
      ],
      "name": "getApproved",
      "outputs": [
        {
          "internalType": "address",
          "name": "",
          "type": "address"
        }
      ],
      "stateMutability": "view",
      "type": "function"
    },
    {
      "inputs": [
        {
          "internalType": "bytes32",
          "name": "role",
          "type": "bytes32"
        }
      ],
      "name": "getRoleAdmin",
      "outputs": [
        {
          "internalType": "bytes32",
          "name": "",
          "type": "bytes32"
        }
      ],
      "stateMutability": "view",
      "type": "function"
    },
    {
      "inputs": [
        {
          "internalType": "bytes32",
          "name": "role",
          "type": "bytes32"
        },
        {
          "internalType": "address",
          "name": "account",
          "type": "address"
        }
      ],
      "name": "grantRole",
      "outputs": [],
      "stateMutability": "nonpayable",
      "type": "function"
    },
    {
      "inputs": [
        {
          "internalType": "bytes32",
          "name": "role",
          "type": "bytes32"
        },
        {
          "internalType": "address",
          "name": "account",
          "type": "address"
        }
      ],
      "name": "hasRole",
      "outputs": [
        {
          "internalType": "bool",
          "name": "",
          "type": "bool"
        }
      ],
      "stateMutability": "view",
      "type": "function"
    },
    {
      "inputs": [
        {
          "internalType": "address",
          "name": "owner",
          "type": "address"
        },
        {
          "internalType": "address",
          "name": "operator",
          "type": "address"
        }
      ],
      "name": "isApprovedForAll",
      "outputs": [
        {
          "internalType": "bool",
          "name": "",
          "type": "bool"
        }
      ],
      "stateMutability": "view",
      "type": "function"
    },
    {
      "inputs": [],
      "name": "maxAuctionTime",
      "outputs": [
        {
          "internalType": "uint256",
          "name": "",
          "type": "uint256"
        }
      ],
      "stateMutability": "view",
      "type": "function"
    },
    {
      "inputs": [],
      "name": "maxNFTCount",
      "outputs": [
        {
          "internalType": "uint256",
          "name": "",
          "type": "uint256"
        }
      ],
      "stateMutability": "view",
      "type": "function"
    },
    {
      "inputs": [
        {
          "internalType": "address",
          "name": "to",
          "type": "address"
        },
        {
          "internalType": "uint256",
          "name": "tokenId",
          "type": "uint256"
        }
      ],
      "name": "mint",
      "outputs": [
        {
          "internalType": "bool",
          "name": "",
          "type": "bool"
        }
      ],
      "stateMutability": "nonpayable",
      "type": "function"
    },
    {
      "inputs": [],
      "name": "name",
      "outputs": [
        {
          "internalType": "string",
          "name": "",
          "type": "string"
        }
      ],
      "stateMutability": "view",
      "type": "function"
    },
    {
      "inputs": [
        {
          "internalType": "uint256",
          "name": "tokenId",
          "type": "uint256"
        }
      ],
      "name": "ownerOf",
      "outputs": [
        {
          "internalType": "address",
          "name": "",
          "type": "address"
        }
      ],
      "stateMutability": "view",
      "type": "function"
    },
    {
      "inputs": [],
      "name": "pause",
      "outputs": [],
      "stateMutability": "nonpayable",
      "type": "function"
    },
    {
      "inputs": [],
      "name": "paused",
      "outputs": [
        {
          "internalType": "bool",
          "name": "",
          "type": "bool"
        }
      ],
      "stateMutability": "view",
      "type": "function"
    },
    {
      "inputs": [
        {
          "internalType": "bytes32",
          "name": "role",
          "type": "bytes32"
        },
        {
          "internalType": "address",
          "name": "account",
          "type": "address"
        }
      ],
      "name": "renounceRole",
      "outputs": [],
      "stateMutability": "nonpayable",
      "type": "function"
    },
    {
      "inputs": [
        {
          "internalType": "bytes32",
          "name": "role",
          "type": "bytes32"
        },
        {
          "internalType": "address",
          "name": "account",
          "type": "address"
        }
      ],
      "name": "revokeRole",
      "outputs": [],
      "stateMutability": "nonpayable",
      "type": "function"
    },
    {
      "inputs": [
        {
          "internalType": "address",
          "name": "from",
          "type": "address"
        },
        {
          "internalType": "address",
          "name": "to",
          "type": "address"
        },
        {
          "internalType": "uint256",
          "name": "tokenId",
          "type": "uint256"
        }
      ],
      "name": "safeTransferFrom",
      "outputs": [],
      "stateMutability": "nonpayable",
      "type": "function"
    },
    {
      "inputs": [
        {
          "internalType": "address",
          "name": "from",
          "type": "address"
        },
        {
          "internalType": "address",
          "name": "to",
          "type": "address"
        },
        {
          "internalType": "uint256",
          "name": "tokenId",
          "type": "uint256"
        },
        {
          "internalType": "bytes",
          "name": "_data",
          "type": "bytes"
        }
      ],
      "name": "safeTransferFrom",
      "outputs": [],
      "stateMutability": "nonpayable",
      "type": "function"
    },
    {
      "inputs": [
        {
          "internalType": "address",
          "name": "to",
          "type": "address"
        },
        {
          "internalType": "uint256",
          "name": "tokenId",
          "type": "uint256"
        }
      ],
      "name": "safemint",
      "outputs": [
        {
          "internalType": "bool",
          "name": "",
          "type": "bool"
        }
      ],
      "stateMutability": "nonpayable",
      "type": "function"
    },
    {
      "inputs": [
        {
          "internalType": "address",
          "name": "operator",
          "type": "address"
        },
        {
          "internalType": "bool",
          "name": "approved",
          "type": "bool"
        }
      ],
      "name": "setApprovalForAll",
      "outputs": [],
      "stateMutability": "nonpayable",
      "type": "function"
    },
    {
      "inputs": [
        {
          "internalType": "uint256",
          "name": "tokenId",
          "type": "uint256"
        },
        {
          "internalType": "string",
          "name": "_tokenURI",
          "type": "string"
        }
      ],
      "name": "setTokenURI",
      "outputs": [
        {
          "internalType": "bool",
          "name": "",
          "type": "bool"
        }
      ],
      "stateMutability": "nonpayable",
      "type": "function"
    },
    {
      "inputs": [
        {
          "internalType": "bytes4",
          "name": "interfaceId",
          "type": "bytes4"
        }
      ],
      "name": "supportsInterface",
      "outputs": [
        {
          "internalType": "bool",
          "name": "",
          "type": "bool"
        }
      ],
      "stateMutability": "view",
      "type": "function"
    },
    {
      "inputs": [],
      "name": "symbol",
      "outputs": [
        {
          "internalType": "string",
          "name": "",
          "type": "string"
        }
      ],
      "stateMutability": "view",
      "type": "function"
    },
    {
      "inputs": [
        {
          "internalType": "uint256",
          "name": "index",
          "type": "uint256"
        }
      ],
      "name": "tokenByIndex",
      "outputs": [
        {
          "internalType": "uint256",
          "name": "",
          "type": "uint256"
        }
      ],
      "stateMutability": "view",
      "type": "function"
    },
    {
      "inputs": [
        {
          "internalType": "address",
          "name": "owner",
          "type": "address"
        },
        {
          "internalType": "uint256",
          "name": "index",
          "type": "uint256"
        }
      ],
      "name": "tokenOfOwnerByIndex",
      "outputs": [
        {
          "internalType": "uint256",
          "name": "",
          "type": "uint256"
        }
      ],
      "stateMutability": "view",
      "type": "function"
    },
    {
      "inputs": [
        {
          "internalType": "uint256",
          "name": "tokenId",
          "type": "uint256"
        }
      ],
      "name": "tokenURI",
      "outputs": [
        {
          "internalType": "string",
          "name": "",
          "type": "string"
        }
      ],
      "stateMutability": "view",
      "type": "function"
    },
    {
      "inputs": [
        {
          "internalType": "address",
          "name": "",
          "type": "address"
        }
      ],
      "name": "tokenWhitelist",
      "outputs": [
        {
          "internalType": "bool",
          "name": "",
          "type": "bool"
        }
      ],
      "stateMutability": "view",
      "type": "function"
    },
    {
      "inputs": [],
      "name": "totalSupply",
      "outputs": [
        {
          "internalType": "uint256",
          "name": "",
          "type": "uint256"
        }
      ],
      "stateMutability": "view",
      "type": "function"
    },
    {
      "inputs": [
        {
          "internalType": "address",
          "name": "from",
          "type": "address"
        },
        {
          "internalType": "address",
          "name": "to",
          "type": "address"
        },
        {
          "internalType": "uint256",
          "name": "tokenId",
          "type": "uint256"
        }
      ],
      "name": "transferFrom",
      "outputs": [],
      "stateMutability": "nonpayable",
      "type": "function"
    },
    {
      "inputs": [],
      "name": "unpause",
      "outputs": [],
      "stateMutability": "nonpayable",
      "type": "function"
    },
    {
      "inputs": [
        {
          "internalType": "address",
          "name": "token",
          "type": "address"
        },
        {
          "internalType": "bool",
          "name": "isWhitelisted",
          "type": "bool"
        }
      ],
      "name": "whitelistToken",
      "outputs": [],
      "stateMutability": "nonpayable",
      "type": "function"
    },
    {
      "inputs": [],
      "name": "zoombiesFee",
      "outputs": [
        {
          "internalType": "uint256",
          "name": "",
          "type": "uint256"
        }
      ],
      "stateMutability": "view",
      "type": "function"
    }
  ],
  "bytecode": "0x60806040523480156200001157600080fd5b5060405162002eb438038062002eb4833981016040819052620000349162000344565b8151829082906200004d906000906020850190620001f3565b50805162000063906001906020840190620001f3565b5050600c805460ff19169055506005600e819055600d55600f80546001600160a01b031916339081179091556212750060105560ff601155620000a990600090620000be565b620000b6600080620000ce565b5050620003fe565b620000ca828262000123565b5050565b6000620000db83620001af565b6000848152600b6020526040808220600101859055519192508391839186917fbd79b86ffe0ab8e8776151514217cd7cacd52c909f66475c3af44e129f0b00ff9190a4505050565b6200012f8282620001c4565b620000ca576000828152600b602090815260408083206001600160a01b03851684529091529020805460ff191660011790556200016b620001ef565b6001600160a01b0316816001600160a01b0316837f2f8788117e7eff1d82e926ec794901d17c78024a50270940304540a733656f0d60405160405180910390a45050565b6000908152600b602052604090206001015490565b6000918252600b602090815260408084206001600160a01b0393909316845291905290205460ff1690565b3390565b8280546200020190620003ab565b90600052602060002090601f01602090048101928262000225576000855562000270565b82601f106200024057805160ff191683800117855562000270565b8280016001018555821562000270579182015b828111156200027057825182559160200191906001019062000253565b506200027e92915062000282565b5090565b5b808211156200027e576000815560010162000283565b600082601f830112620002aa578081fd5b81516001600160401b0380821115620002c757620002c7620003e8565b6040516020601f8401601f1916820181018381118382101715620002ef57620002ef620003e8565b604052838252858401810187101562000306578485fd5b8492505b838310156200032957858301810151828401820152918201916200030a565b838311156200033a57848185840101525b5095945050505050565b6000806040838503121562000357578182fd5b82516001600160401b03808211156200036e578384fd5b6200037c8683870162000299565b9350602085015191508082111562000392578283fd5b50620003a18582860162000299565b9150509250929050565b600281046001821680620003c057607f821691505b60208210811415620003e257634e487b7160e01b600052602260045260246000fd5b50919050565b634e487b7160e01b600052604160045260246000fd5b612aa6806200040e6000396000f3fe608060405234801561001057600080fd5b50600436106102535760003560e01c80636352211e11610146578063a217fddf116100c3578063c87b56dd11610087578063c87b56dd146104c2578063d547741f146104d5578063e3c55e40146104e8578063e88958dc146104fb578063e985e9c514610503578063f64989fe1461051657610253565b8063a217fddf1461046e578063a22cb46514610476578063a29b549a14610489578063a7f56c641461049c578063b88d4fde146104af57610253565b80638456cb591161010a5780638456cb59146104305780638667f74814610438578063869e7ebb1461044057806391d148541461045357806395d89b411461046657610253565b80636352211e146103dc57806370a08231146103ef578063753d75631461040257806377e716371461041557806382f16cea1461041d57610253565b80632f745c59116101d457806342842e0e1161019857806342842e0e1461039357806342966c68146103a65780634f6ccce7146103b9578063518b057e146103cc5780635c975abb146103d457610253565b80632f745c591461033f57806336568abe1461035257806338ff4fc4146103655780633f4ba83a1461037857806340c10f191461038057610253565b8063162094c41161021b578063162094c4146102de57806318160ddd146102f157806323b872dd14610306578063248a9ca3146103195780632f2ff15d1461032c57610253565b806301ffc9a71461025857806306fdde0314610281578063081812fc14610296578063095ea7b3146102b65780630ffb1d8b146102cb575b600080fd5b61026b610266366004612096565b61051e565b6040516102789190612247565b60405180910390f35b610289610531565b604051610278919061225b565b6102a96102a436600461205c565b6105c3565b60405161027891906121f6565b6102c96102c4366004612033565b61060f565b005b6102c96102d9366004611ff9565b6106a7565b61026b6102ec3660046120ce565b6106f9565b6102f9610734565b6040516102789190612252565b6102c9610314366004611f45565b61073a565b6102f961032736600461205c565b610772565b6102c961033a366004612074565b610787565b6102f961034d366004612033565b6107ab565b6102c9610360366004612074565b6107fd565b61026b610373366004612033565b610843565b6102c9610875565b61026b61038e366004612033565b6108a6565b6102c96103a1366004611f45565b6108d8565b61026b6103b436600461205c565b6108f3565b6102f96103c736600461205c565b61092c565b6102f9610987565b61026b61098d565b6102a96103ea36600461205c565b610996565b6102f96103fd366004611ef9565b6109cb565b61026b610410366004611ef9565b610a0f565b6102a9610a24565b6102c961042b36600461205c565b610a33565b6102c9610a80565b6102f9610aaf565b6102c961044e36600461205c565b610ab5565b61026b610461366004612074565b610b0c565b610289610b37565b6102f9610b46565b6102c9610484366004611ff9565b610b4b565b6102c9610497366004611ef9565b610c19565b6102c96104aa36600461205c565b610c62565b6102c96104bd366004611f80565b610cc0565b6102896104d036600461205c565b610cff565b6102c96104e3366004612074565b610d0a565b6102c96104f636600461205c565b610d29565b6102f9610d80565b61026b610511366004611f13565b610d86565b6102f9610db4565b600061052982610dba565b90505b919050565b606060008054610540906129ae565b80601f016020809104026020016040519081016040528092919081815260200182805461056c906129ae565b80156105b95780601f1061058e576101008083540402835291602001916105b9565b820191906000526020600020905b81548152906001019060200180831161059c57829003601f168201915b5050505050905090565b60006105ce82610ddf565b6105f35760405162461bcd60e51b81526004016105ea906126d1565b60405180910390fd5b506000908152600460205260409020546001600160a01b031690565b600061061a82610996565b9050806001600160a01b0316836001600160a01b0316141561064e5760405162461bcd60e51b81526004016105ea906127dc565b806001600160a01b0316610660610dfc565b6001600160a01b0316148061067c575061067c81610511610dfc565b6106985760405162461bcd60e51b81526004016105ea906124c3565b6106a28383610e00565b505050565b6106b2600033610b0c565b6106ce5760405162461bcd60e51b81526004016105ea90612636565b6001600160a01b03919091166000908152601260205260409020805460ff1916911515919091179055565b60006107058133610b0c565b6107215760405162461bcd60e51b81526004016105ea90612636565b61072b8383610e6e565b50600192915050565b60095490565b61074b610745610dfc565b82610eb2565b6107675760405162461bcd60e51b81526004016105ea9061281d565b6106a2838383610f37565b6000908152600b602052604090206001015490565b61079082610772565b6107a18161079c610dfc565b611064565b6106a283836110c8565b60006107b6836109cb565b82106107d45760405162461bcd60e51b81526004016105ea906122d1565b506001600160a01b03919091166000908152600760209081526040808320938352929052205490565b610805610dfc565b6001600160a01b0316816001600160a01b0316146108355760405162461bcd60e51b81526004016105ea906128ba565b61083f828261114f565b5050565b600061084f8133610b0c565b61086b5760405162461bcd60e51b81526004016105ea90612636565b61072b83836111d4565b610880600033610b0c565b61089c5760405162461bcd60e51b81526004016105ea90612636565b6108a46111ee565b565b60006108b28133610b0c565b6108ce5760405162461bcd60e51b81526004016105ea90612636565b61072b838361125c565b6106a283838360405180602001604052806000815250610cc0565b60006108ff8133610b0c565b61091b5760405162461bcd60e51b81526004016105ea90612636565b6109248261133b565b506001919050565b6000610936610734565b82106109545760405162461bcd60e51b81526004016105ea9061286e565b6009828154811061097557634e487b7160e01b600052603260045260246000fd5b90600052602060002001549050919050565b60105481565b600c5460ff1690565b6000818152600260205260408120546001600160a01b0316806105295760405162461bcd60e51b81526004016105ea9061256a565b60006001600160a01b0382166109f35760405162461bcd60e51b81526004016105ea90612520565b506001600160a01b031660009081526003602052604090205490565b60126020526000908152604090205460ff1681565b600f546001600160a01b031681565b610a3e600033610b0c565b610a5a5760405162461bcd60e51b81526004016105ea90612636565b6001811015610a7b5760405162461bcd60e51b81526004016105ea90612420565b601155565b610a8b600033610b0c565b610aa75760405162461bcd60e51b81526004016105ea90612636565b6108a4611347565b600e5481565b610ac0600033610b0c565b610adc5760405162461bcd60e51b81526004016105ea90612636565b60148111158015610aeb575060015b610b075760405162461bcd60e51b81526004016105ea906127b5565b600e55565b6000918252600b602090815260408084206001600160a01b0393909316845291905290205460ff1690565b606060018054610540906129ae565b600081565b610b53610dfc565b6001600160a01b0316826001600160a01b03161415610b845760405162461bcd60e51b81526004016105ea906123e9565b8060056000610b91610dfc565b6001600160a01b03908116825260208083019390935260409182016000908120918716808252919093529120805460ff191692151592909217909155610bd5610dfc565b6001600160a01b03167f17307eab39ab6107e8899845ad3d59bd9653f200f220920489ca2b5937696c3183604051610c0d9190612247565b60405180910390a35050565b610c24600033610b0c565b610c405760405162461bcd60e51b81526004016105ea90612636565b600f80546001600160a01b0319166001600160a01b0392909216919091179055565b610c6d600033610b0c565b610c895760405162461bcd60e51b81526004016105ea90612636565b6224ea008111158015610c9f5750621275008110155b610cbb5760405162461bcd60e51b81526004016105ea906127b5565b601055565b610cd1610ccb610dfc565b83610eb2565b610ced5760405162461bcd60e51b81526004016105ea9061281d565b610cf9848484846113a2565b50505050565b6060610529826113d5565b610d1382610772565b610d1f8161079c610dfc565b6106a2838361114f565b610d34600033610b0c565b610d505760405162461bcd60e51b81526004016105ea90612636565b60148111158015610d5f575060015b610d7b5760405162461bcd60e51b81526004016105ea906127b5565b600d55565b600d5481565b6001600160a01b03918216600090815260056020908152604080832093909416825291909152205460ff1690565b60115481565b60006001600160e01b03198216637965db0b60e01b14806105295750610529826114ee565b6000908152600260205260409020546001600160a01b0316151590565b3390565b600081815260046020526040902080546001600160a01b0319166001600160a01b0384169081179091558190610e3582610996565b6001600160a01b03167f8c5be1e5ebec7d5bd14f71427d1e84f3dd0314c0f7b2291e5b200ac8c7c3b92560405160405180910390a45050565b610e7782610ddf565b610e935760405162461bcd60e51b81526004016105ea906125b3565b600082815260066020908152604090912082516106a292840190611da1565b6000610ebd82610ddf565b610ed95760405162461bcd60e51b81526004016105ea9061244d565b6000610ee483610996565b9050806001600160a01b0316846001600160a01b03161480610f1f5750836001600160a01b0316610f14846105c3565b6001600160a01b0316145b80610f2f5750610f2f8185610d86565b949350505050565b826001600160a01b0316610f4a82610996565b6001600160a01b031614610f705760405162461bcd60e51b81526004016105ea9061271d565b6001600160a01b038216610f965760405162461bcd60e51b81526004016105ea906123a5565b610fa1838383611513565b610fac600082610e00565b6001600160a01b0383166000908152600360205260408120805460019290610fd5908490612954565b90915550506001600160a01b0382166000908152600360205260408120805460019290611003908490612909565b909155505060008181526002602052604080822080546001600160a01b0319166001600160a01b0386811691821790925591518493918716917fddf252ad1be2c89b69c2b068fc378daa952ba7f163c4a11628f55a4df523b3ef91a4505050565b61106e8282610b0c565b61083f57611086816001600160a01b0316601461151e565b61109183602061151e565b6040516020016110a2929190612181565b60408051601f198184030181529082905262461bcd60e51b82526105ea9160040161225b565b6110d28282610b0c565b61083f576000828152600b602090815260408083206001600160a01b03851684529091529020805460ff1916600117905561110b610dfc565b6001600160a01b0316816001600160a01b0316837f2f8788117e7eff1d82e926ec794901d17c78024a50270940304540a733656f0d60405160405180910390a45050565b6111598282610b0c565b1561083f576000828152600b602090815260408083206001600160a01b03851684529091529020805460ff19169055611190610dfc565b6001600160a01b0316816001600160a01b0316837ff6391f5c32d9c69d2a47ea670b442974b53935d1edc7fd64eb21e047a839171b60405160405180910390a45050565b61083f8282604051806020016040528060008152506116d7565b6111f661098d565b6112125760405162461bcd60e51b81526004016105ea906122a3565b600c805460ff191690557f5db9ee0a495bf2e6ff9c91a7834c1ba4fdd244a5e8aa4e537bd38aeae4b073aa611245610dfc565b60405161125291906121f6565b60405180910390a1565b6001600160a01b0382166112825760405162461bcd60e51b81526004016105ea90612601565b61128b81610ddf565b156112a85760405162461bcd60e51b81526004016105ea9061236e565b6112b460008383611513565b6001600160a01b03821660009081526003602052604081208054600192906112dd908490612909565b909155505060008181526002602052604080822080546001600160a01b0319166001600160a01b03861690811790915590518392907fddf252ad1be2c89b69c2b068fc378daa952ba7f163c4a11628f55a4df523b3ef908290a45050565b6113448161170a565b50565b61134f61098d565b1561136c5760405162461bcd60e51b81526004016105ea90612499565b600c805460ff191660011790557f62e78cea01bee320cd4e420270b5ea74000d11b0c9f74754ebdbfc544b05a258611245610dfc565b6113ad848484610f37565b6113b98484848461174a565b610cf95760405162461bcd60e51b81526004016105ea9061231c565b60606113e082610ddf565b6113fc5760405162461bcd60e51b81526004016105ea90612680565b60008281526006602052604081208054611415906129ae565b80601f0160208091040260200160405190810160405280929190818152602001828054611441906129ae565b801561148e5780601f106114635761010080835404028352916020019161148e565b820191906000526020600020905b81548152906001019060200180831161147157829003601f168201915b50505050509050600061149f611865565b90508051600014156114b35750905061052c565b8151156114e55780826040516020016114cd929190612152565b6040516020818303038152906040529250505061052c565b610f2f84611877565b60006001600160e01b0319821663780e9d6360e01b14806105295750610529826118f9565b6106a2838383611939565b6060600061152d836002612935565b611538906002612909565b67ffffffffffffffff81111561155e57634e487b7160e01b600052604160045260246000fd5b6040519080825280601f01601f191660200182016040528015611588576020820181803683370190505b509050600360fc1b816000815181106115b157634e487b7160e01b600052603260045260246000fd5b60200101906001600160f81b031916908160001a905350600f60fb1b816001815181106115ee57634e487b7160e01b600052603260045260246000fd5b60200101906001600160f81b031916908160001a9053506000611612846002612935565b61161d906001612909565b90505b60018111156116b1576f181899199a1a9b1b9c1cb0b131b232b360811b85600f166010811061165f57634e487b7160e01b600052603260045260246000fd5b1a60f81b82828151811061168357634e487b7160e01b600052603260045260246000fd5b60200101906001600160f81b031916908160001a90535060049490941c936116aa81612997565b9050611620565b5083156116d05760405162461bcd60e51b81526004016105ea9061226e565b9392505050565b6116e1838361125c565b6116ee600084848461174a565b6106a25760405162461bcd60e51b81526004016105ea9061231c565b611713816119c2565b6000818152600660205260409020805461172c906129ae565b15905061134457600081815260066020526040812061134491611e25565b600061175e846001600160a01b0316611a69565b1561185a57836001600160a01b031663150b7a0261177a610dfc565b8786866040518563ffffffff1660e01b815260040161179c949392919061220a565b602060405180830381600087803b1580156117b657600080fd5b505af19250505080156117e6575060408051601f3d908101601f191682019092526117e3918101906120b2565b60015b611840573d808015611814576040519150601f19603f3d011682016040523d82523d6000602084013e611819565b606091505b5080516118385760405162461bcd60e51b81526004016105ea9061231c565b805181602001fd5b6001600160e01b031916630a85bd0160e11b149050610f2f565b506001949350505050565b60408051602081019091526000815290565b606061188282610ddf565b61189e5760405162461bcd60e51b81526004016105ea90612766565b60006118a8611865565b905060008151116118c857604051806020016040528060008152506116d0565b806118d284611a6f565b6040516020016118e3929190612152565b6040516020818303038152906040529392505050565b60006001600160e01b031982166380ac58cd60e01b148061192a57506001600160e01b03198216635b5e139f60e01b145b80610529575061052982611b8a565b6119448383836106a2565b6001600160a01b0383166119605761195b81611ba3565b611983565b816001600160a01b0316836001600160a01b031614611983576119838382611be7565b6001600160a01b03821661199f5761199a81611c84565b6106a2565b826001600160a01b0316826001600160a01b0316146106a2576106a28282611d5d565b60006119cd82610996565b90506119db81600084611513565b6119e6600083610e00565b6001600160a01b0381166000908152600360205260408120805460019290611a0f908490612954565b909155505060008281526002602052604080822080546001600160a01b0319169055518391906001600160a01b038416907fddf252ad1be2c89b69c2b068fc378daa952ba7f163c4a11628f55a4df523b3ef908390a45050565b3b151590565b606081611a9457506040805180820190915260018152600360fc1b602082015261052c565b8160005b8115611abe5780611aa8816129e9565b9150611ab79050600a83612921565b9150611a98565b60008167ffffffffffffffff811115611ae757634e487b7160e01b600052604160045260246000fd5b6040519080825280601f01601f191660200182016040528015611b11576020820181803683370190505b5090505b8415610f2f57611b26600183612954565b9150611b33600a86612a04565b611b3e906030612909565b60f81b818381518110611b6157634e487b7160e01b600052603260045260246000fd5b60200101906001600160f81b031916908160001a905350611b83600a86612921565b9450611b15565b6001600160e01b031981166301ffc9a760e01b14919050565b600980546000838152600a60205260408120829055600182018355919091527f6e1540171b6c0c960b71a7020d9f60077f6af931a8bbf590da0223dacf75c7af0155565b60006001611bf4846109cb565b611bfe9190612954565b600083815260086020526040902054909150808214611c51576001600160a01b03841660009081526007602090815260408083208584528252808320548484528184208190558352600890915290208190555b5060009182526008602090815260408084208490556001600160a01b039094168352600781528383209183525290812055565b600954600090611c9690600190612954565b6000838152600a602052604081205460098054939450909284908110611ccc57634e487b7160e01b600052603260045260246000fd5b906000526020600020015490508060098381548110611cfb57634e487b7160e01b600052603260045260246000fd5b6000918252602080832090910192909255828152600a90915260408082208490558582528120556009805480611d4157634e487b7160e01b600052603160045260246000fd5b6001900381819060005260206000200160009055905550505050565b6000611d68836109cb565b6001600160a01b039093166000908152600760209081526040808320868452825280832085905593825260089052919091209190915550565b828054611dad906129ae565b90600052602060002090601f016020900481019282611dcf5760008555611e15565b82601f10611de857805160ff1916838001178555611e15565b82800160010185558215611e15579182015b82811115611e15578251825591602001919060010190611dfa565b50611e21929150611e5d565b5090565b508054611e31906129ae565b6000825580601f10611e435750611344565b601f01602090049060005260206000209081019061134491905b5b80821115611e215760008155600101611e5e565b600067ffffffffffffffff80841115611e8d57611e8d612a44565b604051601f8501601f191681016020018281118282101715611eb157611eb1612a44565b604052848152915081838501861015611ec957600080fd5b8484602083013760006020868301015250509392505050565b80356001600160a01b038116811461052c57600080fd5b600060208284031215611f0a578081fd5b6116d082611ee2565b60008060408385031215611f25578081fd5b611f2e83611ee2565b9150611f3c60208401611ee2565b90509250929050565b600080600060608486031215611f59578081fd5b611f6284611ee2565b9250611f7060208501611ee2565b9150604084013590509250925092565b60008060008060808587031215611f95578081fd5b611f9e85611ee2565b9350611fac60208601611ee2565b925060408501359150606085013567ffffffffffffffff811115611fce578182fd5b8501601f81018713611fde578182fd5b611fed87823560208401611e72565b91505092959194509250565b6000806040838503121561200b578182fd5b61201483611ee2565b915060208301358015158114612028578182fd5b809150509250929050565b60008060408385031215612045578182fd5b61204e83611ee2565b946020939093013593505050565b60006020828403121561206d578081fd5b5035919050565b60008060408385031215612086578182fd5b82359150611f3c60208401611ee2565b6000602082840312156120a7578081fd5b81356116d081612a5a565b6000602082840312156120c3578081fd5b81516116d081612a5a565b600080604083850312156120e0578182fd5b82359150602083013567ffffffffffffffff8111156120fd578182fd5b8301601f8101851361210d578182fd5b61211c85823560208401611e72565b9150509250929050565b6000815180845261213e81602086016020860161296b565b601f01601f19169290920160200192915050565b6000835161216481846020880161296b565b83519083019061217881836020880161296b565b01949350505050565b60007f416363657373436f6e74726f6c3a206163636f756e7420000000000000000000825283516121b981601785016020880161296b565b7001034b99036b4b9b9b4b733903937b6329607d1b60179184019182015283516121ea81602884016020880161296b565b01602801949350505050565b6001600160a01b0391909116815260200190565b6001600160a01b038581168252841660208201526040810183905260806060820181905260009061223d90830184612126565b9695505050505050565b901515815260200190565b90815260200190565b6000602082526116d06020830184612126565b6020808252818101527f537472696e67733a20686578206c656e67746820696e73756666696369656e74604082015260600190565b60208082526014908201527314185d5cd8589b194e881b9bdd081c185d5cd95960621b604082015260600190565b6020808252602b908201527f455243373231456e756d657261626c653a206f776e657220696e646578206f7560408201526a74206f6620626f756e647360a81b606082015260800190565b60208082526032908201527f4552433732313a207472616e7366657220746f206e6f6e20455243373231526560408201527131b2b4bb32b91034b6b83632b6b2b73a32b960711b606082015260800190565b6020808252601c908201527f4552433732313a20746f6b656e20616c7265616479206d696e74656400000000604082015260600190565b60208082526024908201527f4552433732313a207472616e7366657220746f20746865207a65726f206164646040820152637265737360e01b606082015260800190565b60208082526019908201527f4552433732313a20617070726f766520746f2063616c6c657200000000000000604082015260600190565b6020808252601390820152721a5b9d985b1a590813585e13919510dbdd5b9d606a1b604082015260600190565b6020808252602c908201527f4552433732313a206f70657261746f7220717565727920666f72206e6f6e657860408201526b34b9ba32b73a103a37b5b2b760a11b606082015260800190565b60208082526010908201526f14185d5cd8589b194e881c185d5cd95960821b604082015260600190565b60208082526038908201527f4552433732313a20617070726f76652063616c6c6572206973206e6f74206f7760408201527f6e6572206e6f7220617070726f76656420666f7220616c6c0000000000000000606082015260800190565b6020808252602a908201527f4552433732313a2062616c616e636520717565727920666f7220746865207a65604082015269726f206164647265737360b01b606082015260800190565b60208082526029908201527f4552433732313a206f776e657220717565727920666f72206e6f6e657869737460408201526832b73a103a37b5b2b760b91b606082015260800190565b6020808252602e908201527f45524337323155524953746f726167653a2055524920736574206f66206e6f6e60408201526d32bc34b9ba32b73a103a37b5b2b760911b606082015260800190565b6020808252818101527f4552433732313a206d696e7420746f20746865207a65726f2061646472657373604082015260600190565b6020808252602a908201527f5a6f6f6d626965734e46543a205573657220646f6573206e6f7420686176652060408201526961646d696e20726f6c6560b01b606082015260800190565b60208082526031908201527f45524337323155524953746f726167653a2055524920717565727920666f72206040820152703737b732bc34b9ba32b73a103a37b5b2b760791b606082015260800190565b6020808252602c908201527f4552433732313a20617070726f76656420717565727920666f72206e6f6e657860408201526b34b9ba32b73a103a37b5b2b760a11b606082015260800190565b60208082526029908201527f4552433732313a207472616e73666572206f6620746f6b656e2074686174206960408201526839903737ba1037bbb760b91b606082015260800190565b6020808252602f908201527f4552433732314d657461646174613a2055524920717565727920666f72206e6f60408201526e3732bc34b9ba32b73a103a37b5b2b760891b606082015260800190565b6020808252600d908201526c6e6f7420696e20626f756e647360981b604082015260600190565b60208082526021908201527f4552433732313a20617070726f76616c20746f2063757272656e74206f776e656040820152603960f91b606082015260800190565b60208082526031908201527f4552433732313a207472616e736665722063616c6c6572206973206e6f74206f6040820152701ddb995c881b9bdc88185c1c1c9bdd9959607a1b606082015260800190565b6020808252602c908201527f455243373231456e756d657261626c653a20676c6f62616c20696e646578206f60408201526b7574206f6620626f756e647360a01b606082015260800190565b6020808252602f908201527f416363657373436f6e74726f6c3a2063616e206f6e6c792072656e6f756e636560408201526e103937b632b9903337b91039b2b63360891b606082015260800190565b6000821982111561291c5761291c612a18565b500190565b60008261293057612930612a2e565b500490565b600081600019048311821515161561294f5761294f612a18565b500290565b60008282101561296657612966612a18565b500390565b60005b8381101561298657818101518382015260200161296e565b83811115610cf95750506000910152565b6000816129a6576129a6612a18565b506000190190565b6002810460018216806129c257607f821691505b602082108114156129e357634e487b7160e01b600052602260045260246000fd5b50919050565b60006000198214156129fd576129fd612a18565b5060010190565b600082612a1357612a13612a2e565b500690565b634e487b7160e01b600052601160045260246000fd5b634e487b7160e01b600052601260045260246000fd5b634e487b7160e01b600052604160045260246000fd5b6001600160e01b03198116811461134457600080fdfea264697066735822122023582788c4ad5c241aeae6b8bfd052022d2c4052a8f9a6a9585cc2a6789376e064736f6c63430008000033",
  "linkReferences": {},
  "deployedLinkReferences": {}
}