{
  "_format": "hh-sol-artifact-1",
  "contractName": "ZoombiesMarketPlace",
  "sourceName": "contracts/ZoombiesMarketplace.sol",
  "abi": [
    {
      "inputs": [
        {
          "internalType": "address payable",
          "name": "xMovr",
          "type": "address"
        }
      ],
      "stateMutability": "nonpayable",
      "type": "constructor"
    },
    {
      "anonymous": false,
      "inputs": [
        {
          "indexed": true,
          "internalType": "uint256",
          "name": "itemNumber",
          "type": "uint256"
        },
        {
          "indexed": false,
          "internalType": "uint256",
          "name": "bidAmount",
          "type": "uint256"
        },
        {
          "indexed": true,
          "internalType": "address",
          "name": "bidder",
          "type": "address"
        },
        {
          "indexed": false,
          "internalType": "uint256[]",
          "name": "tokenIds",
          "type": "uint256[]"
        }
      ],
      "name": "Bid",
      "type": "event"
    },
    {
      "anonymous": false,
      "inputs": [
        {
          "indexed": true,
          "internalType": "uint256",
          "name": "itemNumber",
          "type": "uint256"
        },
        {
          "indexed": true,
          "internalType": "address",
          "name": "lister",
          "type": "address"
        },
        {
          "indexed": false,
          "internalType": "uint256[]",
          "name": "tokenIds",
          "type": "uint256[]"
        },
        {
          "indexed": false,
          "internalType": "address",
          "name": "saleToken",
          "type": "address"
        },
        {
          "indexed": true,
          "internalType": "address",
          "name": "nftToken",
          "type": "address"
        },
        {
          "indexed": false,
          "internalType": "uint256",
          "name": "minPrice",
          "type": "uint256"
        }
      ],
      "name": "ItemListed",
      "type": "event"
    },
    {
      "anonymous": false,
      "inputs": [
        {
          "indexed": false,
          "internalType": "address",
          "name": "account",
          "type": "address"
        }
      ],
      "name": "Paused",
      "type": "event"
    },
    {
      "anonymous": false,
      "inputs": [
        {
          "indexed": true,
          "internalType": "bytes32",
          "name": "role",
          "type": "bytes32"
        },
        {
          "indexed": true,
          "internalType": "bytes32",
          "name": "previousAdminRole",
          "type": "bytes32"
        },
        {
          "indexed": true,
          "internalType": "bytes32",
          "name": "newAdminRole",
          "type": "bytes32"
        }
      ],
      "name": "RoleAdminChanged",
      "type": "event"
    },
    {
      "anonymous": false,
      "inputs": [
        {
          "indexed": true,
          "internalType": "bytes32",
          "name": "role",
          "type": "bytes32"
        },
        {
          "indexed": true,
          "internalType": "address",
          "name": "account",
          "type": "address"
        },
        {
          "indexed": true,
          "internalType": "address",
          "name": "sender",
          "type": "address"
        }
      ],
      "name": "RoleGranted",
      "type": "event"
    },
    {
      "anonymous": false,
      "inputs": [
        {
          "indexed": true,
          "internalType": "bytes32",
          "name": "role",
          "type": "bytes32"
        },
        {
          "indexed": true,
          "internalType": "address",
          "name": "account",
          "type": "address"
        },
        {
          "indexed": true,
          "internalType": "address",
          "name": "sender",
          "type": "address"
        }
      ],
      "name": "RoleRevoked",
      "type": "event"
    },
    {
      "anonymous": false,
      "inputs": [
        {
          "indexed": true,
          "internalType": "uint256",
          "name": "itemNumber",
          "type": "uint256"
        },
        {
          "indexed": false,
          "internalType": "uint256",
          "name": "bidAmount",
          "type": "uint256"
        },
        {
          "indexed": true,
          "internalType": "address",
          "name": "winner",
          "type": "address"
        },
        {
          "indexed": true,
          "internalType": "address",
          "name": "seller",
          "type": "address"
        },
        {
          "indexed": false,
          "internalType": "uint256[]",
          "name": "tokenIds",
          "type": "uint256[]"
        }
      ],
      "name": "Settled",
      "type": "event"
    },
    {
      "anonymous": false,
      "inputs": [
        {
          "indexed": false,
          "internalType": "address",
          "name": "account",
          "type": "address"
        }
      ],
      "name": "Unpaused",
      "type": "event"
    },
    {
      "stateMutability": "payable",
      "type": "fallback"
    },
    {
      "inputs": [],
      "name": "DEFAULT_ADMIN_ROLE",
      "outputs": [
        {
          "internalType": "bytes32",
          "name": "",
          "type": "bytes32"
        }
      ],
      "stateMutability": "view",
      "type": "function"
    },
    {
      "inputs": [
        {
          "internalType": "uint256",
          "name": "",
          "type": "uint256"
        }
      ],
      "name": "Items",
      "outputs": [
        {
          "internalType": "uint256",
          "name": "auctionEnd",
          "type": "uint256"
        },
        {
          "internalType": "uint256",
          "name": "minPrice",
          "type": "uint256"
        },
        {
          "internalType": "address",
          "name": "saleToken",
          "type": "address"
        },
        {
          "internalType": "address",
          "name": "nftToken",
          "type": "address"
        },
        {
          "internalType": "address",
          "name": "seller",
          "type": "address"
        },
        {
          "internalType": "address",
          "name": "highestBidder",
          "type": "address"
        },
        {
          "internalType": "uint256",
          "name": "highestBid",
          "type": "uint256"
        }
      ],
      "stateMutability": "view",
      "type": "function"
    },
    {
      "inputs": [
        {
          "internalType": "uint256",
          "name": "itemNumber",
          "type": "uint256"
        },
        {
          "internalType": "uint256",
          "name": "bidAmount",
          "type": "uint256"
        }
      ],
      "name": "bid",
      "outputs": [],
      "stateMutability": "payable",
      "type": "function"
    },
    {
      "inputs": [
        {
          "internalType": "uint256",
          "name": "_creatorFee",
          "type": "uint256"
        }
      ],
      "name": "changeCreatorFee",
      "outputs": [],
      "stateMutability": "nonpayable",
      "type": "function"
    },
    {
      "inputs": [
        {
          "internalType": "address",
          "name": "_dollarZoombies",
          "type": "address"
        }
      ],
      "name": "changeDollarZoombiesAddress",
      "outputs": [],
      "stateMutability": "nonpayable",
      "type": "function"
    },
    {
      "inputs": [
        {
          "internalType": "uint256",
          "name": "_maxAuctionTime",
          "type": "uint256"
        }
      ],
      "name": "changeMaxAuctionTime",
      "outputs": [],
      "stateMutability": "nonpayable",
      "type": "function"
    },
    {
      "inputs": [
        {
          "internalType": "uint256",
          "name": "_maxNFTCount",
          "type": "uint256"
        }
      ],
      "name": "changeMaxNFTCount",
      "outputs": [],
      "stateMutability": "nonpayable",
      "type": "function"
    },
    {
      "inputs": [
        {
          "internalType": "uint256",
          "name": "_zoombiesFee",
          "type": "uint256"
        }
      ],
      "name": "changeZoombiesFee",
      "outputs": [],
      "stateMutability": "nonpayable",
      "type": "function"
    },
    {
      "inputs": [],
      "name": "creatorFee",
      "outputs": [
        {
          "internalType": "uint256",
          "name": "",
          "type": "uint256"
        }
      ],
      "stateMutability": "view",
      "type": "function"
    },
    {
      "inputs": [],
      "name": "dollarZoombies",
      "outputs": [
        {
          "internalType": "address",
          "name": "",
          "type": "address"
        }
      ],
      "stateMutability": "view",
      "type": "function"
    },
    {
      "inputs": [
        {
          "internalType": "uint256",
          "name": "itemNumber",
          "type": "uint256"
        }
      ],
      "name": "getListItem",
      "outputs": [
        {
          "components": [
            {
              "internalType": "uint256",
              "name": "auctionEnd",
              "type": "uint256"
            },
            {
              "internalType": "uint256",
              "name": "minPrice",
              "type": "uint256"
            },
            {
              "internalType": "address",
              "name": "saleToken",
              "type": "address"
            },
            {
              "internalType": "address",
              "name": "nftToken",
              "type": "address"
            },
            {
              "internalType": "address",
              "name": "seller",
              "type": "address"
            },
            {
              "internalType": "address",
              "name": "highestBidder",
              "type": "address"
            },
            {
              "internalType": "uint256",
              "name": "highestBid",
              "type": "uint256"
            },
            {
              "internalType": "uint256[]",
              "name": "tokenIds",
              "type": "uint256[]"
            }
          ],
          "internalType": "struct ZoombiesMarketPlace.Item",
          "name": "item",
          "type": "tuple"
        }
      ],
      "stateMutability": "view",
      "type": "function"
    },
    {
      "inputs": [
        {
          "internalType": "bytes32",
          "name": "role",
          "type": "bytes32"
        }
      ],
      "name": "getRoleAdmin",
      "outputs": [
        {
          "internalType": "bytes32",
          "name": "",
          "type": "bytes32"
        }
      ],
      "stateMutability": "view",
      "type": "function"
    },
    {
      "inputs": [
        {
          "internalType": "bytes32",
          "name": "role",
          "type": "bytes32"
        },
        {
          "internalType": "address",
          "name": "account",
          "type": "address"
        }
      ],
      "name": "grantRole",
      "outputs": [],
      "stateMutability": "nonpayable",
      "type": "function"
    },
    {
      "inputs": [
        {
          "internalType": "bytes32",
          "name": "role",
          "type": "bytes32"
        },
        {
          "internalType": "address",
          "name": "account",
          "type": "address"
        }
      ],
      "name": "hasRole",
      "outputs": [
        {
          "internalType": "bool",
          "name": "",
          "type": "bool"
        }
      ],
      "stateMutability": "view",
      "type": "function"
    },
    {
      "inputs": [],
      "name": "itemCount",
      "outputs": [
        {
          "internalType": "uint256",
          "name": "",
          "type": "uint256"
        }
      ],
      "stateMutability": "view",
      "type": "function"
    },
    {
      "inputs": [
        {
          "internalType": "uint256",
          "name": "auctionEnd",
          "type": "uint256"
        },
        {
          "internalType": "uint256",
          "name": "minPrice",
          "type": "uint256"
        },
        {
          "internalType": "uint256[]",
          "name": "tokenIds",
          "type": "uint256[]"
        },
        {
          "internalType": "address",
          "name": "nftToken",
          "type": "address"
        },
        {
          "internalType": "address",
          "name": "saleToken",
          "type": "address"
        }
      ],
      "name": "listItem",
      "outputs": [],
      "stateMutability": "payable",
      "type": "function"
    },
    {
      "inputs": [],
      "name": "maxAuctionTime",
      "outputs": [
        {
          "internalType": "uint256",
          "name": "",
          "type": "uint256"
        }
      ],
      "stateMutability": "view",
      "type": "function"
    },
    {
      "inputs": [],
      "name": "maxNFTCount",
      "outputs": [
        {
          "internalType": "uint256",
          "name": "",
          "type": "uint256"
        }
      ],
      "stateMutability": "view",
      "type": "function"
    },
    {
      "inputs": [
        {
          "internalType": "address",
          "name": "",
          "type": "address"
        }
      ],
      "name": "nftWhitelist",
      "outputs": [
        {
          "internalType": "bool",
          "name": "",
          "type": "bool"
        }
      ],
      "stateMutability": "view",
      "type": "function"
    },
    {
      "inputs": [
        {
          "internalType": "address",
          "name": "",
          "type": "address"
        },
        {
          "internalType": "address",
          "name": "",
          "type": "address"
        },
        {
          "internalType": "uint256",
          "name": "",
          "type": "uint256"
        },
        {
          "internalType": "bytes",
          "name": "",
          "type": "bytes"
        }
      ],
      "name": "onERC721Received",
      "outputs": [
        {
          "internalType": "bytes4",
          "name": "",
          "type": "bytes4"
        }
      ],
      "stateMutability": "nonpayable",
      "type": "function"
    },
    {
      "inputs": [
        {
          "internalType": "uint256",
          "name": "",
          "type": "uint256"
        }
      ],
      "name": "originalOwner",
      "outputs": [
        {
          "internalType": "address",
          "name": "",
          "type": "address"
        }
      ],
      "stateMutability": "view",
      "type": "function"
    },
    {
      "inputs": [],
      "name": "pause",
      "outputs": [],
      "stateMutability": "nonpayable",
      "type": "function"
    },
    {
      "inputs": [],
      "name": "paused",
      "outputs": [
        {
          "internalType": "bool",
          "name": "",
          "type": "bool"
        }
      ],
      "stateMutability": "view",
      "type": "function"
    },
    {
      "inputs": [
        {
          "internalType": "bytes32",
          "name": "role",
          "type": "bytes32"
        },
        {
          "internalType": "address",
          "name": "account",
          "type": "address"
        }
      ],
      "name": "renounceRole",
      "outputs": [],
      "stateMutability": "nonpayable",
      "type": "function"
    },
    {
      "inputs": [
        {
          "internalType": "bytes32",
          "name": "role",
          "type": "bytes32"
        },
        {
          "internalType": "address",
          "name": "account",
          "type": "address"
        }
      ],
      "name": "revokeRole",
      "outputs": [],
      "stateMutability": "nonpayable",
      "type": "function"
    },
    {
      "inputs": [
        {
          "internalType": "uint256",
          "name": "itemNumber",
          "type": "uint256"
        }
      ],
      "name": "settle",
      "outputs": [],
      "stateMutability": "nonpayable",
      "type": "function"
    },
    {
      "inputs": [
        {
          "internalType": "bytes4",
          "name": "interfaceId",
          "type": "bytes4"
        }
      ],
      "name": "supportsInterface",
      "outputs": [
        {
          "internalType": "bool",
          "name": "",
          "type": "bool"
        }
      ],
      "stateMutability": "view",
      "type": "function"
    },
    {
      "inputs": [
        {
          "internalType": "address",
          "name": "",
          "type": "address"
        }
      ],
      "name": "tokenWhitelist",
      "outputs": [
        {
          "internalType": "bool",
          "name": "",
          "type": "bool"
        }
      ],
      "stateMutability": "view",
      "type": "function"
    },
    {
      "inputs": [],
      "name": "unpause",
      "outputs": [],
      "stateMutability": "nonpayable",
      "type": "function"
    },
    {
      "inputs": [
        {
          "internalType": "address",
          "name": "token",
          "type": "address"
        },
        {
          "internalType": "bool",
          "name": "isWhitelisted",
          "type": "bool"
        }
      ],
      "name": "whitelistNFTToken",
      "outputs": [],
      "stateMutability": "nonpayable",
      "type": "function"
    },
    {
      "inputs": [
        {
          "internalType": "address",
          "name": "token",
          "type": "address"
        },
        {
          "internalType": "bool",
          "name": "isWhitelisted",
          "type": "bool"
        }
      ],
      "name": "whitelistToken",
      "outputs": [],
      "stateMutability": "nonpayable",
      "type": "function"
    },
    {
      "inputs": [],
      "name": "zoombiesFee",
      "outputs": [
        {
          "internalType": "uint256",
          "name": "",
          "type": "uint256"
        }
      ],
      "stateMutability": "view",
      "type": "function"
    }
  ],
  "bytecode": "0x60806040523480156200001157600080fd5b5060405162002d9d38038062002d9d8339810160408190526200003491620001e8565b600160009081556002805460ff1916905560056004819055600381905580546001600160a01b031916339081179091556212750060065560ff6007556200007c9190620000af565b62000089600080620000bf565b600b80546001600160a01b0319166001600160a01b039290921691909117905562000218565b620000bb828262000116565b5050565b6000620000cc83620001a3565b6000848152600160208190526040808320909101859055519192508391839186917fbd79b86ffe0ab8e8776151514217cd7cacd52c909f66475c3af44e129f0b00ff9190a4505050565b620001228282620001b9565b620000bb5760008281526001602081815260408084206001600160a01b0386168552909152909120805460ff191690911790556200015f620001e4565b6001600160a01b0316816001600160a01b0316837f2f8788117e7eff1d82e926ec794901d17c78024a50270940304540a733656f0d60405160405180910390a45050565b6000908152600160208190526040909120015490565b60009182526001602090815260408084206001600160a01b0393909316845291905290205460ff1690565b3390565b600060208284031215620001fa578081fd5b81516001600160a01b038116811462000211578182fd5b9392505050565b612b7580620002286000396000f3fe6080604052600436106101e35760003560e01c8063753d756311610102578063a217fddf11610095578063d547741f11610064578063d547741f14610550578063e3c55e4014610570578063e88958dc14610590578063f64989fe146105a5576101e3565b8063a217fddf146104e8578063a29b549a146104fd578063a7f56c641461051d578063d08b18671461053d576101e3565b80638667f748116100d15780638667f74814610473578063869e7ebb146104885780638df82800146104a857806391d14854146104c8576101e3565b8063753d75631461040957806377e716371461042957806382f16cea1461043e5780638456cb591461045e576101e3565b80633f4ba83a1161017a578063598647f811610149578063598647f81461039f5780635c975abb146103b25780636597441e146103c75780636bfb0d01146103f4576101e3565b80633f4ba83a1461032857806340bb154d1461033d57806346b31b6e1461036a578063518b057e1461038a576101e3565b806317b47cc4116101b657806317b47cc414610288578063248a9ca3146102bb5780632f2ff15d146102e857806336568abe14610308576101e3565b806301ffc9a7146101e55780630feb2d101461021b5780630ffb1d8b1461023b578063150b7a021461025b575b005b3480156101f157600080fd5b506102056102003660046120a3565b6105ba565b60405161021291906123b9565b60405180910390f35b34801561022757600080fd5b506101e361023636600461200e565b6105e7565b34801561024757600080fd5b506101e361025636600461200e565b610642565b34801561026757600080fd5b5061027b610276366004611f56565b610694565b60405161021291906123cd565b34801561029457600080fd5b506102a86102a3366004612060565b6106a4565b60405161021297969594939291906129d4565b3480156102c757600080fd5b506102db6102d6366004612060565b6106f2565b60405161021291906123c4565b3480156102f457600080fd5b506101e3610303366004612078565b610708565b34801561031457600080fd5b506101e3610323366004612078565b610731565b34801561033457600080fd5b506101e3610777565b34801561034957600080fd5b5061035d610358366004612060565b6107a8565b60405161021291906122d4565b34801561037657600080fd5b50610205610385366004611f3c565b6107c3565b34801561039657600080fd5b506102db6107d8565b6101e36103ad3660046120cb565b6107de565b3480156103be57600080fd5b50610205610a14565b3480156103d357600080fd5b506103e76103e2366004612060565b610a1d565b604051610212919061294f565b34801561040057600080fd5b506102db610aed565b34801561041557600080fd5b50610205610424366004611f3c565b610af3565b34801561043557600080fd5b5061035d610b08565b34801561044a57600080fd5b506101e3610459366004612060565b610b17565b34801561046a57600080fd5b506101e3610b64565b34801561047f57600080fd5b506102db610b93565b34801561049457600080fd5b506101e36104a3366004612060565b610b99565b3480156104b457600080fd5b506101e36104c3366004612060565b610bf0565b3480156104d457600080fd5b506102056104e3366004612078565b610c29565b3480156104f457600080fd5b506102db610c54565b34801561050957600080fd5b506101e3610518366004611f3c565b610c59565b34801561052957600080fd5b506101e3610538366004612060565b610ca2565b6101e361054b3660046120ec565b610d00565b34801561055c57600080fd5b506101e361056b366004612078565b611030565b34801561057c57600080fd5b506101e361058b366004612060565b61104f565b34801561059c57600080fd5b506102db6110a6565b3480156105b157600080fd5b506102db6110ac565b60006001600160e01b03198216637965db0b60e01b14806105df57506105df826110b2565b90505b919050565b6105f2600033610c29565b6106175760405162461bcd60e51b815260040161060e90612680565b60405180910390fd5b6001600160a01b03919091166000908152600960205260409020805460ff1916911515919091179055565b61064d600033610c29565b6106695760405162461bcd60e51b815260040161060e90612680565b6001600160a01b03919091166000908152600860205260409020805460ff1916911515919091179055565b630a85bd0160e11b949350505050565b600c602052600090815260409020805460018201546002830154600384015460048501546005860154600690960154949593946001600160a01b039384169492841693918216929091169087565b6000908152600160208190526040909120015490565b610711826106f2565b6107228161071d6110cb565b6110cf565b61072c8383611133565b505050565b6107396110cb565b6001600160a01b0316816001600160a01b0316146107695760405162461bcd60e51b815260040161060e906128bc565b61077382826111bb565b5050565b610782600033610c29565b61079e5760405162461bcd60e51b815260040161060e90612680565b6107a6611240565b565b600a602052600090815260409020546001600160a01b031681565b60096020526000908152604090205460ff1681565b60065481565b600260005414156108015760405162461bcd60e51b815260040161060e9061284e565b600260005534158061081257503481145b61082e5760405162461bcd60e51b815260040161060e906124f7565b6000828152600c60205260409020600401546001600160a01b03166108655760405162461bcd60e51b815260040161060e90612817565b6000828152600c60205260409020600101548110156108965760405162461bcd60e51b815260040161060e90612701565b6000828152600c60205260409020600601548110156108c75760405162461bcd60e51b815260040161060e90612567565b6000828152600c6020526040902054421115806108f057506000828152600c6020526040902054155b61090c5760405162461bcd60e51b815260040161060e90612491565b6000828152600c6020526040902060020154610931906001600160a01b0316826112ae565b6000828152600c60205260409020600501546001600160a01b031615610985576000828152600c6020526040902060068101546005820154600290920154610985926001600160a01b03908116911661134a565b6000828152600c60205260409020600681018290556005810180546001600160a01b03191633179055546109bc576109bc82611410565b6000828152600c6020526040908190209051339184917fc89dda33c6731f44e0ceaac4cdf122cc34f130dda4f2f2ace0630db3b6a0cafd91610a03918691600701906123e2565b60405180910390a350506001600055565b60025460ff1690565b610a25611e3b565b6000828152600c60209081526040918290208251610100810184528154815260018201548184015260028201546001600160a01b039081168286015260038301548116606083015260048301548116608083015260058301541660a0820152600682015460c08201526007820180548551818602810186019096528086529194929360e08601939290830182828015610add57602002820191906000526020600020905b815481526020019060010190808311610ac9575b5050505050815250509050919050565b600d5481565b60086020526000908152604090205460ff1681565b6005546001600160a01b031681565b610b22600033610c29565b610b3e5760405162461bcd60e51b815260040161060e90612680565b6001811015610b5f5760405162461bcd60e51b815260040161060e9061259e565b600755565b610b6f600033610c29565b610b8b5760405162461bcd60e51b815260040161060e90612680565b6107a66117aa565b60045481565b610ba4600033610c29565b610bc05760405162461bcd60e51b815260040161060e90612680565b60148111158015610bcf575060015b610beb5760405162461bcd60e51b815260040161060e90612738565b600455565b60026000541415610c135760405162461bcd60e51b815260040161060e9061284e565b6002600055610c2181611410565b506001600055565b60009182526001602090815260408084206001600160a01b0393909316845291905290205460ff1690565b600081565b610c64600033610c29565b610c805760405162461bcd60e51b815260040161060e90612680565b600580546001600160a01b0319166001600160a01b0392909216919091179055565b610cad600033610c29565b610cc95760405162461bcd60e51b815260040161060e90612680565b6224ea008111158015610cdf5750621275008110155b610cfb5760405162461bcd60e51b815260040161060e90612738565b600655565b60026000541415610d235760405162461bcd60e51b815260040161060e9061284e565b6002600055610d30610a14565b15610d4d5760405162461bcd60e51b815260040161060e90612656565b610d578333611805565b600654610d659042906118dc565b851115610d845760405162461bcd60e51b815260040161060e906124c0565b6001600160a01b03811660009081526008602052604090205460ff16610dbc5760405162461bcd60e51b815260040161060e90612521565b6001600160a01b03821660009081526009602052604090205460ff16610df45760405162461bcd60e51b815260040161060e9061290b565b6000835111610e155760405162461bcd60e51b815260040161060e906126ca565b600754835110610e375760405162461bcd60e51b815260040161060e90612611565b604080516101008101825286815260208082018781526001600160a01b03808616848601908152878216606086019081523360808701908152600060a0880181815260c0890182815260e08a018e8152600d548452600c8a529a909220895181559651600188015593516002870180549187166001600160a01b03199283161790559251600387018054918716918516919091179055905160048601805491861691841691909117905591516005850180549190941691161790915551600682015592518051929392610f109260078501920190611ea4565b5090505060005b8351811015610fbc57826001600160a01b031663b88d4fde3330878581518110610f5157634e487b7160e01b600052603260045260246000fd5b60200260200101516040518463ffffffff1660e01b8152600401610f779392919061230c565b600060405180830381600087803b158015610f9157600080fd5b505af1158015610fa5573d6000803e3d6000fd5b505050508080610fb490612aea565b915050610f17565b50816001600160a01b0316336001600160a01b0316600d547f49a0f7a97c8cd1b302476ffbc4674e9a18df22025b74206a13b7cd605c5a98cf86858960405161100793929190612363565b60405180910390a4600d805490600061101f83612aea565b909155505060016000555050505050565b611039826106f2565b6110458161071d6110cb565b61072c83836111bb565b61105a600033610c29565b6110765760405162461bcd60e51b815260040161060e90612680565b60148111158015611085575060015b6110a15760405162461bcd60e51b815260040161060e90612738565b600355565b60035481565b60075481565b6001600160e01b031981166301ffc9a760e01b14919050565b3390565b6110d98282610c29565b610773576110f1816001600160a01b031660146118ef565b6110fc8360206118ef565b60405160200161110d92919061225f565b60408051601f198184030181529082905262461bcd60e51b825261060e916004016123fb565b61113d8282610c29565b6107735760008281526001602081815260408084206001600160a01b0386168552909152909120805460ff191690911790556111776110cb565b6001600160a01b0316816001600160a01b0316837f2f8788117e7eff1d82e926ec794901d17c78024a50270940304540a733656f0d60405160405180910390a45050565b6111c58282610c29565b156107735760008281526001602090815260408083206001600160a01b03851684529091529020805460ff191690556111fc6110cb565b6001600160a01b0316816001600160a01b0316837ff6391f5c32d9c69d2a47ea670b442974b53935d1edc7fd64eb21e047a839171b60405160405180910390a45050565b611248610a14565b6112645760405162461bcd60e51b815260040161060e90612463565b6002805460ff191690557f5db9ee0a495bf2e6ff9c91a7834c1ba4fdd244a5e8aa4e537bd38aeae4b073aa6112976110cb565b6040516112a491906122d4565b60405180910390a1565b34158015906112ca5750600b546001600160a01b038381169116145b1561133d57600b60009054906101000a90046001600160a01b03166001600160a01b031663d0e30db0346040518263ffffffff1660e01b81526004016000604051808303818588803b15801561131f57600080fd5b505af1158015611333573d6000803e3d6000fd5b5050505050610773565b8161072c81333085611aa1565b600b546001600160a01b03828116911614156113fe57600b54604051632e1a7d4d60e01b81526001600160a01b0390911690632e1a7d4d906113909086906004016123c4565b600060405180830381600087803b1580156113aa57600080fd5b505af11580156113be573d6000803e3d6000fd5b50506040516001600160a01b038516925085156108fc02915085906000818181858888f193505050501580156113f8573d6000803e3d6000fd5b5061072c565b8061140a818486611af9565b50505050565b6000818152600c602052604090205442101561143e5760405162461bcd60e51b815260040161060e90612885565b6000818152600c60205260409020600501546001600160a01b031633148061147f57506000818152600c60205260409020600401546001600160a01b031633145b61149b5760405162461bcd60e51b815260040161060e90612796565b6000818152600c60205260409020600601546115f55760005b6000828152600c602052604090206007015481101561158f576000828152600c6020526040902060038101546004820154600790920180546001600160a01b039283169363b88d4fde9330939116918690811061152157634e487b7160e01b600052603260045260246000fd5b90600052602060002001546040518463ffffffff1660e01b815260040161154a9392919061230c565b600060405180830381600087803b15801561156457600080fd5b505af1158015611578573d6000803e3d6000fd5b50505050808061158790612aea565b9150506114b4565b506000818152600c6020526040808220600481015491516001600160a01b03909216929184917ff3392b8c642ed07dd5bf912c1bd3883a810e5c9076c8d275a621c9220138ad26916115e89185916007909101906123e2565b60405180910390a4611749565b60005b6000828152600c60205260409020600701548110156116d3576000828152600c6020526040902060038101546005820154600790920180546001600160a01b039283169363b88d4fde9330939116918690811061166557634e487b7160e01b600052603260045260246000fd5b90600052602060002001546040518463ffffffff1660e01b815260040161168e9392919061230c565b600060405180830381600087803b1580156116a857600080fd5b505af11580156116bc573d6000803e3d6000fd5b5050505080806116cb90612aea565b9150506115f8565b506116dd81611b18565b6000818152600c60205260409081902060048101546005820154600683015493516001600160a01b0392831694929091169285927ff3392b8c642ed07dd5bf912c1bd3883a810e5c9076c8d275a621c9220138ad269261174092600701906123e2565b60405180910390a45b6000818152600c60205260408120818155600181018290556002810180546001600160a01b031990811690915560038201805482169055600482018054821690556005820180549091169055600681018290559061072c6007830182611eef565b6117b2610a14565b156117cf5760405162461bcd60e51b815260040161060e90612656565b6002805460ff191660011790557f62e78cea01bee320cd4e420270b5ea74000d11b0c9f74754ebdbfc544b05a2586112976110cb565b60005b825181101561072c5760006001600160a01b0316600a600085848151811061184057634e487b7160e01b600052603260045260246000fd5b6020908102919091018101518252810191909152604001600020546001600160a01b031614156118ca5781600a600085848151811061188f57634e487b7160e01b600052603260045260246000fd5b6020026020010151815260200190815260200160002060006101000a8154816001600160a01b0302191690836001600160a01b031602179055505b806118d481612aea565b915050611808565b60006118e88284612a39565b9392505050565b606060006118fe836002612a71565b611909906002612a39565b67ffffffffffffffff81111561192f57634e487b7160e01b600052604160045260246000fd5b6040519080825280601f01601f191660200182016040528015611959576020820181803683370190505b509050600360fc1b8160008151811061198257634e487b7160e01b600052603260045260246000fd5b60200101906001600160f81b031916908160001a905350600f60fb1b816001815181106119bf57634e487b7160e01b600052603260045260246000fd5b60200101906001600160f81b031916908160001a90535060006119e3846002612a71565b6119ee906001612a39565b90505b6001811115611a82576f181899199a1a9b1b9c1cb0b131b232b360811b85600f1660108110611a3057634e487b7160e01b600052603260045260246000fd5b1a60f81b828281518110611a5457634e487b7160e01b600052603260045260246000fd5b60200101906001600160f81b031916908160001a90535060049490941c93611a7b81612ad3565b90506119f1565b5083156118e85760405162461bcd60e51b815260040161060e9061242e565b61140a846323b872dd60e01b858585604051602401611ac2939291906122e8565b60408051601f198184030181529190526020810180516001600160e01b03166001600160e01b031990931692909217909152611c72565b61072c8363a9059cbb60e01b8484604051602401611ac292919061234a565b6004546000828152600c60205260408120600601549091611b4691606491611b409190611d01565b90611d0d565b6003546000848152600c602052604081206006015492935091611b6f91606491611b4091611d01565b6000848152600c602052604081206006015491925090611b9b908390611b959086611d19565b90611d19565b6005546000868152600c6020526040902060020154919250611bcb9185916001600160a01b03908116911661134a565b6000848152600c602052604081206007018054611c41928592600a928290611c0357634e487b7160e01b600052603260045260246000fd5b60009182526020808320909101548352828101939093526040918201812054898252600c90935220600201546001600160a01b03918216911661134a565b6000848152600c60205260409020600481015460029091015461140a9183916001600160a01b03918216911661134a565b6000611cc7826040518060400160405280602081526020017f5361666545524332303a206c6f772d6c6576656c2063616c6c206661696c6564815250856001600160a01b0316611d259092919063ffffffff16565b80519091501561072c5780806020019051810190611ce59190612044565b61072c5760405162461bcd60e51b815260040161060e906127cd565b60006118e88284612a71565b60006118e88284612a51565b60006118e88284612a90565b6060611d348484600085611d3c565b949350505050565b606082471015611d5e5760405162461bcd60e51b815260040161060e906125cb565b611d6785611dfc565b611d835760405162461bcd60e51b815260040161060e9061275f565b600080866001600160a01b03168587604051611d9f9190612243565b60006040518083038185875af1925050503d8060008114611ddc576040519150601f19603f3d011682016040523d82523d6000602084013e611de1565b606091505b5091509150611df1828286611e02565b979650505050505050565b3b151590565b60608315611e115750816118e8565b825115611e215782518084602001fd5b8160405162461bcd60e51b815260040161060e91906123fb565b604051806101000160405280600081526020016000815260200160006001600160a01b0316815260200160006001600160a01b0316815260200160006001600160a01b0316815260200160006001600160a01b0316815260200160008152602001606081525090565b828054828255906000526020600020908101928215611edf579160200282015b82811115611edf578251825591602001919060010190611ec4565b50611eeb929150611f10565b5090565b5080546000825590600052602060002090810190611f0d9190611f10565b50565b5b80821115611eeb5760008155600101611f11565b80356001600160a01b03811681146105e257600080fd5b600060208284031215611f4d578081fd5b6118e882611f25565b60008060008060808587031215611f6b578283fd5b611f7485611f25565b93506020611f83818701611f25565b935060408601359250606086013567ffffffffffffffff80821115611fa6578384fd5b818801915088601f830112611fb9578384fd5b813581811115611fcb57611fcb612b1b565b611fdd601f8201601f19168501612a0f565b91508082528984828501011115611ff2578485fd5b8084840185840137810190920192909252939692955090935050565b60008060408385031215612020578182fd5b61202983611f25565b9150602083013561203981612b31565b809150509250929050565b600060208284031215612055578081fd5b81516118e881612b31565b600060208284031215612071578081fd5b5035919050565b6000806040838503121561208a578182fd5b8235915061209a60208401611f25565b90509250929050565b6000602082840312156120b4578081fd5b81356001600160e01b0319811681146118e8578182fd5b600080604083850312156120dd578182fd5b50508035926020909101359150565b600080600080600060a08688031215612103578081fd5b853594506020808701359450604087013567ffffffffffffffff80821115612129578384fd5b818901915089601f83011261213c578384fd5b81358181111561214e5761214e612b1b565b838102915061215e848301612a0f565b8181528481019084860184860187018e1015612178578788fd5b8795505b8386101561219a57803583526001959095019491860191860161217c565b508098505050505050506121b060608701611f25565b91506121be60808701611f25565b90509295509295909350565b6001600160a01b03169052565b6000815180845260208085019450808401835b83811015612206578151875295820195908201906001016121ea565b509495945050505050565b6000815480845260208085019450838352808320835b8381101561220657815487529582019560019182019101612227565b60008251612255818460208701612aa7565b9190910192915050565b60007f416363657373436f6e74726f6c3a206163636f756e742000000000000000000082528351612297816017850160208801612aa7565b7001034b99036b4b9b9b4b733903937b6329607d1b60179184019182015283516122c8816028840160208801612aa7565b01602801949350505050565b6001600160a01b0391909116815260200190565b6001600160a01b039384168152919092166020820152604081019190915260600190565b6001600160a01b039384168152919092166020820152604081019190915260806060820181905260029082015261060f60f31b60a082015260c00190565b6001600160a01b03929092168252602082015260400190565b606080825284519082018190526000906020906080840190828801845b8281101561239c57815184529284019290840190600101612380565b5050506001600160a01b0395909516908301525060400152919050565b901515815260200190565b90815260200190565b6001600160e01b031991909116815260200190565b600083825260406020830152611d346040830184612211565b600060208252825180602084015261241a816040850160208701612aa7565b601f01601f19169190910160400192915050565b6020808252818101527f537472696e67733a20686578206c656e67746820696e73756666696369656e74604082015260600190565b60208082526014908201527314185d5cd8589b194e881b9bdd081c185d5cd95960621b604082015260600190565b60208082526015908201527413585c9ad95d0e88185d58dd1a5bdb88195b991959605a1b604082015260600190565b60208082526018908201527f4d61726b65743a2061756374696f6e20746f6f206c6f6e670000000000000000604082015260600190565b60208082526010908201526f09ac2e4d6cae874409ad2e6dac2e8c6d60831b604082015260600190565b60208082526026908201527f4d61726b65743a20455243323020636f6e7472616374206e6f742077686974656040820152651b1a5cdd195960d21b606082015260800190565b6020808252601d908201527f4d61726b65743a2062696420756e646572206869676865737420626964000000604082015260600190565b6020808252601390820152721a5b9d985b1a590813585e13919510dbdd5b9d606a1b604082015260600190565b60208082526026908201527f416464726573733a20696e73756666696369656e742062616c616e636520666f6040820152651c8818d85b1b60d21b606082015260800190565b60208082526025908201527f4d61726b65743a20746f6b656e20636f756e742065786365656473206d61782060408201526418dbdd5b9d60da1b606082015260800190565b60208082526010908201526f14185d5cd8589b194e881c185d5cd95960821b604082015260600190565b6020808252602a908201527f5a6f6f6d626965734e46543a205573657220646f6573206e6f7420686176652060408201526961646d696e20726f6c6560b01b606082015260800190565b6020808252601f908201527f4d61726b65743a2073656c656374206174206c65617374203120746f6b656e00604082015260600190565b6020808252601b908201527f4d61726b65743a2062696420756e646572206d696e2070726963650000000000604082015260600190565b6020808252600d908201526c6e6f7420696e20626f756e647360981b604082015260600190565b6020808252601d908201527f416464726573733a2063616c6c20746f206e6f6e2d636f6e7472616374000000604082015260600190565b6020808252601c908201527f4d61726b65743a206e6f7420626964646572206f722073656c6c657200000000604082015260600190565b6020808252602a908201527f5361666545524332303a204552433230206f7065726174696f6e20646964206e6040820152691bdd081cdd58d8d9595960b21b606082015260800190565b60208082526018908201527f4d61726b65743a204e6f6e206578697374696e67206269640000000000000000604082015260600190565b6020808252601f908201527f5265656e7472616e637947756172643a207265656e7472616e742063616c6c00604082015260600190565b60208082526019908201527f4d61726b65743a2061756374696f6e206e6f7420656e64656400000000000000604082015260600190565b6020808252602f908201527f416363657373436f6e74726f6c3a2063616e206f6e6c792072656e6f756e636560408201526e103937b632b9903337b91039b2b63360891b606082015260800190565b60208082526024908201527f4d61726b65743a204e465420636f6e7472616374206e6f742077686974656c696040820152631cdd195960e21b606082015260800190565b6000602082528251602083015260208301516040830152604083015160018060a01b0380821660608501528060608601511660808501525050608083015161299a60a08401826121ca565b5060a08301516129ad60c08401826121ca565b5060c083015160e083015260e0830151610100808185015250611d346101208401826121d7565b96875260208701959095526001600160a01b0393841660408701529183166060860152821660808501521660a083015260c082015260e00190565b60405181810167ffffffffffffffff81118282101715612a3157612a31612b1b565b604052919050565b60008219821115612a4c57612a4c612b05565b500190565b600082612a6c57634e487b7160e01b81526012600452602481fd5b500490565b6000816000190483118215151615612a8b57612a8b612b05565b500290565b600082821015612aa257612aa2612b05565b500390565b60005b83811015612ac2578181015183820152602001612aaa565b8381111561140a5750506000910152565b600081612ae257612ae2612b05565b506000190190565b6000600019821415612afe57612afe612b05565b5060010190565b634e487b7160e01b600052601160045260246000fd5b634e487b7160e01b600052604160045260246000fd5b8015158114611f0d57600080fdfea26469706673582212209e3f4166a060ecdbb075f9e545ab8f6ee407e3e13fc81adaf7c01015988f146564736f6c63430008000033",
  "linkReferences": {},
  "deployedLinkReferences": {}
}