{
  "_format": "hh-sol-artifact-1",
  "contractName": "ZoombiesMarketPlace",
  "sourceName": "contracts/ZoombiesMarketplace.sol",
  "abi": [
    {
      "inputs": [
        {
          "internalType": "address payable",
          "name": "xMovr",
          "type": "address"
        }
      ],
      "stateMutability": "nonpayable",
      "type": "constructor"
    },
    {
      "anonymous": false,
      "inputs": [
        {
          "indexed": true,
          "internalType": "uint256",
          "name": "itemNumber",
          "type": "uint256"
        },
        {
          "indexed": false,
          "internalType": "uint256",
          "name": "bidAmount",
          "type": "uint256"
        },
        {
          "indexed": true,
          "internalType": "address",
          "name": "bidder",
          "type": "address"
        },
        {
          "indexed": false,
          "internalType": "uint256[]",
          "name": "tokenIds",
          "type": "uint256[]"
        }
      ],
      "name": "Bid",
      "type": "event"
    },
    {
      "anonymous": false,
      "inputs": [
        {
          "indexed": true,
          "internalType": "uint256",
          "name": "itemNumber",
          "type": "uint256"
        },
        {
          "indexed": false,
          "internalType": "uint256",
          "name": "auctionEnd",
          "type": "uint256"
        },
        {
          "indexed": true,
          "internalType": "address",
          "name": "seller",
          "type": "address"
        },
        {
          "indexed": false,
          "internalType": "uint256[]",
          "name": "tokenIds",
          "type": "uint256[]"
        },
        {
          "indexed": false,
          "internalType": "address",
          "name": "saleToken",
          "type": "address"
        },
        {
          "indexed": true,
          "internalType": "address",
          "name": "nftToken",
          "type": "address"
        },
        {
          "indexed": false,
          "internalType": "uint256",
          "name": "minPrice",
          "type": "uint256"
        }
      ],
      "name": "ItemListed",
      "type": "event"
    },
    {
      "anonymous": false,
      "inputs": [
        {
          "indexed": false,
          "internalType": "address",
          "name": "account",
          "type": "address"
        }
      ],
      "name": "Paused",
      "type": "event"
    },
    {
      "anonymous": false,
      "inputs": [
        {
          "indexed": true,
          "internalType": "bytes32",
          "name": "role",
          "type": "bytes32"
        },
        {
          "indexed": true,
          "internalType": "bytes32",
          "name": "previousAdminRole",
          "type": "bytes32"
        },
        {
          "indexed": true,
          "internalType": "bytes32",
          "name": "newAdminRole",
          "type": "bytes32"
        }
      ],
      "name": "RoleAdminChanged",
      "type": "event"
    },
    {
      "anonymous": false,
      "inputs": [
        {
          "indexed": true,
          "internalType": "bytes32",
          "name": "role",
          "type": "bytes32"
        },
        {
          "indexed": true,
          "internalType": "address",
          "name": "account",
          "type": "address"
        },
        {
          "indexed": true,
          "internalType": "address",
          "name": "sender",
          "type": "address"
        }
      ],
      "name": "RoleGranted",
      "type": "event"
    },
    {
      "anonymous": false,
      "inputs": [
        {
          "indexed": true,
          "internalType": "bytes32",
          "name": "role",
          "type": "bytes32"
        },
        {
          "indexed": true,
          "internalType": "address",
          "name": "account",
          "type": "address"
        },
        {
          "indexed": true,
          "internalType": "address",
          "name": "sender",
          "type": "address"
        }
      ],
      "name": "RoleRevoked",
      "type": "event"
    },
    {
      "anonymous": false,
      "inputs": [
        {
          "indexed": true,
          "internalType": "uint256",
          "name": "itemNumber",
          "type": "uint256"
        },
        {
          "indexed": false,
          "internalType": "uint256",
          "name": "bidAmount",
          "type": "uint256"
        },
        {
          "indexed": true,
          "internalType": "address",
          "name": "winner",
          "type": "address"
        },
        {
          "indexed": true,
          "internalType": "address",
          "name": "seller",
          "type": "address"
        },
        {
          "indexed": false,
          "internalType": "uint256[]",
          "name": "tokenIds",
          "type": "uint256[]"
        }
      ],
      "name": "Settled",
      "type": "event"
    },
    {
      "anonymous": false,
      "inputs": [
        {
          "indexed": false,
          "internalType": "address",
          "name": "account",
          "type": "address"
        }
      ],
      "name": "Unpaused",
      "type": "event"
    },
    {
      "stateMutability": "payable",
      "type": "fallback"
    },
    {
      "inputs": [],
      "name": "DEFAULT_ADMIN_ROLE",
      "outputs": [
        {
          "internalType": "bytes32",
          "name": "",
          "type": "bytes32"
        }
      ],
      "stateMutability": "view",
      "type": "function"
    },
    {
      "inputs": [
        {
          "internalType": "uint256",
          "name": "",
          "type": "uint256"
        }
      ],
      "name": "Items",
      "outputs": [
        {
          "internalType": "uint256",
          "name": "auctionEnd",
          "type": "uint256"
        },
        {
          "internalType": "uint256",
          "name": "minPrice",
          "type": "uint256"
        },
        {
          "internalType": "address",
          "name": "saleToken",
          "type": "address"
        },
        {
          "internalType": "address",
          "name": "nftToken",
          "type": "address"
        },
        {
          "internalType": "address",
          "name": "seller",
          "type": "address"
        },
        {
          "internalType": "address",
          "name": "highestBidder",
          "type": "address"
        },
        {
          "internalType": "uint256",
          "name": "highestBid",
          "type": "uint256"
        }
      ],
      "stateMutability": "view",
      "type": "function"
    },
    {
      "inputs": [
        {
          "internalType": "uint256",
          "name": "itemNumber",
          "type": "uint256"
        },
        {
          "internalType": "uint256",
          "name": "bidAmount",
          "type": "uint256"
        }
      ],
      "name": "bid",
      "outputs": [],
      "stateMutability": "payable",
      "type": "function"
    },
    {
      "inputs": [
        {
          "internalType": "uint256",
          "name": "_creatorFee",
          "type": "uint256"
        }
      ],
      "name": "changeCreatorFee",
      "outputs": [],
      "stateMutability": "nonpayable",
      "type": "function"
    },
    {
      "inputs": [
        {
          "internalType": "address",
          "name": "_dollarZoombies",
          "type": "address"
        }
      ],
      "name": "changeDollarZoombiesAddress",
      "outputs": [],
      "stateMutability": "nonpayable",
      "type": "function"
    },
    {
      "inputs": [
        {
          "internalType": "uint256",
          "name": "_maxAuctionTime",
          "type": "uint256"
        }
      ],
      "name": "changeMaxAuctionTime",
      "outputs": [],
      "stateMutability": "nonpayable",
      "type": "function"
    },
    {
      "inputs": [
        {
          "internalType": "uint256",
          "name": "_maxNFTCount",
          "type": "uint256"
        }
      ],
      "name": "changeMaxNFTCount",
      "outputs": [],
      "stateMutability": "nonpayable",
      "type": "function"
    },
    {
      "inputs": [
        {
          "internalType": "uint256",
          "name": "_zoombiesFee",
          "type": "uint256"
        }
      ],
      "name": "changeZoombiesFee",
      "outputs": [],
      "stateMutability": "nonpayable",
      "type": "function"
    },
    {
      "inputs": [],
      "name": "creatorFee",
      "outputs": [
        {
          "internalType": "uint256",
          "name": "",
          "type": "uint256"
        }
      ],
      "stateMutability": "view",
      "type": "function"
    },
    {
      "inputs": [],
      "name": "dollarZoombies",
      "outputs": [
        {
          "internalType": "address",
          "name": "",
          "type": "address"
        }
      ],
      "stateMutability": "view",
      "type": "function"
    },
    {
      "inputs": [
        {
          "internalType": "uint256",
          "name": "itemNumber",
          "type": "uint256"
        }
      ],
      "name": "getListItem",
      "outputs": [
        {
          "components": [
            {
              "internalType": "uint256",
              "name": "auctionEnd",
              "type": "uint256"
            },
            {
              "internalType": "uint256",
              "name": "minPrice",
              "type": "uint256"
            },
            {
              "internalType": "address",
              "name": "saleToken",
              "type": "address"
            },
            {
              "internalType": "address",
              "name": "nftToken",
              "type": "address"
            },
            {
              "internalType": "address",
              "name": "seller",
              "type": "address"
            },
            {
              "internalType": "address",
              "name": "highestBidder",
              "type": "address"
            },
            {
              "internalType": "uint256",
              "name": "highestBid",
              "type": "uint256"
            },
            {
              "internalType": "uint256[]",
              "name": "tokenIds",
              "type": "uint256[]"
            }
          ],
          "internalType": "struct ZoombiesMarketPlace.Item",
          "name": "item",
          "type": "tuple"
        }
      ],
      "stateMutability": "view",
      "type": "function"
    },
    {
      "inputs": [
        {
          "internalType": "bytes32",
          "name": "role",
          "type": "bytes32"
        }
      ],
      "name": "getRoleAdmin",
      "outputs": [
        {
          "internalType": "bytes32",
          "name": "",
          "type": "bytes32"
        }
      ],
      "stateMutability": "view",
      "type": "function"
    },
    {
      "inputs": [
        {
          "internalType": "bytes32",
          "name": "role",
          "type": "bytes32"
        },
        {
          "internalType": "address",
          "name": "account",
          "type": "address"
        }
      ],
      "name": "grantRole",
      "outputs": [],
      "stateMutability": "nonpayable",
      "type": "function"
    },
    {
      "inputs": [
        {
          "internalType": "bytes32",
          "name": "role",
          "type": "bytes32"
        },
        {
          "internalType": "address",
          "name": "account",
          "type": "address"
        }
      ],
      "name": "hasRole",
      "outputs": [
        {
          "internalType": "bool",
          "name": "",
          "type": "bool"
        }
      ],
      "stateMutability": "view",
      "type": "function"
    },
    {
      "inputs": [],
      "name": "itemCount",
      "outputs": [
        {
          "internalType": "uint256",
          "name": "",
          "type": "uint256"
        }
      ],
      "stateMutability": "view",
      "type": "function"
    },
    {
      "inputs": [
        {
          "internalType": "uint256",
          "name": "auctionEnd",
          "type": "uint256"
        },
        {
          "internalType": "uint256",
          "name": "minPrice",
          "type": "uint256"
        },
        {
          "internalType": "uint256[]",
          "name": "tokenIds",
          "type": "uint256[]"
        },
        {
          "internalType": "address",
          "name": "nftToken",
          "type": "address"
        },
        {
          "internalType": "address",
          "name": "saleToken",
          "type": "address"
        }
      ],
      "name": "listItem",
      "outputs": [],
      "stateMutability": "payable",
      "type": "function"
    },
    {
      "inputs": [],
      "name": "maxAuctionTime",
      "outputs": [
        {
          "internalType": "uint256",
          "name": "",
          "type": "uint256"
        }
      ],
      "stateMutability": "view",
      "type": "function"
    },
    {
      "inputs": [],
      "name": "maxNFTCount",
      "outputs": [
        {
          "internalType": "uint256",
          "name": "",
          "type": "uint256"
        }
      ],
      "stateMutability": "view",
      "type": "function"
    },
    {
      "inputs": [
        {
          "internalType": "address",
          "name": "",
          "type": "address"
        }
      ],
      "name": "nftWhitelist",
      "outputs": [
        {
          "internalType": "bool",
          "name": "",
          "type": "bool"
        }
      ],
      "stateMutability": "view",
      "type": "function"
    },
    {
      "inputs": [
        {
          "internalType": "address",
          "name": "",
          "type": "address"
        },
        {
          "internalType": "address",
          "name": "",
          "type": "address"
        },
        {
          "internalType": "uint256",
          "name": "",
          "type": "uint256"
        },
        {
          "internalType": "bytes",
          "name": "",
          "type": "bytes"
        }
      ],
      "name": "onERC721Received",
      "outputs": [
        {
          "internalType": "bytes4",
          "name": "",
          "type": "bytes4"
        }
      ],
      "stateMutability": "nonpayable",
      "type": "function"
    },
    {
      "inputs": [
        {
          "internalType": "uint256",
          "name": "",
          "type": "uint256"
        }
      ],
      "name": "originalOwner",
      "outputs": [
        {
          "internalType": "address",
          "name": "",
          "type": "address"
        }
      ],
      "stateMutability": "view",
      "type": "function"
    },
    {
      "inputs": [],
      "name": "pause",
      "outputs": [],
      "stateMutability": "nonpayable",
      "type": "function"
    },
    {
      "inputs": [],
      "name": "paused",
      "outputs": [
        {
          "internalType": "bool",
          "name": "",
          "type": "bool"
        }
      ],
      "stateMutability": "view",
      "type": "function"
    },
    {
      "inputs": [
        {
          "internalType": "bytes32",
          "name": "role",
          "type": "bytes32"
        },
        {
          "internalType": "address",
          "name": "account",
          "type": "address"
        }
      ],
      "name": "renounceRole",
      "outputs": [],
      "stateMutability": "nonpayable",
      "type": "function"
    },
    {
      "inputs": [
        {
          "internalType": "bytes32",
          "name": "role",
          "type": "bytes32"
        },
        {
          "internalType": "address",
          "name": "account",
          "type": "address"
        }
      ],
      "name": "revokeRole",
      "outputs": [],
      "stateMutability": "nonpayable",
      "type": "function"
    },
    {
      "inputs": [
        {
          "internalType": "uint256",
          "name": "itemNumber",
          "type": "uint256"
        }
      ],
      "name": "settle",
      "outputs": [],
      "stateMutability": "nonpayable",
      "type": "function"
    },
    {
      "inputs": [
        {
          "internalType": "bytes4",
          "name": "interfaceId",
          "type": "bytes4"
        }
      ],
      "name": "supportsInterface",
      "outputs": [
        {
          "internalType": "bool",
          "name": "",
          "type": "bool"
        }
      ],
      "stateMutability": "view",
      "type": "function"
    },
    {
      "inputs": [
        {
          "internalType": "address",
          "name": "",
          "type": "address"
        }
      ],
      "name": "tokenMinIncrement",
      "outputs": [
        {
          "internalType": "uint256",
          "name": "",
          "type": "uint256"
        }
      ],
      "stateMutability": "view",
      "type": "function"
    },
    {
      "inputs": [
        {
          "internalType": "address",
          "name": "",
          "type": "address"
        }
      ],
      "name": "tokenWhitelist",
      "outputs": [
        {
          "internalType": "bool",
          "name": "",
          "type": "bool"
        }
      ],
      "stateMutability": "view",
      "type": "function"
    },
    {
      "inputs": [],
      "name": "unpause",
      "outputs": [],
      "stateMutability": "nonpayable",
      "type": "function"
    },
    {
      "inputs": [
        {
          "internalType": "address",
          "name": "token",
          "type": "address"
        },
        {
          "internalType": "bool",
          "name": "isWhitelisted",
          "type": "bool"
        }
      ],
      "name": "whitelistNFTToken",
      "outputs": [],
      "stateMutability": "nonpayable",
      "type": "function"
    },
    {
      "inputs": [
        {
          "internalType": "address",
          "name": "token",
          "type": "address"
        },
        {
          "internalType": "bool",
          "name": "isWhitelisted",
          "type": "bool"
        },
        {
          "internalType": "uint256",
          "name": "_minBidIncrement",
          "type": "uint256"
        }
      ],
      "name": "whitelistToken",
      "outputs": [],
      "stateMutability": "nonpayable",
      "type": "function"
    },
    {
      "inputs": [],
      "name": "zoombiesFee",
      "outputs": [
        {
          "internalType": "uint256",
          "name": "",
          "type": "uint256"
        }
      ],
      "stateMutability": "view",
      "type": "function"
    }
  ],
  "bytecode": "0x60806040523480156200001157600080fd5b5060405162002f7738038062002f778339810160408190526200003491620001e8565b600160009081556002805460ff1916905560056004819055600381905580546001600160a01b031916339081179091556212750060065560ff6007556200007c9190620000af565b62000089600080620000bf565b600c80546001600160a01b0319166001600160a01b039290921691909117905562000218565b620000bb828262000116565b5050565b6000620000cc83620001a3565b6000848152600160208190526040808320909101859055519192508391839186917fbd79b86ffe0ab8e8776151514217cd7cacd52c909f66475c3af44e129f0b00ff9190a4505050565b620001228282620001b9565b620000bb5760008281526001602081815260408084206001600160a01b0386168552909152909120805460ff191690911790556200015f620001e4565b6001600160a01b0316816001600160a01b0316837f2f8788117e7eff1d82e926ec794901d17c78024a50270940304540a733656f0d60405160405180910390a45050565b6000908152600160208190526040909120015490565b60009182526001602090815260408084206001600160a01b0393909316845291905290205460ff1690565b3390565b600060208284031215620001fa578081fd5b81516001600160a01b038116811462000211578182fd5b9392505050565b612d4f80620002286000396000f3fe6080604052600436106101ee5760003560e01c8063753d75631161010d578063a217fddf116100a0578063d08b18671161006f578063d08b186714610568578063d547741f1461057b578063e3c55e401461059b578063e88958dc146105bb578063f64989fe146105d0576101ee565b8063a217fddf146104f3578063a29b549a14610508578063a7f56c6414610528578063acc314ae14610548576101ee565b80638667f748116100dc5780638667f7481461047e578063869e7ebb146104935780638df82800146104b357806391d14854146104d3576101ee565b8063753d75631461041457806377e716371461043457806382f16cea146104495780638456cb5914610469576101ee565b80633f4ba83a11610185578063598647f811610154578063598647f8146103aa5780635c975abb146103bd5780636597441e146103d25780636bfb0d01146103ff576101ee565b80633f4ba83a1461033357806340bb154d1461034857806346b31b6e14610375578063518b057e14610395576101ee565b806317b47cc4116101c157806317b47cc4146102a0578063248a9ca3146102d35780632f2ff15d146102f357806336568abe14610313576101ee565b806301ffc9a7146101f0578063022300cb146102265780630feb2d1014610253578063150b7a0214610273575b005b3480156101fc57600080fd5b5061021061020b3660046121c7565b6105e5565b60405161021d9190612487565b60405180910390f35b34801561023257600080fd5b50610246610241366004612022565b610612565b60405161021d9190612492565b34801561025f57600080fd5b506101ee61026e3660046120f4565b610624565b34801561027f57600080fd5b5061029361028e36600461203c565b61067f565b60405161021d919061249b565b3480156102ac57600080fd5b506102c06102bb366004612184565b61068f565b60405161021d9796959493929190612bae565b3480156102df57600080fd5b506102466102ee366004612184565b6106dd565b3480156102ff57600080fd5b506101ee61030e36600461219c565b6106f3565b34801561031f57600080fd5b506101ee61032e36600461219c565b61071c565b34801561033f57600080fd5b506101ee610762565b34801561035457600080fd5b50610368610363366004612184565b610793565b60405161021d91906123f8565b34801561038157600080fd5b50610210610390366004612022565b6107ae565b3480156103a157600080fd5b506102466107c3565b6101ee6103b83660046121ef565b6107c9565b3480156103c957600080fd5b50610210610a7c565b3480156103de57600080fd5b506103f26103ed366004612184565b610a85565b60405161021d9190612ac9565b34801561040b57600080fd5b50610246610b55565b34801561042057600080fd5b5061021061042f366004612022565b610b5b565b34801561044057600080fd5b50610368610b70565b34801561045557600080fd5b506101ee610464366004612184565b610b7f565b34801561047557600080fd5b506101ee610bcc565b34801561048a57600080fd5b50610246610bfb565b34801561049f57600080fd5b506101ee6104ae366004612184565b610c01565b3480156104bf57600080fd5b506101ee6104ce366004612184565b610c58565b3480156104df57600080fd5b506102106104ee36600461219c565b610c91565b3480156104ff57600080fd5b50610246610cbc565b34801561051457600080fd5b506101ee610523366004612022565b610cc1565b34801561053457600080fd5b506101ee610543366004612184565b610d0a565b34801561055457600080fd5b506101ee61056336600461212a565b610d68565b6101ee610576366004612210565b610dc4565b34801561058757600080fd5b506101ee61059636600461219c565b611116565b3480156105a757600080fd5b506101ee6105b6366004612184565b611135565b3480156105c757600080fd5b5061024661118c565b3480156105dc57600080fd5b50610246611192565b60006001600160e01b03198216637965db0b60e01b148061060a575061060a82611198565b90505b919050565b60096020526000908152604090205481565b61062f600033610c91565b6106545760405162461bcd60e51b815260040161064b90612763565b60405180910390fd5b6001600160a01b03919091166000908152600a60205260409020805460ff1916911515919091179055565b630a85bd0160e11b949350505050565b600d602052600090815260409020805460018201546002830154600384015460048501546005860154600690960154949593946001600160a01b039384169492841693918216929091169087565b6000908152600160208190526040909120015490565b6106fc826106dd565b61070d816107086111b1565b6111b5565b6107178383611219565b505050565b6107246111b1565b6001600160a01b0316816001600160a01b0316146107545760405162461bcd60e51b815260040161064b906129f0565b61075e82826112a1565b5050565b61076d600033610c91565b6107895760405162461bcd60e51b815260040161064b90612763565b610791611326565b565b600b602052600090815260409020546001600160a01b031681565b600a6020526000908152604090205460ff1681565b60065481565b600260005414156107ec5760405162461bcd60e51b815260040161064b90612931565b60026000553415806107fd57503481145b6108195760405162461bcd60e51b815260040161064b906125c5565b6000828152600d60205260409020600401546001600160a01b03166108505760405162461bcd60e51b815260040161064b906128fa565b6000828152600d60205260409020600101548110156108815760405162461bcd60e51b815260040161064b906127e4565b6000828152600d6020526040902054421115806108aa57506000828152600d6020526040902054155b6108c65760405162461bcd60e51b815260040161064b9061255f565b6000828152600d60205260409020600401546001600160a01b03163314156109005760405162461bcd60e51b815260040161064b90612a83565b6000828152600d602052604090206006015415610974576000828152600d6020818152604080842060028101546001600160a01b03168552600983529084205493869052919052600601546109559190612c13565b8110156109745760405162461bcd60e51b815260040161064b9061299f565b6000828152600d6020526040902060020154610999906001600160a01b031682611394565b6000828152600d60205260409020600501546001600160a01b0316156109ed576000828152600d60205260409020600681015460058201546002909201546109ed926001600160a01b039081169116611430565b6000828152600d60205260409020600681018290556005810180546001600160a01b0319163317905554610a2457610a24826114f6565b6000828152600d6020526040908190209051339184917fc89dda33c6731f44e0ceaac4cdf122cc34f130dda4f2f2ace0630db3b6a0cafd91610a6b918691600701906124b0565b60405180910390a350506001600055565b60025460ff1690565b610a8d611f21565b6000828152600d60209081526040918290208251610100810184528154815260018201548184015260028201546001600160a01b039081168286015260038301548116606083015260048301548116608083015260058301541660a0820152600682015460c08201526007820180548551818602810186019096528086529194929360e08601939290830182828015610b4557602002820191906000526020600020905b815481526020019060010190808311610b31575b5050505050815250509050919050565b600e5481565b60086020526000908152604090205460ff1681565b6005546001600160a01b031681565b610b8a600033610c91565b610ba65760405162461bcd60e51b815260040161064b90612763565b6001811015610bc75760405162461bcd60e51b815260040161064b90612635565b600755565b610bd7600033610c91565b610bf35760405162461bcd60e51b815260040161064b90612763565b610791611890565b60045481565b610c0c600033610c91565b610c285760405162461bcd60e51b815260040161064b90612763565b60148111158015610c37575060015b610c535760405162461bcd60e51b815260040161064b9061281b565b600455565b60026000541415610c7b5760405162461bcd60e51b815260040161064b90612931565b6002600055610c89816114f6565b506001600055565b60009182526001602090815260408084206001600160a01b0393909316845291905290205460ff1690565b600081565b610ccc600033610c91565b610ce85760405162461bcd60e51b815260040161064b90612763565b600580546001600160a01b0319166001600160a01b0392909216919091179055565b610d15600033610c91565b610d315760405162461bcd60e51b815260040161064b90612763565b6224ea008111158015610d475750621275008110155b610d635760405162461bcd60e51b815260040161064b9061281b565b600655565b610d73600033610c91565b610d8f5760405162461bcd60e51b815260040161064b90612763565b6001600160a01b03929092166000908152600860209081526040808320805460ff191694151594909417909355600990522055565b60026000541415610de75760405162461bcd60e51b815260040161064b90612931565b6002600055610df4610a7c565b15610e115760405162461bcd60e51b815260040161064b906126ed565b610e1b83336118eb565b600654610e299042906119c2565b851115610e485760405162461bcd60e51b815260040161064b9061258e565b6001600160a01b03811660009081526008602052604090205460ff16610e805760405162461bcd60e51b815260040161064b906125ef565b6001600160a01b0382166000908152600a602052604090205460ff16610eb85760405162461bcd60e51b815260040161064b90612a3f565b6000835111610ed95760405162461bcd60e51b815260040161064b906127ad565b600754835110610efb5760405162461bcd60e51b815260040161064b906126a8565b60008411610f1b5760405162461bcd60e51b815260040161064b90612717565b604080516101008101825286815260208082018781526001600160a01b03808616848601908152878216606086019081523360808701908152600060a0880181815260c0890182815260e08a018e8152600e548452600d8a529a909220895181559651600188015593516002870180549187166001600160a01b03199283161790559251600387018054918716918516919091179055905160048601805491861691841691909117905591516005850180549190941691161790915551600682015592518051929392610ff49260078501920190611f8a565b5090505060005b83518110156110a057826001600160a01b031663b88d4fde333087858151811061103557634e487b7160e01b600052603260045260246000fd5b60200260200101516040518463ffffffff1660e01b815260040161105b93929190612430565b600060405180830381600087803b15801561107557600080fd5b505af1158015611089573d6000803e3d6000fd5b50505050808061109890612cc4565b915050610ffb565b50816001600160a01b0316336001600160a01b0316600e547ff2b930499b549a20135d02dffcd8b6d3a8f53814489772d7a47a8b3150b711558887868a6040516110ed9493929190612b4e565b60405180910390a4600e805490600061110583612cc4565b909155505060016000555050505050565b61111f826106dd565b61112b816107086111b1565b61071783836112a1565b611140600033610c91565b61115c5760405162461bcd60e51b815260040161064b90612763565b6014811115801561116b575060015b6111875760405162461bcd60e51b815260040161064b9061281b565b600355565b60035481565b60075481565b6001600160e01b031981166301ffc9a760e01b14919050565b3390565b6111bf8282610c91565b61075e576111d7816001600160a01b031660146119d5565b6111e28360206119d5565b6040516020016111f3929190612383565b60408051601f198184030181529082905262461bcd60e51b825261064b916004016124c9565b6112238282610c91565b61075e5760008281526001602081815260408084206001600160a01b0386168552909152909120805460ff1916909117905561125d6111b1565b6001600160a01b0316816001600160a01b0316837f2f8788117e7eff1d82e926ec794901d17c78024a50270940304540a733656f0d60405160405180910390a45050565b6112ab8282610c91565b1561075e5760008281526001602090815260408083206001600160a01b03851684529091529020805460ff191690556112e26111b1565b6001600160a01b0316816001600160a01b0316837ff6391f5c32d9c69d2a47ea670b442974b53935d1edc7fd64eb21e047a839171b60405160405180910390a45050565b61132e610a7c565b61134a5760405162461bcd60e51b815260040161064b90612531565b6002805460ff191690557f5db9ee0a495bf2e6ff9c91a7834c1ba4fdd244a5e8aa4e537bd38aeae4b073aa61137d6111b1565b60405161138a91906123f8565b60405180910390a1565b34158015906113b05750600c546001600160a01b038381169116145b1561142357600c60009054906101000a90046001600160a01b03166001600160a01b031663d0e30db0346040518263ffffffff1660e01b81526004016000604051808303818588803b15801561140557600080fd5b505af1158015611419573d6000803e3d6000fd5b505050505061075e565b8161071781333085611b87565b600c546001600160a01b03828116911614156114e457600c54604051632e1a7d4d60e01b81526001600160a01b0390911690632e1a7d4d90611476908690600401612492565b600060405180830381600087803b15801561149057600080fd5b505af11580156114a4573d6000803e3d6000fd5b50506040516001600160a01b038516925085156108fc02915085906000818181858888f193505050501580156114de573d6000803e3d6000fd5b50610717565b806114f0818486611bdf565b50505050565b6000818152600d60205260409020544210156115245760405162461bcd60e51b815260040161064b90612968565b6000818152600d60205260409020600501546001600160a01b031633148061156557506000818152600d60205260409020600401546001600160a01b031633145b6115815760405162461bcd60e51b815260040161064b90612879565b6000818152600d60205260409020600601546116db5760005b6000828152600d6020526040902060070154811015611675576000828152600d6020526040902060038101546004820154600790920180546001600160a01b039283169363b88d4fde9330939116918690811061160757634e487b7160e01b600052603260045260246000fd5b90600052602060002001546040518463ffffffff1660e01b815260040161163093929190612430565b600060405180830381600087803b15801561164a57600080fd5b505af115801561165e573d6000803e3d6000fd5b50505050808061166d90612cc4565b91505061159a565b506000818152600d6020526040808220600481015491516001600160a01b03909216929184917ff3392b8c642ed07dd5bf912c1bd3883a810e5c9076c8d275a621c9220138ad26916116ce9185916007909101906124b0565b60405180910390a461182f565b60005b6000828152600d60205260409020600701548110156117b9576000828152600d6020526040902060038101546005820154600790920180546001600160a01b039283169363b88d4fde9330939116918690811061174b57634e487b7160e01b600052603260045260246000fd5b90600052602060002001546040518463ffffffff1660e01b815260040161177493929190612430565b600060405180830381600087803b15801561178e57600080fd5b505af11580156117a2573d6000803e3d6000fd5b5050505080806117b190612cc4565b9150506116de565b506117c381611bfe565b6000818152600d60205260409081902060048101546005820154600683015493516001600160a01b0392831694929091169285927ff3392b8c642ed07dd5bf912c1bd3883a810e5c9076c8d275a621c9220138ad269261182692600701906124b0565b60405180910390a45b6000818152600d60205260408120818155600181018290556002810180546001600160a01b03199081169091556003820180548216905560048201805482169055600582018054909116905560068101829055906107176007830182611fd5565b611898610a7c565b156118b55760405162461bcd60e51b815260040161064b906126ed565b6002805460ff191660011790557f62e78cea01bee320cd4e420270b5ea74000d11b0c9f74754ebdbfc544b05a25861137d6111b1565b60005b82518110156107175760006001600160a01b0316600b600085848151811061192657634e487b7160e01b600052603260045260246000fd5b6020908102919091018101518252810191909152604001600020546001600160a01b031614156119b05781600b600085848151811061197557634e487b7160e01b600052603260045260246000fd5b6020026020010151815260200190815260200160002060006101000a8154816001600160a01b0302191690836001600160a01b031602179055505b806119ba81612cc4565b9150506118ee565b60006119ce8284612c13565b9392505050565b606060006119e4836002612c4b565b6119ef906002612c13565b67ffffffffffffffff811115611a1557634e487b7160e01b600052604160045260246000fd5b6040519080825280601f01601f191660200182016040528015611a3f576020820181803683370190505b509050600360fc1b81600081518110611a6857634e487b7160e01b600052603260045260246000fd5b60200101906001600160f81b031916908160001a905350600f60fb1b81600181518110611aa557634e487b7160e01b600052603260045260246000fd5b60200101906001600160f81b031916908160001a9053506000611ac9846002612c4b565b611ad4906001612c13565b90505b6001811115611b68576f181899199a1a9b1b9c1cb0b131b232b360811b85600f1660108110611b1657634e487b7160e01b600052603260045260246000fd5b1a60f81b828281518110611b3a57634e487b7160e01b600052603260045260246000fd5b60200101906001600160f81b031916908160001a90535060049490941c93611b6181612cad565b9050611ad7565b5083156119ce5760405162461bcd60e51b815260040161064b906124fc565b6114f0846323b872dd60e01b858585604051602401611ba89392919061240c565b60408051601f198184030181529190526020810180516001600160e01b03166001600160e01b031990931692909217909152611d58565b6107178363a9059cbb60e01b8484604051602401611ba892919061246e565b6004546000828152600d60205260408120600601549091611c2c91606491611c269190611de7565b90611df3565b6003546000848152600d602052604081206006015492935091611c5591606491611c2691611de7565b6000848152600d602052604081206006015491925090611c81908390611c7b9086611dff565b90611dff565b6005546000868152600d6020526040902060020154919250611cb19185916001600160a01b039081169116611430565b6000848152600d602052604081206007018054611d27928592600b928290611ce957634e487b7160e01b600052603260045260246000fd5b60009182526020808320909101548352828101939093526040918201812054898252600d90935220600201546001600160a01b039182169116611430565b6000848152600d6020526040902060048101546002909101546114f09183916001600160a01b039182169116611430565b6000611dad826040518060400160405280602081526020017f5361666545524332303a206c6f772d6c6576656c2063616c6c206661696c6564815250856001600160a01b0316611e0b9092919063ffffffff16565b8051909150156107175780806020019051810190611dcb9190612168565b6107175760405162461bcd60e51b815260040161064b906128b0565b60006119ce8284612c4b565b60006119ce8284612c2b565b60006119ce8284612c6a565b6060611e1a8484600085611e22565b949350505050565b606082471015611e445760405162461bcd60e51b815260040161064b90612662565b611e4d85611ee2565b611e695760405162461bcd60e51b815260040161064b90612842565b600080866001600160a01b03168587604051611e859190612367565b60006040518083038185875af1925050503d8060008114611ec2576040519150601f19603f3d011682016040523d82523d6000602084013e611ec7565b606091505b5091509150611ed7828286611ee8565b979650505050505050565b3b151590565b60608315611ef75750816119ce565b825115611f075782518084602001fd5b8160405162461bcd60e51b815260040161064b91906124c9565b604051806101000160405280600081526020016000815260200160006001600160a01b0316815260200160006001600160a01b0316815260200160006001600160a01b0316815260200160006001600160a01b0316815260200160008152602001606081525090565b828054828255906000526020600020908101928215611fc5579160200282015b82811115611fc5578251825591602001919060010190611faa565b50611fd1929150611ff6565b5090565b5080546000825590600052602060002090810190611ff39190611ff6565b50565b5b80821115611fd15760008155600101611ff7565b80356001600160a01b038116811461060d57600080fd5b600060208284031215612033578081fd5b6119ce8261200b565b60008060008060808587031215612051578283fd5b61205a8561200b565b9350602061206981870161200b565b935060408601359250606086013567ffffffffffffffff8082111561208c578384fd5b818801915088601f83011261209f578384fd5b8135818111156120b1576120b1612cf5565b6120c3601f8201601f19168501612be9565b915080825289848285010111156120d8578485fd5b8084840185840137810190920192909252939692955090935050565b60008060408385031215612106578182fd5b61210f8361200b565b9150602083013561211f81612d0b565b809150509250929050565b60008060006060848603121561213e578283fd5b6121478461200b565b9250602084013561215781612d0b565b929592945050506040919091013590565b600060208284031215612179578081fd5b81516119ce81612d0b565b600060208284031215612195578081fd5b5035919050565b600080604083850312156121ae578182fd5b823591506121be6020840161200b565b90509250929050565b6000602082840312156121d8578081fd5b81356001600160e01b0319811681146119ce578182fd5b60008060408385031215612201578182fd5b50508035926020909101359150565b600080600080600060a08688031215612227578081fd5b853594506020808701359450604087013567ffffffffffffffff8082111561224d578384fd5b818901915089601f830112612260578384fd5b81358181111561227257612272612cf5565b8381029150612282848301612be9565b8181528481019084860184860187018e101561229c578788fd5b8795505b838610156122be5780358352600195909501949186019186016122a0565b508098505050505050506122d46060870161200b565b91506122e26080870161200b565b90509295509295909350565b6001600160a01b03169052565b6000815180845260208085019450808401835b8381101561232a5781518752958201959082019060010161230e565b509495945050505050565b6000815480845260208085019450838352808320835b8381101561232a5781548752958201956001918201910161234b565b60008251612379818460208701612c81565b9190910192915050565b60007f416363657373436f6e74726f6c3a206163636f756e7420000000000000000000825283516123bb816017850160208801612c81565b7001034b99036b4b9b9b4b733903937b6329607d1b60179184019182015283516123ec816028840160208801612c81565b01602801949350505050565b6001600160a01b0391909116815260200190565b6001600160a01b039384168152919092166020820152604081019190915260600190565b6001600160a01b039384168152919092166020820152604081019190915260806060820181905260029082015261060f60f31b60a082015260c00190565b6001600160a01b03929092168252602082015260400190565b901515815260200190565b90815260200190565b6001600160e01b031991909116815260200190565b600083825260406020830152611e1a6040830184612335565b60006020825282518060208401526124e8816040850160208701612c81565b601f01601f19169190910160400192915050565b6020808252818101527f537472696e67733a20686578206c656e67746820696e73756666696369656e74604082015260600190565b60208082526014908201527314185d5cd8589b194e881b9bdd081c185d5cd95960621b604082015260600190565b60208082526015908201527413585c9ad95d0e88185d58dd1a5bdb88195b991959605a1b604082015260600190565b60208082526018908201527f4d61726b65743a2061756374696f6e20746f6f206c6f6e670000000000000000604082015260600190565b60208082526010908201526f09ac2e4d6cae874409ad2e6dac2e8c6d60831b604082015260600190565b60208082526026908201527f4d61726b65743a20455243323020636f6e7472616374206e6f742077686974656040820152651b1a5cdd195960d21b606082015260800190565b6020808252601390820152721a5b9d985b1a590813585e13919510dbdd5b9d606a1b604082015260600190565b60208082526026908201527f416464726573733a20696e73756666696369656e742062616c616e636520666f6040820152651c8818d85b1b60d21b606082015260800190565b60208082526025908201527f4d61726b65743a20746f6b656e20636f756e742065786365656473206d61782060408201526418dbdd5b9d60da1b606082015260800190565b60208082526010908201526f14185d5cd8589b194e881c185d5cd95960821b604082015260600190565b6020808252602c908201527f4d61726b65743a206d696e696d756d207072696365206d75737420626520677260408201526b06561746572207468616e20360a41b606082015260800190565b6020808252602a908201527f5a6f6f6d626965734e46543a205573657220646f6573206e6f7420686176652060408201526961646d696e20726f6c6560b01b606082015260800190565b6020808252601f908201527f4d61726b65743a2073656c656374206174206c65617374203120746f6b656e00604082015260600190565b6020808252601b908201527f4d61726b65743a2062696420756e646572206d696e2070726963650000000000604082015260600190565b6020808252600d908201526c6e6f7420696e20626f756e647360981b604082015260600190565b6020808252601d908201527f416464726573733a2063616c6c20746f206e6f6e2d636f6e7472616374000000604082015260600190565b6020808252601c908201527f4d61726b65743a206e6f7420626964646572206f722073656c6c657200000000604082015260600190565b6020808252602a908201527f5361666545524332303a204552433230206f7065726174696f6e20646964206e6040820152691bdd081cdd58d8d9595960b21b606082015260800190565b60208082526018908201527f4d61726b65743a204e6f6e206578697374696e67206269640000000000000000604082015260600190565b6020808252601f908201527f5265656e7472616e637947756172643a207265656e7472616e742063616c6c00604082015260600190565b60208082526019908201527f4d61726b65743a2061756374696f6e206e6f7420656e64656400000000000000604082015260600190565b60208082526031908201527f4d61726b65743a2062696420756e646572206869676865737420626964202b206040820152701b5a5b9a5b5d5b481a5b98dc995b595b9d607a1b606082015260800190565b6020808252602f908201527f416363657373436f6e74726f6c3a2063616e206f6e6c792072656e6f756e636560408201526e103937b632b9903337b91039b2b63360891b606082015260800190565b60208082526024908201527f4d61726b65743a204e465420636f6e7472616374206e6f742077686974656c696040820152631cdd195960e21b606082015260800190565b60208082526026908201527f4d61726b65743a2063616e6e6f7420626964206f6e20796f7572206f776e206c604082015265697374696e6760d01b606082015260800190565b6000602082528251602083015260208301516040830152604083015160018060a01b03808216606085015280606086015116608085015250506080830151612b1460a08401826122ee565b5060a0830151612b2760c08401826122ee565b5060c083015160e083015260e0830151610100808185015250611e1a6101208401826122fb565b600060808201868352602060808185015281875180845260a0860191508289019350845b81811015612b8e57845183529383019391830191600101612b72565b50506001600160a01b039690961660408501525050506060015292915050565b96875260208701959095526001600160a01b0393841660408701529183166060860152821660808501521660a083015260c082015260e00190565b60405181810167ffffffffffffffff81118282101715612c0b57612c0b612cf5565b604052919050565b60008219821115612c2657612c26612cdf565b500190565b600082612c4657634e487b7160e01b81526012600452602481fd5b500490565b6000816000190483118215151615612c6557612c65612cdf565b500290565b600082821015612c7c57612c7c612cdf565b500390565b60005b83811015612c9c578181015183820152602001612c84565b838111156114f05750506000910152565b600081612cbc57612cbc612cdf565b506000190190565b6000600019821415612cd857612cd8612cdf565b5060010190565b634e487b7160e01b600052601160045260246000fd5b634e487b7160e01b600052604160045260246000fd5b8015158114611ff357600080fdfea2646970667358221220328946155cb8f00eb630fdebc9ff5ebcb4aab7269f9ea4167a1004894ea8aa1664736f6c63430008000033",
  "linkReferences": {},
  "deployedLinkReferences": {}
}